{
  "_format": "hh-sol-artifact-1",
  "contractName": "Identity",
  "sourceName": "contracts/Identity.sol",
  "abi": [
    {
      "inputs": [
        {
          "internalType": "uint256",
          "name": "",
          "type": "uint256"
        }
      ],
      "name": "allHosts",
      "outputs": [
        {
          "internalType": "string",
          "name": "name",
          "type": "string"
        },
        {
          "internalType": "address",
          "name": "owner",
          "type": "address"
        },
        {
          "internalType": "string",
          "name": "adhaar",
          "type": "string"
        }
      ],
      "stateMutability": "view",
      "type": "function"
    },
    {
      "inputs": [
        {
          "internalType": "string",
          "name": "a",
          "type": "string"
        },
        {
          "internalType": "string",
          "name": "b",
          "type": "string"
        }
      ],
      "name": "compareStrings",
      "outputs": [
        {
          "internalType": "bool",
          "name": "",
          "type": "bool"
        }
      ],
      "stateMutability": "pure",
      "type": "function"
    },
    {
      "inputs": [
        {
          "internalType": "string",
          "name": "_adhaar",
          "type": "string"
        }
      ],
      "name": "deactivate",
      "outputs": [],
      "stateMutability": "nonpayable",
      "type": "function"
    },
    {
      "inputs": [
        {
          "internalType": "string",
          "name": "_adhaar",
          "type": "string"
        },
        {
          "internalType": "string",
          "name": "_key",
          "type": "string"
        }
      ],
      "name": "deactivateHost",
      "outputs": [],
      "stateMutability": "nonpayable",
      "type": "function"
    },
    {
      "inputs": [
        {
          "internalType": "string",
          "name": "_adhaar",
          "type": "string"
        },
        {
          "internalType": "string",
          "name": "_name",
          "type": "string"
        },
        {
          "internalType": "string",
          "name": "_key",
          "type": "string"
        }
      ],
      "name": "generateAPIKeyForHost",
      "outputs": [],
      "stateMutability": "nonpayable",
      "type": "function"
    },
    {
      "inputs": [
        {
          "internalType": "string",
          "name": "_adhaar",
          "type": "string"
        },
        {
          "internalType": "uint256",
          "name": "_today",
          "type": "uint256"
        }
      ],
      "name": "humanVerify",
      "outputs": [],
      "stateMutability": "nonpayable",
      "type": "function"
    },
    {
      "inputs": [
        {
          "internalType": "string",
          "name": "_adhaar",
          "type": "string"
        },
        {
          "internalType": "uint256",
          "name": "_expiry",
          "type": "uint256"
        }
      ],
      "name": "idCardVerify",
      "outputs": [],
      "stateMutability": "nonpayable",
      "type": "function"
    },
    {
      "inputs": [
        {
          "internalType": "string",
          "name": "_adhaar",
          "type": "string"
        }
      ],
      "name": "identityExists",
      "outputs": [
        {
          "internalType": "bool",
          "name": "",
          "type": "bool"
        }
      ],
      "stateMutability": "view",
      "type": "function"
    },
    {
      "inputs": [
        {
          "internalType": "string",
          "name": "_adhaar",
          "type": "string"
        },
        {
          "internalType": "string",
          "name": "_key",
          "type": "string"
        }
      ],
      "name": "isHostLinked",
      "outputs": [
        {
          "internalType": "bool",
          "name": "",
          "type": "bool"
        }
      ],
      "stateMutability": "view",
      "type": "function"
    },
    {
      "inputs": [
        {
          "internalType": "string",
          "name": "_adhaar",
          "type": "string"
        }
      ],
      "name": "lastHumanVerified",
      "outputs": [
        {
          "internalType": "uint256",
          "name": "",
          "type": "uint256"
        }
      ],
      "stateMutability": "view",
      "type": "function"
    },
    {
      "inputs": [
        {
          "internalType": "string",
          "name": "_adhaar",
          "type": "string"
        },
        {
          "internalType": "string",
          "name": "_key",
          "type": "string"
        }
      ],
      "name": "linkAHost",
      "outputs": [],
      "stateMutability": "nonpayable",
      "type": "function"
    },
    {
      "inputs": [
        {
          "internalType": "string",
          "name": "_adhaar",
          "type": "string"
        }
      ],
      "name": "loginIdentity",
      "outputs": [
        {
          "internalType": "bool",
          "name": "",
          "type": "bool"
        }
      ],
      "stateMutability": "view",
      "type": "function"
    },
    {
      "inputs": [
        {
          "internalType": "string",
          "name": "_adhaar",
          "type": "string"
        },
        {
          "internalType": "string",
          "name": "_key",
          "type": "string"
        }
      ],
      "name": "matchAPIKey",
      "outputs": [
        {
          "internalType": "bool",
          "name": "",
          "type": "bool"
        }
      ],
      "stateMutability": "view",
      "type": "function"
    },
    {
      "inputs": [
        {
          "internalType": "string",
          "name": "_adhaar",
          "type": "string"
        },
        {
          "internalType": "string",
          "name": "_name",
          "type": "string"
        },
        {
          "internalType": "uint256",
          "name": "_dob",
          "type": "uint256"
        },
        {
          "internalType": "string",
          "name": "_gender",
          "type": "string"
        },
        {
          "internalType": "string",
          "name": "_email",
          "type": "string"
        }
      ],
      "name": "registerIdentity",
      "outputs": [],
      "stateMutability": "nonpayable",
      "type": "function"
    },
    {
      "inputs": [
        {
          "internalType": "string",
          "name": "_adhaar",
          "type": "string"
        },
        {
          "internalType": "string[]",
          "name": "_questions",
          "type": "string[]"
        },
        {
          "internalType": "string[]",
          "name": "_answers",
          "type": "string[]"
        }
      ],
      "name": "registerSecurityQuestions",
      "outputs": [],
      "stateMutability": "nonpayable",
      "type": "function"
    },
    {
      "inputs": [
        {
          "internalType": "string",
          "name": "_adhaar",
          "type": "string"
        },
        {
          "internalType": "string",
          "name": "_key",
          "type": "string"
        }
      ],
      "name": "removeLinkedHost",
      "outputs": [
        {
          "internalType": "bool",
          "name": "",
          "type": "bool"
        }
      ],
      "stateMutability": "nonpayable",
      "type": "function"
    },
    {
      "inputs": [
        {
          "internalType": "string",
          "name": "_adhaar",
          "type": "string"
        }
      ],
      "name": "returnEmailAddress",
      "outputs": [
        {
          "internalType": "string",
          "name": "",
          "type": "string"
        }
      ],
      "stateMutability": "view",
      "type": "function"
    },
    {
      "inputs": [],
      "name": "returnHosts",
      "outputs": [
        {
          "components": [
            {
              "internalType": "string",
              "name": "name",
              "type": "string"
            },
            {
              "internalType": "address",
              "name": "owner",
              "type": "address"
            },
            {
              "internalType": "string",
              "name": "adhaar",
              "type": "string"
            }
          ],
          "internalType": "struct Identity.Hosts[]",
          "name": "",
          "type": "tuple[]"
        }
      ],
      "stateMutability": "view",
      "type": "function"
    },
    {
      "inputs": [
        {
          "internalType": "string",
          "name": "_adhaar",
          "type": "string"
        }
      ],
      "name": "returnIdExpiry",
      "outputs": [
        {
          "internalType": "uint256",
          "name": "",
          "type": "uint256"
        }
      ],
      "stateMutability": "view",
      "type": "function"
    },
    {
      "inputs": [
        {
          "internalType": "string",
          "name": "_adhaar",
          "type": "string"
        }
      ],
      "name": "returnIdentity",
      "outputs": [
        {
          "components": [
            {
              "internalType": "address",
              "name": "owner",
              "type": "address"
            },
            {
              "internalType": "string",
              "name": "name",
              "type": "string"
            },
            {
              "internalType": "uint256",
              "name": "dateOfBirth",
              "type": "uint256"
            },
            {
              "internalType": "string",
              "name": "gender",
              "type": "string"
            },
            {
              "internalType": "string",
              "name": "emailAddress",
              "type": "string"
            }
          ],
          "internalType": "struct Identity.Data",
          "name": "",
          "type": "tuple"
        }
      ],
      "stateMutability": "view",
      "type": "function"
    },
    {
      "inputs": [
        {
          "internalType": "string",
          "name": "_adhaar",
          "type": "string"
        }
      ],
      "name": "returnSecurityQuestions",
      "outputs": [
        {
          "components": [
            {
              "internalType": "string[]",
              "name": "question",
              "type": "string[]"
            },
            {
              "internalType": "string[]",
              "name": "answer",
              "type": "string[]"
            }
          ],
          "internalType": "struct Identity.SecurityQuestions",
          "name": "",
          "type": "tuple"
        }
      ],
      "stateMutability": "view",
      "type": "function"
    }
  ],
  "bytecode": "0x608060405234801561001057600080fd5b5061469d806100206000396000f3fe608060405234801561001057600080fd5b50600436106101375760003560e01c80636c275298116100b8578063b76327521161007c578063b76327521461036e578063b9ac1ce61461039e578063bed34bba146103ce578063c1df6400146103fe578063c766c2c71461042e578063e3830fe41461046057610137565b80636c275298146102a65780637472c377146102d657806391e6e8b9146102f2578063a6ccdfb514610322578063adeb404d1461035257610137565b806332f99ff7116100ff57806332f99ff7146101de57806336588df91461020e57806336f0e6641461022a57806360547f2a1461025a57806369e8c15b1461028a57610137565b80630456da351461013c5780630ffb9bca146101585780631864e7121461017657806327ee999d146101925780632ba13510146101ae575b600080fd5b61015660048036038101906101519190613435565b61047c565b005b6101606107a1565b60405161016d9190613686565b60405180910390f35b610190600480360381019061018b9190613435565b61097a565b005b6101ac60048036038101906101a791906136a8565b610be0565b005b6101c860048036038101906101c391906136a8565b610d96565b6040516101d591906137f7565b60405180910390f35b6101f860048036038101906101f391906136a8565b611112565b6040516102059190613863565b60405180910390f35b610228600480360381019061022391906138bb565b6112da565b005b610244600480360381019061023f9190613435565b611469565b6040516102519190613932565b60405180910390f35b610274600480360381019061026f9190613435565b6117dd565b6040516102819190613932565b60405180910390f35b6102a4600480360381019061029f919061394d565b611c8c565b005b6102c060048036038101906102bb91906136a8565b611e3d565b6040516102cd9190613acb565b60405180910390f35b6102f060048036038101906102eb9190613bd3565b6121d1565b005b61030c600480360381019061030791906136a8565b6123b4565b6040516103199190613932565b60405180910390f35b61033c600480360381019061033791906136a8565b61250b565b6040516103499190613c89565b60405180910390f35b61036c60048036038101906103679190613ca4565b6126c2565b005b610388600480360381019061038391906136a8565b612a45565b6040516103959190613c89565b60405180910390f35b6103b860048036038101906103b39190613435565b612bfc565b6040516103c59190613932565b60405180910390f35b6103e860048036038101906103e39190613435565b612d91565b6040516103f59190613932565b60405180910390f35b610418600480360381019061041391906136a8565b612dea565b6040516104259190613932565b60405180910390f35b61044860048036038101906104439190613d4b565b612ea9565b60405161045793929190613d87565b60405180910390f35b61047a600480360381019061047591906138bb565b613013565b005b61054d600260003373ffffffffffffffffffffffffffffffffffffffff1673ffffffffffffffffffffffffffffffffffffffff16815260200190815260200160002080546104c990613dfb565b80601f01602080910402602001604051908101604052809291908181526020018280546104f590613dfb565b80156105425780601f1061051757610100808354040283529160200191610542565b820191906000526020600020905b81548152906001019060200180831161052557829003601f168201915b505050505083612d91565b61055657600080fd5b6008816040516105669190613e68565b908152602001604051809103902060009054906101000a900460ff16156105c2576040517f08c379a00000000000000000000000000000000000000000000000000000000081526004016105b990613ecb565b60405180910390fd5b6003826040516105d29190613e68565b908152602001604051809103902060009054906101000a900460ff161561062e576040517f08c379a000000000000000000000000000000000000000000000000000000000815260040161062590613f37565b60405180910390fd5b6000805b6006846040516106429190613e68565b9081526020016040518091039020805490508110156107445761072760068560405161066e9190613e68565b9081526020016040518091039020828154811061068e5761068d613f57565b5b9060005260206000200180546106a390613dfb565b80601f01602080910402602001604051908101604052809291908181526020018280546106cf90613dfb565b801561071c5780601f106106f15761010080835404028352916020019161071c565b820191906000526020600020905b8154815290600101906020018083116106ff57829003601f168201915b505050505084612d91565b1561073157600191505b808061073c90613fb5565b915050610632565b508061079c5760068360405161075a9190613e68565b90815260200160405180910390208290806001815401808255809150506001900390600052602060002001600090919091909150908161079a91906141a9565b505b505050565b60606009805480602002602001604051908101604052809291908181526020016000905b8282101561097157838290600052602060002090600302016040518060600160405290816000820180546107f890613dfb565b80601f016020809104026020016040519081016040528092919081815260200182805461082490613dfb565b80156108715780601f1061084657610100808354040283529160200191610871565b820191906000526020600020905b81548152906001019060200180831161085457829003601f168201915b505050505081526020016001820160009054906101000a900473ffffffffffffffffffffffffffffffffffffffff1673ffffffffffffffffffffffffffffffffffffffff1673ffffffffffffffffffffffffffffffffffffffff1681526020016002820180546108e090613dfb565b80601f016020809104026020016040519081016040528092919081815260200182805461090c90613dfb565b80156109595780601f1061092e57610100808354040283529160200191610959565b820191906000526020600020905b81548152906001019060200180831161093c57829003601f168201915b505050505081525050815260200190600101906107c5565b50505050905090565b610a4b600260003373ffffffffffffffffffffffffffffffffffffffff1673ffffffffffffffffffffffffffffffffffffffff16815260200190815260200160002080546109c790613dfb565b80601f01602080910402602001604051908101604052809291908181526020018280546109f390613dfb565b8015610a405780601f10610a1557610100808354040283529160200191610a40565b820191906000526020600020905b815481529060010190602001808311610a2357829003601f168201915b505050505083612d91565b610a5457600080fd5b3373ffffffffffffffffffffffffffffffffffffffff16600782604051610a7b9190613e68565b908152602001604051809103902060010160009054906101000a900473ffffffffffffffffffffffffffffffffffffffff1673ffffffffffffffffffffffffffffffffffffffff1614610acd57600080fd5b600382604051610add9190613e68565b908152602001604051809103902060009054906101000a900460ff1615610b39576040517f08c379a0000000000000000000000000000000000000000000000000000000008152600401610b3090613f37565b60405180910390fd5b600881604051610b499190613e68565b908152602001604051809103902060009054906101000a900460ff1615610ba5576040517f08c379a0000000000000000000000000000000000000000000000000000000008152600401610b9c90613ecb565b60405180910390fd5b6001600882604051610bb79190613e68565b908152602001604051809103902060006101000a81548160ff0219169083151502179055505050565b610cb1600260003373ffffffffffffffffffffffffffffffffffffffff1673ffffffffffffffffffffffffffffffffffffffff1681526020019081526020016000208054610c2d90613dfb565b80601f0160208091040260200160405190810160405280929190818152602001828054610c5990613dfb565b8015610ca65780601f10610c7b57610100808354040283529160200191610ca6565b820191906000526020600020905b815481529060010190602001808311610c8957829003601f168201915b505050505082612d91565b610cf0576040517f08c379a0000000000000000000000000000000000000000000000000000000008152600401610ce7906142ed565b60405180910390fd5b600381604051610d009190613e68565b908152602001604051809103902060009054906101000a900460ff1615610d5c576040517f08c379a0000000000000000000000000000000000000000000000000000000008152600401610d5390613f37565b60405180910390fd5b6001600382604051610d6e9190613e68565b908152602001604051809103902060006101000a81548160ff02191690831515021790555050565b610d9e6131a2565b610e6f600260003373ffffffffffffffffffffffffffffffffffffffff1673ffffffffffffffffffffffffffffffffffffffff1681526020019081526020016000208054610deb90613dfb565b80601f0160208091040260200160405190810160405280929190818152602001828054610e1790613dfb565b8015610e645780601f10610e3957610100808354040283529160200191610e64565b820191906000526020600020905b815481529060010190602001808311610e4757829003601f168201915b505050505083612d91565b610e7857600080fd5b600382604051610e889190613e68565b908152602001604051809103902060009054906101000a900460ff1615610ee4576040517f08c379a0000000000000000000000000000000000000000000000000000000008152600401610edb90613f37565b60405180910390fd5b600182604051610ef49190613e68565b908152602001604051809103902060018084604051610f139190613e68565b908152602001604051809103902080549050610f2f919061430d565b81548110610f4057610f3f613f57565b5b906000526020600020906002020160405180604001604052908160008201805480602002602001604051908101604052809291908181526020016000905b8282101561102a578382906000526020600020018054610f9d90613dfb565b80601f0160208091040260200160405190810160405280929190818152602001828054610fc990613dfb565b80156110165780601f10610feb57610100808354040283529160200191611016565b820191906000526020600020905b815481529060010190602001808311610ff957829003601f168201915b505050505081526020019060010190610f7e565b50505050815260200160018201805480602002602001604051908101604052809291908181526020016000905b8282101561110357838290600052602060002001805461107690613dfb565b80601f01602080910402602001604051908101604052809291908181526020018280546110a290613dfb565b80156110ef5780601f106110c4576101008083540402835291602001916110ef565b820191906000526020600020905b8154815290600101906020018083116110d257829003601f168201915b505050505081526020019060010190611057565b50505050815250509050919050565b60606111e5600260003373ffffffffffffffffffffffffffffffffffffffff1673ffffffffffffffffffffffffffffffffffffffff168152602001908152602001600020805461116190613dfb565b80601f016020809104026020016040519081016040528092919081815260200182805461118d90613dfb565b80156111da5780601f106111af576101008083540402835291602001916111da565b820191906000526020600020905b8154815290600101906020018083116111bd57829003601f168201915b505050505083612d91565b611224576040517f08c379a000000000000000000000000000000000000000000000000000000000815260040161121b9061438d565b60405180910390fd5b600080836040516112359190613e68565b9081526020016040518091039020600401805461125190613dfb565b80601f016020809104026020016040519081016040528092919081815260200182805461127d90613dfb565b80156112ca5780601f1061129f576101008083540402835291602001916112ca565b820191906000526020600020905b8154815290600101906020018083116112ad57829003601f168201915b5050505050905080915050919050565b6113ab600260003373ffffffffffffffffffffffffffffffffffffffff1673ffffffffffffffffffffffffffffffffffffffff168152602001908152602001600020805461132790613dfb565b80601f016020809104026020016040519081016040528092919081815260200182805461135390613dfb565b80156113a05780601f10611375576101008083540402835291602001916113a0565b820191906000526020600020905b81548152906001019060200180831161138357829003601f168201915b505050505083612d91565b6113b457600080fd5b6003826040516113c49190613e68565b908152602001604051809103902060009054906101000a900460ff1615611420576040517f08c379a000000000000000000000000000000000000000000000000000000000815260040161141790613f37565b60405180910390fd5b6004826040516114309190613e68565b90815260200160405180910390208190806001815401808255809150506001900390600052602060002001600090919091909150555050565b600061153c600260003373ffffffffffffffffffffffffffffffffffffffff1673ffffffffffffffffffffffffffffffffffffffff16815260200190815260200160002080546114b890613dfb565b80601f01602080910402602001604051908101604052809291908181526020018280546114e490613dfb565b80156115315780601f1061150657610100808354040283529160200191611531565b820191906000526020600020905b81548152906001019060200180831161151457829003601f168201915b505050505084612d91565b61157b576040517f08c379a0000000000000000000000000000000000000000000000000000000008152600401611572906143f9565b60405180910390fd5b60038360405161158b9190613e68565b908152602001604051809103902060009054906101000a900460ff16156115e7576040517f08c379a00000000000000000000000000000000000000000000000000000000081526004016115de90613f37565b60405180910390fd5b60006006846040516115f99190613e68565b9081526020016040518091039020805490501161164b576040517f08c379a000000000000000000000000000000000000000000000000000000000815260040161164290614465565b60405180910390fd5b60088260405161165b9190613e68565b908152602001604051809103902060009054906101000a900460ff16156116b7576040517f08c379a00000000000000000000000000000000000000000000000000000000081526004016116ae90613ecb565b60405180910390fd5b60005b6006846040516116ca9190613e68565b9081526020016040518091039020805490508110156117d1576117af6006856040516116f69190613e68565b9081526020016040518091039020828154811061171657611715613f57565b5b90600052602060002001805461172b90613dfb565b80601f016020809104026020016040519081016040528092919081815260200182805461175790613dfb565b80156117a45780601f10611779576101008083540402835291602001916117a4565b820191906000526020600020905b81548152906001019060200180831161178757829003601f168201915b505050505084612d91565b156117be5760019150506117d7565b80806117c990613fb5565b9150506116ba565b50600090505b92915050565b60006118b0600260003373ffffffffffffffffffffffffffffffffffffffff1673ffffffffffffffffffffffffffffffffffffffff168152602001908152602001600020805461182c90613dfb565b80601f016020809104026020016040519081016040528092919081815260200182805461185890613dfb565b80156118a55780601f1061187a576101008083540402835291602001916118a5565b820191906000526020600020905b81548152906001019060200180831161188857829003601f168201915b505050505084612d91565b6118ef576040517f08c379a00000000000000000000000000000000000000000000000000000000081526004016118e6906143f9565b60405180910390fd5b60006006846040516119019190613e68565b90815260200160405180910390208054905011611953576040517f08c379a000000000000000000000000000000000000000000000000000000000815260040161194a90614465565b60405180910390fd5b6003836040516119639190613e68565b908152602001604051809103902060009054906101000a900460ff16156119bf576040517f08c379a00000000000000000000000000000000000000000000000000000000081526004016119b690613f37565b60405180910390fd5b6008826040516119cf9190613e68565b908152602001604051809103902060009054906101000a900460ff1615611a2b576040517f08c379a0000000000000000000000000000000000000000000000000000000008152600401611a2290613ecb565b60405180910390fd5b6000805b600685604051611a3f9190613e68565b908152602001604051809103902080549050811015611c2157611b24600686604051611a6b9190613e68565b90815260200160405180910390208281548110611a8b57611a8a613f57565b5b906000526020600020018054611aa090613dfb565b80601f0160208091040260200160405190810160405280929190818152602001828054611acc90613dfb565b8015611b195780601f10611aee57610100808354040283529160200191611b19565b820191906000526020600020905b815481529060010190602001808311611afc57829003601f168201915b505050505085612d91565b15611c0e576001915060008190505b6001600687604051611b459190613e68565b908152602001604051809103902080549050611b61919061430d565b811015611c0857600686604051611b789190613e68565b9081526020016040518091039020600182611b939190614485565b81548110611ba457611ba3613f57565b5b90600052602060002001600687604051611bbe9190613e68565b90815260200160405180910390208281548110611bde57611bdd613f57565b5b906000526020600020019081611bf491906144e4565b508080611c0090613fb5565b915050611b33565b50611c21565b8080611c1990613fb5565b915050611a2f565b5060008103611c34576000915050611c86565b600684604051611c449190613e68565b9081526020016040518091039020805480611c6257611c616145cc565b5b600190038181906000526020600020016000611c7e91906131bc565b905560019150505b92915050565b600385604051611c9c9190613e68565b908152602001604051809103902060009054906101000a900460ff1615611cf8576040517f08c379a0000000000000000000000000000000000000000000000000000000008152600401611cef90613f37565b60405180910390fd5b6040518060a001604052803373ffffffffffffffffffffffffffffffffffffffff16815260200185815260200184815260200183815260200182815250600086604051611d459190613e68565b908152602001604051809103902060008201518160000160006101000a81548173ffffffffffffffffffffffffffffffffffffffff021916908373ffffffffffffffffffffffffffffffffffffffff1602179055506020820151816001019081611daf91906141a9565b50604082015181600201556060820151816003019081611dcf91906141a9565b506080820151816004019081611de591906141a9565b5090505084600260003373ffffffffffffffffffffffffffffffffffffffff1673ffffffffffffffffffffffffffffffffffffffff1681526020019081526020016000209081611e3591906141a9565b505050505050565b611e456131fc565b611f16600260003373ffffffffffffffffffffffffffffffffffffffff1673ffffffffffffffffffffffffffffffffffffffff1681526020019081526020016000208054611e9290613dfb565b80601f0160208091040260200160405190810160405280929190818152602001828054611ebe90613dfb565b8015611f0b5780601f10611ee057610100808354040283529160200191611f0b565b820191906000526020600020905b815481529060010190602001808311611eee57829003601f168201915b505050505083612d91565b611f1f57600080fd5b600382604051611f2f9190613e68565b908152602001604051809103902060009054906101000a900460ff1615611f8b576040517f08c379a0000000000000000000000000000000000000000000000000000000008152600401611f8290613f37565b60405180910390fd5b600082604051611f9b9190613e68565b90815260200160405180910390206040518060a00160405290816000820160009054906101000a900473ffffffffffffffffffffffffffffffffffffffff1673ffffffffffffffffffffffffffffffffffffffff1673ffffffffffffffffffffffffffffffffffffffff16815260200160018201805461201a90613dfb565b80601f016020809104026020016040519081016040528092919081815260200182805461204690613dfb565b80156120935780601f1061206857610100808354040283529160200191612093565b820191906000526020600020905b81548152906001019060200180831161207657829003601f168201915b50505050508152602001600282015481526020016003820180546120b690613dfb565b80601f01602080910402602001604051908101604052809291908181526020018280546120e290613dfb565b801561212f5780601f106121045761010080835404028352916020019161212f565b820191906000526020600020905b81548152906001019060200180831161211257829003601f168201915b5050505050815260200160048201805461214890613dfb565b80601f016020809104026020016040519081016040528092919081815260200182805461217490613dfb565b80156121c15780601f10612196576101008083540402835291602001916121c1565b820191906000526020600020905b8154815290600101906020018083116121a457829003601f168201915b5050505050815250509050919050565b6122a2600260003373ffffffffffffffffffffffffffffffffffffffff1673ffffffffffffffffffffffffffffffffffffffff168152602001908152602001600020805461221e90613dfb565b80601f016020809104026020016040519081016040528092919081815260200182805461224a90613dfb565b80156122975780601f1061226c57610100808354040283529160200191612297565b820191906000526020600020905b81548152906001019060200180831161227a57829003601f168201915b505050505084612d91565b6122ab57600080fd5b6003836040516122bb9190613e68565b908152602001604051809103902060009054906101000a900460ff1615612317576040517f08c379a000000000000000000000000000000000000000000000000000000000815260040161230e90613f37565b60405180910390fd5b6001836040516123279190613e68565b90815260200160405180910390206040518060400160405280848152602001838152509080600181540180825580915050600190039060005260206000209060020201600090919091909150600082015181600001908051906020019061238f929190613241565b5060208201518160010190805190602001906123ac929190613241565b505050505050565b60006003826040516123c69190613e68565b908152602001604051809103902060009054906101000a900460ff1615612422576040517f08c379a000000000000000000000000000000000000000000000000000000000815260040161241990613f37565b60405180910390fd5b6124f3600260003373ffffffffffffffffffffffffffffffffffffffff1673ffffffffffffffffffffffffffffffffffffffff168152602001908152602001600020805461246f90613dfb565b80601f016020809104026020016040519081016040528092919081815260200182805461249b90613dfb565b80156124e85780601f106124bd576101008083540402835291602001916124e8565b820191906000526020600020905b8154815290600101906020018083116124cb57829003601f168201915b505050505083612d91565b156125015760019050612506565b600090505b919050565b60006125de600260003373ffffffffffffffffffffffffffffffffffffffff1673ffffffffffffffffffffffffffffffffffffffff168152602001908152602001600020805461255a90613dfb565b80601f016020809104026020016040519081016040528092919081815260200182805461258690613dfb565b80156125d35780601f106125a8576101008083540402835291602001916125d3565b820191906000526020600020905b8154815290600101906020018083116125b657829003601f168201915b505050505083612d91565b6125e757600080fd5b6003826040516125f79190613e68565b908152602001604051809103902060009054906101000a900460ff1615612653576040517f08c379a000000000000000000000000000000000000000000000000000000000815260040161264a90613f37565b60405180910390fd5b6005826040516126639190613e68565b908152602001604051809103902060016005846040516126839190613e68565b90815260200160405180910390208054905061269f919061430d565b815481106126b0576126af613f57565b5b90600052602060002001549050919050565b612793600260003373ffffffffffffffffffffffffffffffffffffffff1673ffffffffffffffffffffffffffffffffffffffff168152602001908152602001600020805461270f90613dfb565b80601f016020809104026020016040519081016040528092919081815260200182805461273b90613dfb565b80156127885780601f1061275d57610100808354040283529160200191612788565b820191906000526020600020905b81548152906001019060200180831161276b57829003601f168201915b505050505084612d91565b6127d2576040517f08c379a00000000000000000000000000000000000000000000000000000000081526004016127c990614647565b60405180910390fd5b6003836040516127e29190613e68565b908152602001604051809103902060009054906101000a900460ff161561283e576040517f08c379a000000000000000000000000000000000000000000000000000000000815260040161283590613f37565b60405180910390fd5b60088160405161284e9190613e68565b908152602001604051809103902060009054906101000a900460ff16156128aa576040517f08c379a00000000000000000000000000000000000000000000000000000000081526004016128a190613ecb565b60405180910390fd5b60405180606001604052808381526020013373ffffffffffffffffffffffffffffffffffffffff168152602001848152506007826040516128eb9190613e68565b9081526020016040518091039020600082015181600001908161290e91906141a9565b5060208201518160010160006101000a81548173ffffffffffffffffffffffffffffffffffffffff021916908373ffffffffffffffffffffffffffffffffffffffff160217905550604082015181600201908161296b91906141a9565b50905050600960405180606001604052808481526020013373ffffffffffffffffffffffffffffffffffffffff16815260200185815250908060018154018082558091505060019003906000526020600020906003020160009091909190915060008201518160000190816129e091906141a9565b5060208201518160010160006101000a81548173ffffffffffffffffffffffffffffffffffffffff021916908373ffffffffffffffffffffffffffffffffffffffff1602179055506040820151816002019081612a3d91906141a9565b505050505050565b6000612b18600260003373ffffffffffffffffffffffffffffffffffffffff1673ffffffffffffffffffffffffffffffffffffffff1681526020019081526020016000208054612a9490613dfb565b80601f0160208091040260200160405190810160405280929190818152602001828054612ac090613dfb565b8015612b0d5780601f10612ae257610100808354040283529160200191612b0d565b820191906000526020600020905b815481529060010190602001808311612af057829003601f168201915b505050505083612d91565b612b2157600080fd5b600382604051612b319190613e68565b908152602001604051809103902060009054906101000a900460ff1615612b8d576040517f08c379a0000000000000000000000000000000000000000000000000000000008152600401612b8490613f37565b60405180910390fd5b600482604051612b9d9190613e68565b90815260200160405180910390206001600484604051612bbd9190613e68565b908152602001604051809103902080549050612bd9919061430d565b81548110612bea57612be9613f57565b5b90600052602060002001549050919050565b6000600383604051612c0e9190613e68565b908152602001604051809103902060009054906101000a900460ff1615612c6a576040517f08c379a0000000000000000000000000000000000000000000000000000000008152600401612c6190613f37565b60405180910390fd5b600882604051612c7a9190613e68565b908152602001604051809103902060009054906101000a900460ff1615612cd6576040517f08c379a0000000000000000000000000000000000000000000000000000000008152600401612ccd90613ecb565b60405180910390fd5b612d89600783604051612ce99190613e68565b90815260200160405180910390206002018054612d0590613dfb565b80601f0160208091040260200160405190810160405280929190818152602001828054612d3190613dfb565b8015612d7e5780601f10612d5357610100808354040283529160200191612d7e565b820191906000526020600020905b815481529060010190602001808311612d6157829003601f168201915b505050505084612d91565b905092915050565b600081604051602001612da49190613e68565b6040516020818303038152906040528051906020012083604051602001612dcb9190613e68565b6040516020818303038152906040528051906020012014905092915050565b6000600382604051612dfc9190613e68565b908152602001604051809103902060009054906101000a900460ff1615612e265760009050612ea4565b6000600260003373ffffffffffffffffffffffffffffffffffffffff1673ffffffffffffffffffffffffffffffffffffffff1681526020019081526020016000208054612e7290613dfb565b9050118015612ea1575060008083604051612e8d9190613e68565b908152602001604051809103902060020154115b90505b919050565b60098181548110612eb957600080fd5b9060005260206000209060030201600091509050806000018054612edc90613dfb565b80601f0160208091040260200160405190810160405280929190818152602001828054612f0890613dfb565b8015612f555780601f10612f2a57610100808354040283529160200191612f55565b820191906000526020600020905b815481529060010190602001808311612f3857829003601f168201915b5050505050908060010160009054906101000a900473ffffffffffffffffffffffffffffffffffffffff1690806002018054612f9090613dfb565b80601f0160208091040260200160405190810160405280929190818152602001828054612fbc90613dfb565b80156130095780601f10612fde57610100808354040283529160200191613009565b820191906000526020600020905b815481529060010190602001808311612fec57829003601f168201915b5050505050905083565b6130e4600260003373ffffffffffffffffffffffffffffffffffffffff1673ffffffffffffffffffffffffffffffffffffffff168152602001908152602001600020805461306090613dfb565b80601f016020809104026020016040519081016040528092919081815260200182805461308c90613dfb565b80156130d95780601f106130ae576101008083540402835291602001916130d9565b820191906000526020600020905b8154815290600101906020018083116130bc57829003601f168201915b505050505083612d91565b6130ed57600080fd5b6003826040516130fd9190613e68565b908152602001604051809103902060009054906101000a900460ff1615613159576040517f08c379a000000000000000000000000000000000000000000000000000000000815260040161315090613f37565b60405180910390fd5b6005826040516131699190613e68565b90815260200160405180910390208190806001815401808255809150506001900390600052602060002001600090919091909150555050565b604051806040016040528060608152602001606081525090565b5080546131c890613dfb565b6000825580601f106131da57506131f9565b601f0160209004906000526020600020908101906131f8919061329a565b5b50565b6040518060a00160405280600073ffffffffffffffffffffffffffffffffffffffff168152602001606081526020016000815260200160608152602001606081525090565b828054828255906000526020600020908101928215613289579160200282015b8281111561328857825182908161327891906141a9565b5091602001919060010190613261565b5b50905061329691906132b7565b5090565b5b808211156132b357600081600090555060010161329b565b5090565b5b808211156132d757600081816132ce91906131bc565b506001016132b8565b5090565b6000604051905090565b600080fd5b600080fd5b600080fd5b600080fd5b6000601f19601f8301169050919050565b7f4e487b7100000000000000000000000000000000000000000000000000000000600052604160045260246000fd5b613342826132f9565b810181811067ffffffffffffffff821117156133615761336061330a565b5b80604052505050565b60006133746132db565b90506133808282613339565b919050565b600067ffffffffffffffff8211156133a05761339f61330a565b5b6133a9826132f9565b9050602081019050919050565b82818337600083830152505050565b60006133d86133d384613385565b61336a565b9050828152602081018484840111156133f4576133f36132f4565b5b6133ff8482856133b6565b509392505050565b600082601f83011261341c5761341b6132ef565b5b813561342c8482602086016133c5565b91505092915050565b6000806040838503121561344c5761344b6132e5565b5b600083013567ffffffffffffffff81111561346a576134696132ea565b5b61347685828601613407565b925050602083013567ffffffffffffffff811115613497576134966132ea565b5b6134a385828601613407565b9150509250929050565b600081519050919050565b600082825260208201905092915050565b6000819050602082019050919050565b600081519050919050565b600082825260208201905092915050565b60005b838110156135135780820151818401526020810190506134f8565b60008484015250505050565b600061352a826134d9565b61353481856134e4565b93506135448185602086016134f5565b61354d816132f9565b840191505092915050565b600073ffffffffffffffffffffffffffffffffffffffff82169050919050565b600061358382613558565b9050919050565b61359381613578565b82525050565b600060608301600083015184820360008601526135b6828261351f565b91505060208301516135cb602086018261358a565b50604083015184820360408601526135e3828261351f565b9150508091505092915050565b60006135fc8383613599565b905092915050565b6000602082019050919050565b600061361c826134ad565b61362681856134b8565b935083602082028501613638856134c9565b8060005b85811015613674578484038952815161365585826135f0565b945061366083613604565b925060208a0199505060018101905061363c565b50829750879550505050505092915050565b600060208201905081810360008301526136a08184613611565b905092915050565b6000602082840312156136be576136bd6132e5565b5b600082013567ffffffffffffffff8111156136dc576136db6132ea565b5b6136e884828501613407565b91505092915050565b600081519050919050565b600082825260208201905092915050565b6000819050602082019050919050565b6000613729838361351f565b905092915050565b6000602082019050919050565b6000613749826136f1565b61375381856136fc565b9350836020820285016137658561370d565b8060005b858110156137a15784840389528151613782858261371d565b945061378d83613731565b925060208a01995050600181019050613769565b50829750879550505050505092915050565b600060408301600083015184820360008601526137d0828261373e565b915050602083015184820360208601526137ea828261373e565b9150508091505092915050565b6000602082019050818103600083015261381181846137b3565b905092915050565b600082825260208201905092915050565b6000613835826134d9565b61383f8185613819565b935061384f8185602086016134f5565b613858816132f9565b840191505092915050565b6000602082019050818103600083015261387d818461382a565b905092915050565b6000819050919050565b61389881613885565b81146138a357600080fd5b50565b6000813590506138b58161388f565b92915050565b600080604083850312156138d2576138d16132e5565b5b600083013567ffffffffffffffff8111156138f0576138ef6132ea565b5b6138fc85828601613407565b925050602061390d858286016138a6565b9150509250929050565b60008115159050919050565b61392c81613917565b82525050565b60006020820190506139476000830184613923565b92915050565b600080600080600060a08688031215613969576139686132e5565b5b600086013567ffffffffffffffff811115613987576139866132ea565b5b61399388828901613407565b955050602086013567ffffffffffffffff8111156139b4576139b36132ea565b5b6139c088828901613407565b94505060406139d1888289016138a6565b935050606086013567ffffffffffffffff8111156139f2576139f16132ea565b5b6139fe88828901613407565b925050608086013567ffffffffffffffff811115613a1f57613a1e6132ea565b5b613a2b88828901613407565b9150509295509295909350565b613a4181613885565b82525050565b600060a083016000830151613a5f600086018261358a565b5060208301518482036020860152613a77828261351f565b9150506040830151613a8c6040860182613a38565b5060608301518482036060860152613aa4828261351f565b91505060808301518482036080860152613abe828261351f565b9150508091505092915050565b60006020820190508181036000830152613ae58184613a47565b905092915050565b600067ffffffffffffffff821115613b0857613b0761330a565b5b602082029050602081019050919050565b600080fd5b6000613b31613b2c84613aed565b61336a565b90508083825260208201905060208402830185811115613b5457613b53613b19565b5b835b81811015613b9b57803567ffffffffffffffff811115613b7957613b786132ef565b5b808601613b868982613407565b85526020850194505050602081019050613b56565b5050509392505050565b600082601f830112613bba57613bb96132ef565b5b8135613bca848260208601613b1e565b91505092915050565b600080600060608486031215613bec57613beb6132e5565b5b600084013567ffffffffffffffff811115613c0a57613c096132ea565b5b613c1686828701613407565b935050602084013567ffffffffffffffff811115613c3757613c366132ea565b5b613c4386828701613ba5565b925050604084013567ffffffffffffffff811115613c6457613c636132ea565b5b613c7086828701613ba5565b9150509250925092565b613c8381613885565b82525050565b6000602082019050613c9e6000830184613c7a565b92915050565b600080600060608486031215613cbd57613cbc6132e5565b5b600084013567ffffffffffffffff811115613cdb57613cda6132ea565b5b613ce786828701613407565b935050602084013567ffffffffffffffff811115613d0857613d076132ea565b5b613d1486828701613407565b925050604084013567ffffffffffffffff811115613d3557613d346132ea565b5b613d4186828701613407565b9150509250925092565b600060208284031215613d6157613d606132e5565b5b6000613d6f848285016138a6565b91505092915050565b613d8181613578565b82525050565b60006060820190508181036000830152613da1818661382a565b9050613db06020830185613d78565b8181036040830152613dc2818461382a565b9050949350505050565b7f4e487b7100000000000000000000000000000000000000000000000000000000600052602260045260246000fd5b60006002820490506001821680613e1357607f821691505b602082108103613e2657613e25613dcc565b5b50919050565b600081905092915050565b6000613e42826134d9565b613e4c8185613e2c565b9350613e5c8185602086016134f5565b80840191505092915050565b6000613e748284613e37565b915081905092915050565b7f4150492068617320616c7265616479206265656e206465616374697661746564600082015250565b6000613eb5602083613819565b9150613ec082613e7f565b602082019050919050565b60006020820190508181036000830152613ee481613ea8565b9050919050565b7f41646861617220686173206265656e2064656163746976617465640000000000600082015250565b6000613f21601b83613819565b9150613f2c82613eeb565b602082019050919050565b60006020820190508181036000830152613f5081613f14565b9050919050565b7f4e487b7100000000000000000000000000000000000000000000000000000000600052603260045260246000fd5b7f4e487b7100000000000000000000000000000000000000000000000000000000600052601160045260246000fd5b6000613fc082613885565b91507fffffffffffffffffffffffffffffffffffffffffffffffffffffffffffffffff8203613ff257613ff1613f86565b5b600182019050919050565b60008190508160005260206000209050919050565b60006020601f8301049050919050565b600082821b905092915050565b60006008830261405f7fffffffffffffffffffffffffffffffffffffffffffffffffffffffffffffffff82614022565b6140698683614022565b95508019841693508086168417925050509392505050565b6000819050919050565b60006140a66140a161409c84613885565b614081565b613885565b9050919050565b6000819050919050565b6140c08361408b565b6140d46140cc826140ad565b84845461402f565b825550505050565b600090565b6140e96140dc565b6140f48184846140b7565b505050565b5b818110156141185761410d6000826140e1565b6001810190506140fa565b5050565b601f82111561415d5761412e81613ffd565b61413784614012565b81016020851015614146578190505b61415a61415285614012565b8301826140f9565b50505b505050565b600082821c905092915050565b600061418060001984600802614162565b1980831691505092915050565b6000614199838361416f565b9150826002028217905092915050565b6141b2826134d9565b67ffffffffffffffff8111156141cb576141ca61330a565b5b6141d58254613dfb565b6141e082828561411c565b600060209050601f8311600181146142135760008415614201578287015190505b61420b858261418d565b865550614273565b601f19841661422186613ffd565b60005b8281101561424957848901518255600182019150602085019450602081019050614224565b868310156142665784890151614262601f89168261416f565b8355505b6001600288020188555050505b505050505050565b7f4164647265737320646f6573206e6f742062656c6f6e6720746f20616468616160008201527f7220686f6c646572000000000000000000000000000000000000000000000000602082015250565b60006142d7602883613819565b91506142e28261427b565b604082019050919050565b60006020820190508181036000830152614306816142ca565b9050919050565b600061431882613885565b915061432383613885565b925082820390508181111561433b5761433a613f86565b5b92915050565b7f5573657220646f6573206e6f7420657869737473210000000000000000000000600082015250565b6000614377601583613819565b915061438282614341565b602082019050919050565b600060208201905081810360008301526143a68161436a565b9050919050565b7f4964656e7469747920646f6573206e6f74206578697374000000000000000000600082015250565b60006143e3601783613819565b91506143ee826143ad565b602082019050919050565b60006020820190508181036000830152614412816143d6565b9050919050565b7f4e6f20686f737473206c696e6b65642079657421000000000000000000000000600082015250565b600061444f601483613819565b915061445a82614419565b602082019050919050565b6000602082019050818103600083015261447e81614442565b9050919050565b600061449082613885565b915061449b83613885565b92508282019050808211156144b3576144b2613f86565b5b92915050565b6000815490506144c881613dfb565b9050919050565b60008190508160005260206000209050919050565b8181036144f25750506145ca565b6144fb826144b9565b67ffffffffffffffff8111156145145761451361330a565b5b61451e8254613dfb565b61452982828561411c565b6000601f8311600181146145585760008415614546578287015490505b614550858261418d565b8655506145c3565b601f198416614566876144cf565b965061457186613ffd565b60005b8281101561459957848901548255600182019150600185019450602081019050614574565b868310156145b657848901546145b2601f89168261416f565b8355505b6001600288020188555050505b5050505050505b565b7f4e487b7100000000000000000000000000000000000000000000000000000000600052603160045260246000fd5b7f54686520686f7374206d75737420626520766572696669656421000000000000600082015250565b6000614631601a83613819565b915061463c826145fb565b602082019050919050565b6000602082019050818103600083015261466081614624565b905091905056fea26469706673582212202ae0ec80c609c0235a0d8217421d436618543ff612f35e9b99d67949f1c664b664736f6c63430008110033",
  "linkReferences": {},
  "deployedLinkReferences": {}
}