{
  "_format": "hh-sol-artifact-1",
  "contractName": "Identity",
  "sourceName": "contracts/Identity.sol",
  "abi": [
    {
      "inputs": [
        {
          "internalType": "uint256",
          "name": "",
          "type": "uint256"
        }
      ],
      "name": "allHosts",
      "outputs": [
        {
          "internalType": "string",
          "name": "name",
          "type": "string"
        },
        {
          "internalType": "address",
          "name": "owner",
          "type": "address"
        },
        {
          "internalType": "string",
          "name": "apiKey",
          "type": "string"
        }
      ],
      "stateMutability": "view",
      "type": "function"
    },
    {
      "inputs": [
        {
          "internalType": "string",
          "name": "a",
          "type": "string"
        },
        {
          "internalType": "string",
          "name": "b",
          "type": "string"
        }
      ],
      "name": "compareStrings",
      "outputs": [
        {
          "internalType": "bool",
          "name": "",
          "type": "bool"
        }
      ],
      "stateMutability": "pure",
      "type": "function"
    },
    {
      "inputs": [
        {
          "internalType": "string",
          "name": "_adhaar",
          "type": "string"
        }
      ],
      "name": "deactivate",
      "outputs": [],
      "stateMutability": "nonpayable",
      "type": "function"
    },
    {
      "inputs": [
        {
          "internalType": "string",
          "name": "_adhaar",
          "type": "string"
        },
        {
          "internalType": "string",
          "name": "_key",
          "type": "string"
        }
      ],
      "name": "deactivateHost",
      "outputs": [],
      "stateMutability": "nonpayable",
      "type": "function"
    },
    {
      "inputs": [
        {
          "internalType": "string",
          "name": "_adhaar",
          "type": "string"
        },
        {
          "internalType": "string",
          "name": "_name",
          "type": "string"
        },
        {
          "internalType": "string",
          "name": "_key",
          "type": "string"
        }
      ],
      "name": "generateAPIKeyForHost",
      "outputs": [],
      "stateMutability": "nonpayable",
      "type": "function"
    },
    {
      "inputs": [
        {
          "internalType": "string",
          "name": "_adhaar",
          "type": "string"
        },
        {
          "internalType": "uint256",
          "name": "_today",
          "type": "uint256"
        }
      ],
      "name": "humanVerify",
      "outputs": [],
      "stateMutability": "nonpayable",
      "type": "function"
    },
    {
      "inputs": [
        {
          "internalType": "string",
          "name": "_adhaar",
          "type": "string"
        },
        {
          "internalType": "uint256",
          "name": "_expiry",
          "type": "uint256"
        }
      ],
      "name": "idCardVerify",
      "outputs": [],
      "stateMutability": "nonpayable",
      "type": "function"
    },
    {
      "inputs": [
        {
          "internalType": "string",
          "name": "_adhaar",
          "type": "string"
        },
        {
          "internalType": "string",
          "name": "_key",
          "type": "string"
        }
      ],
      "name": "isHostLinked",
      "outputs": [
        {
          "internalType": "bool",
          "name": "",
          "type": "bool"
        }
      ],
      "stateMutability": "view",
      "type": "function"
    },
    {
      "inputs": [
        {
          "internalType": "string",
          "name": "_adhaar",
          "type": "string"
        }
      ],
      "name": "lastHumanVerified",
      "outputs": [
        {
          "internalType": "uint256",
          "name": "",
          "type": "uint256"
        }
      ],
      "stateMutability": "view",
      "type": "function"
    },
    {
      "inputs": [
        {
          "internalType": "string",
          "name": "_adhaar",
          "type": "string"
        },
        {
          "internalType": "string",
          "name": "_key",
          "type": "string"
        }
      ],
      "name": "linkAHost",
      "outputs": [],
      "stateMutability": "nonpayable",
      "type": "function"
    },
    {
      "inputs": [
        {
          "internalType": "string",
          "name": "_adhaar",
          "type": "string"
        }
      ],
      "name": "loginIdentity",
      "outputs": [
        {
          "internalType": "string",
          "name": "",
          "type": "string"
        }
      ],
      "stateMutability": "view",
      "type": "function"
    },
    {
      "inputs": [
        {
          "internalType": "string",
          "name": "_adhaar",
          "type": "string"
        },
        {
          "internalType": "string",
          "name": "_name",
          "type": "string"
        },
        {
          "internalType": "uint256",
          "name": "_dob",
          "type": "uint256"
        },
        {
          "internalType": "string",
          "name": "_gender",
          "type": "string"
        },
        {
          "internalType": "string",
          "name": "_email",
          "type": "string"
        },
        {
          "internalType": "string",
          "name": "_hashedPwd",
          "type": "string"
        }
      ],
      "name": "registerIdentity",
      "outputs": [],
      "stateMutability": "nonpayable",
      "type": "function"
    },
    {
      "inputs": [
        {
          "internalType": "string",
          "name": "_adhaar",
          "type": "string"
        },
        {
          "internalType": "string",
          "name": "_key",
          "type": "string"
        }
      ],
      "name": "removeLinkedHost",
      "outputs": [
        {
          "internalType": "bool",
          "name": "",
          "type": "bool"
        }
      ],
      "stateMutability": "nonpayable",
      "type": "function"
    },
    {
      "inputs": [],
      "name": "returnHosts",
      "outputs": [
        {
          "components": [
            {
              "internalType": "string",
              "name": "name",
              "type": "string"
            },
            {
              "internalType": "address",
              "name": "owner",
              "type": "address"
            },
            {
              "internalType": "string",
              "name": "apiKey",
              "type": "string"
            }
          ],
          "internalType": "struct Identity.Hosts[]",
          "name": "",
          "type": "tuple[]"
        }
      ],
      "stateMutability": "view",
      "type": "function"
    },
    {
      "inputs": [
        {
          "internalType": "string",
          "name": "_adhaar",
          "type": "string"
        }
      ],
      "name": "returnIdExpiry",
      "outputs": [
        {
          "internalType": "uint256",
          "name": "",
          "type": "uint256"
        }
      ],
      "stateMutability": "view",
      "type": "function"
    },
    {
      "inputs": [
        {
          "internalType": "string",
          "name": "_adhaar",
          "type": "string"
        }
      ],
      "name": "returnIdentity",
      "outputs": [
        {
          "components": [
            {
              "internalType": "address",
              "name": "owner",
              "type": "address"
            },
            {
              "internalType": "string",
              "name": "name",
              "type": "string"
            },
            {
              "internalType": "uint256",
              "name": "dateOfBirth",
              "type": "uint256"
            },
            {
              "internalType": "string",
              "name": "gender",
              "type": "string"
            },
            {
              "internalType": "string",
              "name": "emailAddress",
              "type": "string"
            },
            {
              "internalType": "string",
              "name": "hashedPwd",
              "type": "string"
            }
          ],
          "internalType": "struct Identity.Data",
          "name": "",
          "type": "tuple"
        }
      ],
      "stateMutability": "view",
      "type": "function"
    }
  ],
  "bytecode": "0x608060405234801561001057600080fd5b50613aaa806100206000396000f3fe608060405234801561001057600080fd5b50600436106101005760003560e01c80636c27529811610097578063b763275211610066578063b7632752146102bb578063bed34bba146102eb578063c766c2c71461031b578063e3830fe41461034d57610100565b80636c2752981461020f57806391e6e8b91461023f578063a6ccdfb51461026f578063adeb404d1461029f57610100565b806336588df9116100d357806336588df91461017757806336f0e664146101935780633c826310146101c357806360547f2a146101df57610100565b80630456da35146101055780630ffb9bca146101215780631864e7121461013f57806327ee999d1461015b575b600080fd5b61011f600480360381019061011a9190612a1d565b610369565b005b610129610570565b6040516101369190612c6e565b60405180910390f35b61015960048036038101906101549190612a1d565b610749565b005b61017560048036038101906101709190612c90565b6109af565b005b610191600480360381019061018c9190612d0f565b610b65565b005b6101ad60048036038101906101a89190612a1d565b610cf4565b6040516101ba9190612d86565b60405180910390f35b6101dd60048036038101906101d89190612da1565b611068565b005b6101f960048036038101906101f49190612a1d565b61133f565b6040516102069190612d86565b60405180910390f35b61022960048036038101906102249190612c90565b6117ee565b6040516102369190612f67565b60405180910390f35b61025960048036038101906102549190612c90565b611c14565b6040516102669190612fd3565b60405180910390f35b61028960048036038101906102849190612c90565b611dd7565b6040516102969190613004565b60405180910390f35b6102b960048036038101906102b4919061301f565b611f8e565b005b6102d560048036038101906102d09190612c90565b612311565b6040516102e29190613004565b60405180910390f35b61030560048036038101906103009190612a1d565b6124c8565b6040516103129190612d86565b60405180910390f35b610335600480360381019061033091906130c6565b612521565b60405161034493929190613102565b60405180910390f35b61036760048036038101906103629190612d0f565b61268b565b005b61043a600160003373ffffffffffffffffffffffffffffffffffffffff1673ffffffffffffffffffffffffffffffffffffffff16815260200190815260200160002080546103b690613176565b80601f01602080910402602001604051908101604052809291908181526020018280546103e290613176565b801561042f5780601f106104045761010080835404028352916020019161042f565b820191906000526020600020905b81548152906001019060200180831161041257829003601f168201915b5050505050836124c8565b61044357600080fd5b60078160405161045391906131e3565b908152602001604051809103902060009054906101000a900460ff16156104af576040517f08c379a00000000000000000000000000000000000000000000000000000000081526004016104a690613246565b60405180910390fd5b6002826040516104bf91906131e3565b908152602001604051809103902060009054906101000a900460ff161561051b576040517f08c379a0000000000000000000000000000000000000000000000000000000008152600401610512906132b2565b60405180910390fd5b60058260405161052b91906131e3565b90815260200160405180910390208190806001815401808255809150506001900390600052602060002001600090919091909150908161056b919061347e565b505050565b60606008805480602002602001604051908101604052809291908181526020016000905b8282101561074057838290600052602060002090600302016040518060600160405290816000820180546105c790613176565b80601f01602080910402602001604051908101604052809291908181526020018280546105f390613176565b80156106405780601f1061061557610100808354040283529160200191610640565b820191906000526020600020905b81548152906001019060200180831161062357829003601f168201915b505050505081526020016001820160009054906101000a900473ffffffffffffffffffffffffffffffffffffffff1673ffffffffffffffffffffffffffffffffffffffff1673ffffffffffffffffffffffffffffffffffffffff1681526020016002820180546106af90613176565b80601f01602080910402602001604051908101604052809291908181526020018280546106db90613176565b80156107285780601f106106fd57610100808354040283529160200191610728565b820191906000526020600020905b81548152906001019060200180831161070b57829003601f168201915b50505050508152505081526020019060010190610594565b50505050905090565b61081a600160003373ffffffffffffffffffffffffffffffffffffffff1673ffffffffffffffffffffffffffffffffffffffff168152602001908152602001600020805461079690613176565b80601f01602080910402602001604051908101604052809291908181526020018280546107c290613176565b801561080f5780601f106107e45761010080835404028352916020019161080f565b820191906000526020600020905b8154815290600101906020018083116107f257829003601f168201915b5050505050836124c8565b61082357600080fd5b3373ffffffffffffffffffffffffffffffffffffffff1660068260405161084a91906131e3565b908152602001604051809103902060010160009054906101000a900473ffffffffffffffffffffffffffffffffffffffff1673ffffffffffffffffffffffffffffffffffffffff161461089c57600080fd5b6002826040516108ac91906131e3565b908152602001604051809103902060009054906101000a900460ff1615610908576040517f08c379a00000000000000000000000000000000000000000000000000000000081526004016108ff906132b2565b60405180910390fd5b60078160405161091891906131e3565b908152602001604051809103902060009054906101000a900460ff1615610974576040517f08c379a000000000000000000000000000000000000000000000000000000000815260040161096b90613246565b60405180910390fd5b600160078260405161098691906131e3565b908152602001604051809103902060006101000a81548160ff0219169083151502179055505050565b610a80600160003373ffffffffffffffffffffffffffffffffffffffff1673ffffffffffffffffffffffffffffffffffffffff16815260200190815260200160002080546109fc90613176565b80601f0160208091040260200160405190810160405280929190818152602001828054610a2890613176565b8015610a755780601f10610a4a57610100808354040283529160200191610a75565b820191906000526020600020905b815481529060010190602001808311610a5857829003601f168201915b5050505050826124c8565b610abf576040517f08c379a0000000000000000000000000000000000000000000000000000000008152600401610ab6906135c2565b60405180910390fd5b600281604051610acf91906131e3565b908152602001604051809103902060009054906101000a900460ff1615610b2b576040517f08c379a0000000000000000000000000000000000000000000000000000000008152600401610b22906132b2565b60405180910390fd5b6001600282604051610b3d91906131e3565b908152602001604051809103902060006101000a81548160ff02191690831515021790555050565b610c36600160003373ffffffffffffffffffffffffffffffffffffffff1673ffffffffffffffffffffffffffffffffffffffff1681526020019081526020016000208054610bb290613176565b80601f0160208091040260200160405190810160405280929190818152602001828054610bde90613176565b8015610c2b5780601f10610c0057610100808354040283529160200191610c2b565b820191906000526020600020905b815481529060010190602001808311610c0e57829003601f168201915b5050505050836124c8565b610c3f57600080fd5b600282604051610c4f91906131e3565b908152602001604051809103902060009054906101000a900460ff1615610cab576040517f08c379a0000000000000000000000000000000000000000000000000000000008152600401610ca2906132b2565b60405180910390fd5b600382604051610cbb91906131e3565b90815260200160405180910390208190806001815401808255809150506001900390600052602060002001600090919091909150555050565b6000610dc7600160003373ffffffffffffffffffffffffffffffffffffffff1673ffffffffffffffffffffffffffffffffffffffff1681526020019081526020016000208054610d4390613176565b80601f0160208091040260200160405190810160405280929190818152602001828054610d6f90613176565b8015610dbc5780601f10610d9157610100808354040283529160200191610dbc565b820191906000526020600020905b815481529060010190602001808311610d9f57829003601f168201915b5050505050846124c8565b610e06576040517f08c379a0000000000000000000000000000000000000000000000000000000008152600401610dfd9061362e565b60405180910390fd5b600283604051610e1691906131e3565b908152602001604051809103902060009054906101000a900460ff1615610e72576040517f08c379a0000000000000000000000000000000000000000000000000000000008152600401610e69906132b2565b60405180910390fd5b6000600584604051610e8491906131e3565b90815260200160405180910390208054905011610ed6576040517f08c379a0000000000000000000000000000000000000000000000000000000008152600401610ecd9061369a565b60405180910390fd5b600782604051610ee691906131e3565b908152602001604051809103902060009054906101000a900460ff1615610f42576040517f08c379a0000000000000000000000000000000000000000000000000000000008152600401610f3990613246565b60405180910390fd5b60005b600584604051610f5591906131e3565b90815260200160405180910390208054905081101561105c5761103a600585604051610f8191906131e3565b90815260200160405180910390208281548110610fa157610fa06136ba565b5b906000526020600020018054610fb690613176565b80601f0160208091040260200160405190810160405280929190818152602001828054610fe290613176565b801561102f5780601f106110045761010080835404028352916020019161102f565b820191906000526020600020905b81548152906001019060200180831161101257829003601f168201915b5050505050846124c8565b15611049576001915050611062565b808061105490613718565b915050610f45565b50600090505b92915050565b611139600160003373ffffffffffffffffffffffffffffffffffffffff1673ffffffffffffffffffffffffffffffffffffffff16815260200190815260200160002080546110b590613176565b80601f01602080910402602001604051908101604052809291908181526020018280546110e190613176565b801561112e5780601f106111035761010080835404028352916020019161112e565b820191906000526020600020905b81548152906001019060200180831161111157829003601f168201915b5050505050876124c8565b15611179576040517f08c379a0000000000000000000000000000000000000000000000000000000008152600401611170906137ac565b60405180910390fd5b6000808760405161118a91906131e3565b90815260200160405180910390206002015411156111dd576040517f08c379a00000000000000000000000000000000000000000000000000000000081526004016111d4906137ac565b60405180910390fd5b6040518060c001604052803373ffffffffffffffffffffffffffffffffffffffff1681526020018681526020018581526020018481526020018381526020018281525060008760405161123091906131e3565b908152602001604051809103902060008201518160000160006101000a81548173ffffffffffffffffffffffffffffffffffffffff021916908373ffffffffffffffffffffffffffffffffffffffff160217905550602082015181600101908161129a919061347e565b506040820151816002015560608201518160030190816112ba919061347e565b5060808201518160040190816112d0919061347e565b5060a08201518160050190816112e6919061347e565b5090505085600160003373ffffffffffffffffffffffffffffffffffffffff1673ffffffffffffffffffffffffffffffffffffffff1681526020019081526020016000209081611336919061347e565b50505050505050565b6000611412600160003373ffffffffffffffffffffffffffffffffffffffff1673ffffffffffffffffffffffffffffffffffffffff168152602001908152602001600020805461138e90613176565b80601f01602080910402602001604051908101604052809291908181526020018280546113ba90613176565b80156114075780601f106113dc57610100808354040283529160200191611407565b820191906000526020600020905b8154815290600101906020018083116113ea57829003601f168201915b5050505050846124c8565b611451576040517f08c379a00000000000000000000000000000000000000000000000000000000081526004016114489061362e565b60405180910390fd5b600060058460405161146391906131e3565b908152602001604051809103902080549050116114b5576040517f08c379a00000000000000000000000000000000000000000000000000000000081526004016114ac9061369a565b60405180910390fd5b6002836040516114c591906131e3565b908152602001604051809103902060009054906101000a900460ff1615611521576040517f08c379a0000000000000000000000000000000000000000000000000000000008152600401611518906132b2565b60405180910390fd5b60078260405161153191906131e3565b908152602001604051809103902060009054906101000a900460ff161561158d576040517f08c379a000000000000000000000000000000000000000000000000000000000815260040161158490613246565b60405180910390fd5b6000805b6005856040516115a191906131e3565b908152602001604051809103902080549050811015611783576116866005866040516115cd91906131e3565b908152602001604051809103902082815481106115ed576115ec6136ba565b5b90600052602060002001805461160290613176565b80601f016020809104026020016040519081016040528092919081815260200182805461162e90613176565b801561167b5780601f106116505761010080835404028352916020019161167b565b820191906000526020600020905b81548152906001019060200180831161165e57829003601f168201915b5050505050856124c8565b15611770576001915060008190505b60016005876040516116a791906131e3565b9081526020016040518091039020805490506116c391906137cc565b81101561176a576005866040516116da91906131e3565b90815260200160405180910390206001826116f59190613800565b81548110611706576117056136ba565b5b9060005260206000200160058760405161172091906131e3565b908152602001604051809103902082815481106117405761173f6136ba565b5b906000526020600020019081611756919061385f565b50808061176290613718565b915050611695565b50611783565b808061177b90613718565b915050611591565b50600081036117965760009150506117e8565b6005846040516117a691906131e3565b90815260200160405180910390208054806117c4576117c3613947565b5b6001900381819060005260206000200160006117e0919061281a565b905560019150505b92915050565b6117f661285a565b6118c7600160003373ffffffffffffffffffffffffffffffffffffffff1673ffffffffffffffffffffffffffffffffffffffff168152602001908152602001600020805461184390613176565b80601f016020809104026020016040519081016040528092919081815260200182805461186f90613176565b80156118bc5780601f10611891576101008083540402835291602001916118bc565b820191906000526020600020905b81548152906001019060200180831161189f57829003601f168201915b5050505050836124c8565b6118d057600080fd5b6002826040516118e091906131e3565b908152602001604051809103902060009054906101000a900460ff161561193c576040517f08c379a0000000000000000000000000000000000000000000000000000000008152600401611933906132b2565b60405180910390fd5b60008260405161194c91906131e3565b90815260200160405180910390206040518060c00160405290816000820160009054906101000a900473ffffffffffffffffffffffffffffffffffffffff1673ffffffffffffffffffffffffffffffffffffffff1673ffffffffffffffffffffffffffffffffffffffff1681526020016001820180546119cb90613176565b80601f01602080910402602001604051908101604052809291908181526020018280546119f790613176565b8015611a445780601f10611a1957610100808354040283529160200191611a44565b820191906000526020600020905b815481529060010190602001808311611a2757829003601f168201915b5050505050815260200160028201548152602001600382018054611a6790613176565b80601f0160208091040260200160405190810160405280929190818152602001828054611a9390613176565b8015611ae05780601f10611ab557610100808354040283529160200191611ae0565b820191906000526020600020905b815481529060010190602001808311611ac357829003601f168201915b50505050508152602001600482018054611af990613176565b80601f0160208091040260200160405190810160405280929190818152602001828054611b2590613176565b8015611b725780601f10611b4757610100808354040283529160200191611b72565b820191906000526020600020905b815481529060010190602001808311611b5557829003601f168201915b50505050508152602001600582018054611b8b90613176565b80601f0160208091040260200160405190810160405280929190818152602001828054611bb790613176565b8015611c045780601f10611bd957610100808354040283529160200191611c04565b820191906000526020600020905b815481529060010190602001808311611be757829003601f168201915b5050505050815250509050919050565b6060611ce7600160003373ffffffffffffffffffffffffffffffffffffffff1673ffffffffffffffffffffffffffffffffffffffff1681526020019081526020016000208054611c6390613176565b80601f0160208091040260200160405190810160405280929190818152602001828054611c8f90613176565b8015611cdc5780601f10611cb157610100808354040283529160200191611cdc565b820191906000526020600020905b815481529060010190602001808311611cbf57829003601f168201915b5050505050836124c8565b611d26576040517f08c379a0000000000000000000000000000000000000000000000000000000008152600401611d1d906139e8565b60405180910390fd5b600082604051611d3691906131e3565b90815260200160405180910390206005018054611d5290613176565b80601f0160208091040260200160405190810160405280929190818152602001828054611d7e90613176565b8015611dcb5780601f10611da057610100808354040283529160200191611dcb565b820191906000526020600020905b815481529060010190602001808311611dae57829003601f168201915b50505050509050919050565b6000611eaa600160003373ffffffffffffffffffffffffffffffffffffffff1673ffffffffffffffffffffffffffffffffffffffff1681526020019081526020016000208054611e2690613176565b80601f0160208091040260200160405190810160405280929190818152602001828054611e5290613176565b8015611e9f5780601f10611e7457610100808354040283529160200191611e9f565b820191906000526020600020905b815481529060010190602001808311611e8257829003601f168201915b5050505050836124c8565b611eb357600080fd5b600282604051611ec391906131e3565b908152602001604051809103902060009054906101000a900460ff1615611f1f576040517f08c379a0000000000000000000000000000000000000000000000000000000008152600401611f16906132b2565b60405180910390fd5b600482604051611f2f91906131e3565b90815260200160405180910390206001600484604051611f4f91906131e3565b908152602001604051809103902080549050611f6b91906137cc565b81548110611f7c57611f7b6136ba565b5b90600052602060002001549050919050565b61205f600160003373ffffffffffffffffffffffffffffffffffffffff1673ffffffffffffffffffffffffffffffffffffffff1681526020019081526020016000208054611fdb90613176565b80601f016020809104026020016040519081016040528092919081815260200182805461200790613176565b80156120545780601f1061202957610100808354040283529160200191612054565b820191906000526020600020905b81548152906001019060200180831161203757829003601f168201915b5050505050846124c8565b61209e576040517f08c379a000000000000000000000000000000000000000000000000000000000815260040161209590613a54565b60405180910390fd5b6002836040516120ae91906131e3565b908152602001604051809103902060009054906101000a900460ff161561210a576040517f08c379a0000000000000000000000000000000000000000000000000000000008152600401612101906132b2565b60405180910390fd5b60078160405161211a91906131e3565b908152602001604051809103902060009054906101000a900460ff1615612176576040517f08c379a000000000000000000000000000000000000000000000000000000000815260040161216d90613246565b60405180910390fd5b60405180606001604052808381526020013373ffffffffffffffffffffffffffffffffffffffff168152602001828152506006826040516121b791906131e3565b908152602001604051809103902060008201518160000190816121da919061347e565b5060208201518160010160006101000a81548173ffffffffffffffffffffffffffffffffffffffff021916908373ffffffffffffffffffffffffffffffffffffffff1602179055506040820151816002019081612237919061347e565b50905050600860405180606001604052808481526020013373ffffffffffffffffffffffffffffffffffffffff16815260200183815250908060018154018082558091505060019003906000526020600020906003020160009091909190915060008201518160000190816122ac919061347e565b5060208201518160010160006101000a81548173ffffffffffffffffffffffffffffffffffffffff021916908373ffffffffffffffffffffffffffffffffffffffff1602179055506040820151816002019081612309919061347e565b505050505050565b60006123e4600160003373ffffffffffffffffffffffffffffffffffffffff1673ffffffffffffffffffffffffffffffffffffffff168152602001908152602001600020805461236090613176565b80601f016020809104026020016040519081016040528092919081815260200182805461238c90613176565b80156123d95780601f106123ae576101008083540402835291602001916123d9565b820191906000526020600020905b8154815290600101906020018083116123bc57829003601f168201915b5050505050836124c8565b6123ed57600080fd5b6002826040516123fd91906131e3565b908152602001604051809103902060009054906101000a900460ff1615612459576040517f08c379a0000000000000000000000000000000000000000000000000000000008152600401612450906132b2565b60405180910390fd5b60038260405161246991906131e3565b9081526020016040518091039020600160038460405161248991906131e3565b9081526020016040518091039020805490506124a591906137cc565b815481106124b6576124b56136ba565b5b90600052602060002001549050919050565b6000816040516020016124db91906131e3565b604051602081830303815290604052805190602001208360405160200161250291906131e3565b6040516020818303038152906040528051906020012014905092915050565b6008818154811061253157600080fd5b906000526020600020906003020160009150905080600001805461255490613176565b80601f016020809104026020016040519081016040528092919081815260200182805461258090613176565b80156125cd5780601f106125a2576101008083540402835291602001916125cd565b820191906000526020600020905b8154815290600101906020018083116125b057829003601f168201915b5050505050908060010160009054906101000a900473ffffffffffffffffffffffffffffffffffffffff169080600201805461260890613176565b80601f016020809104026020016040519081016040528092919081815260200182805461263490613176565b80156126815780601f1061265657610100808354040283529160200191612681565b820191906000526020600020905b81548152906001019060200180831161266457829003601f168201915b5050505050905083565b61275c600160003373ffffffffffffffffffffffffffffffffffffffff1673ffffffffffffffffffffffffffffffffffffffff16815260200190815260200160002080546126d890613176565b80601f016020809104026020016040519081016040528092919081815260200182805461270490613176565b80156127515780601f1061272657610100808354040283529160200191612751565b820191906000526020600020905b81548152906001019060200180831161273457829003601f168201915b5050505050836124c8565b61276557600080fd5b60028260405161277591906131e3565b908152602001604051809103902060009054906101000a900460ff16156127d1576040517f08c379a00000000000000000000000000000000000000000000000000000000081526004016127c8906132b2565b60405180910390fd5b6004826040516127e191906131e3565b90815260200160405180910390208190806001815401808255809150506001900390600052602060002001600090919091909150555050565b50805461282690613176565b6000825580601f106128385750612857565b601f01602090049060005260206000209081019061285691906128a6565b5b50565b6040518060c00160405280600073ffffffffffffffffffffffffffffffffffffffff16815260200160608152602001600081526020016060815260200160608152602001606081525090565b5b808211156128bf5760008160009055506001016128a7565b5090565b6000604051905090565b600080fd5b600080fd5b600080fd5b600080fd5b6000601f19601f8301169050919050565b7f4e487b7100000000000000000000000000000000000000000000000000000000600052604160045260246000fd5b61292a826128e1565b810181811067ffffffffffffffff82111715612949576129486128f2565b5b80604052505050565b600061295c6128c3565b90506129688282612921565b919050565b600067ffffffffffffffff821115612988576129876128f2565b5b612991826128e1565b9050602081019050919050565b82818337600083830152505050565b60006129c06129bb8461296d565b612952565b9050828152602081018484840111156129dc576129db6128dc565b5b6129e784828561299e565b509392505050565b600082601f830112612a0457612a036128d7565b5b8135612a148482602086016129ad565b91505092915050565b60008060408385031215612a3457612a336128cd565b5b600083013567ffffffffffffffff811115612a5257612a516128d2565b5b612a5e858286016129ef565b925050602083013567ffffffffffffffff811115612a7f57612a7e6128d2565b5b612a8b858286016129ef565b9150509250929050565b600081519050919050565b600082825260208201905092915050565b6000819050602082019050919050565b600081519050919050565b600082825260208201905092915050565b60005b83811015612afb578082015181840152602081019050612ae0565b60008484015250505050565b6000612b1282612ac1565b612b1c8185612acc565b9350612b2c818560208601612add565b612b35816128e1565b840191505092915050565b600073ffffffffffffffffffffffffffffffffffffffff82169050919050565b6000612b6b82612b40565b9050919050565b612b7b81612b60565b82525050565b60006060830160008301518482036000860152612b9e8282612b07565b9150506020830151612bb36020860182612b72565b5060408301518482036040860152612bcb8282612b07565b9150508091505092915050565b6000612be48383612b81565b905092915050565b6000602082019050919050565b6000612c0482612a95565b612c0e8185612aa0565b935083602082028501612c2085612ab1565b8060005b85811015612c5c5784840389528151612c3d8582612bd8565b9450612c4883612bec565b925060208a01995050600181019050612c24565b50829750879550505050505092915050565b60006020820190508181036000830152612c888184612bf9565b905092915050565b600060208284031215612ca657612ca56128cd565b5b600082013567ffffffffffffffff811115612cc457612cc36128d2565b5b612cd0848285016129ef565b91505092915050565b6000819050919050565b612cec81612cd9565b8114612cf757600080fd5b50565b600081359050612d0981612ce3565b92915050565b60008060408385031215612d2657612d256128cd565b5b600083013567ffffffffffffffff811115612d4457612d436128d2565b5b612d50858286016129ef565b9250506020612d6185828601612cfa565b9150509250929050565b60008115159050919050565b612d8081612d6b565b82525050565b6000602082019050612d9b6000830184612d77565b92915050565b60008060008060008060c08789031215612dbe57612dbd6128cd565b5b600087013567ffffffffffffffff811115612ddc57612ddb6128d2565b5b612de889828a016129ef565b965050602087013567ffffffffffffffff811115612e0957612e086128d2565b5b612e1589828a016129ef565b9550506040612e2689828a01612cfa565b945050606087013567ffffffffffffffff811115612e4757612e466128d2565b5b612e5389828a016129ef565b935050608087013567ffffffffffffffff811115612e7457612e736128d2565b5b612e8089828a016129ef565b92505060a087013567ffffffffffffffff811115612ea157612ea06128d2565b5b612ead89828a016129ef565b9150509295509295509295565b612ec381612cd9565b82525050565b600060c083016000830151612ee16000860182612b72565b5060208301518482036020860152612ef98282612b07565b9150506040830151612f0e6040860182612eba565b5060608301518482036060860152612f268282612b07565b91505060808301518482036080860152612f408282612b07565b91505060a083015184820360a0860152612f5a8282612b07565b9150508091505092915050565b60006020820190508181036000830152612f818184612ec9565b905092915050565b600082825260208201905092915050565b6000612fa582612ac1565b612faf8185612f89565b9350612fbf818560208601612add565b612fc8816128e1565b840191505092915050565b60006020820190508181036000830152612fed8184612f9a565b905092915050565b612ffe81612cd9565b82525050565b60006020820190506130196000830184612ff5565b92915050565b600080600060608486031215613038576130376128cd565b5b600084013567ffffffffffffffff811115613056576130556128d2565b5b613062868287016129ef565b935050602084013567ffffffffffffffff811115613083576130826128d2565b5b61308f868287016129ef565b925050604084013567ffffffffffffffff8111156130b0576130af6128d2565b5b6130bc868287016129ef565b9150509250925092565b6000602082840312156130dc576130db6128cd565b5b60006130ea84828501612cfa565b91505092915050565b6130fc81612b60565b82525050565b6000606082019050818103600083015261311c8186612f9a565b905061312b60208301856130f3565b818103604083015261313d8184612f9a565b9050949350505050565b7f4e487b7100000000000000000000000000000000000000000000000000000000600052602260045260246000fd5b6000600282049050600182168061318e57607f821691505b6020821081036131a1576131a0613147565b5b50919050565b600081905092915050565b60006131bd82612ac1565b6131c781856131a7565b93506131d7818560208601612add565b80840191505092915050565b60006131ef82846131b2565b915081905092915050565b7f4150492068617320616c7265616479206265656e206465616374697661746564600082015250565b6000613230602083612f89565b915061323b826131fa565b602082019050919050565b6000602082019050818103600083015261325f81613223565b9050919050565b7f41646861617220686173206265656e2064656163746976617465640000000000600082015250565b600061329c601b83612f89565b91506132a782613266565b602082019050919050565b600060208201905081810360008301526132cb8161328f565b9050919050565b60008190508160005260206000209050919050565b60006020601f8301049050919050565b600082821b905092915050565b6000600883026133347fffffffffffffffffffffffffffffffffffffffffffffffffffffffffffffffff826132f7565b61333e86836132f7565b95508019841693508086168417925050509392505050565b6000819050919050565b600061337b61337661337184612cd9565b613356565b612cd9565b9050919050565b6000819050919050565b61339583613360565b6133a96133a182613382565b848454613304565b825550505050565b600090565b6133be6133b1565b6133c981848461338c565b505050565b5b818110156133ed576133e26000826133b6565b6001810190506133cf565b5050565b601f82111561343257613403816132d2565b61340c846132e7565b8101602085101561341b578190505b61342f613427856132e7565b8301826133ce565b50505b505050565b600082821c905092915050565b600061345560001984600802613437565b1980831691505092915050565b600061346e8383613444565b9150826002028217905092915050565b61348782612ac1565b67ffffffffffffffff8111156134a05761349f6128f2565b5b6134aa8254613176565b6134b58282856133f1565b600060209050601f8311600181146134e857600084156134d6578287015190505b6134e08582613462565b865550613548565b601f1984166134f6866132d2565b60005b8281101561351e578489015182556001820191506020850194506020810190506134f9565b8683101561353b5784890151613537601f891682613444565b8355505b6001600288020188555050505b505050505050565b7f4164647265737320646f6573206e6f742062656c6f6e6720746f20616468616160008201527f7220686f6c646572000000000000000000000000000000000000000000000000602082015250565b60006135ac602883612f89565b91506135b782613550565b604082019050919050565b600060208201905081810360008301526135db8161359f565b9050919050565b7f4964656e7469747920646f6573206e6f74206578697374000000000000000000600082015250565b6000613618601783612f89565b9150613623826135e2565b602082019050919050565b600060208201905081810360008301526136478161360b565b9050919050565b7f4e6f20686f737473206c696e6b65642079657421000000000000000000000000600082015250565b6000613684601483612f89565b915061368f8261364e565b602082019050919050565b600060208201905081810360008301526136b381613677565b9050919050565b7f4e487b7100000000000000000000000000000000000000000000000000000000600052603260045260246000fd5b7f4e487b7100000000000000000000000000000000000000000000000000000000600052601160045260246000fd5b600061372382612cd9565b91507fffffffffffffffffffffffffffffffffffffffffffffffffffffffffffffffff8203613755576137546136e9565b5b600182019050919050565b7f4964656e7469747920616c726561647920657869737473210000000000000000600082015250565b6000613796601883612f89565b91506137a182613760565b602082019050919050565b600060208201905081810360008301526137c581613789565b9050919050565b60006137d782612cd9565b91506137e283612cd9565b92508282039050818111156137fa576137f96136e9565b5b92915050565b600061380b82612cd9565b915061381683612cd9565b925082820190508082111561382e5761382d6136e9565b5b92915050565b60008154905061384381613176565b9050919050565b60008190508160005260206000209050919050565b81810361386d575050613945565b61387682613834565b67ffffffffffffffff81111561388f5761388e6128f2565b5b6138998254613176565b6138a48282856133f1565b6000601f8311600181146138d357600084156138c1578287015490505b6138cb8582613462565b86555061393e565b601f1984166138e18761384a565b96506138ec866132d2565b60005b82811015613914578489015482556001820191506001850194506020810190506138ef565b86831015613931578489015461392d601f891682613444565b8355505b6001600288020188555050505b5050505050505b565b7f4e487b7100000000000000000000000000000000000000000000000000000000600052603160045260246000fd5b7f57616c6c657420646f6573206e6f742062656c6f6e6720746f2074686520616460008201527f6861617220686f6c646572210000000000000000000000000000000000000000602082015250565b60006139d2602c83612f89565b91506139dd82613976565b604082019050919050565b60006020820190508181036000830152613a01816139c5565b9050919050565b7f54686520686f7374206d75737420626520766572696669656421000000000000600082015250565b6000613a3e601a83612f89565b9150613a4982613a08565b602082019050919050565b60006020820190508181036000830152613a6d81613a31565b905091905056fea2646970667358221220ee92844e9c21cab179a32b559c0f91db231b2b0e8d70cabf9fd02f9ad63d552964736f6c63430008110033",
  "linkReferences": {},
  "deployedLinkReferences": {}
}