{
  "_format": "hh-sol-artifact-1",
  "contractName": "Identity",
  "sourceName": "contracts/Identity.sol",
  "abi": [
    {
      "inputs": [
        {
          "internalType": "uint256",
          "name": "",
          "type": "uint256"
        }
      ],
      "name": "allHosts",
      "outputs": [
        {
          "internalType": "string",
          "name": "name",
          "type": "string"
        },
        {
          "internalType": "address",
          "name": "owner",
          "type": "address"
        },
        {
          "internalType": "string",
          "name": "apiKey",
          "type": "string"
        }
      ],
      "stateMutability": "view",
      "type": "function"
    },
    {
      "inputs": [
        {
          "internalType": "string",
          "name": "a",
          "type": "string"
        },
        {
          "internalType": "string",
          "name": "b",
          "type": "string"
        }
      ],
      "name": "compareStrings",
      "outputs": [
        {
          "internalType": "bool",
          "name": "",
          "type": "bool"
        }
      ],
      "stateMutability": "pure",
      "type": "function"
    },
    {
      "inputs": [
        {
          "internalType": "string",
          "name": "_adhaar",
          "type": "string"
        }
      ],
      "name": "deactivate",
      "outputs": [],
      "stateMutability": "nonpayable",
      "type": "function"
    },
    {
      "inputs": [
        {
          "internalType": "string",
          "name": "_adhaar",
          "type": "string"
        },
        {
          "internalType": "string",
          "name": "_key",
          "type": "string"
        }
      ],
      "name": "deactivateHost",
      "outputs": [],
      "stateMutability": "nonpayable",
      "type": "function"
    },
    {
      "inputs": [
        {
          "internalType": "string",
          "name": "_adhaar",
          "type": "string"
        },
        {
          "internalType": "string",
          "name": "_name",
          "type": "string"
        },
        {
          "internalType": "string",
          "name": "_key",
          "type": "string"
        }
      ],
      "name": "generateAPIKeyForHost",
      "outputs": [],
      "stateMutability": "nonpayable",
      "type": "function"
    },
    {
      "inputs": [
        {
          "internalType": "string",
          "name": "_adhaar",
          "type": "string"
        },
        {
          "internalType": "uint256",
          "name": "_today",
          "type": "uint256"
        }
      ],
      "name": "humanVerify",
      "outputs": [],
      "stateMutability": "nonpayable",
      "type": "function"
    },
    {
      "inputs": [
        {
          "internalType": "string",
          "name": "_adhaar",
          "type": "string"
        },
        {
          "internalType": "uint256",
          "name": "_expiry",
          "type": "uint256"
        }
      ],
      "name": "idCardVerify",
      "outputs": [],
      "stateMutability": "nonpayable",
      "type": "function"
    },
    {
      "inputs": [
        {
          "internalType": "string",
          "name": "_adhaar",
          "type": "string"
        },
        {
          "internalType": "string",
          "name": "_key",
          "type": "string"
        }
      ],
      "name": "isHostLinked",
      "outputs": [
        {
          "internalType": "bool",
          "name": "",
          "type": "bool"
        }
      ],
      "stateMutability": "view",
      "type": "function"
    },
    {
      "inputs": [
        {
          "internalType": "string",
          "name": "_adhaar",
          "type": "string"
        }
      ],
      "name": "lastHumanVerified",
      "outputs": [
        {
          "internalType": "uint256",
          "name": "",
          "type": "uint256"
        }
      ],
      "stateMutability": "view",
      "type": "function"
    },
    {
      "inputs": [
        {
          "internalType": "string",
          "name": "_adhaar",
          "type": "string"
        },
        {
          "internalType": "string",
          "name": "_key",
          "type": "string"
        }
      ],
      "name": "linkAHost",
      "outputs": [],
      "stateMutability": "nonpayable",
      "type": "function"
    },
    {
      "inputs": [
        {
          "internalType": "string",
          "name": "_adhaar",
          "type": "string"
        }
      ],
      "name": "loginIdentity",
      "outputs": [
        {
          "internalType": "bool",
          "name": "",
          "type": "bool"
        }
      ],
      "stateMutability": "view",
      "type": "function"
    },
    {
      "inputs": [
        {
          "internalType": "string",
          "name": "_adhaar",
          "type": "string"
        },
        {
          "internalType": "string",
          "name": "_name",
          "type": "string"
        },
        {
          "internalType": "uint256",
          "name": "_dob",
          "type": "uint256"
        },
        {
          "internalType": "string",
          "name": "_gender",
          "type": "string"
        },
        {
          "internalType": "string",
          "name": "_email",
          "type": "string"
        }
      ],
      "name": "registerIdentity",
      "outputs": [],
      "stateMutability": "nonpayable",
      "type": "function"
    },
    {
      "inputs": [
        {
          "internalType": "string",
          "name": "_adhaar",
          "type": "string"
        },
        {
          "internalType": "string[]",
          "name": "_questions",
          "type": "string[]"
        },
        {
          "internalType": "string[]",
          "name": "_answers",
          "type": "string[]"
        }
      ],
      "name": "registerSecurityQuestions",
      "outputs": [],
      "stateMutability": "nonpayable",
      "type": "function"
    },
    {
      "inputs": [
        {
          "internalType": "string",
          "name": "_adhaar",
          "type": "string"
        },
        {
          "internalType": "string",
          "name": "_key",
          "type": "string"
        }
      ],
      "name": "removeLinkedHost",
      "outputs": [
        {
          "internalType": "bool",
          "name": "",
          "type": "bool"
        }
      ],
      "stateMutability": "nonpayable",
      "type": "function"
    },
    {
      "inputs": [],
      "name": "returnEmailAddress",
      "outputs": [
        {
          "internalType": "string",
          "name": "",
          "type": "string"
        }
      ],
      "stateMutability": "view",
      "type": "function"
    },
    {
      "inputs": [],
      "name": "returnHosts",
      "outputs": [
        {
          "components": [
            {
              "internalType": "string",
              "name": "name",
              "type": "string"
            },
            {
              "internalType": "address",
              "name": "owner",
              "type": "address"
            },
            {
              "internalType": "string",
              "name": "apiKey",
              "type": "string"
            }
          ],
          "internalType": "struct Identity.Hosts[]",
          "name": "",
          "type": "tuple[]"
        }
      ],
      "stateMutability": "view",
      "type": "function"
    },
    {
      "inputs": [
        {
          "internalType": "string",
          "name": "_adhaar",
          "type": "string"
        }
      ],
      "name": "returnIdExpiry",
      "outputs": [
        {
          "internalType": "uint256",
          "name": "",
          "type": "uint256"
        }
      ],
      "stateMutability": "view",
      "type": "function"
    },
    {
      "inputs": [
        {
          "internalType": "string",
          "name": "_adhaar",
          "type": "string"
        }
      ],
      "name": "returnIdentity",
      "outputs": [
        {
          "components": [
            {
              "internalType": "address",
              "name": "owner",
              "type": "address"
            },
            {
              "internalType": "string",
              "name": "name",
              "type": "string"
            },
            {
              "internalType": "uint256",
              "name": "dateOfBirth",
              "type": "uint256"
            },
            {
              "internalType": "string",
              "name": "gender",
              "type": "string"
            },
            {
              "internalType": "string",
              "name": "emailAddress",
              "type": "string"
            }
          ],
          "internalType": "struct Identity.Data",
          "name": "",
          "type": "tuple"
        }
      ],
      "stateMutability": "view",
      "type": "function"
    },
    {
      "inputs": [
        {
          "internalType": "string",
          "name": "_adhaar",
          "type": "string"
        }
      ],
      "name": "returnSecurityQuestions",
      "outputs": [
        {
          "components": [
            {
              "internalType": "string[]",
              "name": "question",
              "type": "string[]"
            },
            {
              "internalType": "string[]",
              "name": "answer",
              "type": "string[]"
            }
          ],
          "internalType": "struct Identity.SecurityQuestions",
          "name": "",
          "type": "tuple"
        }
      ],
      "stateMutability": "view",
      "type": "function"
    }
  ],
  "bytecode": "0x608060405234801561001057600080fd5b506143bd806100206000396000f3fe608060405234801561001057600080fd5b50600436106101215760003560e01c80636c275298116100ad578063b763275211610071578063b763275214610328578063bed34bba14610358578063c766c2c714610388578063d8a8f2d9146103ba578063e3830fe4146103d857610121565b80636c275298146102605780637472c3771461029057806391e6e8b9146102ac578063a6ccdfb5146102dc578063adeb404d1461030c57610121565b80632ba13510116100f45780632ba135101461019857806336588df9146101c857806336f0e664146101e457806360547f2a1461021457806369e8c15b1461024457610121565b80630456da35146101265780630ffb9bca146101425780631864e7121461016057806327ee999d1461017c575b600080fd5b610140600480360381019061013b91906130c3565b6103f4565b005b61014a6105fb565b6040516101579190613314565b60405180910390f35b61017a600480360381019061017591906130c3565b6107d4565b005b61019660048036038101906101919190613336565b610a3a565b005b6101b260048036038101906101ad9190613336565b610bf0565b6040516101bf9190613485565b60405180910390f35b6101e260048036038101906101dd91906134dd565b610f6c565b005b6101fe60048036038101906101f991906130c3565b6110fb565b60405161020b9190613554565b60405180910390f35b61022e600480360381019061022991906130c3565b61146f565b60405161023b9190613554565b60405180910390f35b61025e6004803603810190610259919061356f565b61191e565b005b61027a60048036038101906102759190613336565b611bd8565b60405161028791906136ed565b60405180910390f35b6102aa60048036038101906102a591906137f5565b611f6c565b005b6102c660048036038101906102c19190613336565b61214f565b6040516102d39190613554565b60405180910390f35b6102f660048036038101906102f19190613336565b61226a565b60405161030391906138ab565b60405180910390f35b610326600480360381019061032191906138c6565b612421565b005b610342600480360381019061033d9190613336565b6127a4565b60405161034f91906138ab565b60405180910390f35b610372600480360381019061036d91906130c3565b61295b565b60405161037f9190613554565b60405180910390f35b6103a2600480360381019061039d919061396d565b6129b4565b6040516103b1939291906139f3565b60405180910390f35b6103c2612b1e565b6040516103cf9190613a38565b60405180910390f35b6103f260048036038101906103ed91906134dd565b612ca1565b005b6104c5600260003373ffffffffffffffffffffffffffffffffffffffff1673ffffffffffffffffffffffffffffffffffffffff168152602001908152602001600020805461044190613a89565b80601f016020809104026020016040519081016040528092919081815260200182805461046d90613a89565b80156104ba5780601f1061048f576101008083540402835291602001916104ba565b820191906000526020600020905b81548152906001019060200180831161049d57829003601f168201915b50505050508361295b565b6104ce57600080fd5b6008816040516104de9190613af6565b908152602001604051809103902060009054906101000a900460ff161561053a576040517f08c379a000000000000000000000000000000000000000000000000000000000815260040161053190613b59565b60405180910390fd5b60038260405161054a9190613af6565b908152602001604051809103902060009054906101000a900460ff16156105a6576040517f08c379a000000000000000000000000000000000000000000000000000000000815260040161059d90613bc5565b60405180910390fd5b6006826040516105b69190613af6565b9081526020016040518091039020819080600181540180825580915050600190039060005260206000200160009091909190915090816105f69190613d91565b505050565b60606009805480602002602001604051908101604052809291908181526020016000905b828210156107cb578382906000526020600020906003020160405180606001604052908160008201805461065290613a89565b80601f016020809104026020016040519081016040528092919081815260200182805461067e90613a89565b80156106cb5780601f106106a0576101008083540402835291602001916106cb565b820191906000526020600020905b8154815290600101906020018083116106ae57829003601f168201915b505050505081526020016001820160009054906101000a900473ffffffffffffffffffffffffffffffffffffffff1673ffffffffffffffffffffffffffffffffffffffff1673ffffffffffffffffffffffffffffffffffffffff16815260200160028201805461073a90613a89565b80601f016020809104026020016040519081016040528092919081815260200182805461076690613a89565b80156107b35780601f10610788576101008083540402835291602001916107b3565b820191906000526020600020905b81548152906001019060200180831161079657829003601f168201915b5050505050815250508152602001906001019061061f565b50505050905090565b6108a5600260003373ffffffffffffffffffffffffffffffffffffffff1673ffffffffffffffffffffffffffffffffffffffff168152602001908152602001600020805461082190613a89565b80601f016020809104026020016040519081016040528092919081815260200182805461084d90613a89565b801561089a5780601f1061086f5761010080835404028352916020019161089a565b820191906000526020600020905b81548152906001019060200180831161087d57829003601f168201915b50505050508361295b565b6108ae57600080fd5b3373ffffffffffffffffffffffffffffffffffffffff166007826040516108d59190613af6565b908152602001604051809103902060010160009054906101000a900473ffffffffffffffffffffffffffffffffffffffff1673ffffffffffffffffffffffffffffffffffffffff161461092757600080fd5b6003826040516109379190613af6565b908152602001604051809103902060009054906101000a900460ff1615610993576040517f08c379a000000000000000000000000000000000000000000000000000000000815260040161098a90613bc5565b60405180910390fd5b6008816040516109a39190613af6565b908152602001604051809103902060009054906101000a900460ff16156109ff576040517f08c379a00000000000000000000000000000000000000000000000000000000081526004016109f690613b59565b60405180910390fd5b6001600882604051610a119190613af6565b908152602001604051809103902060006101000a81548160ff0219169083151502179055505050565b610b0b600260003373ffffffffffffffffffffffffffffffffffffffff1673ffffffffffffffffffffffffffffffffffffffff1681526020019081526020016000208054610a8790613a89565b80601f0160208091040260200160405190810160405280929190818152602001828054610ab390613a89565b8015610b005780601f10610ad557610100808354040283529160200191610b00565b820191906000526020600020905b815481529060010190602001808311610ae357829003601f168201915b50505050508261295b565b610b4a576040517f08c379a0000000000000000000000000000000000000000000000000000000008152600401610b4190613ed5565b60405180910390fd5b600381604051610b5a9190613af6565b908152602001604051809103902060009054906101000a900460ff1615610bb6576040517f08c379a0000000000000000000000000000000000000000000000000000000008152600401610bad90613bc5565b60405180910390fd5b6001600382604051610bc89190613af6565b908152602001604051809103902060006101000a81548160ff02191690831515021790555050565b610bf8612e30565b610cc9600260003373ffffffffffffffffffffffffffffffffffffffff1673ffffffffffffffffffffffffffffffffffffffff1681526020019081526020016000208054610c4590613a89565b80601f0160208091040260200160405190810160405280929190818152602001828054610c7190613a89565b8015610cbe5780601f10610c9357610100808354040283529160200191610cbe565b820191906000526020600020905b815481529060010190602001808311610ca157829003601f168201915b50505050508361295b565b610cd257600080fd5b600382604051610ce29190613af6565b908152602001604051809103902060009054906101000a900460ff1615610d3e576040517f08c379a0000000000000000000000000000000000000000000000000000000008152600401610d3590613bc5565b60405180910390fd5b600182604051610d4e9190613af6565b908152602001604051809103902060018084604051610d6d9190613af6565b908152602001604051809103902080549050610d899190613f24565b81548110610d9a57610d99613f58565b5b906000526020600020906002020160405180604001604052908160008201805480602002602001604051908101604052809291908181526020016000905b82821015610e84578382906000526020600020018054610df790613a89565b80601f0160208091040260200160405190810160405280929190818152602001828054610e2390613a89565b8015610e705780601f10610e4557610100808354040283529160200191610e70565b820191906000526020600020905b815481529060010190602001808311610e5357829003601f168201915b505050505081526020019060010190610dd8565b50505050815260200160018201805480602002602001604051908101604052809291908181526020016000905b82821015610f5d578382906000526020600020018054610ed090613a89565b80601f0160208091040260200160405190810160405280929190818152602001828054610efc90613a89565b8015610f495780601f10610f1e57610100808354040283529160200191610f49565b820191906000526020600020905b815481529060010190602001808311610f2c57829003601f168201915b505050505081526020019060010190610eb1565b50505050815250509050919050565b61103d600260003373ffffffffffffffffffffffffffffffffffffffff1673ffffffffffffffffffffffffffffffffffffffff1681526020019081526020016000208054610fb990613a89565b80601f0160208091040260200160405190810160405280929190818152602001828054610fe590613a89565b80156110325780601f1061100757610100808354040283529160200191611032565b820191906000526020600020905b81548152906001019060200180831161101557829003601f168201915b50505050508361295b565b61104657600080fd5b6003826040516110569190613af6565b908152602001604051809103902060009054906101000a900460ff16156110b2576040517f08c379a00000000000000000000000000000000000000000000000000000000081526004016110a990613bc5565b60405180910390fd5b6004826040516110c29190613af6565b90815260200160405180910390208190806001815401808255809150506001900390600052602060002001600090919091909150555050565b60006111ce600260003373ffffffffffffffffffffffffffffffffffffffff1673ffffffffffffffffffffffffffffffffffffffff168152602001908152602001600020805461114a90613a89565b80601f016020809104026020016040519081016040528092919081815260200182805461117690613a89565b80156111c35780601f10611198576101008083540402835291602001916111c3565b820191906000526020600020905b8154815290600101906020018083116111a657829003601f168201915b50505050508461295b565b61120d576040517f08c379a000000000000000000000000000000000000000000000000000000000815260040161120490613fd3565b60405180910390fd5b60038360405161121d9190613af6565b908152602001604051809103902060009054906101000a900460ff1615611279576040517f08c379a000000000000000000000000000000000000000000000000000000000815260040161127090613bc5565b60405180910390fd5b600060068460405161128b9190613af6565b908152602001604051809103902080549050116112dd576040517f08c379a00000000000000000000000000000000000000000000000000000000081526004016112d49061403f565b60405180910390fd5b6008826040516112ed9190613af6565b908152602001604051809103902060009054906101000a900460ff1615611349576040517f08c379a000000000000000000000000000000000000000000000000000000000815260040161134090613b59565b60405180910390fd5b60005b60068460405161135c9190613af6565b908152602001604051809103902080549050811015611463576114416006856040516113889190613af6565b908152602001604051809103902082815481106113a8576113a7613f58565b5b9060005260206000200180546113bd90613a89565b80601f01602080910402602001604051908101604052809291908181526020018280546113e990613a89565b80156114365780601f1061140b57610100808354040283529160200191611436565b820191906000526020600020905b81548152906001019060200180831161141957829003601f168201915b50505050508461295b565b15611450576001915050611469565b808061145b9061405f565b91505061134c565b50600090505b92915050565b6000611542600260003373ffffffffffffffffffffffffffffffffffffffff1673ffffffffffffffffffffffffffffffffffffffff16815260200190815260200160002080546114be90613a89565b80601f01602080910402602001604051908101604052809291908181526020018280546114ea90613a89565b80156115375780601f1061150c57610100808354040283529160200191611537565b820191906000526020600020905b81548152906001019060200180831161151a57829003601f168201915b50505050508461295b565b611581576040517f08c379a000000000000000000000000000000000000000000000000000000000815260040161157890613fd3565b60405180910390fd5b60006006846040516115939190613af6565b908152602001604051809103902080549050116115e5576040517f08c379a00000000000000000000000000000000000000000000000000000000081526004016115dc9061403f565b60405180910390fd5b6003836040516115f59190613af6565b908152602001604051809103902060009054906101000a900460ff1615611651576040517f08c379a000000000000000000000000000000000000000000000000000000000815260040161164890613bc5565b60405180910390fd5b6008826040516116619190613af6565b908152602001604051809103902060009054906101000a900460ff16156116bd576040517f08c379a00000000000000000000000000000000000000000000000000000000081526004016116b490613b59565b60405180910390fd5b6000805b6006856040516116d19190613af6565b9081526020016040518091039020805490508110156118b3576117b66006866040516116fd9190613af6565b9081526020016040518091039020828154811061171d5761171c613f58565b5b90600052602060002001805461173290613a89565b80601f016020809104026020016040519081016040528092919081815260200182805461175e90613a89565b80156117ab5780601f10611780576101008083540402835291602001916117ab565b820191906000526020600020905b81548152906001019060200180831161178e57829003601f168201915b50505050508561295b565b156118a0576001915060008190505b60016006876040516117d79190613af6565b9081526020016040518091039020805490506117f39190613f24565b81101561189a5760068660405161180a9190613af6565b908152602001604051809103902060018261182591906140a7565b8154811061183657611835613f58565b5b906000526020600020016006876040516118509190613af6565b908152602001604051809103902082815481106118705761186f613f58565b5b9060005260206000200190816118869190614106565b5080806118929061405f565b9150506117c5565b506118b3565b80806118ab9061405f565b9150506116c1565b50600081036118c6576000915050611918565b6006846040516118d69190613af6565b90815260200160405180910390208054806118f4576118f36141ee565b5b6001900381819060005260206000200160006119109190612e4a565b905560019150505b92915050565b6119ef600260003373ffffffffffffffffffffffffffffffffffffffff1673ffffffffffffffffffffffffffffffffffffffff168152602001908152602001600020805461196b90613a89565b80601f016020809104026020016040519081016040528092919081815260200182805461199790613a89565b80156119e45780601f106119b9576101008083540402835291602001916119e4565b820191906000526020600020905b8154815290600101906020018083116119c757829003601f168201915b50505050508661295b565b15611a2f576040517f08c379a0000000000000000000000000000000000000000000000000000000008152600401611a2690614269565b60405180910390fd5b60008086604051611a409190613af6565b9081526020016040518091039020600201541115611a93576040517f08c379a0000000000000000000000000000000000000000000000000000000008152600401611a8a90614269565b60405180910390fd5b6040518060a001604052803373ffffffffffffffffffffffffffffffffffffffff16815260200185815260200184815260200183815260200182815250600086604051611ae09190613af6565b908152602001604051809103902060008201518160000160006101000a81548173ffffffffffffffffffffffffffffffffffffffff021916908373ffffffffffffffffffffffffffffffffffffffff1602179055506020820151816001019081611b4a9190613d91565b50604082015181600201556060820151816003019081611b6a9190613d91565b506080820151816004019081611b809190613d91565b5090505084600260003373ffffffffffffffffffffffffffffffffffffffff1673ffffffffffffffffffffffffffffffffffffffff1681526020019081526020016000209081611bd09190613d91565b505050505050565b611be0612e8a565b611cb1600260003373ffffffffffffffffffffffffffffffffffffffff1673ffffffffffffffffffffffffffffffffffffffff1681526020019081526020016000208054611c2d90613a89565b80601f0160208091040260200160405190810160405280929190818152602001828054611c5990613a89565b8015611ca65780601f10611c7b57610100808354040283529160200191611ca6565b820191906000526020600020905b815481529060010190602001808311611c8957829003601f168201915b50505050508361295b565b611cba57600080fd5b600382604051611cca9190613af6565b908152602001604051809103902060009054906101000a900460ff1615611d26576040517f08c379a0000000000000000000000000000000000000000000000000000000008152600401611d1d90613bc5565b60405180910390fd5b600082604051611d369190613af6565b90815260200160405180910390206040518060a00160405290816000820160009054906101000a900473ffffffffffffffffffffffffffffffffffffffff1673ffffffffffffffffffffffffffffffffffffffff1673ffffffffffffffffffffffffffffffffffffffff168152602001600182018054611db590613a89565b80601f0160208091040260200160405190810160405280929190818152602001828054611de190613a89565b8015611e2e5780601f10611e0357610100808354040283529160200191611e2e565b820191906000526020600020905b815481529060010190602001808311611e1157829003601f168201915b5050505050815260200160028201548152602001600382018054611e5190613a89565b80601f0160208091040260200160405190810160405280929190818152602001828054611e7d90613a89565b8015611eca5780601f10611e9f57610100808354040283529160200191611eca565b820191906000526020600020905b815481529060010190602001808311611ead57829003601f168201915b50505050508152602001600482018054611ee390613a89565b80601f0160208091040260200160405190810160405280929190818152602001828054611f0f90613a89565b8015611f5c5780601f10611f3157610100808354040283529160200191611f5c565b820191906000526020600020905b815481529060010190602001808311611f3f57829003601f168201915b5050505050815250509050919050565b61203d600260003373ffffffffffffffffffffffffffffffffffffffff1673ffffffffffffffffffffffffffffffffffffffff1681526020019081526020016000208054611fb990613a89565b80601f0160208091040260200160405190810160405280929190818152602001828054611fe590613a89565b80156120325780601f1061200757610100808354040283529160200191612032565b820191906000526020600020905b81548152906001019060200180831161201557829003601f168201915b50505050508461295b565b61204657600080fd5b6003836040516120569190613af6565b908152602001604051809103902060009054906101000a900460ff16156120b2576040517f08c379a00000000000000000000000000000000000000000000000000000000081526004016120a990613bc5565b60405180910390fd5b6001836040516120c29190613af6565b90815260200160405180910390206040518060400160405280848152602001838152509080600181540180825580915050600190039060005260206000209060020201600090919091909150600082015181600001908051906020019061212a929190612ecf565b506020820151816001019080519060200190612147929190612ecf565b505050505050565b6000612222600260003373ffffffffffffffffffffffffffffffffffffffff1673ffffffffffffffffffffffffffffffffffffffff168152602001908152602001600020805461219e90613a89565b80601f01602080910402602001604051908101604052809291908181526020018280546121ca90613a89565b80156122175780601f106121ec57610100808354040283529160200191612217565b820191906000526020600020905b8154815290600101906020018083116121fa57829003601f168201915b50505050508361295b565b612261576040517f08c379a0000000000000000000000000000000000000000000000000000000008152600401612258906142fb565b60405180910390fd5b60019050919050565b600061233d600260003373ffffffffffffffffffffffffffffffffffffffff1673ffffffffffffffffffffffffffffffffffffffff16815260200190815260200160002080546122b990613a89565b80601f01602080910402602001604051908101604052809291908181526020018280546122e590613a89565b80156123325780601f1061230757610100808354040283529160200191612332565b820191906000526020600020905b81548152906001019060200180831161231557829003601f168201915b50505050508361295b565b61234657600080fd5b6003826040516123569190613af6565b908152602001604051809103902060009054906101000a900460ff16156123b2576040517f08c379a00000000000000000000000000000000000000000000000000000000081526004016123a990613bc5565b60405180910390fd5b6005826040516123c29190613af6565b908152602001604051809103902060016005846040516123e29190613af6565b9081526020016040518091039020805490506123fe9190613f24565b8154811061240f5761240e613f58565b5b90600052602060002001549050919050565b6124f2600260003373ffffffffffffffffffffffffffffffffffffffff1673ffffffffffffffffffffffffffffffffffffffff168152602001908152602001600020805461246e90613a89565b80601f016020809104026020016040519081016040528092919081815260200182805461249a90613a89565b80156124e75780601f106124bc576101008083540402835291602001916124e7565b820191906000526020600020905b8154815290600101906020018083116124ca57829003601f168201915b50505050508461295b565b612531576040517f08c379a000000000000000000000000000000000000000000000000000000000815260040161252890614367565b60405180910390fd5b6003836040516125419190613af6565b908152602001604051809103902060009054906101000a900460ff161561259d576040517f08c379a000000000000000000000000000000000000000000000000000000000815260040161259490613bc5565b60405180910390fd5b6008816040516125ad9190613af6565b908152602001604051809103902060009054906101000a900460ff1615612609576040517f08c379a000000000000000000000000000000000000000000000000000000000815260040161260090613b59565b60405180910390fd5b60405180606001604052808381526020013373ffffffffffffffffffffffffffffffffffffffff1681526020018281525060078260405161264a9190613af6565b9081526020016040518091039020600082015181600001908161266d9190613d91565b5060208201518160010160006101000a81548173ffffffffffffffffffffffffffffffffffffffff021916908373ffffffffffffffffffffffffffffffffffffffff16021790555060408201518160020190816126ca9190613d91565b50905050600960405180606001604052808481526020013373ffffffffffffffffffffffffffffffffffffffff168152602001838152509080600181540180825580915050600190039060005260206000209060030201600090919091909150600082015181600001908161273f9190613d91565b5060208201518160010160006101000a81548173ffffffffffffffffffffffffffffffffffffffff021916908373ffffffffffffffffffffffffffffffffffffffff160217905550604082015181600201908161279c9190613d91565b505050505050565b6000612877600260003373ffffffffffffffffffffffffffffffffffffffff1673ffffffffffffffffffffffffffffffffffffffff16815260200190815260200160002080546127f390613a89565b80601f016020809104026020016040519081016040528092919081815260200182805461281f90613a89565b801561286c5780601f106128415761010080835404028352916020019161286c565b820191906000526020600020905b81548152906001019060200180831161284f57829003601f168201915b50505050508361295b565b61288057600080fd5b6003826040516128909190613af6565b908152602001604051809103902060009054906101000a900460ff16156128ec576040517f08c379a00000000000000000000000000000000000000000000000000000000081526004016128e390613bc5565b60405180910390fd5b6004826040516128fc9190613af6565b9081526020016040518091039020600160048460405161291c9190613af6565b9081526020016040518091039020805490506129389190613f24565b8154811061294957612948613f58565b5b90600052602060002001549050919050565b60008160405160200161296e9190613af6565b60405160208183030381529060405280519060200120836040516020016129959190613af6565b6040516020818303038152906040528051906020012014905092915050565b600981815481106129c457600080fd5b90600052602060002090600302016000915090508060000180546129e790613a89565b80601f0160208091040260200160405190810160405280929190818152602001828054612a1390613a89565b8015612a605780601f10612a3557610100808354040283529160200191612a60565b820191906000526020600020905b815481529060010190602001808311612a4357829003601f168201915b5050505050908060010160009054906101000a900473ffffffffffffffffffffffffffffffffffffffff1690806002018054612a9b90613a89565b80601f0160208091040260200160405190810160405280929190818152602001828054612ac790613a89565b8015612b145780601f10612ae957610100808354040283529160200191612b14565b820191906000526020600020905b815481529060010190602001808311612af757829003601f168201915b5050505050905083565b60606000600260003373ffffffffffffffffffffffffffffffffffffffff1673ffffffffffffffffffffffffffffffffffffffff1681526020019081526020016000208054612b6c90613a89565b80601f0160208091040260200160405190810160405280929190818152602001828054612b9890613a89565b8015612be55780601f10612bba57610100808354040283529160200191612be5565b820191906000526020600020905b815481529060010190602001808311612bc857829003601f168201915b5050505050905060008082604051612bfd9190613af6565b90815260200160405180910390206004018054612c1990613a89565b80601f0160208091040260200160405190810160405280929190818152602001828054612c4590613a89565b8015612c925780601f10612c6757610100808354040283529160200191612c92565b820191906000526020600020905b815481529060010190602001808311612c7557829003601f168201915b50505050509050809250505090565b612d72600260003373ffffffffffffffffffffffffffffffffffffffff1673ffffffffffffffffffffffffffffffffffffffff1681526020019081526020016000208054612cee90613a89565b80601f0160208091040260200160405190810160405280929190818152602001828054612d1a90613a89565b8015612d675780601f10612d3c57610100808354040283529160200191612d67565b820191906000526020600020905b815481529060010190602001808311612d4a57829003601f168201915b50505050508361295b565b612d7b57600080fd5b600382604051612d8b9190613af6565b908152602001604051809103902060009054906101000a900460ff1615612de7576040517f08c379a0000000000000000000000000000000000000000000000000000000008152600401612dde90613bc5565b60405180910390fd5b600582604051612df79190613af6565b90815260200160405180910390208190806001815401808255809150506001900390600052602060002001600090919091909150555050565b604051806040016040528060608152602001606081525090565b508054612e5690613a89565b6000825580601f10612e685750612e87565b601f016020900490600052602060002090810190612e869190612f28565b5b50565b6040518060a00160405280600073ffffffffffffffffffffffffffffffffffffffff168152602001606081526020016000815260200160608152602001606081525090565b828054828255906000526020600020908101928215612f17579160200282015b82811115612f16578251829081612f069190613d91565b5091602001919060010190612eef565b5b509050612f249190612f45565b5090565b5b80821115612f41576000816000905550600101612f29565b5090565b5b80821115612f655760008181612f5c9190612e4a565b50600101612f46565b5090565b6000604051905090565b600080fd5b600080fd5b600080fd5b600080fd5b6000601f19601f8301169050919050565b7f4e487b7100000000000000000000000000000000000000000000000000000000600052604160045260246000fd5b612fd082612f87565b810181811067ffffffffffffffff82111715612fef57612fee612f98565b5b80604052505050565b6000613002612f69565b905061300e8282612fc7565b919050565b600067ffffffffffffffff82111561302e5761302d612f98565b5b61303782612f87565b9050602081019050919050565b82818337600083830152505050565b600061306661306184613013565b612ff8565b90508281526020810184848401111561308257613081612f82565b5b61308d848285613044565b509392505050565b600082601f8301126130aa576130a9612f7d565b5b81356130ba848260208601613053565b91505092915050565b600080604083850312156130da576130d9612f73565b5b600083013567ffffffffffffffff8111156130f8576130f7612f78565b5b61310485828601613095565b925050602083013567ffffffffffffffff81111561312557613124612f78565b5b61313185828601613095565b9150509250929050565b600081519050919050565b600082825260208201905092915050565b6000819050602082019050919050565b600081519050919050565b600082825260208201905092915050565b60005b838110156131a1578082015181840152602081019050613186565b60008484015250505050565b60006131b882613167565b6131c28185613172565b93506131d2818560208601613183565b6131db81612f87565b840191505092915050565b600073ffffffffffffffffffffffffffffffffffffffff82169050919050565b6000613211826131e6565b9050919050565b61322181613206565b82525050565b6000606083016000830151848203600086015261324482826131ad565b91505060208301516132596020860182613218565b506040830151848203604086015261327182826131ad565b9150508091505092915050565b600061328a8383613227565b905092915050565b6000602082019050919050565b60006132aa8261313b565b6132b48185613146565b9350836020820285016132c685613157565b8060005b8581101561330257848403895281516132e3858261327e565b94506132ee83613292565b925060208a019950506001810190506132ca565b50829750879550505050505092915050565b6000602082019050818103600083015261332e818461329f565b905092915050565b60006020828403121561334c5761334b612f73565b5b600082013567ffffffffffffffff81111561336a57613369612f78565b5b61337684828501613095565b91505092915050565b600081519050919050565b600082825260208201905092915050565b6000819050602082019050919050565b60006133b783836131ad565b905092915050565b6000602082019050919050565b60006133d78261337f565b6133e1818561338a565b9350836020820285016133f38561339b565b8060005b8581101561342f578484038952815161341085826133ab565b945061341b836133bf565b925060208a019950506001810190506133f7565b50829750879550505050505092915050565b6000604083016000830151848203600086015261345e82826133cc565b9150506020830151848203602086015261347882826133cc565b9150508091505092915050565b6000602082019050818103600083015261349f8184613441565b905092915050565b6000819050919050565b6134ba816134a7565b81146134c557600080fd5b50565b6000813590506134d7816134b1565b92915050565b600080604083850312156134f4576134f3612f73565b5b600083013567ffffffffffffffff81111561351257613511612f78565b5b61351e85828601613095565b925050602061352f858286016134c8565b9150509250929050565b60008115159050919050565b61354e81613539565b82525050565b60006020820190506135696000830184613545565b92915050565b600080600080600060a0868803121561358b5761358a612f73565b5b600086013567ffffffffffffffff8111156135a9576135a8612f78565b5b6135b588828901613095565b955050602086013567ffffffffffffffff8111156135d6576135d5612f78565b5b6135e288828901613095565b94505060406135f3888289016134c8565b935050606086013567ffffffffffffffff81111561361457613613612f78565b5b61362088828901613095565b925050608086013567ffffffffffffffff81111561364157613640612f78565b5b61364d88828901613095565b9150509295509295909350565b613663816134a7565b82525050565b600060a0830160008301516136816000860182613218565b506020830151848203602086015261369982826131ad565b91505060408301516136ae604086018261365a565b50606083015184820360608601526136c682826131ad565b915050608083015184820360808601526136e082826131ad565b9150508091505092915050565b600060208201905081810360008301526137078184613669565b905092915050565b600067ffffffffffffffff82111561372a57613729612f98565b5b602082029050602081019050919050565b600080fd5b600061375361374e8461370f565b612ff8565b905080838252602082019050602084028301858111156137765761377561373b565b5b835b818110156137bd57803567ffffffffffffffff81111561379b5761379a612f7d565b5b8086016137a88982613095565b85526020850194505050602081019050613778565b5050509392505050565b600082601f8301126137dc576137db612f7d565b5b81356137ec848260208601613740565b91505092915050565b60008060006060848603121561380e5761380d612f73565b5b600084013567ffffffffffffffff81111561382c5761382b612f78565b5b61383886828701613095565b935050602084013567ffffffffffffffff81111561385957613858612f78565b5b613865868287016137c7565b925050604084013567ffffffffffffffff81111561388657613885612f78565b5b613892868287016137c7565b9150509250925092565b6138a5816134a7565b82525050565b60006020820190506138c0600083018461389c565b92915050565b6000806000606084860312156138df576138de612f73565b5b600084013567ffffffffffffffff8111156138fd576138fc612f78565b5b61390986828701613095565b935050602084013567ffffffffffffffff81111561392a57613929612f78565b5b61393686828701613095565b925050604084013567ffffffffffffffff81111561395757613956612f78565b5b61396386828701613095565b9150509250925092565b60006020828403121561398357613982612f73565b5b6000613991848285016134c8565b91505092915050565b600082825260208201905092915050565b60006139b682613167565b6139c0818561399a565b93506139d0818560208601613183565b6139d981612f87565b840191505092915050565b6139ed81613206565b82525050565b60006060820190508181036000830152613a0d81866139ab565b9050613a1c60208301856139e4565b8181036040830152613a2e81846139ab565b9050949350505050565b60006020820190508181036000830152613a5281846139ab565b905092915050565b7f4e487b7100000000000000000000000000000000000000000000000000000000600052602260045260246000fd5b60006002820490506001821680613aa157607f821691505b602082108103613ab457613ab3613a5a565b5b50919050565b600081905092915050565b6000613ad082613167565b613ada8185613aba565b9350613aea818560208601613183565b80840191505092915050565b6000613b028284613ac5565b915081905092915050565b7f4150492068617320616c7265616479206265656e206465616374697661746564600082015250565b6000613b4360208361399a565b9150613b4e82613b0d565b602082019050919050565b60006020820190508181036000830152613b7281613b36565b9050919050565b7f41646861617220686173206265656e2064656163746976617465640000000000600082015250565b6000613baf601b8361399a565b9150613bba82613b79565b602082019050919050565b60006020820190508181036000830152613bde81613ba2565b9050919050565b60008190508160005260206000209050919050565b60006020601f8301049050919050565b600082821b905092915050565b600060088302613c477fffffffffffffffffffffffffffffffffffffffffffffffffffffffffffffffff82613c0a565b613c518683613c0a565b95508019841693508086168417925050509392505050565b6000819050919050565b6000613c8e613c89613c84846134a7565b613c69565b6134a7565b9050919050565b6000819050919050565b613ca883613c73565b613cbc613cb482613c95565b848454613c17565b825550505050565b600090565b613cd1613cc4565b613cdc818484613c9f565b505050565b5b81811015613d0057613cf5600082613cc9565b600181019050613ce2565b5050565b601f821115613d4557613d1681613be5565b613d1f84613bfa565b81016020851015613d2e578190505b613d42613d3a85613bfa565b830182613ce1565b50505b505050565b600082821c905092915050565b6000613d6860001984600802613d4a565b1980831691505092915050565b6000613d818383613d57565b9150826002028217905092915050565b613d9a82613167565b67ffffffffffffffff811115613db357613db2612f98565b5b613dbd8254613a89565b613dc8828285613d04565b600060209050601f831160018114613dfb5760008415613de9578287015190505b613df38582613d75565b865550613e5b565b601f198416613e0986613be5565b60005b82811015613e3157848901518255600182019150602085019450602081019050613e0c565b86831015613e4e5784890151613e4a601f891682613d57565b8355505b6001600288020188555050505b505050505050565b7f4164647265737320646f6573206e6f742062656c6f6e6720746f20616468616160008201527f7220686f6c646572000000000000000000000000000000000000000000000000602082015250565b6000613ebf60288361399a565b9150613eca82613e63565b604082019050919050565b60006020820190508181036000830152613eee81613eb2565b9050919050565b7f4e487b7100000000000000000000000000000000000000000000000000000000600052601160045260246000fd5b6000613f2f826134a7565b9150613f3a836134a7565b9250828203905081811115613f5257613f51613ef5565b5b92915050565b7f4e487b7100000000000000000000000000000000000000000000000000000000600052603260045260246000fd5b7f4964656e7469747920646f6573206e6f74206578697374000000000000000000600082015250565b6000613fbd60178361399a565b9150613fc882613f87565b602082019050919050565b60006020820190508181036000830152613fec81613fb0565b9050919050565b7f4e6f20686f737473206c696e6b65642079657421000000000000000000000000600082015250565b600061402960148361399a565b915061403482613ff3565b602082019050919050565b600060208201905081810360008301526140588161401c565b9050919050565b600061406a826134a7565b91507fffffffffffffffffffffffffffffffffffffffffffffffffffffffffffffffff820361409c5761409b613ef5565b5b600182019050919050565b60006140b2826134a7565b91506140bd836134a7565b92508282019050808211156140d5576140d4613ef5565b5b92915050565b6000815490506140ea81613a89565b9050919050565b60008190508160005260206000209050919050565b8181036141145750506141ec565b61411d826140db565b67ffffffffffffffff81111561413657614135612f98565b5b6141408254613a89565b61414b828285613d04565b6000601f83116001811461417a5760008415614168578287015490505b6141728582613d75565b8655506141e5565b601f198416614188876140f1565b965061419386613be5565b60005b828110156141bb57848901548255600182019150600185019450602081019050614196565b868310156141d857848901546141d4601f891682613d57565b8355505b6001600288020188555050505b5050505050505b565b7f4e487b7100000000000000000000000000000000000000000000000000000000600052603160045260246000fd5b7f4964656e7469747920616c726561647920657869737473210000000000000000600082015250565b600061425360188361399a565b915061425e8261421d565b602082019050919050565b6000602082019050818103600083015261428281614246565b9050919050565b7f57616c6c657420646f6573206e6f742062656c6f6e6720746f2074686520616460008201527f6861617220686f6c646572210000000000000000000000000000000000000000602082015250565b60006142e5602c8361399a565b91506142f082614289565b604082019050919050565b60006020820190508181036000830152614314816142d8565b9050919050565b7f54686520686f7374206d75737420626520766572696669656421000000000000600082015250565b6000614351601a8361399a565b915061435c8261431b565b602082019050919050565b6000602082019050818103600083015261438081614344565b905091905056fea26469706673582212208b12ed84727f2385130e9e5222c28c689954bc97819152fc1ec005ba8ebbe43f64736f6c63430008110033",
  "linkReferences": {},
  "deployedLinkReferences": {}
}