{
  "_format": "hh-sol-artifact-1",
  "contractName": "Identity",
  "sourceName": "contracts/Identity.sol",
  "abi": [
    {
      "inputs": [
        {
          "internalType": "uint256",
          "name": "",
          "type": "uint256"
        }
      ],
      "name": "allHosts",
      "outputs": [
        {
          "internalType": "string",
          "name": "name",
          "type": "string"
        },
        {
          "internalType": "address",
          "name": "owner",
          "type": "address"
        },
        {
          "internalType": "string",
          "name": "adhaar",
          "type": "string"
        }
      ],
      "stateMutability": "view",
      "type": "function"
    },
    {
      "inputs": [
        {
          "internalType": "string",
          "name": "a",
          "type": "string"
        },
        {
          "internalType": "string",
          "name": "b",
          "type": "string"
        }
      ],
      "name": "compareStrings",
      "outputs": [
        {
          "internalType": "bool",
          "name": "",
          "type": "bool"
        }
      ],
      "stateMutability": "pure",
      "type": "function"
    },
    {
      "inputs": [
        {
          "internalType": "string",
          "name": "_adhaar",
          "type": "string"
        }
      ],
      "name": "deactivate",
      "outputs": [],
      "stateMutability": "nonpayable",
      "type": "function"
    },
    {
      "inputs": [
        {
          "internalType": "string",
          "name": "_adhaar",
          "type": "string"
        },
        {
          "internalType": "string",
          "name": "_key",
          "type": "string"
        }
      ],
      "name": "deactivateHost",
      "outputs": [],
      "stateMutability": "nonpayable",
      "type": "function"
    },
    {
      "inputs": [
        {
          "internalType": "string",
          "name": "_adhaar",
          "type": "string"
        },
        {
          "internalType": "string",
          "name": "_name",
          "type": "string"
        },
        {
          "internalType": "string",
          "name": "_key",
          "type": "string"
        }
      ],
      "name": "generateAPIKeyForHost",
      "outputs": [],
      "stateMutability": "nonpayable",
      "type": "function"
    },
    {
      "inputs": [
        {
          "internalType": "string",
          "name": "_adhaar",
          "type": "string"
        },
        {
          "internalType": "uint256",
          "name": "_today",
          "type": "uint256"
        }
      ],
      "name": "humanVerify",
      "outputs": [],
      "stateMutability": "nonpayable",
      "type": "function"
    },
    {
      "inputs": [
        {
          "internalType": "string",
          "name": "_adhaar",
          "type": "string"
        },
        {
          "internalType": "uint256",
          "name": "_expiry",
          "type": "uint256"
        }
      ],
      "name": "idCardVerify",
      "outputs": [],
      "stateMutability": "nonpayable",
      "type": "function"
    },
    {
      "inputs": [],
      "name": "identityExists",
      "outputs": [
        {
          "internalType": "bool",
          "name": "",
          "type": "bool"
        }
      ],
      "stateMutability": "view",
      "type": "function"
    },
    {
      "inputs": [
        {
          "internalType": "string",
          "name": "_adhaar",
          "type": "string"
        },
        {
          "internalType": "string",
          "name": "_key",
          "type": "string"
        }
      ],
      "name": "isHostLinked",
      "outputs": [
        {
          "internalType": "bool",
          "name": "",
          "type": "bool"
        }
      ],
      "stateMutability": "view",
      "type": "function"
    },
    {
      "inputs": [
        {
          "internalType": "string",
          "name": "_adhaar",
          "type": "string"
        }
      ],
      "name": "lastHumanVerified",
      "outputs": [
        {
          "internalType": "uint256",
          "name": "",
          "type": "uint256"
        }
      ],
      "stateMutability": "view",
      "type": "function"
    },
    {
      "inputs": [
        {
          "internalType": "string",
          "name": "_adhaar",
          "type": "string"
        },
        {
          "internalType": "string",
          "name": "_key",
          "type": "string"
        }
      ],
      "name": "linkAHost",
      "outputs": [],
      "stateMutability": "nonpayable",
      "type": "function"
    },
    {
      "inputs": [
        {
          "internalType": "string",
          "name": "_adhaar",
          "type": "string"
        }
      ],
      "name": "loginIdentity",
      "outputs": [
        {
          "internalType": "bool",
          "name": "",
          "type": "bool"
        }
      ],
      "stateMutability": "view",
      "type": "function"
    },
    {
      "inputs": [
        {
          "internalType": "string",
          "name": "_adhaar",
          "type": "string"
        },
        {
          "internalType": "string",
          "name": "_key",
          "type": "string"
        }
      ],
      "name": "matchAPIKey",
      "outputs": [
        {
          "internalType": "bool",
          "name": "",
          "type": "bool"
        }
      ],
      "stateMutability": "view",
      "type": "function"
    },
    {
      "inputs": [
        {
          "internalType": "string",
          "name": "_adhaar",
          "type": "string"
        },
        {
          "internalType": "string",
          "name": "_name",
          "type": "string"
        },
        {
          "internalType": "uint256",
          "name": "_dob",
          "type": "uint256"
        },
        {
          "internalType": "string",
          "name": "_gender",
          "type": "string"
        },
        {
          "internalType": "string",
          "name": "_email",
          "type": "string"
        }
      ],
      "name": "registerIdentity",
      "outputs": [],
      "stateMutability": "nonpayable",
      "type": "function"
    },
    {
      "inputs": [
        {
          "internalType": "string",
          "name": "_adhaar",
          "type": "string"
        },
        {
          "internalType": "string[]",
          "name": "_questions",
          "type": "string[]"
        },
        {
          "internalType": "string[]",
          "name": "_answers",
          "type": "string[]"
        }
      ],
      "name": "registerSecurityQuestions",
      "outputs": [],
      "stateMutability": "nonpayable",
      "type": "function"
    },
    {
      "inputs": [
        {
          "internalType": "string",
          "name": "_adhaar",
          "type": "string"
        },
        {
          "internalType": "string",
          "name": "_key",
          "type": "string"
        }
      ],
      "name": "removeLinkedHost",
      "outputs": [
        {
          "internalType": "bool",
          "name": "",
          "type": "bool"
        }
      ],
      "stateMutability": "nonpayable",
      "type": "function"
    },
    {
      "inputs": [
        {
          "internalType": "string",
          "name": "_adhaar",
          "type": "string"
        }
      ],
      "name": "returnEmailAddress",
      "outputs": [
        {
          "internalType": "string",
          "name": "",
          "type": "string"
        }
      ],
      "stateMutability": "view",
      "type": "function"
    },
    {
      "inputs": [],
      "name": "returnHosts",
      "outputs": [
        {
          "components": [
            {
              "internalType": "string",
              "name": "name",
              "type": "string"
            },
            {
              "internalType": "address",
              "name": "owner",
              "type": "address"
            },
            {
              "internalType": "string",
              "name": "adhaar",
              "type": "string"
            }
          ],
          "internalType": "struct Identity.Hosts[]",
          "name": "",
          "type": "tuple[]"
        }
      ],
      "stateMutability": "view",
      "type": "function"
    },
    {
      "inputs": [
        {
          "internalType": "string",
          "name": "_adhaar",
          "type": "string"
        }
      ],
      "name": "returnIdExpiry",
      "outputs": [
        {
          "internalType": "uint256",
          "name": "",
          "type": "uint256"
        }
      ],
      "stateMutability": "view",
      "type": "function"
    },
    {
      "inputs": [
        {
          "internalType": "string",
          "name": "_adhaar",
          "type": "string"
        }
      ],
      "name": "returnIdentity",
      "outputs": [
        {
          "components": [
            {
              "internalType": "address",
              "name": "owner",
              "type": "address"
            },
            {
              "internalType": "string",
              "name": "name",
              "type": "string"
            },
            {
              "internalType": "uint256",
              "name": "dateOfBirth",
              "type": "uint256"
            },
            {
              "internalType": "string",
              "name": "gender",
              "type": "string"
            },
            {
              "internalType": "string",
              "name": "emailAddress",
              "type": "string"
            }
          ],
          "internalType": "struct Identity.Data",
          "name": "",
          "type": "tuple"
        }
      ],
      "stateMutability": "view",
      "type": "function"
    },
    {
      "inputs": [
        {
          "internalType": "string",
          "name": "_adhaar",
          "type": "string"
        }
      ],
      "name": "returnSecurityQuestions",
      "outputs": [
        {
          "components": [
            {
              "internalType": "string[]",
              "name": "question",
              "type": "string[]"
            },
            {
              "internalType": "string[]",
              "name": "answer",
              "type": "string[]"
            }
          ],
          "internalType": "struct Identity.SecurityQuestions",
          "name": "",
          "type": "tuple"
        }
      ],
      "stateMutability": "view",
      "type": "function"
    }
  ],
  "bytecode": "0x608060405234801561001057600080fd5b50614621806100206000396000f3fe608060405234801561001057600080fd5b50600436106101375760003560e01c80636c275298116100b8578063adeb404d1161007c578063adeb404d14610370578063b76327521461038c578063b9ac1ce6146103bc578063bed34bba146103ec578063c766c2c71461041c578063e3830fe41461044e57610137565b80636c275298146102a65780637472c377146102d657806388eab9d0146102f257806391e6e8b914610310578063a6ccdfb51461034057610137565b806332f99ff7116100ff57806332f99ff7146101de57806336588df91461020e57806336f0e6641461022a57806360547f2a1461025a57806369e8c15b1461028a57610137565b80630456da351461013c5780630ffb9bca146101585780631864e7121461017657806327ee999d146101925780632ba13510146101ae575b600080fd5b610156600480360381019061015191906133b9565b61046a565b005b61016061078f565b60405161016d919061360a565b60405180910390f35b610190600480360381019061018b91906133b9565b610968565b005b6101ac60048036038101906101a7919061362c565b610bce565b005b6101c860048036038101906101c3919061362c565b610d84565b6040516101d5919061377b565b60405180910390f35b6101f860048036038101906101f3919061362c565b611100565b60405161020591906137e7565b60405180910390f35b6102286004803603810190610223919061383f565b6112c8565b005b610244600480360381019061023f91906133b9565b611457565b60405161025191906138b6565b60405180910390f35b610274600480360381019061026f91906133b9565b6117cb565b60405161028191906138b6565b60405180910390f35b6102a4600480360381019061029f91906138d1565b611c7a565b005b6102c060048036038101906102bb919061362c565b611e2b565b6040516102cd9190613a4f565b60405180910390f35b6102f060048036038101906102eb9190613b57565b6121bf565b005b6102fa6123a2565b60405161030791906138b6565b60405180910390f35b61032a6004803603810190610325919061362c565b6123f7565b60405161033791906138b6565b60405180910390f35b61035a6004803603810190610355919061362c565b61254e565b6040516103679190613c0d565b60405180910390f35b61038a60048036038101906103859190613c28565b612705565b005b6103a660048036038101906103a1919061362c565b612a88565b6040516103b39190613c0d565b60405180910390f35b6103d660048036038101906103d191906133b9565b612c3f565b6040516103e391906138b6565b60405180910390f35b610406600480360381019061040191906133b9565b612dd4565b60405161041391906138b6565b60405180910390f35b61043660048036038101906104319190613ccf565b612e2d565b60405161044593929190613d0b565b60405180910390f35b6104686004803603810190610463919061383f565b612f97565b005b61053b600260003373ffffffffffffffffffffffffffffffffffffffff1673ffffffffffffffffffffffffffffffffffffffff16815260200190815260200160002080546104b790613d7f565b80601f01602080910402602001604051908101604052809291908181526020018280546104e390613d7f565b80156105305780601f1061050557610100808354040283529160200191610530565b820191906000526020600020905b81548152906001019060200180831161051357829003601f168201915b505050505083612dd4565b61054457600080fd5b6008816040516105549190613dec565b908152602001604051809103902060009054906101000a900460ff16156105b0576040517f08c379a00000000000000000000000000000000000000000000000000000000081526004016105a790613e4f565b60405180910390fd5b6003826040516105c09190613dec565b908152602001604051809103902060009054906101000a900460ff161561061c576040517f08c379a000000000000000000000000000000000000000000000000000000000815260040161061390613ebb565b60405180910390fd5b6000805b6006846040516106309190613dec565b9081526020016040518091039020805490508110156107325761071560068560405161065c9190613dec565b9081526020016040518091039020828154811061067c5761067b613edb565b5b90600052602060002001805461069190613d7f565b80601f01602080910402602001604051908101604052809291908181526020018280546106bd90613d7f565b801561070a5780601f106106df5761010080835404028352916020019161070a565b820191906000526020600020905b8154815290600101906020018083116106ed57829003601f168201915b505050505084612dd4565b1561071f57600191505b808061072a90613f39565b915050610620565b508061078a576006836040516107489190613dec565b908152602001604051809103902082908060018154018082558091505060019003906000526020600020016000909190919091509081610788919061412d565b505b505050565b60606009805480602002602001604051908101604052809291908181526020016000905b8282101561095f57838290600052602060002090600302016040518060600160405290816000820180546107e690613d7f565b80601f016020809104026020016040519081016040528092919081815260200182805461081290613d7f565b801561085f5780601f106108345761010080835404028352916020019161085f565b820191906000526020600020905b81548152906001019060200180831161084257829003601f168201915b505050505081526020016001820160009054906101000a900473ffffffffffffffffffffffffffffffffffffffff1673ffffffffffffffffffffffffffffffffffffffff1673ffffffffffffffffffffffffffffffffffffffff1681526020016002820180546108ce90613d7f565b80601f01602080910402602001604051908101604052809291908181526020018280546108fa90613d7f565b80156109475780601f1061091c57610100808354040283529160200191610947565b820191906000526020600020905b81548152906001019060200180831161092a57829003601f168201915b505050505081525050815260200190600101906107b3565b50505050905090565b610a39600260003373ffffffffffffffffffffffffffffffffffffffff1673ffffffffffffffffffffffffffffffffffffffff16815260200190815260200160002080546109b590613d7f565b80601f01602080910402602001604051908101604052809291908181526020018280546109e190613d7f565b8015610a2e5780601f10610a0357610100808354040283529160200191610a2e565b820191906000526020600020905b815481529060010190602001808311610a1157829003601f168201915b505050505083612dd4565b610a4257600080fd5b3373ffffffffffffffffffffffffffffffffffffffff16600782604051610a699190613dec565b908152602001604051809103902060010160009054906101000a900473ffffffffffffffffffffffffffffffffffffffff1673ffffffffffffffffffffffffffffffffffffffff1614610abb57600080fd5b600382604051610acb9190613dec565b908152602001604051809103902060009054906101000a900460ff1615610b27576040517f08c379a0000000000000000000000000000000000000000000000000000000008152600401610b1e90613ebb565b60405180910390fd5b600881604051610b379190613dec565b908152602001604051809103902060009054906101000a900460ff1615610b93576040517f08c379a0000000000000000000000000000000000000000000000000000000008152600401610b8a90613e4f565b60405180910390fd5b6001600882604051610ba59190613dec565b908152602001604051809103902060006101000a81548160ff0219169083151502179055505050565b610c9f600260003373ffffffffffffffffffffffffffffffffffffffff1673ffffffffffffffffffffffffffffffffffffffff1681526020019081526020016000208054610c1b90613d7f565b80601f0160208091040260200160405190810160405280929190818152602001828054610c4790613d7f565b8015610c945780601f10610c6957610100808354040283529160200191610c94565b820191906000526020600020905b815481529060010190602001808311610c7757829003601f168201915b505050505082612dd4565b610cde576040517f08c379a0000000000000000000000000000000000000000000000000000000008152600401610cd590614271565b60405180910390fd5b600381604051610cee9190613dec565b908152602001604051809103902060009054906101000a900460ff1615610d4a576040517f08c379a0000000000000000000000000000000000000000000000000000000008152600401610d4190613ebb565b60405180910390fd5b6001600382604051610d5c9190613dec565b908152602001604051809103902060006101000a81548160ff02191690831515021790555050565b610d8c613126565b610e5d600260003373ffffffffffffffffffffffffffffffffffffffff1673ffffffffffffffffffffffffffffffffffffffff1681526020019081526020016000208054610dd990613d7f565b80601f0160208091040260200160405190810160405280929190818152602001828054610e0590613d7f565b8015610e525780601f10610e2757610100808354040283529160200191610e52565b820191906000526020600020905b815481529060010190602001808311610e3557829003601f168201915b505050505083612dd4565b610e6657600080fd5b600382604051610e769190613dec565b908152602001604051809103902060009054906101000a900460ff1615610ed2576040517f08c379a0000000000000000000000000000000000000000000000000000000008152600401610ec990613ebb565b60405180910390fd5b600182604051610ee29190613dec565b908152602001604051809103902060018084604051610f019190613dec565b908152602001604051809103902080549050610f1d9190614291565b81548110610f2e57610f2d613edb565b5b906000526020600020906002020160405180604001604052908160008201805480602002602001604051908101604052809291908181526020016000905b82821015611018578382906000526020600020018054610f8b90613d7f565b80601f0160208091040260200160405190810160405280929190818152602001828054610fb790613d7f565b80156110045780601f10610fd957610100808354040283529160200191611004565b820191906000526020600020905b815481529060010190602001808311610fe757829003601f168201915b505050505081526020019060010190610f6c565b50505050815260200160018201805480602002602001604051908101604052809291908181526020016000905b828210156110f157838290600052602060002001805461106490613d7f565b80601f016020809104026020016040519081016040528092919081815260200182805461109090613d7f565b80156110dd5780601f106110b2576101008083540402835291602001916110dd565b820191906000526020600020905b8154815290600101906020018083116110c057829003601f168201915b505050505081526020019060010190611045565b50505050815250509050919050565b60606111d3600260003373ffffffffffffffffffffffffffffffffffffffff1673ffffffffffffffffffffffffffffffffffffffff168152602001908152602001600020805461114f90613d7f565b80601f016020809104026020016040519081016040528092919081815260200182805461117b90613d7f565b80156111c85780601f1061119d576101008083540402835291602001916111c8565b820191906000526020600020905b8154815290600101906020018083116111ab57829003601f168201915b505050505083612dd4565b611212576040517f08c379a000000000000000000000000000000000000000000000000000000000815260040161120990614311565b60405180910390fd5b600080836040516112239190613dec565b9081526020016040518091039020600401805461123f90613d7f565b80601f016020809104026020016040519081016040528092919081815260200182805461126b90613d7f565b80156112b85780601f1061128d576101008083540402835291602001916112b8565b820191906000526020600020905b81548152906001019060200180831161129b57829003601f168201915b5050505050905080915050919050565b611399600260003373ffffffffffffffffffffffffffffffffffffffff1673ffffffffffffffffffffffffffffffffffffffff168152602001908152602001600020805461131590613d7f565b80601f016020809104026020016040519081016040528092919081815260200182805461134190613d7f565b801561138e5780601f106113635761010080835404028352916020019161138e565b820191906000526020600020905b81548152906001019060200180831161137157829003601f168201915b505050505083612dd4565b6113a257600080fd5b6003826040516113b29190613dec565b908152602001604051809103902060009054906101000a900460ff161561140e576040517f08c379a000000000000000000000000000000000000000000000000000000000815260040161140590613ebb565b60405180910390fd5b60048260405161141e9190613dec565b90815260200160405180910390208190806001815401808255809150506001900390600052602060002001600090919091909150555050565b600061152a600260003373ffffffffffffffffffffffffffffffffffffffff1673ffffffffffffffffffffffffffffffffffffffff16815260200190815260200160002080546114a690613d7f565b80601f01602080910402602001604051908101604052809291908181526020018280546114d290613d7f565b801561151f5780601f106114f45761010080835404028352916020019161151f565b820191906000526020600020905b81548152906001019060200180831161150257829003601f168201915b505050505084612dd4565b611569576040517f08c379a00000000000000000000000000000000000000000000000000000000081526004016115609061437d565b60405180910390fd5b6003836040516115799190613dec565b908152602001604051809103902060009054906101000a900460ff16156115d5576040517f08c379a00000000000000000000000000000000000000000000000000000000081526004016115cc90613ebb565b60405180910390fd5b60006006846040516115e79190613dec565b90815260200160405180910390208054905011611639576040517f08c379a0000000000000000000000000000000000000000000000000000000008152600401611630906143e9565b60405180910390fd5b6008826040516116499190613dec565b908152602001604051809103902060009054906101000a900460ff16156116a5576040517f08c379a000000000000000000000000000000000000000000000000000000000815260040161169c90613e4f565b60405180910390fd5b60005b6006846040516116b89190613dec565b9081526020016040518091039020805490508110156117bf5761179d6006856040516116e49190613dec565b9081526020016040518091039020828154811061170457611703613edb565b5b90600052602060002001805461171990613d7f565b80601f016020809104026020016040519081016040528092919081815260200182805461174590613d7f565b80156117925780601f1061176757610100808354040283529160200191611792565b820191906000526020600020905b81548152906001019060200180831161177557829003601f168201915b505050505084612dd4565b156117ac5760019150506117c5565b80806117b790613f39565b9150506116a8565b50600090505b92915050565b600061189e600260003373ffffffffffffffffffffffffffffffffffffffff1673ffffffffffffffffffffffffffffffffffffffff168152602001908152602001600020805461181a90613d7f565b80601f016020809104026020016040519081016040528092919081815260200182805461184690613d7f565b80156118935780601f1061186857610100808354040283529160200191611893565b820191906000526020600020905b81548152906001019060200180831161187657829003601f168201915b505050505084612dd4565b6118dd576040517f08c379a00000000000000000000000000000000000000000000000000000000081526004016118d49061437d565b60405180910390fd5b60006006846040516118ef9190613dec565b90815260200160405180910390208054905011611941576040517f08c379a0000000000000000000000000000000000000000000000000000000008152600401611938906143e9565b60405180910390fd5b6003836040516119519190613dec565b908152602001604051809103902060009054906101000a900460ff16156119ad576040517f08c379a00000000000000000000000000000000000000000000000000000000081526004016119a490613ebb565b60405180910390fd5b6008826040516119bd9190613dec565b908152602001604051809103902060009054906101000a900460ff1615611a19576040517f08c379a0000000000000000000000000000000000000000000000000000000008152600401611a1090613e4f565b60405180910390fd5b6000805b600685604051611a2d9190613dec565b908152602001604051809103902080549050811015611c0f57611b12600686604051611a599190613dec565b90815260200160405180910390208281548110611a7957611a78613edb565b5b906000526020600020018054611a8e90613d7f565b80601f0160208091040260200160405190810160405280929190818152602001828054611aba90613d7f565b8015611b075780601f10611adc57610100808354040283529160200191611b07565b820191906000526020600020905b815481529060010190602001808311611aea57829003601f168201915b505050505085612dd4565b15611bfc576001915060008190505b6001600687604051611b339190613dec565b908152602001604051809103902080549050611b4f9190614291565b811015611bf657600686604051611b669190613dec565b9081526020016040518091039020600182611b819190614409565b81548110611b9257611b91613edb565b5b90600052602060002001600687604051611bac9190613dec565b90815260200160405180910390208281548110611bcc57611bcb613edb565b5b906000526020600020019081611be29190614468565b508080611bee90613f39565b915050611b21565b50611c0f565b8080611c0790613f39565b915050611a1d565b5060008103611c22576000915050611c74565b600684604051611c329190613dec565b9081526020016040518091039020805480611c5057611c4f614550565b5b600190038181906000526020600020016000611c6c9190613140565b905560019150505b92915050565b600385604051611c8a9190613dec565b908152602001604051809103902060009054906101000a900460ff1615611ce6576040517f08c379a0000000000000000000000000000000000000000000000000000000008152600401611cdd90613ebb565b60405180910390fd5b6040518060a001604052803373ffffffffffffffffffffffffffffffffffffffff16815260200185815260200184815260200183815260200182815250600086604051611d339190613dec565b908152602001604051809103902060008201518160000160006101000a81548173ffffffffffffffffffffffffffffffffffffffff021916908373ffffffffffffffffffffffffffffffffffffffff1602179055506020820151816001019081611d9d919061412d565b50604082015181600201556060820151816003019081611dbd919061412d565b506080820151816004019081611dd3919061412d565b5090505084600260003373ffffffffffffffffffffffffffffffffffffffff1673ffffffffffffffffffffffffffffffffffffffff1681526020019081526020016000209081611e23919061412d565b505050505050565b611e33613180565b611f04600260003373ffffffffffffffffffffffffffffffffffffffff1673ffffffffffffffffffffffffffffffffffffffff1681526020019081526020016000208054611e8090613d7f565b80601f0160208091040260200160405190810160405280929190818152602001828054611eac90613d7f565b8015611ef95780601f10611ece57610100808354040283529160200191611ef9565b820191906000526020600020905b815481529060010190602001808311611edc57829003601f168201915b505050505083612dd4565b611f0d57600080fd5b600382604051611f1d9190613dec565b908152602001604051809103902060009054906101000a900460ff1615611f79576040517f08c379a0000000000000000000000000000000000000000000000000000000008152600401611f7090613ebb565b60405180910390fd5b600082604051611f899190613dec565b90815260200160405180910390206040518060a00160405290816000820160009054906101000a900473ffffffffffffffffffffffffffffffffffffffff1673ffffffffffffffffffffffffffffffffffffffff1673ffffffffffffffffffffffffffffffffffffffff16815260200160018201805461200890613d7f565b80601f016020809104026020016040519081016040528092919081815260200182805461203490613d7f565b80156120815780601f1061205657610100808354040283529160200191612081565b820191906000526020600020905b81548152906001019060200180831161206457829003601f168201915b50505050508152602001600282015481526020016003820180546120a490613d7f565b80601f01602080910402602001604051908101604052809291908181526020018280546120d090613d7f565b801561211d5780601f106120f25761010080835404028352916020019161211d565b820191906000526020600020905b81548152906001019060200180831161210057829003601f168201915b5050505050815260200160048201805461213690613d7f565b80601f016020809104026020016040519081016040528092919081815260200182805461216290613d7f565b80156121af5780601f10612184576101008083540402835291602001916121af565b820191906000526020600020905b81548152906001019060200180831161219257829003601f168201915b5050505050815250509050919050565b612290600260003373ffffffffffffffffffffffffffffffffffffffff1673ffffffffffffffffffffffffffffffffffffffff168152602001908152602001600020805461220c90613d7f565b80601f016020809104026020016040519081016040528092919081815260200182805461223890613d7f565b80156122855780601f1061225a57610100808354040283529160200191612285565b820191906000526020600020905b81548152906001019060200180831161226857829003601f168201915b505050505084612dd4565b61229957600080fd5b6003836040516122a99190613dec565b908152602001604051809103902060009054906101000a900460ff1615612305576040517f08c379a00000000000000000000000000000000000000000000000000000000081526004016122fc90613ebb565b60405180910390fd5b6001836040516123159190613dec565b90815260200160405180910390206040518060400160405280848152602001838152509080600181540180825580915050600190039060005260206000209060020201600090919091909150600082015181600001908051906020019061237d9291906131c5565b50602082015181600101908051906020019061239a9291906131c5565b505050505050565b600080600260003373ffffffffffffffffffffffffffffffffffffffff1673ffffffffffffffffffffffffffffffffffffffff16815260200190815260200160002080546123ef90613d7f565b905011905090565b60006003826040516124099190613dec565b908152602001604051809103902060009054906101000a900460ff1615612465576040517f08c379a000000000000000000000000000000000000000000000000000000000815260040161245c90613ebb565b60405180910390fd5b612536600260003373ffffffffffffffffffffffffffffffffffffffff1673ffffffffffffffffffffffffffffffffffffffff16815260200190815260200160002080546124b290613d7f565b80601f01602080910402602001604051908101604052809291908181526020018280546124de90613d7f565b801561252b5780601f106125005761010080835404028352916020019161252b565b820191906000526020600020905b81548152906001019060200180831161250e57829003601f168201915b505050505083612dd4565b156125445760019050612549565b600090505b919050565b6000612621600260003373ffffffffffffffffffffffffffffffffffffffff1673ffffffffffffffffffffffffffffffffffffffff168152602001908152602001600020805461259d90613d7f565b80601f01602080910402602001604051908101604052809291908181526020018280546125c990613d7f565b80156126165780601f106125eb57610100808354040283529160200191612616565b820191906000526020600020905b8154815290600101906020018083116125f957829003601f168201915b505050505083612dd4565b61262a57600080fd5b60038260405161263a9190613dec565b908152602001604051809103902060009054906101000a900460ff1615612696576040517f08c379a000000000000000000000000000000000000000000000000000000000815260040161268d90613ebb565b60405180910390fd5b6005826040516126a69190613dec565b908152602001604051809103902060016005846040516126c69190613dec565b9081526020016040518091039020805490506126e29190614291565b815481106126f3576126f2613edb565b5b90600052602060002001549050919050565b6127d6600260003373ffffffffffffffffffffffffffffffffffffffff1673ffffffffffffffffffffffffffffffffffffffff168152602001908152602001600020805461275290613d7f565b80601f016020809104026020016040519081016040528092919081815260200182805461277e90613d7f565b80156127cb5780601f106127a0576101008083540402835291602001916127cb565b820191906000526020600020905b8154815290600101906020018083116127ae57829003601f168201915b505050505084612dd4565b612815576040517f08c379a000000000000000000000000000000000000000000000000000000000815260040161280c906145cb565b60405180910390fd5b6003836040516128259190613dec565b908152602001604051809103902060009054906101000a900460ff1615612881576040517f08c379a000000000000000000000000000000000000000000000000000000000815260040161287890613ebb565b60405180910390fd5b6008816040516128919190613dec565b908152602001604051809103902060009054906101000a900460ff16156128ed576040517f08c379a00000000000000000000000000000000000000000000000000000000081526004016128e490613e4f565b60405180910390fd5b60405180606001604052808381526020013373ffffffffffffffffffffffffffffffffffffffff1681526020018481525060078260405161292e9190613dec565b90815260200160405180910390206000820151816000019081612951919061412d565b5060208201518160010160006101000a81548173ffffffffffffffffffffffffffffffffffffffff021916908373ffffffffffffffffffffffffffffffffffffffff16021790555060408201518160020190816129ae919061412d565b50905050600960405180606001604052808481526020013373ffffffffffffffffffffffffffffffffffffffff1681526020018581525090806001815401808255809150506001900390600052602060002090600302016000909190919091506000820151816000019081612a23919061412d565b5060208201518160010160006101000a81548173ffffffffffffffffffffffffffffffffffffffff021916908373ffffffffffffffffffffffffffffffffffffffff1602179055506040820151816002019081612a80919061412d565b505050505050565b6000612b5b600260003373ffffffffffffffffffffffffffffffffffffffff1673ffffffffffffffffffffffffffffffffffffffff1681526020019081526020016000208054612ad790613d7f565b80601f0160208091040260200160405190810160405280929190818152602001828054612b0390613d7f565b8015612b505780601f10612b2557610100808354040283529160200191612b50565b820191906000526020600020905b815481529060010190602001808311612b3357829003601f168201915b505050505083612dd4565b612b6457600080fd5b600382604051612b749190613dec565b908152602001604051809103902060009054906101000a900460ff1615612bd0576040517f08c379a0000000000000000000000000000000000000000000000000000000008152600401612bc790613ebb565b60405180910390fd5b600482604051612be09190613dec565b90815260200160405180910390206001600484604051612c009190613dec565b908152602001604051809103902080549050612c1c9190614291565b81548110612c2d57612c2c613edb565b5b90600052602060002001549050919050565b6000600383604051612c519190613dec565b908152602001604051809103902060009054906101000a900460ff1615612cad576040517f08c379a0000000000000000000000000000000000000000000000000000000008152600401612ca490613ebb565b60405180910390fd5b600882604051612cbd9190613dec565b908152602001604051809103902060009054906101000a900460ff1615612d19576040517f08c379a0000000000000000000000000000000000000000000000000000000008152600401612d1090613e4f565b60405180910390fd5b612dcc600783604051612d2c9190613dec565b90815260200160405180910390206002018054612d4890613d7f565b80601f0160208091040260200160405190810160405280929190818152602001828054612d7490613d7f565b8015612dc15780601f10612d9657610100808354040283529160200191612dc1565b820191906000526020600020905b815481529060010190602001808311612da457829003601f168201915b505050505084612dd4565b905092915050565b600081604051602001612de79190613dec565b6040516020818303038152906040528051906020012083604051602001612e0e9190613dec565b6040516020818303038152906040528051906020012014905092915050565b60098181548110612e3d57600080fd5b9060005260206000209060030201600091509050806000018054612e6090613d7f565b80601f0160208091040260200160405190810160405280929190818152602001828054612e8c90613d7f565b8015612ed95780601f10612eae57610100808354040283529160200191612ed9565b820191906000526020600020905b815481529060010190602001808311612ebc57829003601f168201915b5050505050908060010160009054906101000a900473ffffffffffffffffffffffffffffffffffffffff1690806002018054612f1490613d7f565b80601f0160208091040260200160405190810160405280929190818152602001828054612f4090613d7f565b8015612f8d5780601f10612f6257610100808354040283529160200191612f8d565b820191906000526020600020905b815481529060010190602001808311612f7057829003601f168201915b5050505050905083565b613068600260003373ffffffffffffffffffffffffffffffffffffffff1673ffffffffffffffffffffffffffffffffffffffff1681526020019081526020016000208054612fe490613d7f565b80601f016020809104026020016040519081016040528092919081815260200182805461301090613d7f565b801561305d5780601f106130325761010080835404028352916020019161305d565b820191906000526020600020905b81548152906001019060200180831161304057829003601f168201915b505050505083612dd4565b61307157600080fd5b6003826040516130819190613dec565b908152602001604051809103902060009054906101000a900460ff16156130dd576040517f08c379a00000000000000000000000000000000000000000000000000000000081526004016130d490613ebb565b60405180910390fd5b6005826040516130ed9190613dec565b90815260200160405180910390208190806001815401808255809150506001900390600052602060002001600090919091909150555050565b604051806040016040528060608152602001606081525090565b50805461314c90613d7f565b6000825580601f1061315e575061317d565b601f01602090049060005260206000209081019061317c919061321e565b5b50565b6040518060a00160405280600073ffffffffffffffffffffffffffffffffffffffff168152602001606081526020016000815260200160608152602001606081525090565b82805482825590600052602060002090810192821561320d579160200282015b8281111561320c5782518290816131fc919061412d565b50916020019190600101906131e5565b5b50905061321a919061323b565b5090565b5b8082111561323757600081600090555060010161321f565b5090565b5b8082111561325b57600081816132529190613140565b5060010161323c565b5090565b6000604051905090565b600080fd5b600080fd5b600080fd5b600080fd5b6000601f19601f8301169050919050565b7f4e487b7100000000000000000000000000000000000000000000000000000000600052604160045260246000fd5b6132c68261327d565b810181811067ffffffffffffffff821117156132e5576132e461328e565b5b80604052505050565b60006132f861325f565b905061330482826132bd565b919050565b600067ffffffffffffffff8211156133245761332361328e565b5b61332d8261327d565b9050602081019050919050565b82818337600083830152505050565b600061335c61335784613309565b6132ee565b90508281526020810184848401111561337857613377613278565b5b61338384828561333a565b509392505050565b600082601f8301126133a05761339f613273565b5b81356133b0848260208601613349565b91505092915050565b600080604083850312156133d0576133cf613269565b5b600083013567ffffffffffffffff8111156133ee576133ed61326e565b5b6133fa8582860161338b565b925050602083013567ffffffffffffffff81111561341b5761341a61326e565b5b6134278582860161338b565b9150509250929050565b600081519050919050565b600082825260208201905092915050565b6000819050602082019050919050565b600081519050919050565b600082825260208201905092915050565b60005b8381101561349757808201518184015260208101905061347c565b60008484015250505050565b60006134ae8261345d565b6134b88185613468565b93506134c8818560208601613479565b6134d18161327d565b840191505092915050565b600073ffffffffffffffffffffffffffffffffffffffff82169050919050565b6000613507826134dc565b9050919050565b613517816134fc565b82525050565b6000606083016000830151848203600086015261353a82826134a3565b915050602083015161354f602086018261350e565b506040830151848203604086015261356782826134a3565b9150508091505092915050565b6000613580838361351d565b905092915050565b6000602082019050919050565b60006135a082613431565b6135aa818561343c565b9350836020820285016135bc8561344d565b8060005b858110156135f857848403895281516135d98582613574565b94506135e483613588565b925060208a019950506001810190506135c0565b50829750879550505050505092915050565b600060208201905081810360008301526136248184613595565b905092915050565b60006020828403121561364257613641613269565b5b600082013567ffffffffffffffff8111156136605761365f61326e565b5b61366c8482850161338b565b91505092915050565b600081519050919050565b600082825260208201905092915050565b6000819050602082019050919050565b60006136ad83836134a3565b905092915050565b6000602082019050919050565b60006136cd82613675565b6136d78185613680565b9350836020820285016136e985613691565b8060005b85811015613725578484038952815161370685826136a1565b9450613711836136b5565b925060208a019950506001810190506136ed565b50829750879550505050505092915050565b6000604083016000830151848203600086015261375482826136c2565b9150506020830151848203602086015261376e82826136c2565b9150508091505092915050565b600060208201905081810360008301526137958184613737565b905092915050565b600082825260208201905092915050565b60006137b98261345d565b6137c3818561379d565b93506137d3818560208601613479565b6137dc8161327d565b840191505092915050565b6000602082019050818103600083015261380181846137ae565b905092915050565b6000819050919050565b61381c81613809565b811461382757600080fd5b50565b60008135905061383981613813565b92915050565b6000806040838503121561385657613855613269565b5b600083013567ffffffffffffffff8111156138745761387361326e565b5b6138808582860161338b565b92505060206138918582860161382a565b9150509250929050565b60008115159050919050565b6138b08161389b565b82525050565b60006020820190506138cb60008301846138a7565b92915050565b600080600080600060a086880312156138ed576138ec613269565b5b600086013567ffffffffffffffff81111561390b5761390a61326e565b5b6139178882890161338b565b955050602086013567ffffffffffffffff8111156139385761393761326e565b5b6139448882890161338b565b94505060406139558882890161382a565b935050606086013567ffffffffffffffff8111156139765761397561326e565b5b6139828882890161338b565b925050608086013567ffffffffffffffff8111156139a3576139a261326e565b5b6139af8882890161338b565b9150509295509295909350565b6139c581613809565b82525050565b600060a0830160008301516139e3600086018261350e565b50602083015184820360208601526139fb82826134a3565b9150506040830151613a1060408601826139bc565b5060608301518482036060860152613a2882826134a3565b91505060808301518482036080860152613a4282826134a3565b9150508091505092915050565b60006020820190508181036000830152613a6981846139cb565b905092915050565b600067ffffffffffffffff821115613a8c57613a8b61328e565b5b602082029050602081019050919050565b600080fd5b6000613ab5613ab084613a71565b6132ee565b90508083825260208201905060208402830185811115613ad857613ad7613a9d565b5b835b81811015613b1f57803567ffffffffffffffff811115613afd57613afc613273565b5b808601613b0a898261338b565b85526020850194505050602081019050613ada565b5050509392505050565b600082601f830112613b3e57613b3d613273565b5b8135613b4e848260208601613aa2565b91505092915050565b600080600060608486031215613b7057613b6f613269565b5b600084013567ffffffffffffffff811115613b8e57613b8d61326e565b5b613b9a8682870161338b565b935050602084013567ffffffffffffffff811115613bbb57613bba61326e565b5b613bc786828701613b29565b925050604084013567ffffffffffffffff811115613be857613be761326e565b5b613bf486828701613b29565b9150509250925092565b613c0781613809565b82525050565b6000602082019050613c226000830184613bfe565b92915050565b600080600060608486031215613c4157613c40613269565b5b600084013567ffffffffffffffff811115613c5f57613c5e61326e565b5b613c6b8682870161338b565b935050602084013567ffffffffffffffff811115613c8c57613c8b61326e565b5b613c988682870161338b565b925050604084013567ffffffffffffffff811115613cb957613cb861326e565b5b613cc58682870161338b565b9150509250925092565b600060208284031215613ce557613ce4613269565b5b6000613cf38482850161382a565b91505092915050565b613d05816134fc565b82525050565b60006060820190508181036000830152613d2581866137ae565b9050613d346020830185613cfc565b8181036040830152613d4681846137ae565b9050949350505050565b7f4e487b7100000000000000000000000000000000000000000000000000000000600052602260045260246000fd5b60006002820490506001821680613d9757607f821691505b602082108103613daa57613da9613d50565b5b50919050565b600081905092915050565b6000613dc68261345d565b613dd08185613db0565b9350613de0818560208601613479565b80840191505092915050565b6000613df88284613dbb565b915081905092915050565b7f4150492068617320616c7265616479206265656e206465616374697661746564600082015250565b6000613e3960208361379d565b9150613e4482613e03565b602082019050919050565b60006020820190508181036000830152613e6881613e2c565b9050919050565b7f41646861617220686173206265656e2064656163746976617465640000000000600082015250565b6000613ea5601b8361379d565b9150613eb082613e6f565b602082019050919050565b60006020820190508181036000830152613ed481613e98565b9050919050565b7f4e487b7100000000000000000000000000000000000000000000000000000000600052603260045260246000fd5b7f4e487b7100000000000000000000000000000000000000000000000000000000600052601160045260246000fd5b6000613f4482613809565b91507fffffffffffffffffffffffffffffffffffffffffffffffffffffffffffffffff8203613f7657613f75613f0a565b5b600182019050919050565b60008190508160005260206000209050919050565b60006020601f8301049050919050565b600082821b905092915050565b600060088302613fe37fffffffffffffffffffffffffffffffffffffffffffffffffffffffffffffffff82613fa6565b613fed8683613fa6565b95508019841693508086168417925050509392505050565b6000819050919050565b600061402a61402561402084613809565b614005565b613809565b9050919050565b6000819050919050565b6140448361400f565b61405861405082614031565b848454613fb3565b825550505050565b600090565b61406d614060565b61407881848461403b565b505050565b5b8181101561409c57614091600082614065565b60018101905061407e565b5050565b601f8211156140e1576140b281613f81565b6140bb84613f96565b810160208510156140ca578190505b6140de6140d685613f96565b83018261407d565b50505b505050565b600082821c905092915050565b6000614104600019846008026140e6565b1980831691505092915050565b600061411d83836140f3565b9150826002028217905092915050565b6141368261345d565b67ffffffffffffffff81111561414f5761414e61328e565b5b6141598254613d7f565b6141648282856140a0565b600060209050601f8311600181146141975760008415614185578287015190505b61418f8582614111565b8655506141f7565b601f1984166141a586613f81565b60005b828110156141cd578489015182556001820191506020850194506020810190506141a8565b868310156141ea57848901516141e6601f8916826140f3565b8355505b6001600288020188555050505b505050505050565b7f4164647265737320646f6573206e6f742062656c6f6e6720746f20616468616160008201527f7220686f6c646572000000000000000000000000000000000000000000000000602082015250565b600061425b60288361379d565b9150614266826141ff565b604082019050919050565b6000602082019050818103600083015261428a8161424e565b9050919050565b600061429c82613809565b91506142a783613809565b92508282039050818111156142bf576142be613f0a565b5b92915050565b7f5573657220646f6573206e6f7420657869737473210000000000000000000000600082015250565b60006142fb60158361379d565b9150614306826142c5565b602082019050919050565b6000602082019050818103600083015261432a816142ee565b9050919050565b7f4964656e7469747920646f6573206e6f74206578697374000000000000000000600082015250565b600061436760178361379d565b915061437282614331565b602082019050919050565b600060208201905081810360008301526143968161435a565b9050919050565b7f4e6f20686f737473206c696e6b65642079657421000000000000000000000000600082015250565b60006143d360148361379d565b91506143de8261439d565b602082019050919050565b60006020820190508181036000830152614402816143c6565b9050919050565b600061441482613809565b915061441f83613809565b925082820190508082111561443757614436613f0a565b5b92915050565b60008154905061444c81613d7f565b9050919050565b60008190508160005260206000209050919050565b81810361447657505061454e565b61447f8261443d565b67ffffffffffffffff8111156144985761449761328e565b5b6144a28254613d7f565b6144ad8282856140a0565b6000601f8311600181146144dc57600084156144ca578287015490505b6144d48582614111565b865550614547565b601f1984166144ea87614453565b96506144f586613f81565b60005b8281101561451d578489015482556001820191506001850194506020810190506144f8565b8683101561453a5784890154614536601f8916826140f3565b8355505b6001600288020188555050505b5050505050505b565b7f4e487b7100000000000000000000000000000000000000000000000000000000600052603160045260246000fd5b7f54686520686f7374206d75737420626520766572696669656421000000000000600082015250565b60006145b5601a8361379d565b91506145c08261457f565b602082019050919050565b600060208201905081810360008301526145e4816145a8565b905091905056fea26469706673582212202371ed9bb7144e3958b09074f0aaa4949e25989ea286a42a1f1738c01e290c9d64736f6c63430008110033",
  "linkReferences": {},
  "deployedLinkReferences": {}
}