{
  "_format": "hh-sol-artifact-1",
  "contractName": "Identity",
  "sourceName": "contracts/Identity.sol",
  "abi": [
    {
      "inputs": [
        {
          "internalType": "uint256",
          "name": "",
          "type": "uint256"
        }
      ],
      "name": "allHosts",
      "outputs": [
        {
          "internalType": "string",
          "name": "name",
          "type": "string"
        },
        {
          "internalType": "address",
          "name": "owner",
          "type": "address"
        },
        {
          "internalType": "string",
          "name": "adhaar",
          "type": "string"
        }
      ],
      "stateMutability": "view",
      "type": "function"
    },
    {
      "inputs": [
        {
          "internalType": "string",
          "name": "a",
          "type": "string"
        },
        {
          "internalType": "string",
          "name": "b",
          "type": "string"
        }
      ],
      "name": "compareStrings",
      "outputs": [
        {
          "internalType": "bool",
          "name": "",
          "type": "bool"
        }
      ],
      "stateMutability": "pure",
      "type": "function"
    },
    {
      "inputs": [
        {
          "internalType": "string",
          "name": "_adhaar",
          "type": "string"
        }
      ],
      "name": "deactivate",
      "outputs": [],
      "stateMutability": "nonpayable",
      "type": "function"
    },
    {
      "inputs": [
        {
          "internalType": "string",
          "name": "_adhaar",
          "type": "string"
        },
        {
          "internalType": "string",
          "name": "_key",
          "type": "string"
        }
      ],
      "name": "deactivateHost",
      "outputs": [],
      "stateMutability": "nonpayable",
      "type": "function"
    },
    {
      "inputs": [
        {
          "internalType": "string",
          "name": "_adhaar",
          "type": "string"
        },
        {
          "internalType": "string",
          "name": "_name",
          "type": "string"
        },
        {
          "internalType": "string",
          "name": "_key",
          "type": "string"
        }
      ],
      "name": "generateAPIKeyForHost",
      "outputs": [],
      "stateMutability": "nonpayable",
      "type": "function"
    },
    {
      "inputs": [
        {
          "internalType": "string",
          "name": "_adhaar",
          "type": "string"
        },
        {
          "internalType": "uint256",
          "name": "_today",
          "type": "uint256"
        }
      ],
      "name": "humanVerify",
      "outputs": [],
      "stateMutability": "nonpayable",
      "type": "function"
    },
    {
      "inputs": [
        {
          "internalType": "string",
          "name": "_adhaar",
          "type": "string"
        },
        {
          "internalType": "uint256",
          "name": "_expiry",
          "type": "uint256"
        }
      ],
      "name": "idCardVerify",
      "outputs": [],
      "stateMutability": "nonpayable",
      "type": "function"
    },
    {
      "inputs": [
        {
          "internalType": "string",
          "name": "_adhaar",
          "type": "string"
        },
        {
          "internalType": "string",
          "name": "_key",
          "type": "string"
        }
      ],
      "name": "isHostLinked",
      "outputs": [
        {
          "internalType": "bool",
          "name": "",
          "type": "bool"
        }
      ],
      "stateMutability": "view",
      "type": "function"
    },
    {
      "inputs": [
        {
          "internalType": "string",
          "name": "_adhaar",
          "type": "string"
        }
      ],
      "name": "lastHumanVerified",
      "outputs": [
        {
          "internalType": "uint256",
          "name": "",
          "type": "uint256"
        }
      ],
      "stateMutability": "view",
      "type": "function"
    },
    {
      "inputs": [
        {
          "internalType": "string",
          "name": "_adhaar",
          "type": "string"
        },
        {
          "internalType": "string",
          "name": "_key",
          "type": "string"
        }
      ],
      "name": "linkAHost",
      "outputs": [],
      "stateMutability": "nonpayable",
      "type": "function"
    },
    {
      "inputs": [
        {
          "internalType": "string",
          "name": "_adhaar",
          "type": "string"
        }
      ],
      "name": "loginIdentity",
      "outputs": [
        {
          "internalType": "bool",
          "name": "",
          "type": "bool"
        }
      ],
      "stateMutability": "view",
      "type": "function"
    },
    {
      "inputs": [
        {
          "internalType": "string",
          "name": "_adhaar",
          "type": "string"
        },
        {
          "internalType": "string",
          "name": "_key",
          "type": "string"
        }
      ],
      "name": "matchAPIKey",
      "outputs": [
        {
          "internalType": "bool",
          "name": "",
          "type": "bool"
        }
      ],
      "stateMutability": "view",
      "type": "function"
    },
    {
      "inputs": [
        {
          "internalType": "string",
          "name": "_adhaar",
          "type": "string"
        },
        {
          "internalType": "string",
          "name": "_name",
          "type": "string"
        },
        {
          "internalType": "uint256",
          "name": "_dob",
          "type": "uint256"
        },
        {
          "internalType": "string",
          "name": "_gender",
          "type": "string"
        },
        {
          "internalType": "string",
          "name": "_email",
          "type": "string"
        }
      ],
      "name": "registerIdentity",
      "outputs": [],
      "stateMutability": "nonpayable",
      "type": "function"
    },
    {
      "inputs": [
        {
          "internalType": "string",
          "name": "_adhaar",
          "type": "string"
        },
        {
          "internalType": "string[]",
          "name": "_questions",
          "type": "string[]"
        },
        {
          "internalType": "string[]",
          "name": "_answers",
          "type": "string[]"
        }
      ],
      "name": "registerSecurityQuestions",
      "outputs": [],
      "stateMutability": "nonpayable",
      "type": "function"
    },
    {
      "inputs": [
        {
          "internalType": "string",
          "name": "_adhaar",
          "type": "string"
        },
        {
          "internalType": "string",
          "name": "_key",
          "type": "string"
        }
      ],
      "name": "removeLinkedHost",
      "outputs": [
        {
          "internalType": "bool",
          "name": "",
          "type": "bool"
        }
      ],
      "stateMutability": "nonpayable",
      "type": "function"
    },
    {
      "inputs": [],
      "name": "returnEmailAddress",
      "outputs": [
        {
          "internalType": "string",
          "name": "",
          "type": "string"
        }
      ],
      "stateMutability": "view",
      "type": "function"
    },
    {
      "inputs": [],
      "name": "returnHosts",
      "outputs": [
        {
          "components": [
            {
              "internalType": "string",
              "name": "name",
              "type": "string"
            },
            {
              "internalType": "address",
              "name": "owner",
              "type": "address"
            },
            {
              "internalType": "string",
              "name": "adhaar",
              "type": "string"
            }
          ],
          "internalType": "struct Identity.Hosts[]",
          "name": "",
          "type": "tuple[]"
        }
      ],
      "stateMutability": "view",
      "type": "function"
    },
    {
      "inputs": [
        {
          "internalType": "string",
          "name": "_adhaar",
          "type": "string"
        }
      ],
      "name": "returnIdExpiry",
      "outputs": [
        {
          "internalType": "uint256",
          "name": "",
          "type": "uint256"
        }
      ],
      "stateMutability": "view",
      "type": "function"
    },
    {
      "inputs": [
        {
          "internalType": "string",
          "name": "_adhaar",
          "type": "string"
        }
      ],
      "name": "returnIdentity",
      "outputs": [
        {
          "components": [
            {
              "internalType": "address",
              "name": "owner",
              "type": "address"
            },
            {
              "internalType": "string",
              "name": "name",
              "type": "string"
            },
            {
              "internalType": "uint256",
              "name": "dateOfBirth",
              "type": "uint256"
            },
            {
              "internalType": "string",
              "name": "gender",
              "type": "string"
            },
            {
              "internalType": "string",
              "name": "emailAddress",
              "type": "string"
            }
          ],
          "internalType": "struct Identity.Data",
          "name": "",
          "type": "tuple"
        }
      ],
      "stateMutability": "view",
      "type": "function"
    },
    {
      "inputs": [
        {
          "internalType": "string",
          "name": "_adhaar",
          "type": "string"
        }
      ],
      "name": "returnSecurityQuestions",
      "outputs": [
        {
          "components": [
            {
              "internalType": "string[]",
              "name": "question",
              "type": "string[]"
            },
            {
              "internalType": "string[]",
              "name": "answer",
              "type": "string[]"
            }
          ],
          "internalType": "struct Identity.SecurityQuestions",
          "name": "",
          "type": "tuple"
        }
      ],
      "stateMutability": "view",
      "type": "function"
    }
  ],
  "bytecode": "0x608060405234801561001057600080fd5b506145a2806100206000396000f3fe608060405234801561001057600080fd5b506004361061012c5760003560e01c80637472c377116100ad578063b9ac1ce611610071578063b9ac1ce614610363578063bed34bba14610393578063c766c2c7146103c3578063d8a8f2d9146103f5578063e3830fe4146104135761012c565b80637472c3771461029b57806391e6e8b9146102b7578063a6ccdfb5146102e7578063adeb404d14610317578063b7632752146103335761012c565b806336588df9116100f457806336588df9146101d357806336f0e664146101ef57806360547f2a1461021f57806369e8c15b1461024f5780636c2752981461026b5761012c565b80630456da35146101315780630ffb9bca1461014d5780631864e7121461016b57806327ee999d146101875780632ba13510146101a3575b600080fd5b61014b60048036038101906101469190613314565b61042f565b005b610155610754565b6040516101629190613565565b60405180910390f35b61018560048036038101906101809190613314565b61092d565b005b6101a1600480360381019061019c9190613587565b610b93565b005b6101bd60048036038101906101b89190613587565b610d49565b6040516101ca91906136d6565b60405180910390f35b6101ed60048036038101906101e8919061372e565b6110c5565b005b61020960048036038101906102049190613314565b611254565b60405161021691906137a5565b60405180910390f35b61023960048036038101906102349190613314565b6115c8565b60405161024691906137a5565b60405180910390f35b610269600480360381019061026491906137c0565b611a77565b005b61028560048036038101906102809190613587565b611c28565b604051610292919061393e565b60405180910390f35b6102b560048036038101906102b09190613a46565b611fbc565b005b6102d160048036038101906102cc9190613587565b61219f565b6040516102de91906137a5565b60405180910390f35b61030160048036038101906102fc9190613587565b612326565b60405161030e9190613afc565b60405180910390f35b610331600480360381019061032c9190613b17565b6124dd565b005b61034d60048036038101906103489190613587565b612860565b60405161035a9190613afc565b60405180910390f35b61037d60048036038101906103789190613314565b612a17565b60405161038a91906137a5565b60405180910390f35b6103ad60048036038101906103a89190613314565b612bac565b6040516103ba91906137a5565b60405180910390f35b6103dd60048036038101906103d89190613bbe565b612c05565b6040516103ec93929190613c44565b60405180910390f35b6103fd612d6f565b60405161040a9190613c89565b60405180910390f35b61042d6004803603810190610428919061372e565b612ef2565b005b610500600260003373ffffffffffffffffffffffffffffffffffffffff1673ffffffffffffffffffffffffffffffffffffffff168152602001908152602001600020805461047c90613cda565b80601f01602080910402602001604051908101604052809291908181526020018280546104a890613cda565b80156104f55780601f106104ca576101008083540402835291602001916104f5565b820191906000526020600020905b8154815290600101906020018083116104d857829003601f168201915b505050505083612bac565b61050957600080fd5b6008816040516105199190613d47565b908152602001604051809103902060009054906101000a900460ff1615610575576040517f08c379a000000000000000000000000000000000000000000000000000000000815260040161056c90613daa565b60405180910390fd5b6003826040516105859190613d47565b908152602001604051809103902060009054906101000a900460ff16156105e1576040517f08c379a00000000000000000000000000000000000000000000000000000000081526004016105d890613e16565b60405180910390fd5b6000805b6006846040516105f59190613d47565b9081526020016040518091039020805490508110156106f7576106da6006856040516106219190613d47565b9081526020016040518091039020828154811061064157610640613e36565b5b90600052602060002001805461065690613cda565b80601f016020809104026020016040519081016040528092919081815260200182805461068290613cda565b80156106cf5780601f106106a4576101008083540402835291602001916106cf565b820191906000526020600020905b8154815290600101906020018083116106b257829003601f168201915b505050505084612bac565b156106e457600191505b80806106ef90613e94565b9150506105e5565b508061074f5760068360405161070d9190613d47565b90815260200160405180910390208290806001815401808255809150506001900390600052602060002001600090919091909150908161074d9190614088565b505b505050565b60606009805480602002602001604051908101604052809291908181526020016000905b8282101561092457838290600052602060002090600302016040518060600160405290816000820180546107ab90613cda565b80601f01602080910402602001604051908101604052809291908181526020018280546107d790613cda565b80156108245780601f106107f957610100808354040283529160200191610824565b820191906000526020600020905b81548152906001019060200180831161080757829003601f168201915b505050505081526020016001820160009054906101000a900473ffffffffffffffffffffffffffffffffffffffff1673ffffffffffffffffffffffffffffffffffffffff1673ffffffffffffffffffffffffffffffffffffffff16815260200160028201805461089390613cda565b80601f01602080910402602001604051908101604052809291908181526020018280546108bf90613cda565b801561090c5780601f106108e15761010080835404028352916020019161090c565b820191906000526020600020905b8154815290600101906020018083116108ef57829003601f168201915b50505050508152505081526020019060010190610778565b50505050905090565b6109fe600260003373ffffffffffffffffffffffffffffffffffffffff1673ffffffffffffffffffffffffffffffffffffffff168152602001908152602001600020805461097a90613cda565b80601f01602080910402602001604051908101604052809291908181526020018280546109a690613cda565b80156109f35780601f106109c8576101008083540402835291602001916109f3565b820191906000526020600020905b8154815290600101906020018083116109d657829003601f168201915b505050505083612bac565b610a0757600080fd5b3373ffffffffffffffffffffffffffffffffffffffff16600782604051610a2e9190613d47565b908152602001604051809103902060010160009054906101000a900473ffffffffffffffffffffffffffffffffffffffff1673ffffffffffffffffffffffffffffffffffffffff1614610a8057600080fd5b600382604051610a909190613d47565b908152602001604051809103902060009054906101000a900460ff1615610aec576040517f08c379a0000000000000000000000000000000000000000000000000000000008152600401610ae390613e16565b60405180910390fd5b600881604051610afc9190613d47565b908152602001604051809103902060009054906101000a900460ff1615610b58576040517f08c379a0000000000000000000000000000000000000000000000000000000008152600401610b4f90613daa565b60405180910390fd5b6001600882604051610b6a9190613d47565b908152602001604051809103902060006101000a81548160ff0219169083151502179055505050565b610c64600260003373ffffffffffffffffffffffffffffffffffffffff1673ffffffffffffffffffffffffffffffffffffffff1681526020019081526020016000208054610be090613cda565b80601f0160208091040260200160405190810160405280929190818152602001828054610c0c90613cda565b8015610c595780601f10610c2e57610100808354040283529160200191610c59565b820191906000526020600020905b815481529060010190602001808311610c3c57829003601f168201915b505050505082612bac565b610ca3576040517f08c379a0000000000000000000000000000000000000000000000000000000008152600401610c9a906141cc565b60405180910390fd5b600381604051610cb39190613d47565b908152602001604051809103902060009054906101000a900460ff1615610d0f576040517f08c379a0000000000000000000000000000000000000000000000000000000008152600401610d0690613e16565b60405180910390fd5b6001600382604051610d219190613d47565b908152602001604051809103902060006101000a81548160ff02191690831515021790555050565b610d51613081565b610e22600260003373ffffffffffffffffffffffffffffffffffffffff1673ffffffffffffffffffffffffffffffffffffffff1681526020019081526020016000208054610d9e90613cda565b80601f0160208091040260200160405190810160405280929190818152602001828054610dca90613cda565b8015610e175780601f10610dec57610100808354040283529160200191610e17565b820191906000526020600020905b815481529060010190602001808311610dfa57829003601f168201915b505050505083612bac565b610e2b57600080fd5b600382604051610e3b9190613d47565b908152602001604051809103902060009054906101000a900460ff1615610e97576040517f08c379a0000000000000000000000000000000000000000000000000000000008152600401610e8e90613e16565b60405180910390fd5b600182604051610ea79190613d47565b908152602001604051809103902060018084604051610ec69190613d47565b908152602001604051809103902080549050610ee291906141ec565b81548110610ef357610ef2613e36565b5b906000526020600020906002020160405180604001604052908160008201805480602002602001604051908101604052809291908181526020016000905b82821015610fdd578382906000526020600020018054610f5090613cda565b80601f0160208091040260200160405190810160405280929190818152602001828054610f7c90613cda565b8015610fc95780601f10610f9e57610100808354040283529160200191610fc9565b820191906000526020600020905b815481529060010190602001808311610fac57829003601f168201915b505050505081526020019060010190610f31565b50505050815260200160018201805480602002602001604051908101604052809291908181526020016000905b828210156110b657838290600052602060002001805461102990613cda565b80601f016020809104026020016040519081016040528092919081815260200182805461105590613cda565b80156110a25780601f10611077576101008083540402835291602001916110a2565b820191906000526020600020905b81548152906001019060200180831161108557829003601f168201915b50505050508152602001906001019061100a565b50505050815250509050919050565b611196600260003373ffffffffffffffffffffffffffffffffffffffff1673ffffffffffffffffffffffffffffffffffffffff168152602001908152602001600020805461111290613cda565b80601f016020809104026020016040519081016040528092919081815260200182805461113e90613cda565b801561118b5780601f106111605761010080835404028352916020019161118b565b820191906000526020600020905b81548152906001019060200180831161116e57829003601f168201915b505050505083612bac565b61119f57600080fd5b6003826040516111af9190613d47565b908152602001604051809103902060009054906101000a900460ff161561120b576040517f08c379a000000000000000000000000000000000000000000000000000000000815260040161120290613e16565b60405180910390fd5b60048260405161121b9190613d47565b90815260200160405180910390208190806001815401808255809150506001900390600052602060002001600090919091909150555050565b6000611327600260003373ffffffffffffffffffffffffffffffffffffffff1673ffffffffffffffffffffffffffffffffffffffff16815260200190815260200160002080546112a390613cda565b80601f01602080910402602001604051908101604052809291908181526020018280546112cf90613cda565b801561131c5780601f106112f15761010080835404028352916020019161131c565b820191906000526020600020905b8154815290600101906020018083116112ff57829003601f168201915b505050505084612bac565b611366576040517f08c379a000000000000000000000000000000000000000000000000000000000815260040161135d9061426c565b60405180910390fd5b6003836040516113769190613d47565b908152602001604051809103902060009054906101000a900460ff16156113d2576040517f08c379a00000000000000000000000000000000000000000000000000000000081526004016113c990613e16565b60405180910390fd5b60006006846040516113e49190613d47565b90815260200160405180910390208054905011611436576040517f08c379a000000000000000000000000000000000000000000000000000000000815260040161142d906142d8565b60405180910390fd5b6008826040516114469190613d47565b908152602001604051809103902060009054906101000a900460ff16156114a2576040517f08c379a000000000000000000000000000000000000000000000000000000000815260040161149990613daa565b60405180910390fd5b60005b6006846040516114b59190613d47565b9081526020016040518091039020805490508110156115bc5761159a6006856040516114e19190613d47565b9081526020016040518091039020828154811061150157611500613e36565b5b90600052602060002001805461151690613cda565b80601f016020809104026020016040519081016040528092919081815260200182805461154290613cda565b801561158f5780601f106115645761010080835404028352916020019161158f565b820191906000526020600020905b81548152906001019060200180831161157257829003601f168201915b505050505084612bac565b156115a95760019150506115c2565b80806115b490613e94565b9150506114a5565b50600090505b92915050565b600061169b600260003373ffffffffffffffffffffffffffffffffffffffff1673ffffffffffffffffffffffffffffffffffffffff168152602001908152602001600020805461161790613cda565b80601f016020809104026020016040519081016040528092919081815260200182805461164390613cda565b80156116905780601f1061166557610100808354040283529160200191611690565b820191906000526020600020905b81548152906001019060200180831161167357829003601f168201915b505050505084612bac565b6116da576040517f08c379a00000000000000000000000000000000000000000000000000000000081526004016116d19061426c565b60405180910390fd5b60006006846040516116ec9190613d47565b9081526020016040518091039020805490501161173e576040517f08c379a0000000000000000000000000000000000000000000000000000000008152600401611735906142d8565b60405180910390fd5b60038360405161174e9190613d47565b908152602001604051809103902060009054906101000a900460ff16156117aa576040517f08c379a00000000000000000000000000000000000000000000000000000000081526004016117a190613e16565b60405180910390fd5b6008826040516117ba9190613d47565b908152602001604051809103902060009054906101000a900460ff1615611816576040517f08c379a000000000000000000000000000000000000000000000000000000000815260040161180d90613daa565b60405180910390fd5b6000805b60068560405161182a9190613d47565b908152602001604051809103902080549050811015611a0c5761190f6006866040516118569190613d47565b9081526020016040518091039020828154811061187657611875613e36565b5b90600052602060002001805461188b90613cda565b80601f01602080910402602001604051908101604052809291908181526020018280546118b790613cda565b80156119045780601f106118d957610100808354040283529160200191611904565b820191906000526020600020905b8154815290600101906020018083116118e757829003601f168201915b505050505085612bac565b156119f9576001915060008190505b60016006876040516119309190613d47565b90815260200160405180910390208054905061194c91906141ec565b8110156119f3576006866040516119639190613d47565b908152602001604051809103902060018261197e91906142f8565b8154811061198f5761198e613e36565b5b906000526020600020016006876040516119a99190613d47565b908152602001604051809103902082815481106119c9576119c8613e36565b5b9060005260206000200190816119df9190614357565b5080806119eb90613e94565b91505061191e565b50611a0c565b8080611a0490613e94565b91505061181a565b5060008103611a1f576000915050611a71565b600684604051611a2f9190613d47565b9081526020016040518091039020805480611a4d57611a4c61443f565b5b600190038181906000526020600020016000611a69919061309b565b905560019150505b92915050565b600385604051611a879190613d47565b908152602001604051809103902060009054906101000a900460ff1615611ae3576040517f08c379a0000000000000000000000000000000000000000000000000000000008152600401611ada90613e16565b60405180910390fd5b6040518060a001604052803373ffffffffffffffffffffffffffffffffffffffff16815260200185815260200184815260200183815260200182815250600086604051611b309190613d47565b908152602001604051809103902060008201518160000160006101000a81548173ffffffffffffffffffffffffffffffffffffffff021916908373ffffffffffffffffffffffffffffffffffffffff1602179055506020820151816001019081611b9a9190614088565b50604082015181600201556060820151816003019081611bba9190614088565b506080820151816004019081611bd09190614088565b5090505084600260003373ffffffffffffffffffffffffffffffffffffffff1673ffffffffffffffffffffffffffffffffffffffff1681526020019081526020016000209081611c209190614088565b505050505050565b611c306130db565b611d01600260003373ffffffffffffffffffffffffffffffffffffffff1673ffffffffffffffffffffffffffffffffffffffff1681526020019081526020016000208054611c7d90613cda565b80601f0160208091040260200160405190810160405280929190818152602001828054611ca990613cda565b8015611cf65780601f10611ccb57610100808354040283529160200191611cf6565b820191906000526020600020905b815481529060010190602001808311611cd957829003601f168201915b505050505083612bac565b611d0a57600080fd5b600382604051611d1a9190613d47565b908152602001604051809103902060009054906101000a900460ff1615611d76576040517f08c379a0000000000000000000000000000000000000000000000000000000008152600401611d6d90613e16565b60405180910390fd5b600082604051611d869190613d47565b90815260200160405180910390206040518060a00160405290816000820160009054906101000a900473ffffffffffffffffffffffffffffffffffffffff1673ffffffffffffffffffffffffffffffffffffffff1673ffffffffffffffffffffffffffffffffffffffff168152602001600182018054611e0590613cda565b80601f0160208091040260200160405190810160405280929190818152602001828054611e3190613cda565b8015611e7e5780601f10611e5357610100808354040283529160200191611e7e565b820191906000526020600020905b815481529060010190602001808311611e6157829003601f168201915b5050505050815260200160028201548152602001600382018054611ea190613cda565b80601f0160208091040260200160405190810160405280929190818152602001828054611ecd90613cda565b8015611f1a5780601f10611eef57610100808354040283529160200191611f1a565b820191906000526020600020905b815481529060010190602001808311611efd57829003601f168201915b50505050508152602001600482018054611f3390613cda565b80601f0160208091040260200160405190810160405280929190818152602001828054611f5f90613cda565b8015611fac5780601f10611f8157610100808354040283529160200191611fac565b820191906000526020600020905b815481529060010190602001808311611f8f57829003601f168201915b5050505050815250509050919050565b61208d600260003373ffffffffffffffffffffffffffffffffffffffff1673ffffffffffffffffffffffffffffffffffffffff168152602001908152602001600020805461200990613cda565b80601f016020809104026020016040519081016040528092919081815260200182805461203590613cda565b80156120825780601f1061205757610100808354040283529160200191612082565b820191906000526020600020905b81548152906001019060200180831161206557829003601f168201915b505050505084612bac565b61209657600080fd5b6003836040516120a69190613d47565b908152602001604051809103902060009054906101000a900460ff1615612102576040517f08c379a00000000000000000000000000000000000000000000000000000000081526004016120f990613e16565b60405180910390fd5b6001836040516121129190613d47565b90815260200160405180910390206040518060400160405280848152602001838152509080600181540180825580915050600190039060005260206000209060020201600090919091909150600082015181600001908051906020019061217a929190613120565b506020820151816001019080519060200190612197929190613120565b505050505050565b6000612272600260003373ffffffffffffffffffffffffffffffffffffffff1673ffffffffffffffffffffffffffffffffffffffff16815260200190815260200160002080546121ee90613cda565b80601f016020809104026020016040519081016040528092919081815260200182805461221a90613cda565b80156122675780601f1061223c57610100808354040283529160200191612267565b820191906000526020600020905b81548152906001019060200180831161224a57829003601f168201915b505050505083612bac565b6122b1576040517f08c379a00000000000000000000000000000000000000000000000000000000081526004016122a8906144e0565b60405180910390fd5b6003826040516122c19190613d47565b908152602001604051809103902060009054906101000a900460ff161561231d576040517f08c379a000000000000000000000000000000000000000000000000000000000815260040161231490613e16565b60405180910390fd5b60019050919050565b60006123f9600260003373ffffffffffffffffffffffffffffffffffffffff1673ffffffffffffffffffffffffffffffffffffffff168152602001908152602001600020805461237590613cda565b80601f01602080910402602001604051908101604052809291908181526020018280546123a190613cda565b80156123ee5780601f106123c3576101008083540402835291602001916123ee565b820191906000526020600020905b8154815290600101906020018083116123d157829003601f168201915b505050505083612bac565b61240257600080fd5b6003826040516124129190613d47565b908152602001604051809103902060009054906101000a900460ff161561246e576040517f08c379a000000000000000000000000000000000000000000000000000000000815260040161246590613e16565b60405180910390fd5b60058260405161247e9190613d47565b9081526020016040518091039020600160058460405161249e9190613d47565b9081526020016040518091039020805490506124ba91906141ec565b815481106124cb576124ca613e36565b5b90600052602060002001549050919050565b6125ae600260003373ffffffffffffffffffffffffffffffffffffffff1673ffffffffffffffffffffffffffffffffffffffff168152602001908152602001600020805461252a90613cda565b80601f016020809104026020016040519081016040528092919081815260200182805461255690613cda565b80156125a35780601f10612578576101008083540402835291602001916125a3565b820191906000526020600020905b81548152906001019060200180831161258657829003601f168201915b505050505084612bac565b6125ed576040517f08c379a00000000000000000000000000000000000000000000000000000000081526004016125e49061454c565b60405180910390fd5b6003836040516125fd9190613d47565b908152602001604051809103902060009054906101000a900460ff1615612659576040517f08c379a000000000000000000000000000000000000000000000000000000000815260040161265090613e16565b60405180910390fd5b6008816040516126699190613d47565b908152602001604051809103902060009054906101000a900460ff16156126c5576040517f08c379a00000000000000000000000000000000000000000000000000000000081526004016126bc90613daa565b60405180910390fd5b60405180606001604052808381526020013373ffffffffffffffffffffffffffffffffffffffff168152602001848152506007826040516127069190613d47565b908152602001604051809103902060008201518160000190816127299190614088565b5060208201518160010160006101000a81548173ffffffffffffffffffffffffffffffffffffffff021916908373ffffffffffffffffffffffffffffffffffffffff16021790555060408201518160020190816127869190614088565b50905050600960405180606001604052808481526020013373ffffffffffffffffffffffffffffffffffffffff16815260200185815250908060018154018082558091505060019003906000526020600020906003020160009091909190915060008201518160000190816127fb9190614088565b5060208201518160010160006101000a81548173ffffffffffffffffffffffffffffffffffffffff021916908373ffffffffffffffffffffffffffffffffffffffff16021790555060408201518160020190816128589190614088565b505050505050565b6000612933600260003373ffffffffffffffffffffffffffffffffffffffff1673ffffffffffffffffffffffffffffffffffffffff16815260200190815260200160002080546128af90613cda565b80601f01602080910402602001604051908101604052809291908181526020018280546128db90613cda565b80156129285780601f106128fd57610100808354040283529160200191612928565b820191906000526020600020905b81548152906001019060200180831161290b57829003601f168201915b505050505083612bac565b61293c57600080fd5b60038260405161294c9190613d47565b908152602001604051809103902060009054906101000a900460ff16156129a8576040517f08c379a000000000000000000000000000000000000000000000000000000000815260040161299f90613e16565b60405180910390fd5b6004826040516129b89190613d47565b908152602001604051809103902060016004846040516129d89190613d47565b9081526020016040518091039020805490506129f491906141ec565b81548110612a0557612a04613e36565b5b90600052602060002001549050919050565b6000600383604051612a299190613d47565b908152602001604051809103902060009054906101000a900460ff1615612a85576040517f08c379a0000000000000000000000000000000000000000000000000000000008152600401612a7c90613e16565b60405180910390fd5b600882604051612a959190613d47565b908152602001604051809103902060009054906101000a900460ff1615612af1576040517f08c379a0000000000000000000000000000000000000000000000000000000008152600401612ae890613daa565b60405180910390fd5b612ba4600783604051612b049190613d47565b90815260200160405180910390206002018054612b2090613cda565b80601f0160208091040260200160405190810160405280929190818152602001828054612b4c90613cda565b8015612b995780601f10612b6e57610100808354040283529160200191612b99565b820191906000526020600020905b815481529060010190602001808311612b7c57829003601f168201915b505050505084612bac565b905092915050565b600081604051602001612bbf9190613d47565b6040516020818303038152906040528051906020012083604051602001612be69190613d47565b6040516020818303038152906040528051906020012014905092915050565b60098181548110612c1557600080fd5b9060005260206000209060030201600091509050806000018054612c3890613cda565b80601f0160208091040260200160405190810160405280929190818152602001828054612c6490613cda565b8015612cb15780601f10612c8657610100808354040283529160200191612cb1565b820191906000526020600020905b815481529060010190602001808311612c9457829003601f168201915b5050505050908060010160009054906101000a900473ffffffffffffffffffffffffffffffffffffffff1690806002018054612cec90613cda565b80601f0160208091040260200160405190810160405280929190818152602001828054612d1890613cda565b8015612d655780601f10612d3a57610100808354040283529160200191612d65565b820191906000526020600020905b815481529060010190602001808311612d4857829003601f168201915b5050505050905083565b60606000600260003373ffffffffffffffffffffffffffffffffffffffff1673ffffffffffffffffffffffffffffffffffffffff1681526020019081526020016000208054612dbd90613cda565b80601f0160208091040260200160405190810160405280929190818152602001828054612de990613cda565b8015612e365780601f10612e0b57610100808354040283529160200191612e36565b820191906000526020600020905b815481529060010190602001808311612e1957829003601f168201915b5050505050905060008082604051612e4e9190613d47565b90815260200160405180910390206004018054612e6a90613cda565b80601f0160208091040260200160405190810160405280929190818152602001828054612e9690613cda565b8015612ee35780601f10612eb857610100808354040283529160200191612ee3565b820191906000526020600020905b815481529060010190602001808311612ec657829003601f168201915b50505050509050809250505090565b612fc3600260003373ffffffffffffffffffffffffffffffffffffffff1673ffffffffffffffffffffffffffffffffffffffff1681526020019081526020016000208054612f3f90613cda565b80601f0160208091040260200160405190810160405280929190818152602001828054612f6b90613cda565b8015612fb85780601f10612f8d57610100808354040283529160200191612fb8565b820191906000526020600020905b815481529060010190602001808311612f9b57829003601f168201915b505050505083612bac565b612fcc57600080fd5b600382604051612fdc9190613d47565b908152602001604051809103902060009054906101000a900460ff1615613038576040517f08c379a000000000000000000000000000000000000000000000000000000000815260040161302f90613e16565b60405180910390fd5b6005826040516130489190613d47565b90815260200160405180910390208190806001815401808255809150506001900390600052602060002001600090919091909150555050565b604051806040016040528060608152602001606081525090565b5080546130a790613cda565b6000825580601f106130b957506130d8565b601f0160209004906000526020600020908101906130d79190613179565b5b50565b6040518060a00160405280600073ffffffffffffffffffffffffffffffffffffffff168152602001606081526020016000815260200160608152602001606081525090565b828054828255906000526020600020908101928215613168579160200282015b828111156131675782518290816131579190614088565b5091602001919060010190613140565b5b5090506131759190613196565b5090565b5b8082111561319257600081600090555060010161317a565b5090565b5b808211156131b657600081816131ad919061309b565b50600101613197565b5090565b6000604051905090565b600080fd5b600080fd5b600080fd5b600080fd5b6000601f19601f8301169050919050565b7f4e487b7100000000000000000000000000000000000000000000000000000000600052604160045260246000fd5b613221826131d8565b810181811067ffffffffffffffff821117156132405761323f6131e9565b5b80604052505050565b60006132536131ba565b905061325f8282613218565b919050565b600067ffffffffffffffff82111561327f5761327e6131e9565b5b613288826131d8565b9050602081019050919050565b82818337600083830152505050565b60006132b76132b284613264565b613249565b9050828152602081018484840111156132d3576132d26131d3565b5b6132de848285613295565b509392505050565b600082601f8301126132fb576132fa6131ce565b5b813561330b8482602086016132a4565b91505092915050565b6000806040838503121561332b5761332a6131c4565b5b600083013567ffffffffffffffff811115613349576133486131c9565b5b613355858286016132e6565b925050602083013567ffffffffffffffff811115613376576133756131c9565b5b613382858286016132e6565b9150509250929050565b600081519050919050565b600082825260208201905092915050565b6000819050602082019050919050565b600081519050919050565b600082825260208201905092915050565b60005b838110156133f25780820151818401526020810190506133d7565b60008484015250505050565b6000613409826133b8565b61341381856133c3565b93506134238185602086016133d4565b61342c816131d8565b840191505092915050565b600073ffffffffffffffffffffffffffffffffffffffff82169050919050565b600061346282613437565b9050919050565b61347281613457565b82525050565b6000606083016000830151848203600086015261349582826133fe565b91505060208301516134aa6020860182613469565b50604083015184820360408601526134c282826133fe565b9150508091505092915050565b60006134db8383613478565b905092915050565b6000602082019050919050565b60006134fb8261338c565b6135058185613397565b935083602082028501613517856133a8565b8060005b85811015613553578484038952815161353485826134cf565b945061353f836134e3565b925060208a0199505060018101905061351b565b50829750879550505050505092915050565b6000602082019050818103600083015261357f81846134f0565b905092915050565b60006020828403121561359d5761359c6131c4565b5b600082013567ffffffffffffffff8111156135bb576135ba6131c9565b5b6135c7848285016132e6565b91505092915050565b600081519050919050565b600082825260208201905092915050565b6000819050602082019050919050565b600061360883836133fe565b905092915050565b6000602082019050919050565b6000613628826135d0565b61363281856135db565b935083602082028501613644856135ec565b8060005b85811015613680578484038952815161366185826135fc565b945061366c83613610565b925060208a01995050600181019050613648565b50829750879550505050505092915050565b600060408301600083015184820360008601526136af828261361d565b915050602083015184820360208601526136c9828261361d565b9150508091505092915050565b600060208201905081810360008301526136f08184613692565b905092915050565b6000819050919050565b61370b816136f8565b811461371657600080fd5b50565b60008135905061372881613702565b92915050565b60008060408385031215613745576137446131c4565b5b600083013567ffffffffffffffff811115613763576137626131c9565b5b61376f858286016132e6565b925050602061378085828601613719565b9150509250929050565b60008115159050919050565b61379f8161378a565b82525050565b60006020820190506137ba6000830184613796565b92915050565b600080600080600060a086880312156137dc576137db6131c4565b5b600086013567ffffffffffffffff8111156137fa576137f96131c9565b5b613806888289016132e6565b955050602086013567ffffffffffffffff811115613827576138266131c9565b5b613833888289016132e6565b945050604061384488828901613719565b935050606086013567ffffffffffffffff811115613865576138646131c9565b5b613871888289016132e6565b925050608086013567ffffffffffffffff811115613892576138916131c9565b5b61389e888289016132e6565b9150509295509295909350565b6138b4816136f8565b82525050565b600060a0830160008301516138d26000860182613469565b50602083015184820360208601526138ea82826133fe565b91505060408301516138ff60408601826138ab565b506060830151848203606086015261391782826133fe565b9150506080830151848203608086015261393182826133fe565b9150508091505092915050565b6000602082019050818103600083015261395881846138ba565b905092915050565b600067ffffffffffffffff82111561397b5761397a6131e9565b5b602082029050602081019050919050565b600080fd5b60006139a461399f84613960565b613249565b905080838252602082019050602084028301858111156139c7576139c661398c565b5b835b81811015613a0e57803567ffffffffffffffff8111156139ec576139eb6131ce565b5b8086016139f989826132e6565b855260208501945050506020810190506139c9565b5050509392505050565b600082601f830112613a2d57613a2c6131ce565b5b8135613a3d848260208601613991565b91505092915050565b600080600060608486031215613a5f57613a5e6131c4565b5b600084013567ffffffffffffffff811115613a7d57613a7c6131c9565b5b613a89868287016132e6565b935050602084013567ffffffffffffffff811115613aaa57613aa96131c9565b5b613ab686828701613a18565b925050604084013567ffffffffffffffff811115613ad757613ad66131c9565b5b613ae386828701613a18565b9150509250925092565b613af6816136f8565b82525050565b6000602082019050613b116000830184613aed565b92915050565b600080600060608486031215613b3057613b2f6131c4565b5b600084013567ffffffffffffffff811115613b4e57613b4d6131c9565b5b613b5a868287016132e6565b935050602084013567ffffffffffffffff811115613b7b57613b7a6131c9565b5b613b87868287016132e6565b925050604084013567ffffffffffffffff811115613ba857613ba76131c9565b5b613bb4868287016132e6565b9150509250925092565b600060208284031215613bd457613bd36131c4565b5b6000613be284828501613719565b91505092915050565b600082825260208201905092915050565b6000613c07826133b8565b613c118185613beb565b9350613c218185602086016133d4565b613c2a816131d8565b840191505092915050565b613c3e81613457565b82525050565b60006060820190508181036000830152613c5e8186613bfc565b9050613c6d6020830185613c35565b8181036040830152613c7f8184613bfc565b9050949350505050565b60006020820190508181036000830152613ca38184613bfc565b905092915050565b7f4e487b7100000000000000000000000000000000000000000000000000000000600052602260045260246000fd5b60006002820490506001821680613cf257607f821691505b602082108103613d0557613d04613cab565b5b50919050565b600081905092915050565b6000613d21826133b8565b613d2b8185613d0b565b9350613d3b8185602086016133d4565b80840191505092915050565b6000613d538284613d16565b915081905092915050565b7f4150492068617320616c7265616479206265656e206465616374697661746564600082015250565b6000613d94602083613beb565b9150613d9f82613d5e565b602082019050919050565b60006020820190508181036000830152613dc381613d87565b9050919050565b7f41646861617220686173206265656e2064656163746976617465640000000000600082015250565b6000613e00601b83613beb565b9150613e0b82613dca565b602082019050919050565b60006020820190508181036000830152613e2f81613df3565b9050919050565b7f4e487b7100000000000000000000000000000000000000000000000000000000600052603260045260246000fd5b7f4e487b7100000000000000000000000000000000000000000000000000000000600052601160045260246000fd5b6000613e9f826136f8565b91507fffffffffffffffffffffffffffffffffffffffffffffffffffffffffffffffff8203613ed157613ed0613e65565b5b600182019050919050565b60008190508160005260206000209050919050565b60006020601f8301049050919050565b600082821b905092915050565b600060088302613f3e7fffffffffffffffffffffffffffffffffffffffffffffffffffffffffffffffff82613f01565b613f488683613f01565b95508019841693508086168417925050509392505050565b6000819050919050565b6000613f85613f80613f7b846136f8565b613f60565b6136f8565b9050919050565b6000819050919050565b613f9f83613f6a565b613fb3613fab82613f8c565b848454613f0e565b825550505050565b600090565b613fc8613fbb565b613fd3818484613f96565b505050565b5b81811015613ff757613fec600082613fc0565b600181019050613fd9565b5050565b601f82111561403c5761400d81613edc565b61401684613ef1565b81016020851015614025578190505b61403961403185613ef1565b830182613fd8565b50505b505050565b600082821c905092915050565b600061405f60001984600802614041565b1980831691505092915050565b6000614078838361404e565b9150826002028217905092915050565b614091826133b8565b67ffffffffffffffff8111156140aa576140a96131e9565b5b6140b48254613cda565b6140bf828285613ffb565b600060209050601f8311600181146140f257600084156140e0578287015190505b6140ea858261406c565b865550614152565b601f19841661410086613edc565b60005b8281101561412857848901518255600182019150602085019450602081019050614103565b868310156141455784890151614141601f89168261404e565b8355505b6001600288020188555050505b505050505050565b7f4164647265737320646f6573206e6f742062656c6f6e6720746f20616468616160008201527f7220686f6c646572000000000000000000000000000000000000000000000000602082015250565b60006141b6602883613beb565b91506141c18261415a565b604082019050919050565b600060208201905081810360008301526141e5816141a9565b9050919050565b60006141f7826136f8565b9150614202836136f8565b925082820390508181111561421a57614219613e65565b5b92915050565b7f4964656e7469747920646f6573206e6f74206578697374000000000000000000600082015250565b6000614256601783613beb565b915061426182614220565b602082019050919050565b6000602082019050818103600083015261428581614249565b9050919050565b7f4e6f20686f737473206c696e6b65642079657421000000000000000000000000600082015250565b60006142c2601483613beb565b91506142cd8261428c565b602082019050919050565b600060208201905081810360008301526142f1816142b5565b9050919050565b6000614303826136f8565b915061430e836136f8565b925082820190508082111561432657614325613e65565b5b92915050565b60008154905061433b81613cda565b9050919050565b60008190508160005260206000209050919050565b81810361436557505061443d565b61436e8261432c565b67ffffffffffffffff811115614387576143866131e9565b5b6143918254613cda565b61439c828285613ffb565b6000601f8311600181146143cb57600084156143b9578287015490505b6143c3858261406c565b865550614436565b601f1984166143d987614342565b96506143e486613edc565b60005b8281101561440c578489015482556001820191506001850194506020810190506143e7565b868310156144295784890154614425601f89168261404e565b8355505b6001600288020188555050505b5050505050505b565b7f4e487b7100000000000000000000000000000000000000000000000000000000600052603160045260246000fd5b7f57616c6c657420646f6573206e6f742062656c6f6e6720746f2074686520616460008201527f6861617220686f6c646572210000000000000000000000000000000000000000602082015250565b60006144ca602c83613beb565b91506144d58261446e565b604082019050919050565b600060208201905081810360008301526144f9816144bd565b9050919050565b7f54686520686f7374206d75737420626520766572696669656421000000000000600082015250565b6000614536601a83613beb565b915061454182614500565b602082019050919050565b6000602082019050818103600083015261456581614529565b905091905056fea264697066735822122050d4cdbec5437248a3bf8ebb37d26eab28afae63b9db04f21b26162dfdaba12864736f6c63430008110033",
  "linkReferences": {},
  "deployedLinkReferences": {}
}