{
  "_format": "hh-sol-artifact-1",
  "contractName": "Identity",
  "sourceName": "contracts/Identity.sol",
  "abi": [
    {
      "inputs": [
        {
          "internalType": "uint256",
          "name": "",
          "type": "uint256"
        }
      ],
      "name": "allHosts",
      "outputs": [
        {
          "internalType": "string",
          "name": "name",
          "type": "string"
        },
        {
          "internalType": "address",
          "name": "owner",
          "type": "address"
        },
        {
          "internalType": "string",
          "name": "apiKey",
          "type": "string"
        }
      ],
      "stateMutability": "view",
      "type": "function"
    },
    {
      "inputs": [
        {
          "internalType": "string",
          "name": "a",
          "type": "string"
        },
        {
          "internalType": "string",
          "name": "b",
          "type": "string"
        }
      ],
      "name": "compareStrings",
      "outputs": [
        {
          "internalType": "bool",
          "name": "",
          "type": "bool"
        }
      ],
      "stateMutability": "pure",
      "type": "function"
    },
    {
      "inputs": [
        {
          "internalType": "string",
          "name": "_adhaar",
          "type": "string"
        }
      ],
      "name": "deactivate",
      "outputs": [],
      "stateMutability": "nonpayable",
      "type": "function"
    },
    {
      "inputs": [
        {
          "internalType": "string",
          "name": "_adhaar",
          "type": "string"
        },
        {
          "internalType": "string",
          "name": "_key",
          "type": "string"
        }
      ],
      "name": "deactivateHost",
      "outputs": [],
      "stateMutability": "nonpayable",
      "type": "function"
    },
    {
      "inputs": [
        {
          "internalType": "string",
          "name": "_adhaar",
          "type": "string"
        },
        {
          "internalType": "string",
          "name": "_name",
          "type": "string"
        },
        {
          "internalType": "string",
          "name": "_key",
          "type": "string"
        }
      ],
      "name": "generateAPIKeyForHost",
      "outputs": [],
      "stateMutability": "nonpayable",
      "type": "function"
    },
    {
      "inputs": [
        {
          "internalType": "string",
          "name": "_adhaar",
          "type": "string"
        },
        {
          "internalType": "uint256",
          "name": "_today",
          "type": "uint256"
        }
      ],
      "name": "humanVerify",
      "outputs": [],
      "stateMutability": "nonpayable",
      "type": "function"
    },
    {
      "inputs": [
        {
          "internalType": "string",
          "name": "_adhaar",
          "type": "string"
        },
        {
          "internalType": "uint256",
          "name": "_expiry",
          "type": "uint256"
        }
      ],
      "name": "idCardVerify",
      "outputs": [],
      "stateMutability": "nonpayable",
      "type": "function"
    },
    {
      "inputs": [
        {
          "internalType": "string",
          "name": "_adhaar",
          "type": "string"
        },
        {
          "internalType": "string",
          "name": "_key",
          "type": "string"
        }
      ],
      "name": "isHostLinked",
      "outputs": [
        {
          "internalType": "bool",
          "name": "",
          "type": "bool"
        }
      ],
      "stateMutability": "view",
      "type": "function"
    },
    {
      "inputs": [
        {
          "internalType": "string",
          "name": "_adhaar",
          "type": "string"
        }
      ],
      "name": "lastHumanVerified",
      "outputs": [
        {
          "internalType": "uint256",
          "name": "",
          "type": "uint256"
        }
      ],
      "stateMutability": "view",
      "type": "function"
    },
    {
      "inputs": [
        {
          "internalType": "string",
          "name": "_adhaar",
          "type": "string"
        },
        {
          "internalType": "string",
          "name": "_key",
          "type": "string"
        }
      ],
      "name": "linkAHost",
      "outputs": [],
      "stateMutability": "nonpayable",
      "type": "function"
    },
    {
      "inputs": [
        {
          "internalType": "string",
          "name": "_adhaar",
          "type": "string"
        },
        {
          "internalType": "string",
          "name": "_name",
          "type": "string"
        },
        {
          "internalType": "uint256",
          "name": "_dob",
          "type": "uint256"
        },
        {
          "internalType": "string",
          "name": "_gender",
          "type": "string"
        },
        {
          "internalType": "string",
          "name": "_email",
          "type": "string"
        },
        {
          "internalType": "string",
          "name": "_hashedPwd",
          "type": "string"
        }
      ],
      "name": "registerIdentity",
      "outputs": [
        {
          "internalType": "bool",
          "name": "",
          "type": "bool"
        }
      ],
      "stateMutability": "nonpayable",
      "type": "function"
    },
    {
      "inputs": [
        {
          "internalType": "string",
          "name": "_adhaar",
          "type": "string"
        },
        {
          "internalType": "string",
          "name": "_key",
          "type": "string"
        }
      ],
      "name": "removeLinkedHost",
      "outputs": [
        {
          "internalType": "bool",
          "name": "",
          "type": "bool"
        }
      ],
      "stateMutability": "nonpayable",
      "type": "function"
    },
    {
      "inputs": [],
      "name": "returnHosts",
      "outputs": [
        {
          "components": [
            {
              "internalType": "string",
              "name": "name",
              "type": "string"
            },
            {
              "internalType": "address",
              "name": "owner",
              "type": "address"
            },
            {
              "internalType": "string",
              "name": "apiKey",
              "type": "string"
            }
          ],
          "internalType": "struct Identity.Hosts[]",
          "name": "",
          "type": "tuple[]"
        }
      ],
      "stateMutability": "view",
      "type": "function"
    },
    {
      "inputs": [
        {
          "internalType": "string",
          "name": "_adhaar",
          "type": "string"
        }
      ],
      "name": "returnIdExpiry",
      "outputs": [
        {
          "internalType": "uint256",
          "name": "",
          "type": "uint256"
        }
      ],
      "stateMutability": "view",
      "type": "function"
    },
    {
      "inputs": [
        {
          "internalType": "string",
          "name": "_adhaar",
          "type": "string"
        }
      ],
      "name": "returnIdentity",
      "outputs": [
        {
          "components": [
            {
              "internalType": "address",
              "name": "owner",
              "type": "address"
            },
            {
              "internalType": "string",
              "name": "name",
              "type": "string"
            },
            {
              "internalType": "uint256",
              "name": "dateOfBirth",
              "type": "uint256"
            },
            {
              "internalType": "string",
              "name": "gender",
              "type": "string"
            },
            {
              "internalType": "string",
              "name": "emailAddress",
              "type": "string"
            },
            {
              "internalType": "string",
              "name": "hashedPwd",
              "type": "string"
            }
          ],
          "internalType": "struct Identity.Data",
          "name": "",
          "type": "tuple"
        }
      ],
      "stateMutability": "view",
      "type": "function"
    }
  ],
  "bytecode": "0x608060405234801561001057600080fd5b50613745806100206000396000f3fe608060405234801561001057600080fd5b50600436106100f55760003560e01c806360547f2a11610097578063b763275211610066578063b763275214610294578063bed34bba146102c4578063c766c2c7146102f4578063e3830fe414610326576100f5565b806360547f2a146101e85780636c27529814610218578063a6ccdfb514610248578063adeb404d14610278576100f5565b806327ee999d116100d357806327ee999d1461015057806336588df91461016c57806336f0e664146101885780633c826310146101b8576100f5565b80630456da35146100fa5780630ffb9bca146101165780631864e71214610134575b600080fd5b610114600480360381019061010f91906127d8565b610342565b005b61011e610549565b60405161012b9190612a29565b60405180910390f35b61014e600480360381019061014991906127d8565b610722565b005b61016a60048036038101906101659190612a4b565b610988565b005b61018660048036038101906101819190612aca565b610b3e565b005b6101a2600480360381019061019d91906127d8565b610ccd565b6040516101af9190612b41565b60405180910390f35b6101d260048036038101906101cd9190612b5c565b611041565b6040516101df9190612b41565b60405180910390f35b61020260048036038101906101fd91906127d8565b6112bd565b60405161020f9190612b41565b60405180910390f35b610232600480360381019061022d9190612a4b565b61176c565b60405161023f9190612d22565b60405180910390f35b610262600480360381019061025d9190612a4b565b611b92565b60405161026f9190612d53565b60405180910390f35b610292600480360381019061028d9190612d6e565b611d49565b005b6102ae60048036038101906102a99190612a4b565b6120cc565b6040516102bb9190612d53565b60405180910390f35b6102de60048036038101906102d991906127d8565b612283565b6040516102eb9190612b41565b60405180910390f35b61030e60048036038101906103099190612e15565b6122dc565b60405161031d93929190612e9b565b60405180910390f35b610340600480360381019061033b9190612aca565b612446565b005b610413600160003373ffffffffffffffffffffffffffffffffffffffff1673ffffffffffffffffffffffffffffffffffffffff168152602001908152602001600020805461038f90612f0f565b80601f01602080910402602001604051908101604052809291908181526020018280546103bb90612f0f565b80156104085780601f106103dd57610100808354040283529160200191610408565b820191906000526020600020905b8154815290600101906020018083116103eb57829003601f168201915b505050505083612283565b61041c57600080fd5b60078160405161042c9190612f7c565b908152602001604051809103902060009054906101000a900460ff1615610488576040517f08c379a000000000000000000000000000000000000000000000000000000000815260040161047f90612fdf565b60405180910390fd5b6002826040516104989190612f7c565b908152602001604051809103902060009054906101000a900460ff16156104f4576040517f08c379a00000000000000000000000000000000000000000000000000000000081526004016104eb9061304b565b60405180910390fd5b6005826040516105049190612f7c565b9081526020016040518091039020819080600181540180825580915050600190039060005260206000200160009091909190915090816105449190613217565b505050565b60606008805480602002602001604051908101604052809291908181526020016000905b8282101561071957838290600052602060002090600302016040518060600160405290816000820180546105a090612f0f565b80601f01602080910402602001604051908101604052809291908181526020018280546105cc90612f0f565b80156106195780601f106105ee57610100808354040283529160200191610619565b820191906000526020600020905b8154815290600101906020018083116105fc57829003601f168201915b505050505081526020016001820160009054906101000a900473ffffffffffffffffffffffffffffffffffffffff1673ffffffffffffffffffffffffffffffffffffffff1673ffffffffffffffffffffffffffffffffffffffff16815260200160028201805461068890612f0f565b80601f01602080910402602001604051908101604052809291908181526020018280546106b490612f0f565b80156107015780601f106106d657610100808354040283529160200191610701565b820191906000526020600020905b8154815290600101906020018083116106e457829003601f168201915b5050505050815250508152602001906001019061056d565b50505050905090565b6107f3600160003373ffffffffffffffffffffffffffffffffffffffff1673ffffffffffffffffffffffffffffffffffffffff168152602001908152602001600020805461076f90612f0f565b80601f016020809104026020016040519081016040528092919081815260200182805461079b90612f0f565b80156107e85780601f106107bd576101008083540402835291602001916107e8565b820191906000526020600020905b8154815290600101906020018083116107cb57829003601f168201915b505050505083612283565b6107fc57600080fd5b3373ffffffffffffffffffffffffffffffffffffffff166006826040516108239190612f7c565b908152602001604051809103902060010160009054906101000a900473ffffffffffffffffffffffffffffffffffffffff1673ffffffffffffffffffffffffffffffffffffffff161461087557600080fd5b6002826040516108859190612f7c565b908152602001604051809103902060009054906101000a900460ff16156108e1576040517f08c379a00000000000000000000000000000000000000000000000000000000081526004016108d89061304b565b60405180910390fd5b6007816040516108f19190612f7c565b908152602001604051809103902060009054906101000a900460ff161561094d576040517f08c379a000000000000000000000000000000000000000000000000000000000815260040161094490612fdf565b60405180910390fd5b600160078260405161095f9190612f7c565b908152602001604051809103902060006101000a81548160ff0219169083151502179055505050565b610a59600160003373ffffffffffffffffffffffffffffffffffffffff1673ffffffffffffffffffffffffffffffffffffffff16815260200190815260200160002080546109d590612f0f565b80601f0160208091040260200160405190810160405280929190818152602001828054610a0190612f0f565b8015610a4e5780601f10610a2357610100808354040283529160200191610a4e565b820191906000526020600020905b815481529060010190602001808311610a3157829003601f168201915b505050505082612283565b610a98576040517f08c379a0000000000000000000000000000000000000000000000000000000008152600401610a8f9061335b565b60405180910390fd5b600281604051610aa89190612f7c565b908152602001604051809103902060009054906101000a900460ff1615610b04576040517f08c379a0000000000000000000000000000000000000000000000000000000008152600401610afb9061304b565b60405180910390fd5b6001600282604051610b169190612f7c565b908152602001604051809103902060006101000a81548160ff02191690831515021790555050565b610c0f600160003373ffffffffffffffffffffffffffffffffffffffff1673ffffffffffffffffffffffffffffffffffffffff1681526020019081526020016000208054610b8b90612f0f565b80601f0160208091040260200160405190810160405280929190818152602001828054610bb790612f0f565b8015610c045780601f10610bd957610100808354040283529160200191610c04565b820191906000526020600020905b815481529060010190602001808311610be757829003601f168201915b505050505083612283565b610c1857600080fd5b600282604051610c289190612f7c565b908152602001604051809103902060009054906101000a900460ff1615610c84576040517f08c379a0000000000000000000000000000000000000000000000000000000008152600401610c7b9061304b565b60405180910390fd5b600382604051610c949190612f7c565b90815260200160405180910390208190806001815401808255809150506001900390600052602060002001600090919091909150555050565b6000610da0600160003373ffffffffffffffffffffffffffffffffffffffff1673ffffffffffffffffffffffffffffffffffffffff1681526020019081526020016000208054610d1c90612f0f565b80601f0160208091040260200160405190810160405280929190818152602001828054610d4890612f0f565b8015610d955780601f10610d6a57610100808354040283529160200191610d95565b820191906000526020600020905b815481529060010190602001808311610d7857829003601f168201915b505050505084612283565b610ddf576040517f08c379a0000000000000000000000000000000000000000000000000000000008152600401610dd6906133c7565b60405180910390fd5b600283604051610def9190612f7c565b908152602001604051809103902060009054906101000a900460ff1615610e4b576040517f08c379a0000000000000000000000000000000000000000000000000000000008152600401610e429061304b565b60405180910390fd5b6000600584604051610e5d9190612f7c565b90815260200160405180910390208054905011610eaf576040517f08c379a0000000000000000000000000000000000000000000000000000000008152600401610ea690613433565b60405180910390fd5b600782604051610ebf9190612f7c565b908152602001604051809103902060009054906101000a900460ff1615610f1b576040517f08c379a0000000000000000000000000000000000000000000000000000000008152600401610f1290612fdf565b60405180910390fd5b60005b600584604051610f2e9190612f7c565b90815260200160405180910390208054905081101561103557611013600585604051610f5a9190612f7c565b90815260200160405180910390208281548110610f7a57610f79613453565b5b906000526020600020018054610f8f90612f0f565b80601f0160208091040260200160405190810160405280929190818152602001828054610fbb90612f0f565b80156110085780601f10610fdd57610100808354040283529160200191611008565b820191906000526020600020905b815481529060010190602001808311610feb57829003601f168201915b505050505084612283565b1561102257600191505061103b565b808061102d906134b1565b915050610f1e565b50600090505b92915050565b6000611114600160003373ffffffffffffffffffffffffffffffffffffffff1673ffffffffffffffffffffffffffffffffffffffff168152602001908152602001600020805461109090612f0f565b80601f01602080910402602001604051908101604052809291908181526020018280546110bc90612f0f565b80156111095780601f106110de57610100808354040283529160200191611109565b820191906000526020600020905b8154815290600101906020018083116110ec57829003601f168201915b505050505088612283565b1561112257600090506112b3565b600080886040516111339190612f7c565b908152602001604051809103902060020154111561115457600090506112b3565b6040518060c001604052803373ffffffffffffffffffffffffffffffffffffffff168152602001878152602001868152602001858152602001848152602001838152506000886040516111a79190612f7c565b908152602001604051809103902060008201518160000160006101000a81548173ffffffffffffffffffffffffffffffffffffffff021916908373ffffffffffffffffffffffffffffffffffffffff16021790555060208201518160010190816112119190613217565b506040820151816002015560608201518160030190816112319190613217565b5060808201518160040190816112479190613217565b5060a082015181600501908161125d9190613217565b5090505086600160003373ffffffffffffffffffffffffffffffffffffffff1673ffffffffffffffffffffffffffffffffffffffff16815260200190815260200160002090816112ad9190613217565b50600190505b9695505050505050565b6000611390600160003373ffffffffffffffffffffffffffffffffffffffff1673ffffffffffffffffffffffffffffffffffffffff168152602001908152602001600020805461130c90612f0f565b80601f016020809104026020016040519081016040528092919081815260200182805461133890612f0f565b80156113855780601f1061135a57610100808354040283529160200191611385565b820191906000526020600020905b81548152906001019060200180831161136857829003601f168201915b505050505084612283565b6113cf576040517f08c379a00000000000000000000000000000000000000000000000000000000081526004016113c6906133c7565b60405180910390fd5b60006005846040516113e19190612f7c565b90815260200160405180910390208054905011611433576040517f08c379a000000000000000000000000000000000000000000000000000000000815260040161142a90613433565b60405180910390fd5b6002836040516114439190612f7c565b908152602001604051809103902060009054906101000a900460ff161561149f576040517f08c379a00000000000000000000000000000000000000000000000000000000081526004016114969061304b565b60405180910390fd5b6007826040516114af9190612f7c565b908152602001604051809103902060009054906101000a900460ff161561150b576040517f08c379a000000000000000000000000000000000000000000000000000000000815260040161150290612fdf565b60405180910390fd5b6000805b60058560405161151f9190612f7c565b9081526020016040518091039020805490508110156117015761160460058660405161154b9190612f7c565b9081526020016040518091039020828154811061156b5761156a613453565b5b90600052602060002001805461158090612f0f565b80601f01602080910402602001604051908101604052809291908181526020018280546115ac90612f0f565b80156115f95780601f106115ce576101008083540402835291602001916115f9565b820191906000526020600020905b8154815290600101906020018083116115dc57829003601f168201915b505050505085612283565b156116ee576001915060008190505b60016005876040516116259190612f7c565b90815260200160405180910390208054905061164191906134f9565b8110156116e8576005866040516116589190612f7c565b9081526020016040518091039020600182611673919061352d565b8154811061168457611683613453565b5b9060005260206000200160058760405161169e9190612f7c565b908152602001604051809103902082815481106116be576116bd613453565b5b9060005260206000200190816116d4919061358c565b5080806116e0906134b1565b915050611613565b50611701565b80806116f9906134b1565b91505061150f565b5060008103611714576000915050611766565b6005846040516117249190612f7c565b908152602001604051809103902080548061174257611741613674565b5b60019003818190600052602060002001600061175e91906125d5565b905560019150505b92915050565b611774612615565b611845600160003373ffffffffffffffffffffffffffffffffffffffff1673ffffffffffffffffffffffffffffffffffffffff16815260200190815260200160002080546117c190612f0f565b80601f01602080910402602001604051908101604052809291908181526020018280546117ed90612f0f565b801561183a5780601f1061180f5761010080835404028352916020019161183a565b820191906000526020600020905b81548152906001019060200180831161181d57829003601f168201915b505050505083612283565b61184e57600080fd5b60028260405161185e9190612f7c565b908152602001604051809103902060009054906101000a900460ff16156118ba576040517f08c379a00000000000000000000000000000000000000000000000000000000081526004016118b19061304b565b60405180910390fd5b6000826040516118ca9190612f7c565b90815260200160405180910390206040518060c00160405290816000820160009054906101000a900473ffffffffffffffffffffffffffffffffffffffff1673ffffffffffffffffffffffffffffffffffffffff1673ffffffffffffffffffffffffffffffffffffffff16815260200160018201805461194990612f0f565b80601f016020809104026020016040519081016040528092919081815260200182805461197590612f0f565b80156119c25780601f10611997576101008083540402835291602001916119c2565b820191906000526020600020905b8154815290600101906020018083116119a557829003601f168201915b50505050508152602001600282015481526020016003820180546119e590612f0f565b80601f0160208091040260200160405190810160405280929190818152602001828054611a1190612f0f565b8015611a5e5780601f10611a3357610100808354040283529160200191611a5e565b820191906000526020600020905b815481529060010190602001808311611a4157829003601f168201915b50505050508152602001600482018054611a7790612f0f565b80601f0160208091040260200160405190810160405280929190818152602001828054611aa390612f0f565b8015611af05780601f10611ac557610100808354040283529160200191611af0565b820191906000526020600020905b815481529060010190602001808311611ad357829003601f168201915b50505050508152602001600582018054611b0990612f0f565b80601f0160208091040260200160405190810160405280929190818152602001828054611b3590612f0f565b8015611b825780601f10611b5757610100808354040283529160200191611b82565b820191906000526020600020905b815481529060010190602001808311611b6557829003601f168201915b5050505050815250509050919050565b6000611c65600160003373ffffffffffffffffffffffffffffffffffffffff1673ffffffffffffffffffffffffffffffffffffffff1681526020019081526020016000208054611be190612f0f565b80601f0160208091040260200160405190810160405280929190818152602001828054611c0d90612f0f565b8015611c5a5780601f10611c2f57610100808354040283529160200191611c5a565b820191906000526020600020905b815481529060010190602001808311611c3d57829003601f168201915b505050505083612283565b611c6e57600080fd5b600282604051611c7e9190612f7c565b908152602001604051809103902060009054906101000a900460ff1615611cda576040517f08c379a0000000000000000000000000000000000000000000000000000000008152600401611cd19061304b565b60405180910390fd5b600482604051611cea9190612f7c565b90815260200160405180910390206001600484604051611d0a9190612f7c565b908152602001604051809103902080549050611d2691906134f9565b81548110611d3757611d36613453565b5b90600052602060002001549050919050565b611e1a600160003373ffffffffffffffffffffffffffffffffffffffff1673ffffffffffffffffffffffffffffffffffffffff1681526020019081526020016000208054611d9690612f0f565b80601f0160208091040260200160405190810160405280929190818152602001828054611dc290612f0f565b8015611e0f5780601f10611de457610100808354040283529160200191611e0f565b820191906000526020600020905b815481529060010190602001808311611df257829003601f168201915b505050505084612283565b611e59576040517f08c379a0000000000000000000000000000000000000000000000000000000008152600401611e50906136ef565b60405180910390fd5b600283604051611e699190612f7c565b908152602001604051809103902060009054906101000a900460ff1615611ec5576040517f08c379a0000000000000000000000000000000000000000000000000000000008152600401611ebc9061304b565b60405180910390fd5b600781604051611ed59190612f7c565b908152602001604051809103902060009054906101000a900460ff1615611f31576040517f08c379a0000000000000000000000000000000000000000000000000000000008152600401611f2890612fdf565b60405180910390fd5b60405180606001604052808381526020013373ffffffffffffffffffffffffffffffffffffffff16815260200182815250600682604051611f729190612f7c565b90815260200160405180910390206000820151816000019081611f959190613217565b5060208201518160010160006101000a81548173ffffffffffffffffffffffffffffffffffffffff021916908373ffffffffffffffffffffffffffffffffffffffff1602179055506040820151816002019081611ff29190613217565b50905050600860405180606001604052808481526020013373ffffffffffffffffffffffffffffffffffffffff16815260200183815250908060018154018082558091505060019003906000526020600020906003020160009091909190915060008201518160000190816120679190613217565b5060208201518160010160006101000a81548173ffffffffffffffffffffffffffffffffffffffff021916908373ffffffffffffffffffffffffffffffffffffffff16021790555060408201518160020190816120c49190613217565b505050505050565b600061219f600160003373ffffffffffffffffffffffffffffffffffffffff1673ffffffffffffffffffffffffffffffffffffffff168152602001908152602001600020805461211b90612f0f565b80601f016020809104026020016040519081016040528092919081815260200182805461214790612f0f565b80156121945780601f1061216957610100808354040283529160200191612194565b820191906000526020600020905b81548152906001019060200180831161217757829003601f168201915b505050505083612283565b6121a857600080fd5b6002826040516121b89190612f7c565b908152602001604051809103902060009054906101000a900460ff1615612214576040517f08c379a000000000000000000000000000000000000000000000000000000000815260040161220b9061304b565b60405180910390fd5b6003826040516122249190612f7c565b908152602001604051809103902060016003846040516122449190612f7c565b90815260200160405180910390208054905061226091906134f9565b8154811061227157612270613453565b5b90600052602060002001549050919050565b6000816040516020016122969190612f7c565b60405160208183030381529060405280519060200120836040516020016122bd9190612f7c565b6040516020818303038152906040528051906020012014905092915050565b600881815481106122ec57600080fd5b906000526020600020906003020160009150905080600001805461230f90612f0f565b80601f016020809104026020016040519081016040528092919081815260200182805461233b90612f0f565b80156123885780601f1061235d57610100808354040283529160200191612388565b820191906000526020600020905b81548152906001019060200180831161236b57829003601f168201915b5050505050908060010160009054906101000a900473ffffffffffffffffffffffffffffffffffffffff16908060020180546123c390612f0f565b80601f01602080910402602001604051908101604052809291908181526020018280546123ef90612f0f565b801561243c5780601f106124115761010080835404028352916020019161243c565b820191906000526020600020905b81548152906001019060200180831161241f57829003601f168201915b5050505050905083565b612517600160003373ffffffffffffffffffffffffffffffffffffffff1673ffffffffffffffffffffffffffffffffffffffff168152602001908152602001600020805461249390612f0f565b80601f01602080910402602001604051908101604052809291908181526020018280546124bf90612f0f565b801561250c5780601f106124e15761010080835404028352916020019161250c565b820191906000526020600020905b8154815290600101906020018083116124ef57829003601f168201915b505050505083612283565b61252057600080fd5b6002826040516125309190612f7c565b908152602001604051809103902060009054906101000a900460ff161561258c576040517f08c379a00000000000000000000000000000000000000000000000000000000081526004016125839061304b565b60405180910390fd5b60048260405161259c9190612f7c565b90815260200160405180910390208190806001815401808255809150506001900390600052602060002001600090919091909150555050565b5080546125e190612f0f565b6000825580601f106125f35750612612565b601f0160209004906000526020600020908101906126119190612661565b5b50565b6040518060c00160405280600073ffffffffffffffffffffffffffffffffffffffff16815260200160608152602001600081526020016060815260200160608152602001606081525090565b5b8082111561267a576000816000905550600101612662565b5090565b6000604051905090565b600080fd5b600080fd5b600080fd5b600080fd5b6000601f19601f8301169050919050565b7f4e487b7100000000000000000000000000000000000000000000000000000000600052604160045260246000fd5b6126e58261269c565b810181811067ffffffffffffffff82111715612704576127036126ad565b5b80604052505050565b600061271761267e565b905061272382826126dc565b919050565b600067ffffffffffffffff821115612743576127426126ad565b5b61274c8261269c565b9050602081019050919050565b82818337600083830152505050565b600061277b61277684612728565b61270d565b90508281526020810184848401111561279757612796612697565b5b6127a2848285612759565b509392505050565b600082601f8301126127bf576127be612692565b5b81356127cf848260208601612768565b91505092915050565b600080604083850312156127ef576127ee612688565b5b600083013567ffffffffffffffff81111561280d5761280c61268d565b5b612819858286016127aa565b925050602083013567ffffffffffffffff81111561283a5761283961268d565b5b612846858286016127aa565b9150509250929050565b600081519050919050565b600082825260208201905092915050565b6000819050602082019050919050565b600081519050919050565b600082825260208201905092915050565b60005b838110156128b657808201518184015260208101905061289b565b60008484015250505050565b60006128cd8261287c565b6128d78185612887565b93506128e7818560208601612898565b6128f08161269c565b840191505092915050565b600073ffffffffffffffffffffffffffffffffffffffff82169050919050565b6000612926826128fb565b9050919050565b6129368161291b565b82525050565b6000606083016000830151848203600086015261295982826128c2565b915050602083015161296e602086018261292d565b506040830151848203604086015261298682826128c2565b9150508091505092915050565b600061299f838361293c565b905092915050565b6000602082019050919050565b60006129bf82612850565b6129c9818561285b565b9350836020820285016129db8561286c565b8060005b85811015612a1757848403895281516129f88582612993565b9450612a03836129a7565b925060208a019950506001810190506129df565b50829750879550505050505092915050565b60006020820190508181036000830152612a4381846129b4565b905092915050565b600060208284031215612a6157612a60612688565b5b600082013567ffffffffffffffff811115612a7f57612a7e61268d565b5b612a8b848285016127aa565b91505092915050565b6000819050919050565b612aa781612a94565b8114612ab257600080fd5b50565b600081359050612ac481612a9e565b92915050565b60008060408385031215612ae157612ae0612688565b5b600083013567ffffffffffffffff811115612aff57612afe61268d565b5b612b0b858286016127aa565b9250506020612b1c85828601612ab5565b9150509250929050565b60008115159050919050565b612b3b81612b26565b82525050565b6000602082019050612b566000830184612b32565b92915050565b60008060008060008060c08789031215612b7957612b78612688565b5b600087013567ffffffffffffffff811115612b9757612b9661268d565b5b612ba389828a016127aa565b965050602087013567ffffffffffffffff811115612bc457612bc361268d565b5b612bd089828a016127aa565b9550506040612be189828a01612ab5565b945050606087013567ffffffffffffffff811115612c0257612c0161268d565b5b612c0e89828a016127aa565b935050608087013567ffffffffffffffff811115612c2f57612c2e61268d565b5b612c3b89828a016127aa565b92505060a087013567ffffffffffffffff811115612c5c57612c5b61268d565b5b612c6889828a016127aa565b9150509295509295509295565b612c7e81612a94565b82525050565b600060c083016000830151612c9c600086018261292d565b5060208301518482036020860152612cb482826128c2565b9150506040830151612cc96040860182612c75565b5060608301518482036060860152612ce182826128c2565b91505060808301518482036080860152612cfb82826128c2565b91505060a083015184820360a0860152612d1582826128c2565b9150508091505092915050565b60006020820190508181036000830152612d3c8184612c84565b905092915050565b612d4d81612a94565b82525050565b6000602082019050612d686000830184612d44565b92915050565b600080600060608486031215612d8757612d86612688565b5b600084013567ffffffffffffffff811115612da557612da461268d565b5b612db1868287016127aa565b935050602084013567ffffffffffffffff811115612dd257612dd161268d565b5b612dde868287016127aa565b925050604084013567ffffffffffffffff811115612dff57612dfe61268d565b5b612e0b868287016127aa565b9150509250925092565b600060208284031215612e2b57612e2a612688565b5b6000612e3984828501612ab5565b91505092915050565b600082825260208201905092915050565b6000612e5e8261287c565b612e688185612e42565b9350612e78818560208601612898565b612e818161269c565b840191505092915050565b612e958161291b565b82525050565b60006060820190508181036000830152612eb58186612e53565b9050612ec46020830185612e8c565b8181036040830152612ed68184612e53565b9050949350505050565b7f4e487b7100000000000000000000000000000000000000000000000000000000600052602260045260246000fd5b60006002820490506001821680612f2757607f821691505b602082108103612f3a57612f39612ee0565b5b50919050565b600081905092915050565b6000612f568261287c565b612f608185612f40565b9350612f70818560208601612898565b80840191505092915050565b6000612f888284612f4b565b915081905092915050565b7f4150492068617320616c7265616479206265656e206465616374697661746564600082015250565b6000612fc9602083612e42565b9150612fd482612f93565b602082019050919050565b60006020820190508181036000830152612ff881612fbc565b9050919050565b7f41646861617220686173206265656e2064656163746976617465640000000000600082015250565b6000613035601b83612e42565b915061304082612fff565b602082019050919050565b6000602082019050818103600083015261306481613028565b9050919050565b60008190508160005260206000209050919050565b60006020601f8301049050919050565b600082821b905092915050565b6000600883026130cd7fffffffffffffffffffffffffffffffffffffffffffffffffffffffffffffffff82613090565b6130d78683613090565b95508019841693508086168417925050509392505050565b6000819050919050565b600061311461310f61310a84612a94565b6130ef565b612a94565b9050919050565b6000819050919050565b61312e836130f9565b61314261313a8261311b565b84845461309d565b825550505050565b600090565b61315761314a565b613162818484613125565b505050565b5b818110156131865761317b60008261314f565b600181019050613168565b5050565b601f8211156131cb5761319c8161306b565b6131a584613080565b810160208510156131b4578190505b6131c86131c085613080565b830182613167565b50505b505050565b600082821c905092915050565b60006131ee600019846008026131d0565b1980831691505092915050565b600061320783836131dd565b9150826002028217905092915050565b6132208261287c565b67ffffffffffffffff811115613239576132386126ad565b5b6132438254612f0f565b61324e82828561318a565b600060209050601f831160018114613281576000841561326f578287015190505b61327985826131fb565b8655506132e1565b601f19841661328f8661306b565b60005b828110156132b757848901518255600182019150602085019450602081019050613292565b868310156132d457848901516132d0601f8916826131dd565b8355505b6001600288020188555050505b505050505050565b7f4164647265737320646f6573206e6f742062656c6f6e6720746f20616468616160008201527f7220686f6c646572000000000000000000000000000000000000000000000000602082015250565b6000613345602883612e42565b9150613350826132e9565b604082019050919050565b6000602082019050818103600083015261337481613338565b9050919050565b7f4964656e7469747920646f6573206e6f74206578697374000000000000000000600082015250565b60006133b1601783612e42565b91506133bc8261337b565b602082019050919050565b600060208201905081810360008301526133e0816133a4565b9050919050565b7f4e6f20686f737473206c696e6b65642079657421000000000000000000000000600082015250565b600061341d601483612e42565b9150613428826133e7565b602082019050919050565b6000602082019050818103600083015261344c81613410565b9050919050565b7f4e487b7100000000000000000000000000000000000000000000000000000000600052603260045260246000fd5b7f4e487b7100000000000000000000000000000000000000000000000000000000600052601160045260246000fd5b60006134bc82612a94565b91507fffffffffffffffffffffffffffffffffffffffffffffffffffffffffffffffff82036134ee576134ed613482565b5b600182019050919050565b600061350482612a94565b915061350f83612a94565b925082820390508181111561352757613526613482565b5b92915050565b600061353882612a94565b915061354383612a94565b925082820190508082111561355b5761355a613482565b5b92915050565b60008154905061357081612f0f565b9050919050565b60008190508160005260206000209050919050565b81810361359a575050613672565b6135a382613561565b67ffffffffffffffff8111156135bc576135bb6126ad565b5b6135c68254612f0f565b6135d182828561318a565b6000601f83116001811461360057600084156135ee578287015490505b6135f885826131fb565b86555061366b565b601f19841661360e87613577565b96506136198661306b565b60005b828110156136415784890154825560018201915060018501945060208101905061361c565b8683101561365e578489015461365a601f8916826131dd565b8355505b6001600288020188555050505b5050505050505b565b7f4e487b7100000000000000000000000000000000000000000000000000000000600052603160045260246000fd5b7f54686520686f7374206d75737420626520766572696669656421000000000000600082015250565b60006136d9601a83612e42565b91506136e4826136a3565b602082019050919050565b60006020820190508181036000830152613708816136cc565b905091905056fea264697066735822122022cf82f14f682cb1635ea3499b64f6cbeb9e72dfa4f6fc9dd8579ae97b16ea4464736f6c63430008110033",
  "linkReferences": {},
  "deployedLinkReferences": {}
}