{
  "_format": "hh-sol-artifact-1",
  "contractName": "Identity",
  "sourceName": "contracts/Identity.sol",
  "abi": [
    {
      "inputs": [
        {
          "internalType": "uint256",
          "name": "",
          "type": "uint256"
        }
      ],
      "name": "allHosts",
      "outputs": [
        {
          "internalType": "string",
          "name": "name",
          "type": "string"
        },
        {
          "internalType": "address",
          "name": "owner",
          "type": "address"
        },
        {
          "internalType": "string",
          "name": "adhaar",
          "type": "string"
        }
      ],
      "stateMutability": "view",
      "type": "function"
    },
    {
      "inputs": [
        {
          "internalType": "string",
          "name": "a",
          "type": "string"
        },
        {
          "internalType": "string",
          "name": "b",
          "type": "string"
        }
      ],
      "name": "compareStrings",
      "outputs": [
        {
          "internalType": "bool",
          "name": "",
          "type": "bool"
        }
      ],
      "stateMutability": "pure",
      "type": "function"
    },
    {
      "inputs": [
        {
          "internalType": "string",
          "name": "_adhaar",
          "type": "string"
        }
      ],
      "name": "deactivate",
      "outputs": [],
      "stateMutability": "nonpayable",
      "type": "function"
    },
    {
      "inputs": [
        {
          "internalType": "string",
          "name": "_adhaar",
          "type": "string"
        },
        {
          "internalType": "string",
          "name": "_key",
          "type": "string"
        }
      ],
      "name": "deactivateHost",
      "outputs": [],
      "stateMutability": "nonpayable",
      "type": "function"
    },
    {
      "inputs": [
        {
          "internalType": "string",
          "name": "_adhaar",
          "type": "string"
        },
        {
          "internalType": "string",
          "name": "_name",
          "type": "string"
        },
        {
          "internalType": "string",
          "name": "_key",
          "type": "string"
        }
      ],
      "name": "generateAPIKeyForHost",
      "outputs": [],
      "stateMutability": "nonpayable",
      "type": "function"
    },
    {
      "inputs": [
        {
          "internalType": "string",
          "name": "_adhaar",
          "type": "string"
        },
        {
          "internalType": "uint256",
          "name": "_today",
          "type": "uint256"
        }
      ],
      "name": "humanVerify",
      "outputs": [],
      "stateMutability": "nonpayable",
      "type": "function"
    },
    {
      "inputs": [
        {
          "internalType": "string",
          "name": "_adhaar",
          "type": "string"
        },
        {
          "internalType": "uint256",
          "name": "_expiry",
          "type": "uint256"
        }
      ],
      "name": "idCardVerify",
      "outputs": [],
      "stateMutability": "nonpayable",
      "type": "function"
    },
    {
      "inputs": [
        {
          "internalType": "string",
          "name": "_adhaar",
          "type": "string"
        },
        {
          "internalType": "string",
          "name": "_key",
          "type": "string"
        }
      ],
      "name": "isHostLinked",
      "outputs": [
        {
          "internalType": "bool",
          "name": "",
          "type": "bool"
        }
      ],
      "stateMutability": "view",
      "type": "function"
    },
    {
      "inputs": [
        {
          "internalType": "string",
          "name": "_adhaar",
          "type": "string"
        }
      ],
      "name": "lastHumanVerified",
      "outputs": [
        {
          "internalType": "uint256",
          "name": "",
          "type": "uint256"
        }
      ],
      "stateMutability": "view",
      "type": "function"
    },
    {
      "inputs": [
        {
          "internalType": "string",
          "name": "_adhaar",
          "type": "string"
        },
        {
          "internalType": "string",
          "name": "_key",
          "type": "string"
        }
      ],
      "name": "linkAHost",
      "outputs": [],
      "stateMutability": "nonpayable",
      "type": "function"
    },
    {
      "inputs": [
        {
          "internalType": "string",
          "name": "_adhaar",
          "type": "string"
        }
      ],
      "name": "loginIdentity",
      "outputs": [
        {
          "internalType": "bool",
          "name": "",
          "type": "bool"
        }
      ],
      "stateMutability": "view",
      "type": "function"
    },
    {
      "inputs": [
        {
          "internalType": "string",
          "name": "_adhaar",
          "type": "string"
        },
        {
          "internalType": "string",
          "name": "_key",
          "type": "string"
        }
      ],
      "name": "matchAPIKey",
      "outputs": [
        {
          "internalType": "bool",
          "name": "",
          "type": "bool"
        }
      ],
      "stateMutability": "view",
      "type": "function"
    },
    {
      "inputs": [
        {
          "internalType": "string",
          "name": "_adhaar",
          "type": "string"
        },
        {
          "internalType": "string",
          "name": "_name",
          "type": "string"
        },
        {
          "internalType": "uint256",
          "name": "_dob",
          "type": "uint256"
        },
        {
          "internalType": "string",
          "name": "_gender",
          "type": "string"
        },
        {
          "internalType": "string",
          "name": "_email",
          "type": "string"
        }
      ],
      "name": "registerIdentity",
      "outputs": [],
      "stateMutability": "nonpayable",
      "type": "function"
    },
    {
      "inputs": [
        {
          "internalType": "string",
          "name": "_adhaar",
          "type": "string"
        },
        {
          "internalType": "string[]",
          "name": "_questions",
          "type": "string[]"
        },
        {
          "internalType": "string[]",
          "name": "_answers",
          "type": "string[]"
        }
      ],
      "name": "registerSecurityQuestions",
      "outputs": [],
      "stateMutability": "nonpayable",
      "type": "function"
    },
    {
      "inputs": [
        {
          "internalType": "string",
          "name": "_adhaar",
          "type": "string"
        },
        {
          "internalType": "string",
          "name": "_key",
          "type": "string"
        }
      ],
      "name": "removeLinkedHost",
      "outputs": [
        {
          "internalType": "bool",
          "name": "",
          "type": "bool"
        }
      ],
      "stateMutability": "nonpayable",
      "type": "function"
    },
    {
      "inputs": [],
      "name": "returnEmailAddress",
      "outputs": [
        {
          "internalType": "string",
          "name": "",
          "type": "string"
        }
      ],
      "stateMutability": "view",
      "type": "function"
    },
    {
      "inputs": [],
      "name": "returnHosts",
      "outputs": [
        {
          "components": [
            {
              "internalType": "string",
              "name": "name",
              "type": "string"
            },
            {
              "internalType": "address",
              "name": "owner",
              "type": "address"
            },
            {
              "internalType": "string",
              "name": "adhaar",
              "type": "string"
            }
          ],
          "internalType": "struct Identity.Hosts[]",
          "name": "",
          "type": "tuple[]"
        }
      ],
      "stateMutability": "view",
      "type": "function"
    },
    {
      "inputs": [
        {
          "internalType": "string",
          "name": "_adhaar",
          "type": "string"
        }
      ],
      "name": "returnIdExpiry",
      "outputs": [
        {
          "internalType": "uint256",
          "name": "",
          "type": "uint256"
        }
      ],
      "stateMutability": "view",
      "type": "function"
    },
    {
      "inputs": [
        {
          "internalType": "string",
          "name": "_adhaar",
          "type": "string"
        }
      ],
      "name": "returnIdentity",
      "outputs": [
        {
          "components": [
            {
              "internalType": "address",
              "name": "owner",
              "type": "address"
            },
            {
              "internalType": "string",
              "name": "name",
              "type": "string"
            },
            {
              "internalType": "uint256",
              "name": "dateOfBirth",
              "type": "uint256"
            },
            {
              "internalType": "string",
              "name": "gender",
              "type": "string"
            },
            {
              "internalType": "string",
              "name": "emailAddress",
              "type": "string"
            }
          ],
          "internalType": "struct Identity.Data",
          "name": "",
          "type": "tuple"
        }
      ],
      "stateMutability": "view",
      "type": "function"
    },
    {
      "inputs": [
        {
          "internalType": "string",
          "name": "_adhaar",
          "type": "string"
        }
      ],
      "name": "returnSecurityQuestions",
      "outputs": [
        {
          "components": [
            {
              "internalType": "string[]",
              "name": "question",
              "type": "string[]"
            },
            {
              "internalType": "string[]",
              "name": "answer",
              "type": "string[]"
            }
          ],
          "internalType": "struct Identity.SecurityQuestions",
          "name": "",
          "type": "tuple"
        }
      ],
      "stateMutability": "view",
      "type": "function"
    }
  ],
  "bytecode": "0x608060405234801561001057600080fd5b506145f9806100206000396000f3fe608060405234801561001057600080fd5b506004361061012c5760003560e01c80637472c377116100ad578063b9ac1ce611610071578063b9ac1ce614610363578063bed34bba14610393578063c766c2c7146103c3578063d8a8f2d9146103f5578063e3830fe4146104135761012c565b80637472c3771461029b57806391e6e8b9146102b7578063a6ccdfb5146102e7578063adeb404d14610317578063b7632752146103335761012c565b806336588df9116100f457806336588df9146101d357806336f0e664146101ef57806360547f2a1461021f57806369e8c15b1461024f5780636c2752981461026b5761012c565b80630456da35146101315780630ffb9bca1461014d5780631864e7121461016b57806327ee999d146101875780632ba13510146101a3575b600080fd5b61014b600480360381019061014691906132ff565b61042f565b005b610155610636565b6040516101629190613550565b60405180910390f35b610185600480360381019061018091906132ff565b61080f565b005b6101a1600480360381019061019c9190613572565b610a75565b005b6101bd60048036038101906101b89190613572565b610c2b565b6040516101ca91906136c1565b60405180910390f35b6101ed60048036038101906101e89190613719565b610fa7565b005b610209600480360381019061020491906132ff565b611136565b6040516102169190613790565b60405180910390f35b610239600480360381019061023491906132ff565b6114aa565b6040516102469190613790565b60405180910390f35b610269600480360381019061026491906137ab565b611959565b005b61028560048036038101906102809190613572565b611c13565b6040516102929190613929565b60405180910390f35b6102b560048036038101906102b09190613a31565b611fa7565b005b6102d160048036038101906102cc9190613572565b61218a565b6040516102de9190613790565b60405180910390f35b61030160048036038101906102fc9190613572565b612311565b60405161030e9190613ae7565b60405180910390f35b610331600480360381019061032c9190613b02565b6124c8565b005b61034d60048036038101906103489190613572565b61284b565b60405161035a9190613ae7565b60405180910390f35b61037d600480360381019061037891906132ff565b612a02565b60405161038a9190613790565b60405180910390f35b6103ad60048036038101906103a891906132ff565b612b97565b6040516103ba9190613790565b60405180910390f35b6103dd60048036038101906103d89190613ba9565b612bf0565b6040516103ec93929190613c2f565b60405180910390f35b6103fd612d5a565b60405161040a9190613c74565b60405180910390f35b61042d60048036038101906104289190613719565b612edd565b005b610500600260003373ffffffffffffffffffffffffffffffffffffffff1673ffffffffffffffffffffffffffffffffffffffff168152602001908152602001600020805461047c90613cc5565b80601f01602080910402602001604051908101604052809291908181526020018280546104a890613cc5565b80156104f55780601f106104ca576101008083540402835291602001916104f5565b820191906000526020600020905b8154815290600101906020018083116104d857829003601f168201915b505050505083612b97565b61050957600080fd5b6008816040516105199190613d32565b908152602001604051809103902060009054906101000a900460ff1615610575576040517f08c379a000000000000000000000000000000000000000000000000000000000815260040161056c90613d95565b60405180910390fd5b6003826040516105859190613d32565b908152602001604051809103902060009054906101000a900460ff16156105e1576040517f08c379a00000000000000000000000000000000000000000000000000000000081526004016105d890613e01565b60405180910390fd5b6006826040516105f19190613d32565b9081526020016040518091039020819080600181540180825580915050600190039060005260206000200160009091909190915090816106319190613fcd565b505050565b60606009805480602002602001604051908101604052809291908181526020016000905b82821015610806578382906000526020600020906003020160405180606001604052908160008201805461068d90613cc5565b80601f01602080910402602001604051908101604052809291908181526020018280546106b990613cc5565b80156107065780601f106106db57610100808354040283529160200191610706565b820191906000526020600020905b8154815290600101906020018083116106e957829003601f168201915b505050505081526020016001820160009054906101000a900473ffffffffffffffffffffffffffffffffffffffff1673ffffffffffffffffffffffffffffffffffffffff1673ffffffffffffffffffffffffffffffffffffffff16815260200160028201805461077590613cc5565b80601f01602080910402602001604051908101604052809291908181526020018280546107a190613cc5565b80156107ee5780601f106107c3576101008083540402835291602001916107ee565b820191906000526020600020905b8154815290600101906020018083116107d157829003601f168201915b5050505050815250508152602001906001019061065a565b50505050905090565b6108e0600260003373ffffffffffffffffffffffffffffffffffffffff1673ffffffffffffffffffffffffffffffffffffffff168152602001908152602001600020805461085c90613cc5565b80601f016020809104026020016040519081016040528092919081815260200182805461088890613cc5565b80156108d55780601f106108aa576101008083540402835291602001916108d5565b820191906000526020600020905b8154815290600101906020018083116108b857829003601f168201915b505050505083612b97565b6108e957600080fd5b3373ffffffffffffffffffffffffffffffffffffffff166007826040516109109190613d32565b908152602001604051809103902060010160009054906101000a900473ffffffffffffffffffffffffffffffffffffffff1673ffffffffffffffffffffffffffffffffffffffff161461096257600080fd5b6003826040516109729190613d32565b908152602001604051809103902060009054906101000a900460ff16156109ce576040517f08c379a00000000000000000000000000000000000000000000000000000000081526004016109c590613e01565b60405180910390fd5b6008816040516109de9190613d32565b908152602001604051809103902060009054906101000a900460ff1615610a3a576040517f08c379a0000000000000000000000000000000000000000000000000000000008152600401610a3190613d95565b60405180910390fd5b6001600882604051610a4c9190613d32565b908152602001604051809103902060006101000a81548160ff0219169083151502179055505050565b610b46600260003373ffffffffffffffffffffffffffffffffffffffff1673ffffffffffffffffffffffffffffffffffffffff1681526020019081526020016000208054610ac290613cc5565b80601f0160208091040260200160405190810160405280929190818152602001828054610aee90613cc5565b8015610b3b5780601f10610b1057610100808354040283529160200191610b3b565b820191906000526020600020905b815481529060010190602001808311610b1e57829003601f168201915b505050505082612b97565b610b85576040517f08c379a0000000000000000000000000000000000000000000000000000000008152600401610b7c90614111565b60405180910390fd5b600381604051610b959190613d32565b908152602001604051809103902060009054906101000a900460ff1615610bf1576040517f08c379a0000000000000000000000000000000000000000000000000000000008152600401610be890613e01565b60405180910390fd5b6001600382604051610c039190613d32565b908152602001604051809103902060006101000a81548160ff02191690831515021790555050565b610c3361306c565b610d04600260003373ffffffffffffffffffffffffffffffffffffffff1673ffffffffffffffffffffffffffffffffffffffff1681526020019081526020016000208054610c8090613cc5565b80601f0160208091040260200160405190810160405280929190818152602001828054610cac90613cc5565b8015610cf95780601f10610cce57610100808354040283529160200191610cf9565b820191906000526020600020905b815481529060010190602001808311610cdc57829003601f168201915b505050505083612b97565b610d0d57600080fd5b600382604051610d1d9190613d32565b908152602001604051809103902060009054906101000a900460ff1615610d79576040517f08c379a0000000000000000000000000000000000000000000000000000000008152600401610d7090613e01565b60405180910390fd5b600182604051610d899190613d32565b908152602001604051809103902060018084604051610da89190613d32565b908152602001604051809103902080549050610dc49190614160565b81548110610dd557610dd4614194565b5b906000526020600020906002020160405180604001604052908160008201805480602002602001604051908101604052809291908181526020016000905b82821015610ebf578382906000526020600020018054610e3290613cc5565b80601f0160208091040260200160405190810160405280929190818152602001828054610e5e90613cc5565b8015610eab5780601f10610e8057610100808354040283529160200191610eab565b820191906000526020600020905b815481529060010190602001808311610e8e57829003601f168201915b505050505081526020019060010190610e13565b50505050815260200160018201805480602002602001604051908101604052809291908181526020016000905b82821015610f98578382906000526020600020018054610f0b90613cc5565b80601f0160208091040260200160405190810160405280929190818152602001828054610f3790613cc5565b8015610f845780601f10610f5957610100808354040283529160200191610f84565b820191906000526020600020905b815481529060010190602001808311610f6757829003601f168201915b505050505081526020019060010190610eec565b50505050815250509050919050565b611078600260003373ffffffffffffffffffffffffffffffffffffffff1673ffffffffffffffffffffffffffffffffffffffff1681526020019081526020016000208054610ff490613cc5565b80601f016020809104026020016040519081016040528092919081815260200182805461102090613cc5565b801561106d5780601f106110425761010080835404028352916020019161106d565b820191906000526020600020905b81548152906001019060200180831161105057829003601f168201915b505050505083612b97565b61108157600080fd5b6003826040516110919190613d32565b908152602001604051809103902060009054906101000a900460ff16156110ed576040517f08c379a00000000000000000000000000000000000000000000000000000000081526004016110e490613e01565b60405180910390fd5b6004826040516110fd9190613d32565b90815260200160405180910390208190806001815401808255809150506001900390600052602060002001600090919091909150555050565b6000611209600260003373ffffffffffffffffffffffffffffffffffffffff1673ffffffffffffffffffffffffffffffffffffffff168152602001908152602001600020805461118590613cc5565b80601f01602080910402602001604051908101604052809291908181526020018280546111b190613cc5565b80156111fe5780601f106111d3576101008083540402835291602001916111fe565b820191906000526020600020905b8154815290600101906020018083116111e157829003601f168201915b505050505084612b97565b611248576040517f08c379a000000000000000000000000000000000000000000000000000000000815260040161123f9061420f565b60405180910390fd5b6003836040516112589190613d32565b908152602001604051809103902060009054906101000a900460ff16156112b4576040517f08c379a00000000000000000000000000000000000000000000000000000000081526004016112ab90613e01565b60405180910390fd5b60006006846040516112c69190613d32565b90815260200160405180910390208054905011611318576040517f08c379a000000000000000000000000000000000000000000000000000000000815260040161130f9061427b565b60405180910390fd5b6008826040516113289190613d32565b908152602001604051809103902060009054906101000a900460ff1615611384576040517f08c379a000000000000000000000000000000000000000000000000000000000815260040161137b90613d95565b60405180910390fd5b60005b6006846040516113979190613d32565b90815260200160405180910390208054905081101561149e5761147c6006856040516113c39190613d32565b908152602001604051809103902082815481106113e3576113e2614194565b5b9060005260206000200180546113f890613cc5565b80601f016020809104026020016040519081016040528092919081815260200182805461142490613cc5565b80156114715780601f1061144657610100808354040283529160200191611471565b820191906000526020600020905b81548152906001019060200180831161145457829003601f168201915b505050505084612b97565b1561148b5760019150506114a4565b80806114969061429b565b915050611387565b50600090505b92915050565b600061157d600260003373ffffffffffffffffffffffffffffffffffffffff1673ffffffffffffffffffffffffffffffffffffffff16815260200190815260200160002080546114f990613cc5565b80601f016020809104026020016040519081016040528092919081815260200182805461152590613cc5565b80156115725780601f1061154757610100808354040283529160200191611572565b820191906000526020600020905b81548152906001019060200180831161155557829003601f168201915b505050505084612b97565b6115bc576040517f08c379a00000000000000000000000000000000000000000000000000000000081526004016115b39061420f565b60405180910390fd5b60006006846040516115ce9190613d32565b90815260200160405180910390208054905011611620576040517f08c379a00000000000000000000000000000000000000000000000000000000081526004016116179061427b565b60405180910390fd5b6003836040516116309190613d32565b908152602001604051809103902060009054906101000a900460ff161561168c576040517f08c379a000000000000000000000000000000000000000000000000000000000815260040161168390613e01565b60405180910390fd5b60088260405161169c9190613d32565b908152602001604051809103902060009054906101000a900460ff16156116f8576040517f08c379a00000000000000000000000000000000000000000000000000000000081526004016116ef90613d95565b60405180910390fd5b6000805b60068560405161170c9190613d32565b9081526020016040518091039020805490508110156118ee576117f16006866040516117389190613d32565b9081526020016040518091039020828154811061175857611757614194565b5b90600052602060002001805461176d90613cc5565b80601f016020809104026020016040519081016040528092919081815260200182805461179990613cc5565b80156117e65780601f106117bb576101008083540402835291602001916117e6565b820191906000526020600020905b8154815290600101906020018083116117c957829003601f168201915b505050505085612b97565b156118db576001915060008190505b60016006876040516118129190613d32565b90815260200160405180910390208054905061182e9190614160565b8110156118d5576006866040516118459190613d32565b908152602001604051809103902060018261186091906142e3565b8154811061187157611870614194565b5b9060005260206000200160068760405161188b9190613d32565b908152602001604051809103902082815481106118ab576118aa614194565b5b9060005260206000200190816118c19190614342565b5080806118cd9061429b565b915050611800565b506118ee565b80806118e69061429b565b9150506116fc565b5060008103611901576000915050611953565b6006846040516119119190613d32565b908152602001604051809103902080548061192f5761192e61442a565b5b60019003818190600052602060002001600061194b9190613086565b905560019150505b92915050565b611a2a600260003373ffffffffffffffffffffffffffffffffffffffff1673ffffffffffffffffffffffffffffffffffffffff16815260200190815260200160002080546119a690613cc5565b80601f01602080910402602001604051908101604052809291908181526020018280546119d290613cc5565b8015611a1f5780601f106119f457610100808354040283529160200191611a1f565b820191906000526020600020905b815481529060010190602001808311611a0257829003601f168201915b505050505086612b97565b15611a6a576040517f08c379a0000000000000000000000000000000000000000000000000000000008152600401611a61906144a5565b60405180910390fd5b60008086604051611a7b9190613d32565b9081526020016040518091039020600201541115611ace576040517f08c379a0000000000000000000000000000000000000000000000000000000008152600401611ac5906144a5565b60405180910390fd5b6040518060a001604052803373ffffffffffffffffffffffffffffffffffffffff16815260200185815260200184815260200183815260200182815250600086604051611b1b9190613d32565b908152602001604051809103902060008201518160000160006101000a81548173ffffffffffffffffffffffffffffffffffffffff021916908373ffffffffffffffffffffffffffffffffffffffff1602179055506020820151816001019081611b859190613fcd565b50604082015181600201556060820151816003019081611ba59190613fcd565b506080820151816004019081611bbb9190613fcd565b5090505084600260003373ffffffffffffffffffffffffffffffffffffffff1673ffffffffffffffffffffffffffffffffffffffff1681526020019081526020016000209081611c0b9190613fcd565b505050505050565b611c1b6130c6565b611cec600260003373ffffffffffffffffffffffffffffffffffffffff1673ffffffffffffffffffffffffffffffffffffffff1681526020019081526020016000208054611c6890613cc5565b80601f0160208091040260200160405190810160405280929190818152602001828054611c9490613cc5565b8015611ce15780601f10611cb657610100808354040283529160200191611ce1565b820191906000526020600020905b815481529060010190602001808311611cc457829003601f168201915b505050505083612b97565b611cf557600080fd5b600382604051611d059190613d32565b908152602001604051809103902060009054906101000a900460ff1615611d61576040517f08c379a0000000000000000000000000000000000000000000000000000000008152600401611d5890613e01565b60405180910390fd5b600082604051611d719190613d32565b90815260200160405180910390206040518060a00160405290816000820160009054906101000a900473ffffffffffffffffffffffffffffffffffffffff1673ffffffffffffffffffffffffffffffffffffffff1673ffffffffffffffffffffffffffffffffffffffff168152602001600182018054611df090613cc5565b80601f0160208091040260200160405190810160405280929190818152602001828054611e1c90613cc5565b8015611e695780601f10611e3e57610100808354040283529160200191611e69565b820191906000526020600020905b815481529060010190602001808311611e4c57829003601f168201915b5050505050815260200160028201548152602001600382018054611e8c90613cc5565b80601f0160208091040260200160405190810160405280929190818152602001828054611eb890613cc5565b8015611f055780601f10611eda57610100808354040283529160200191611f05565b820191906000526020600020905b815481529060010190602001808311611ee857829003601f168201915b50505050508152602001600482018054611f1e90613cc5565b80601f0160208091040260200160405190810160405280929190818152602001828054611f4a90613cc5565b8015611f975780601f10611f6c57610100808354040283529160200191611f97565b820191906000526020600020905b815481529060010190602001808311611f7a57829003601f168201915b5050505050815250509050919050565b612078600260003373ffffffffffffffffffffffffffffffffffffffff1673ffffffffffffffffffffffffffffffffffffffff1681526020019081526020016000208054611ff490613cc5565b80601f016020809104026020016040519081016040528092919081815260200182805461202090613cc5565b801561206d5780601f106120425761010080835404028352916020019161206d565b820191906000526020600020905b81548152906001019060200180831161205057829003601f168201915b505050505084612b97565b61208157600080fd5b6003836040516120919190613d32565b908152602001604051809103902060009054906101000a900460ff16156120ed576040517f08c379a00000000000000000000000000000000000000000000000000000000081526004016120e490613e01565b60405180910390fd5b6001836040516120fd9190613d32565b90815260200160405180910390206040518060400160405280848152602001838152509080600181540180825580915050600190039060005260206000209060020201600090919091909150600082015181600001908051906020019061216592919061310b565b50602082015181600101908051906020019061218292919061310b565b505050505050565b600061225d600260003373ffffffffffffffffffffffffffffffffffffffff1673ffffffffffffffffffffffffffffffffffffffff16815260200190815260200160002080546121d990613cc5565b80601f016020809104026020016040519081016040528092919081815260200182805461220590613cc5565b80156122525780601f1061222757610100808354040283529160200191612252565b820191906000526020600020905b81548152906001019060200180831161223557829003601f168201915b505050505083612b97565b61229c576040517f08c379a000000000000000000000000000000000000000000000000000000000815260040161229390614537565b60405180910390fd5b6003826040516122ac9190613d32565b908152602001604051809103902060009054906101000a900460ff1615612308576040517f08c379a00000000000000000000000000000000000000000000000000000000081526004016122ff90613e01565b60405180910390fd5b60019050919050565b60006123e4600260003373ffffffffffffffffffffffffffffffffffffffff1673ffffffffffffffffffffffffffffffffffffffff168152602001908152602001600020805461236090613cc5565b80601f016020809104026020016040519081016040528092919081815260200182805461238c90613cc5565b80156123d95780601f106123ae576101008083540402835291602001916123d9565b820191906000526020600020905b8154815290600101906020018083116123bc57829003601f168201915b505050505083612b97565b6123ed57600080fd5b6003826040516123fd9190613d32565b908152602001604051809103902060009054906101000a900460ff1615612459576040517f08c379a000000000000000000000000000000000000000000000000000000000815260040161245090613e01565b60405180910390fd5b6005826040516124699190613d32565b908152602001604051809103902060016005846040516124899190613d32565b9081526020016040518091039020805490506124a59190614160565b815481106124b6576124b5614194565b5b90600052602060002001549050919050565b612599600260003373ffffffffffffffffffffffffffffffffffffffff1673ffffffffffffffffffffffffffffffffffffffff168152602001908152602001600020805461251590613cc5565b80601f016020809104026020016040519081016040528092919081815260200182805461254190613cc5565b801561258e5780601f106125635761010080835404028352916020019161258e565b820191906000526020600020905b81548152906001019060200180831161257157829003601f168201915b505050505084612b97565b6125d8576040517f08c379a00000000000000000000000000000000000000000000000000000000081526004016125cf906145a3565b60405180910390fd5b6003836040516125e89190613d32565b908152602001604051809103902060009054906101000a900460ff1615612644576040517f08c379a000000000000000000000000000000000000000000000000000000000815260040161263b90613e01565b60405180910390fd5b6008816040516126549190613d32565b908152602001604051809103902060009054906101000a900460ff16156126b0576040517f08c379a00000000000000000000000000000000000000000000000000000000081526004016126a790613d95565b60405180910390fd5b60405180606001604052808381526020013373ffffffffffffffffffffffffffffffffffffffff168152602001848152506007826040516126f19190613d32565b908152602001604051809103902060008201518160000190816127149190613fcd565b5060208201518160010160006101000a81548173ffffffffffffffffffffffffffffffffffffffff021916908373ffffffffffffffffffffffffffffffffffffffff16021790555060408201518160020190816127719190613fcd565b50905050600960405180606001604052808481526020013373ffffffffffffffffffffffffffffffffffffffff16815260200185815250908060018154018082558091505060019003906000526020600020906003020160009091909190915060008201518160000190816127e69190613fcd565b5060208201518160010160006101000a81548173ffffffffffffffffffffffffffffffffffffffff021916908373ffffffffffffffffffffffffffffffffffffffff16021790555060408201518160020190816128439190613fcd565b505050505050565b600061291e600260003373ffffffffffffffffffffffffffffffffffffffff1673ffffffffffffffffffffffffffffffffffffffff168152602001908152602001600020805461289a90613cc5565b80601f01602080910402602001604051908101604052809291908181526020018280546128c690613cc5565b80156129135780601f106128e857610100808354040283529160200191612913565b820191906000526020600020905b8154815290600101906020018083116128f657829003601f168201915b505050505083612b97565b61292757600080fd5b6003826040516129379190613d32565b908152602001604051809103902060009054906101000a900460ff1615612993576040517f08c379a000000000000000000000000000000000000000000000000000000000815260040161298a90613e01565b60405180910390fd5b6004826040516129a39190613d32565b908152602001604051809103902060016004846040516129c39190613d32565b9081526020016040518091039020805490506129df9190614160565b815481106129f0576129ef614194565b5b90600052602060002001549050919050565b6000600383604051612a149190613d32565b908152602001604051809103902060009054906101000a900460ff1615612a70576040517f08c379a0000000000000000000000000000000000000000000000000000000008152600401612a6790613e01565b60405180910390fd5b600882604051612a809190613d32565b908152602001604051809103902060009054906101000a900460ff1615612adc576040517f08c379a0000000000000000000000000000000000000000000000000000000008152600401612ad390613d95565b60405180910390fd5b612b8f600783604051612aef9190613d32565b90815260200160405180910390206002018054612b0b90613cc5565b80601f0160208091040260200160405190810160405280929190818152602001828054612b3790613cc5565b8015612b845780601f10612b5957610100808354040283529160200191612b84565b820191906000526020600020905b815481529060010190602001808311612b6757829003601f168201915b505050505084612b97565b905092915050565b600081604051602001612baa9190613d32565b6040516020818303038152906040528051906020012083604051602001612bd19190613d32565b6040516020818303038152906040528051906020012014905092915050565b60098181548110612c0057600080fd5b9060005260206000209060030201600091509050806000018054612c2390613cc5565b80601f0160208091040260200160405190810160405280929190818152602001828054612c4f90613cc5565b8015612c9c5780601f10612c7157610100808354040283529160200191612c9c565b820191906000526020600020905b815481529060010190602001808311612c7f57829003601f168201915b5050505050908060010160009054906101000a900473ffffffffffffffffffffffffffffffffffffffff1690806002018054612cd790613cc5565b80601f0160208091040260200160405190810160405280929190818152602001828054612d0390613cc5565b8015612d505780601f10612d2557610100808354040283529160200191612d50565b820191906000526020600020905b815481529060010190602001808311612d3357829003601f168201915b5050505050905083565b60606000600260003373ffffffffffffffffffffffffffffffffffffffff1673ffffffffffffffffffffffffffffffffffffffff1681526020019081526020016000208054612da890613cc5565b80601f0160208091040260200160405190810160405280929190818152602001828054612dd490613cc5565b8015612e215780601f10612df657610100808354040283529160200191612e21565b820191906000526020600020905b815481529060010190602001808311612e0457829003601f168201915b5050505050905060008082604051612e399190613d32565b90815260200160405180910390206004018054612e5590613cc5565b80601f0160208091040260200160405190810160405280929190818152602001828054612e8190613cc5565b8015612ece5780601f10612ea357610100808354040283529160200191612ece565b820191906000526020600020905b815481529060010190602001808311612eb157829003601f168201915b50505050509050809250505090565b612fae600260003373ffffffffffffffffffffffffffffffffffffffff1673ffffffffffffffffffffffffffffffffffffffff1681526020019081526020016000208054612f2a90613cc5565b80601f0160208091040260200160405190810160405280929190818152602001828054612f5690613cc5565b8015612fa35780601f10612f7857610100808354040283529160200191612fa3565b820191906000526020600020905b815481529060010190602001808311612f8657829003601f168201915b505050505083612b97565b612fb757600080fd5b600382604051612fc79190613d32565b908152602001604051809103902060009054906101000a900460ff1615613023576040517f08c379a000000000000000000000000000000000000000000000000000000000815260040161301a90613e01565b60405180910390fd5b6005826040516130339190613d32565b90815260200160405180910390208190806001815401808255809150506001900390600052602060002001600090919091909150555050565b604051806040016040528060608152602001606081525090565b50805461309290613cc5565b6000825580601f106130a457506130c3565b601f0160209004906000526020600020908101906130c29190613164565b5b50565b6040518060a00160405280600073ffffffffffffffffffffffffffffffffffffffff168152602001606081526020016000815260200160608152602001606081525090565b828054828255906000526020600020908101928215613153579160200282015b828111156131525782518290816131429190613fcd565b509160200191906001019061312b565b5b5090506131609190613181565b5090565b5b8082111561317d576000816000905550600101613165565b5090565b5b808211156131a157600081816131989190613086565b50600101613182565b5090565b6000604051905090565b600080fd5b600080fd5b600080fd5b600080fd5b6000601f19601f8301169050919050565b7f4e487b7100000000000000000000000000000000000000000000000000000000600052604160045260246000fd5b61320c826131c3565b810181811067ffffffffffffffff8211171561322b5761322a6131d4565b5b80604052505050565b600061323e6131a5565b905061324a8282613203565b919050565b600067ffffffffffffffff82111561326a576132696131d4565b5b613273826131c3565b9050602081019050919050565b82818337600083830152505050565b60006132a261329d8461324f565b613234565b9050828152602081018484840111156132be576132bd6131be565b5b6132c9848285613280565b509392505050565b600082601f8301126132e6576132e56131b9565b5b81356132f684826020860161328f565b91505092915050565b60008060408385031215613316576133156131af565b5b600083013567ffffffffffffffff811115613334576133336131b4565b5b613340858286016132d1565b925050602083013567ffffffffffffffff811115613361576133606131b4565b5b61336d858286016132d1565b9150509250929050565b600081519050919050565b600082825260208201905092915050565b6000819050602082019050919050565b600081519050919050565b600082825260208201905092915050565b60005b838110156133dd5780820151818401526020810190506133c2565b60008484015250505050565b60006133f4826133a3565b6133fe81856133ae565b935061340e8185602086016133bf565b613417816131c3565b840191505092915050565b600073ffffffffffffffffffffffffffffffffffffffff82169050919050565b600061344d82613422565b9050919050565b61345d81613442565b82525050565b6000606083016000830151848203600086015261348082826133e9565b91505060208301516134956020860182613454565b50604083015184820360408601526134ad82826133e9565b9150508091505092915050565b60006134c68383613463565b905092915050565b6000602082019050919050565b60006134e682613377565b6134f08185613382565b93508360208202850161350285613393565b8060005b8581101561353e578484038952815161351f85826134ba565b945061352a836134ce565b925060208a01995050600181019050613506565b50829750879550505050505092915050565b6000602082019050818103600083015261356a81846134db565b905092915050565b600060208284031215613588576135876131af565b5b600082013567ffffffffffffffff8111156135a6576135a56131b4565b5b6135b2848285016132d1565b91505092915050565b600081519050919050565b600082825260208201905092915050565b6000819050602082019050919050565b60006135f383836133e9565b905092915050565b6000602082019050919050565b6000613613826135bb565b61361d81856135c6565b93508360208202850161362f856135d7565b8060005b8581101561366b578484038952815161364c85826135e7565b9450613657836135fb565b925060208a01995050600181019050613633565b50829750879550505050505092915050565b6000604083016000830151848203600086015261369a8282613608565b915050602083015184820360208601526136b48282613608565b9150508091505092915050565b600060208201905081810360008301526136db818461367d565b905092915050565b6000819050919050565b6136f6816136e3565b811461370157600080fd5b50565b600081359050613713816136ed565b92915050565b600080604083850312156137305761372f6131af565b5b600083013567ffffffffffffffff81111561374e5761374d6131b4565b5b61375a858286016132d1565b925050602061376b85828601613704565b9150509250929050565b60008115159050919050565b61378a81613775565b82525050565b60006020820190506137a56000830184613781565b92915050565b600080600080600060a086880312156137c7576137c66131af565b5b600086013567ffffffffffffffff8111156137e5576137e46131b4565b5b6137f1888289016132d1565b955050602086013567ffffffffffffffff811115613812576138116131b4565b5b61381e888289016132d1565b945050604061382f88828901613704565b935050606086013567ffffffffffffffff8111156138505761384f6131b4565b5b61385c888289016132d1565b925050608086013567ffffffffffffffff81111561387d5761387c6131b4565b5b613889888289016132d1565b9150509295509295909350565b61389f816136e3565b82525050565b600060a0830160008301516138bd6000860182613454565b50602083015184820360208601526138d582826133e9565b91505060408301516138ea6040860182613896565b506060830151848203606086015261390282826133e9565b9150506080830151848203608086015261391c82826133e9565b9150508091505092915050565b6000602082019050818103600083015261394381846138a5565b905092915050565b600067ffffffffffffffff821115613966576139656131d4565b5b602082029050602081019050919050565b600080fd5b600061398f61398a8461394b565b613234565b905080838252602082019050602084028301858111156139b2576139b1613977565b5b835b818110156139f957803567ffffffffffffffff8111156139d7576139d66131b9565b5b8086016139e489826132d1565b855260208501945050506020810190506139b4565b5050509392505050565b600082601f830112613a1857613a176131b9565b5b8135613a2884826020860161397c565b91505092915050565b600080600060608486031215613a4a57613a496131af565b5b600084013567ffffffffffffffff811115613a6857613a676131b4565b5b613a74868287016132d1565b935050602084013567ffffffffffffffff811115613a9557613a946131b4565b5b613aa186828701613a03565b925050604084013567ffffffffffffffff811115613ac257613ac16131b4565b5b613ace86828701613a03565b9150509250925092565b613ae1816136e3565b82525050565b6000602082019050613afc6000830184613ad8565b92915050565b600080600060608486031215613b1b57613b1a6131af565b5b600084013567ffffffffffffffff811115613b3957613b386131b4565b5b613b45868287016132d1565b935050602084013567ffffffffffffffff811115613b6657613b656131b4565b5b613b72868287016132d1565b925050604084013567ffffffffffffffff811115613b9357613b926131b4565b5b613b9f868287016132d1565b9150509250925092565b600060208284031215613bbf57613bbe6131af565b5b6000613bcd84828501613704565b91505092915050565b600082825260208201905092915050565b6000613bf2826133a3565b613bfc8185613bd6565b9350613c0c8185602086016133bf565b613c15816131c3565b840191505092915050565b613c2981613442565b82525050565b60006060820190508181036000830152613c498186613be7565b9050613c586020830185613c20565b8181036040830152613c6a8184613be7565b9050949350505050565b60006020820190508181036000830152613c8e8184613be7565b905092915050565b7f4e487b7100000000000000000000000000000000000000000000000000000000600052602260045260246000fd5b60006002820490506001821680613cdd57607f821691505b602082108103613cf057613cef613c96565b5b50919050565b600081905092915050565b6000613d0c826133a3565b613d168185613cf6565b9350613d268185602086016133bf565b80840191505092915050565b6000613d3e8284613d01565b915081905092915050565b7f4150492068617320616c7265616479206265656e206465616374697661746564600082015250565b6000613d7f602083613bd6565b9150613d8a82613d49565b602082019050919050565b60006020820190508181036000830152613dae81613d72565b9050919050565b7f41646861617220686173206265656e2064656163746976617465640000000000600082015250565b6000613deb601b83613bd6565b9150613df682613db5565b602082019050919050565b60006020820190508181036000830152613e1a81613dde565b9050919050565b60008190508160005260206000209050919050565b60006020601f8301049050919050565b600082821b905092915050565b600060088302613e837fffffffffffffffffffffffffffffffffffffffffffffffffffffffffffffffff82613e46565b613e8d8683613e46565b95508019841693508086168417925050509392505050565b6000819050919050565b6000613eca613ec5613ec0846136e3565b613ea5565b6136e3565b9050919050565b6000819050919050565b613ee483613eaf565b613ef8613ef082613ed1565b848454613e53565b825550505050565b600090565b613f0d613f00565b613f18818484613edb565b505050565b5b81811015613f3c57613f31600082613f05565b600181019050613f1e565b5050565b601f821115613f8157613f5281613e21565b613f5b84613e36565b81016020851015613f6a578190505b613f7e613f7685613e36565b830182613f1d565b50505b505050565b600082821c905092915050565b6000613fa460001984600802613f86565b1980831691505092915050565b6000613fbd8383613f93565b9150826002028217905092915050565b613fd6826133a3565b67ffffffffffffffff811115613fef57613fee6131d4565b5b613ff98254613cc5565b614004828285613f40565b600060209050601f8311600181146140375760008415614025578287015190505b61402f8582613fb1565b865550614097565b601f19841661404586613e21565b60005b8281101561406d57848901518255600182019150602085019450602081019050614048565b8683101561408a5784890151614086601f891682613f93565b8355505b6001600288020188555050505b505050505050565b7f4164647265737320646f6573206e6f742062656c6f6e6720746f20616468616160008201527f7220686f6c646572000000000000000000000000000000000000000000000000602082015250565b60006140fb602883613bd6565b91506141068261409f565b604082019050919050565b6000602082019050818103600083015261412a816140ee565b9050919050565b7f4e487b7100000000000000000000000000000000000000000000000000000000600052601160045260246000fd5b600061416b826136e3565b9150614176836136e3565b925082820390508181111561418e5761418d614131565b5b92915050565b7f4e487b7100000000000000000000000000000000000000000000000000000000600052603260045260246000fd5b7f4964656e7469747920646f6573206e6f74206578697374000000000000000000600082015250565b60006141f9601783613bd6565b9150614204826141c3565b602082019050919050565b60006020820190508181036000830152614228816141ec565b9050919050565b7f4e6f20686f737473206c696e6b65642079657421000000000000000000000000600082015250565b6000614265601483613bd6565b91506142708261422f565b602082019050919050565b6000602082019050818103600083015261429481614258565b9050919050565b60006142a6826136e3565b91507fffffffffffffffffffffffffffffffffffffffffffffffffffffffffffffffff82036142d8576142d7614131565b5b600182019050919050565b60006142ee826136e3565b91506142f9836136e3565b925082820190508082111561431157614310614131565b5b92915050565b60008154905061432681613cc5565b9050919050565b60008190508160005260206000209050919050565b818103614350575050614428565b61435982614317565b67ffffffffffffffff811115614372576143716131d4565b5b61437c8254613cc5565b614387828285613f40565b6000601f8311600181146143b657600084156143a4578287015490505b6143ae8582613fb1565b865550614421565b601f1984166143c48761432d565b96506143cf86613e21565b60005b828110156143f7578489015482556001820191506001850194506020810190506143d2565b868310156144145784890154614410601f891682613f93565b8355505b6001600288020188555050505b5050505050505b565b7f4e487b7100000000000000000000000000000000000000000000000000000000600052603160045260246000fd5b7f4964656e7469747920616c726561647920657869737473210000000000000000600082015250565b600061448f601883613bd6565b915061449a82614459565b602082019050919050565b600060208201905081810360008301526144be81614482565b9050919050565b7f57616c6c657420646f6573206e6f742062656c6f6e6720746f2074686520616460008201527f6861617220686f6c646572210000000000000000000000000000000000000000602082015250565b6000614521602c83613bd6565b915061452c826144c5565b604082019050919050565b6000602082019050818103600083015261455081614514565b9050919050565b7f54686520686f7374206d75737420626520766572696669656421000000000000600082015250565b600061458d601a83613bd6565b915061459882614557565b602082019050919050565b600060208201905081810360008301526145bc81614580565b905091905056fea2646970667358221220706ad7fde848ed94c3e37057c0b90af5d42577ab6235cf0cc58f27f03e270fad64736f6c63430008110033",
  "linkReferences": {},
  "deployedLinkReferences": {}
}