{
  "_format": "hh-sol-artifact-1",
  "contractName": "Identity",
  "sourceName": "contracts/Identity.sol",
  "abi": [
    {
      "inputs": [
        {
          "internalType": "uint256",
          "name": "",
          "type": "uint256"
        }
      ],
      "name": "allHosts",
      "outputs": [
        {
          "internalType": "string",
          "name": "name",
          "type": "string"
        },
        {
          "internalType": "address",
          "name": "owner",
          "type": "address"
        },
        {
          "internalType": "string",
          "name": "apiKey",
          "type": "string"
        }
      ],
      "stateMutability": "view",
      "type": "function"
    },
    {
      "inputs": [
        {
          "internalType": "string",
          "name": "a",
          "type": "string"
        },
        {
          "internalType": "string",
          "name": "b",
          "type": "string"
        }
      ],
      "name": "compareStrings",
      "outputs": [
        {
          "internalType": "bool",
          "name": "",
          "type": "bool"
        }
      ],
      "stateMutability": "pure",
      "type": "function"
    },
    {
      "inputs": [
        {
          "internalType": "string",
          "name": "_adhaar",
          "type": "string"
        }
      ],
      "name": "deactivate",
      "outputs": [],
      "stateMutability": "nonpayable",
      "type": "function"
    },
    {
      "inputs": [
        {
          "internalType": "string",
          "name": "_adhaar",
          "type": "string"
        },
        {
          "internalType": "string",
          "name": "_key",
          "type": "string"
        }
      ],
      "name": "deactivateHost",
      "outputs": [],
      "stateMutability": "nonpayable",
      "type": "function"
    },
    {
      "inputs": [
        {
          "internalType": "string",
          "name": "_adhaar",
          "type": "string"
        },
        {
          "internalType": "string",
          "name": "_name",
          "type": "string"
        },
        {
          "internalType": "string",
          "name": "_key",
          "type": "string"
        }
      ],
      "name": "generateAPIKeyForHost",
      "outputs": [],
      "stateMutability": "nonpayable",
      "type": "function"
    },
    {
      "inputs": [
        {
          "internalType": "string",
          "name": "_adhaar",
          "type": "string"
        },
        {
          "internalType": "uint256",
          "name": "_today",
          "type": "uint256"
        }
      ],
      "name": "humanVerify",
      "outputs": [],
      "stateMutability": "nonpayable",
      "type": "function"
    },
    {
      "inputs": [
        {
          "internalType": "string",
          "name": "_adhaar",
          "type": "string"
        },
        {
          "internalType": "uint256",
          "name": "_expiry",
          "type": "uint256"
        }
      ],
      "name": "idCardVerify",
      "outputs": [],
      "stateMutability": "nonpayable",
      "type": "function"
    },
    {
      "inputs": [
        {
          "internalType": "string",
          "name": "_adhaar",
          "type": "string"
        },
        {
          "internalType": "string",
          "name": "_key",
          "type": "string"
        }
      ],
      "name": "isHostLinked",
      "outputs": [
        {
          "internalType": "bool",
          "name": "",
          "type": "bool"
        }
      ],
      "stateMutability": "view",
      "type": "function"
    },
    {
      "inputs": [
        {
          "internalType": "string",
          "name": "_adhaar",
          "type": "string"
        }
      ],
      "name": "lastHumanVerified",
      "outputs": [
        {
          "internalType": "uint256",
          "name": "",
          "type": "uint256"
        }
      ],
      "stateMutability": "view",
      "type": "function"
    },
    {
      "inputs": [
        {
          "internalType": "string",
          "name": "_adhaar",
          "type": "string"
        },
        {
          "internalType": "string",
          "name": "_key",
          "type": "string"
        }
      ],
      "name": "linkAHost",
      "outputs": [],
      "stateMutability": "nonpayable",
      "type": "function"
    },
    {
      "inputs": [
        {
          "internalType": "string",
          "name": "_adhaar",
          "type": "string"
        }
      ],
      "name": "loginIdentity",
      "outputs": [
        {
          "internalType": "bool",
          "name": "",
          "type": "bool"
        }
      ],
      "stateMutability": "view",
      "type": "function"
    },
    {
      "inputs": [
        {
          "internalType": "string",
          "name": "_adhaar",
          "type": "string"
        },
        {
          "internalType": "string",
          "name": "_name",
          "type": "string"
        },
        {
          "internalType": "uint256",
          "name": "_dob",
          "type": "uint256"
        },
        {
          "internalType": "string",
          "name": "_gender",
          "type": "string"
        },
        {
          "internalType": "string",
          "name": "_email",
          "type": "string"
        }
      ],
      "name": "registerIdentity",
      "outputs": [],
      "stateMutability": "nonpayable",
      "type": "function"
    },
    {
      "inputs": [
        {
          "internalType": "string",
          "name": "_adhaar",
          "type": "string"
        },
        {
          "internalType": "string[]",
          "name": "_questions",
          "type": "string[]"
        },
        {
          "internalType": "string[]",
          "name": "_answers",
          "type": "string[]"
        }
      ],
      "name": "registerSecurityQuestions",
      "outputs": [],
      "stateMutability": "nonpayable",
      "type": "function"
    },
    {
      "inputs": [
        {
          "internalType": "string",
          "name": "_adhaar",
          "type": "string"
        },
        {
          "internalType": "string",
          "name": "_key",
          "type": "string"
        }
      ],
      "name": "removeLinkedHost",
      "outputs": [
        {
          "internalType": "bool",
          "name": "",
          "type": "bool"
        }
      ],
      "stateMutability": "nonpayable",
      "type": "function"
    },
    {
      "inputs": [],
      "name": "returnEmailAddress",
      "outputs": [
        {
          "internalType": "string",
          "name": "",
          "type": "string"
        }
      ],
      "stateMutability": "view",
      "type": "function"
    },
    {
      "inputs": [],
      "name": "returnHosts",
      "outputs": [
        {
          "components": [
            {
              "internalType": "string",
              "name": "name",
              "type": "string"
            },
            {
              "internalType": "address",
              "name": "owner",
              "type": "address"
            },
            {
              "internalType": "string",
              "name": "apiKey",
              "type": "string"
            }
          ],
          "internalType": "struct Identity.Hosts[]",
          "name": "",
          "type": "tuple[]"
        }
      ],
      "stateMutability": "view",
      "type": "function"
    },
    {
      "inputs": [
        {
          "internalType": "string",
          "name": "_adhaar",
          "type": "string"
        }
      ],
      "name": "returnIdExpiry",
      "outputs": [
        {
          "internalType": "uint256",
          "name": "",
          "type": "uint256"
        }
      ],
      "stateMutability": "view",
      "type": "function"
    },
    {
      "inputs": [
        {
          "internalType": "string",
          "name": "_adhaar",
          "type": "string"
        }
      ],
      "name": "returnIdentity",
      "outputs": [
        {
          "components": [
            {
              "internalType": "address",
              "name": "owner",
              "type": "address"
            },
            {
              "internalType": "string",
              "name": "name",
              "type": "string"
            },
            {
              "internalType": "uint256",
              "name": "dateOfBirth",
              "type": "uint256"
            },
            {
              "internalType": "string",
              "name": "gender",
              "type": "string"
            },
            {
              "internalType": "string",
              "name": "emailAddress",
              "type": "string"
            }
          ],
          "internalType": "struct Identity.Data",
          "name": "",
          "type": "tuple"
        }
      ],
      "stateMutability": "view",
      "type": "function"
    },
    {
      "inputs": [
        {
          "internalType": "string",
          "name": "_adhaar",
          "type": "string"
        }
      ],
      "name": "returnSecurityQuestions",
      "outputs": [
        {
          "components": [
            {
              "internalType": "string[]",
              "name": "question",
              "type": "string[]"
            },
            {
              "internalType": "string[]",
              "name": "answer",
              "type": "string[]"
            }
          ],
          "internalType": "struct Identity.SecurityQuestions",
          "name": "",
          "type": "tuple"
        }
      ],
      "stateMutability": "view",
      "type": "function"
    }
  ],
  "bytecode": "0x608060405234801561001057600080fd5b50614429806100206000396000f3fe608060405234801561001057600080fd5b50600436106101215760003560e01c80636c275298116100ad578063b763275211610071578063b763275214610328578063bed34bba14610358578063c766c2c714610388578063d8a8f2d9146103ba578063e3830fe4146103d857610121565b80636c275298146102605780637472c3771461029057806391e6e8b9146102ac578063a6ccdfb5146102dc578063adeb404d1461030c57610121565b80632ba13510116100f45780632ba135101461019857806336588df9146101c857806336f0e664146101e457806360547f2a1461021457806369e8c15b1461024457610121565b80630456da35146101265780630ffb9bca146101425780631864e7121461016057806327ee999d1461017c575b600080fd5b610140600480360381019061013b919061312f565b6103f4565b005b61014a6105fb565b6040516101579190613380565b60405180910390f35b61017a6004803603810190610175919061312f565b6107d4565b005b610196600480360381019061019191906133a2565b610a3a565b005b6101b260048036038101906101ad91906133a2565b610bf0565b6040516101bf91906134f1565b60405180910390f35b6101e260048036038101906101dd9190613549565b610f6c565b005b6101fe60048036038101906101f9919061312f565b6110fb565b60405161020b91906135c0565b60405180910390f35b61022e6004803603810190610229919061312f565b61146f565b60405161023b91906135c0565b60405180910390f35b61025e600480360381019061025991906135db565b61191e565b005b61027a600480360381019061027591906133a2565b611bd8565b6040516102879190613759565b60405180910390f35b6102aa60048036038101906102a59190613861565b611f6c565b005b6102c660048036038101906102c191906133a2565b61214f565b6040516102d391906135c0565b60405180910390f35b6102f660048036038101906102f191906133a2565b6122d6565b6040516103039190613917565b60405180910390f35b61032660048036038101906103219190613932565b61248d565b005b610342600480360381019061033d91906133a2565b612810565b60405161034f9190613917565b60405180910390f35b610372600480360381019061036d919061312f565b6129c7565b60405161037f91906135c0565b60405180910390f35b6103a2600480360381019061039d91906139d9565b612a20565b6040516103b193929190613a5f565b60405180910390f35b6103c2612b8a565b6040516103cf9190613aa4565b60405180910390f35b6103f260048036038101906103ed9190613549565b612d0d565b005b6104c5600260003373ffffffffffffffffffffffffffffffffffffffff1673ffffffffffffffffffffffffffffffffffffffff168152602001908152602001600020805461044190613af5565b80601f016020809104026020016040519081016040528092919081815260200182805461046d90613af5565b80156104ba5780601f1061048f576101008083540402835291602001916104ba565b820191906000526020600020905b81548152906001019060200180831161049d57829003601f168201915b5050505050836129c7565b6104ce57600080fd5b6008816040516104de9190613b62565b908152602001604051809103902060009054906101000a900460ff161561053a576040517f08c379a000000000000000000000000000000000000000000000000000000000815260040161053190613bc5565b60405180910390fd5b60038260405161054a9190613b62565b908152602001604051809103902060009054906101000a900460ff16156105a6576040517f08c379a000000000000000000000000000000000000000000000000000000000815260040161059d90613c31565b60405180910390fd5b6006826040516105b69190613b62565b9081526020016040518091039020819080600181540180825580915050600190039060005260206000200160009091909190915090816105f69190613dfd565b505050565b60606009805480602002602001604051908101604052809291908181526020016000905b828210156107cb578382906000526020600020906003020160405180606001604052908160008201805461065290613af5565b80601f016020809104026020016040519081016040528092919081815260200182805461067e90613af5565b80156106cb5780601f106106a0576101008083540402835291602001916106cb565b820191906000526020600020905b8154815290600101906020018083116106ae57829003601f168201915b505050505081526020016001820160009054906101000a900473ffffffffffffffffffffffffffffffffffffffff1673ffffffffffffffffffffffffffffffffffffffff1673ffffffffffffffffffffffffffffffffffffffff16815260200160028201805461073a90613af5565b80601f016020809104026020016040519081016040528092919081815260200182805461076690613af5565b80156107b35780601f10610788576101008083540402835291602001916107b3565b820191906000526020600020905b81548152906001019060200180831161079657829003601f168201915b5050505050815250508152602001906001019061061f565b50505050905090565b6108a5600260003373ffffffffffffffffffffffffffffffffffffffff1673ffffffffffffffffffffffffffffffffffffffff168152602001908152602001600020805461082190613af5565b80601f016020809104026020016040519081016040528092919081815260200182805461084d90613af5565b801561089a5780601f1061086f5761010080835404028352916020019161089a565b820191906000526020600020905b81548152906001019060200180831161087d57829003601f168201915b5050505050836129c7565b6108ae57600080fd5b3373ffffffffffffffffffffffffffffffffffffffff166007826040516108d59190613b62565b908152602001604051809103902060010160009054906101000a900473ffffffffffffffffffffffffffffffffffffffff1673ffffffffffffffffffffffffffffffffffffffff161461092757600080fd5b6003826040516109379190613b62565b908152602001604051809103902060009054906101000a900460ff1615610993576040517f08c379a000000000000000000000000000000000000000000000000000000000815260040161098a90613c31565b60405180910390fd5b6008816040516109a39190613b62565b908152602001604051809103902060009054906101000a900460ff16156109ff576040517f08c379a00000000000000000000000000000000000000000000000000000000081526004016109f690613bc5565b60405180910390fd5b6001600882604051610a119190613b62565b908152602001604051809103902060006101000a81548160ff0219169083151502179055505050565b610b0b600260003373ffffffffffffffffffffffffffffffffffffffff1673ffffffffffffffffffffffffffffffffffffffff1681526020019081526020016000208054610a8790613af5565b80601f0160208091040260200160405190810160405280929190818152602001828054610ab390613af5565b8015610b005780601f10610ad557610100808354040283529160200191610b00565b820191906000526020600020905b815481529060010190602001808311610ae357829003601f168201915b5050505050826129c7565b610b4a576040517f08c379a0000000000000000000000000000000000000000000000000000000008152600401610b4190613f41565b60405180910390fd5b600381604051610b5a9190613b62565b908152602001604051809103902060009054906101000a900460ff1615610bb6576040517f08c379a0000000000000000000000000000000000000000000000000000000008152600401610bad90613c31565b60405180910390fd5b6001600382604051610bc89190613b62565b908152602001604051809103902060006101000a81548160ff02191690831515021790555050565b610bf8612e9c565b610cc9600260003373ffffffffffffffffffffffffffffffffffffffff1673ffffffffffffffffffffffffffffffffffffffff1681526020019081526020016000208054610c4590613af5565b80601f0160208091040260200160405190810160405280929190818152602001828054610c7190613af5565b8015610cbe5780601f10610c9357610100808354040283529160200191610cbe565b820191906000526020600020905b815481529060010190602001808311610ca157829003601f168201915b5050505050836129c7565b610cd257600080fd5b600382604051610ce29190613b62565b908152602001604051809103902060009054906101000a900460ff1615610d3e576040517f08c379a0000000000000000000000000000000000000000000000000000000008152600401610d3590613c31565b60405180910390fd5b600182604051610d4e9190613b62565b908152602001604051809103902060018084604051610d6d9190613b62565b908152602001604051809103902080549050610d899190613f90565b81548110610d9a57610d99613fc4565b5b906000526020600020906002020160405180604001604052908160008201805480602002602001604051908101604052809291908181526020016000905b82821015610e84578382906000526020600020018054610df790613af5565b80601f0160208091040260200160405190810160405280929190818152602001828054610e2390613af5565b8015610e705780601f10610e4557610100808354040283529160200191610e70565b820191906000526020600020905b815481529060010190602001808311610e5357829003601f168201915b505050505081526020019060010190610dd8565b50505050815260200160018201805480602002602001604051908101604052809291908181526020016000905b82821015610f5d578382906000526020600020018054610ed090613af5565b80601f0160208091040260200160405190810160405280929190818152602001828054610efc90613af5565b8015610f495780601f10610f1e57610100808354040283529160200191610f49565b820191906000526020600020905b815481529060010190602001808311610f2c57829003601f168201915b505050505081526020019060010190610eb1565b50505050815250509050919050565b61103d600260003373ffffffffffffffffffffffffffffffffffffffff1673ffffffffffffffffffffffffffffffffffffffff1681526020019081526020016000208054610fb990613af5565b80601f0160208091040260200160405190810160405280929190818152602001828054610fe590613af5565b80156110325780601f1061100757610100808354040283529160200191611032565b820191906000526020600020905b81548152906001019060200180831161101557829003601f168201915b5050505050836129c7565b61104657600080fd5b6003826040516110569190613b62565b908152602001604051809103902060009054906101000a900460ff16156110b2576040517f08c379a00000000000000000000000000000000000000000000000000000000081526004016110a990613c31565b60405180910390fd5b6004826040516110c29190613b62565b90815260200160405180910390208190806001815401808255809150506001900390600052602060002001600090919091909150555050565b60006111ce600260003373ffffffffffffffffffffffffffffffffffffffff1673ffffffffffffffffffffffffffffffffffffffff168152602001908152602001600020805461114a90613af5565b80601f016020809104026020016040519081016040528092919081815260200182805461117690613af5565b80156111c35780601f10611198576101008083540402835291602001916111c3565b820191906000526020600020905b8154815290600101906020018083116111a657829003601f168201915b5050505050846129c7565b61120d576040517f08c379a00000000000000000000000000000000000000000000000000000000081526004016112049061403f565b60405180910390fd5b60038360405161121d9190613b62565b908152602001604051809103902060009054906101000a900460ff1615611279576040517f08c379a000000000000000000000000000000000000000000000000000000000815260040161127090613c31565b60405180910390fd5b600060068460405161128b9190613b62565b908152602001604051809103902080549050116112dd576040517f08c379a00000000000000000000000000000000000000000000000000000000081526004016112d4906140ab565b60405180910390fd5b6008826040516112ed9190613b62565b908152602001604051809103902060009054906101000a900460ff1615611349576040517f08c379a000000000000000000000000000000000000000000000000000000000815260040161134090613bc5565b60405180910390fd5b60005b60068460405161135c9190613b62565b908152602001604051809103902080549050811015611463576114416006856040516113889190613b62565b908152602001604051809103902082815481106113a8576113a7613fc4565b5b9060005260206000200180546113bd90613af5565b80601f01602080910402602001604051908101604052809291908181526020018280546113e990613af5565b80156114365780601f1061140b57610100808354040283529160200191611436565b820191906000526020600020905b81548152906001019060200180831161141957829003601f168201915b5050505050846129c7565b15611450576001915050611469565b808061145b906140cb565b91505061134c565b50600090505b92915050565b6000611542600260003373ffffffffffffffffffffffffffffffffffffffff1673ffffffffffffffffffffffffffffffffffffffff16815260200190815260200160002080546114be90613af5565b80601f01602080910402602001604051908101604052809291908181526020018280546114ea90613af5565b80156115375780601f1061150c57610100808354040283529160200191611537565b820191906000526020600020905b81548152906001019060200180831161151a57829003601f168201915b5050505050846129c7565b611581576040517f08c379a00000000000000000000000000000000000000000000000000000000081526004016115789061403f565b60405180910390fd5b60006006846040516115939190613b62565b908152602001604051809103902080549050116115e5576040517f08c379a00000000000000000000000000000000000000000000000000000000081526004016115dc906140ab565b60405180910390fd5b6003836040516115f59190613b62565b908152602001604051809103902060009054906101000a900460ff1615611651576040517f08c379a000000000000000000000000000000000000000000000000000000000815260040161164890613c31565b60405180910390fd5b6008826040516116619190613b62565b908152602001604051809103902060009054906101000a900460ff16156116bd576040517f08c379a00000000000000000000000000000000000000000000000000000000081526004016116b490613bc5565b60405180910390fd5b6000805b6006856040516116d19190613b62565b9081526020016040518091039020805490508110156118b3576117b66006866040516116fd9190613b62565b9081526020016040518091039020828154811061171d5761171c613fc4565b5b90600052602060002001805461173290613af5565b80601f016020809104026020016040519081016040528092919081815260200182805461175e90613af5565b80156117ab5780601f10611780576101008083540402835291602001916117ab565b820191906000526020600020905b81548152906001019060200180831161178e57829003601f168201915b5050505050856129c7565b156118a0576001915060008190505b60016006876040516117d79190613b62565b9081526020016040518091039020805490506117f39190613f90565b81101561189a5760068660405161180a9190613b62565b90815260200160405180910390206001826118259190614113565b8154811061183657611835613fc4565b5b906000526020600020016006876040516118509190613b62565b908152602001604051809103902082815481106118705761186f613fc4565b5b9060005260206000200190816118869190614172565b508080611892906140cb565b9150506117c5565b506118b3565b80806118ab906140cb565b9150506116c1565b50600081036118c6576000915050611918565b6006846040516118d69190613b62565b90815260200160405180910390208054806118f4576118f361425a565b5b6001900381819060005260206000200160006119109190612eb6565b905560019150505b92915050565b6119ef600260003373ffffffffffffffffffffffffffffffffffffffff1673ffffffffffffffffffffffffffffffffffffffff168152602001908152602001600020805461196b90613af5565b80601f016020809104026020016040519081016040528092919081815260200182805461199790613af5565b80156119e45780601f106119b9576101008083540402835291602001916119e4565b820191906000526020600020905b8154815290600101906020018083116119c757829003601f168201915b5050505050866129c7565b15611a2f576040517f08c379a0000000000000000000000000000000000000000000000000000000008152600401611a26906142d5565b60405180910390fd5b60008086604051611a409190613b62565b9081526020016040518091039020600201541115611a93576040517f08c379a0000000000000000000000000000000000000000000000000000000008152600401611a8a906142d5565b60405180910390fd5b6040518060a001604052803373ffffffffffffffffffffffffffffffffffffffff16815260200185815260200184815260200183815260200182815250600086604051611ae09190613b62565b908152602001604051809103902060008201518160000160006101000a81548173ffffffffffffffffffffffffffffffffffffffff021916908373ffffffffffffffffffffffffffffffffffffffff1602179055506020820151816001019081611b4a9190613dfd565b50604082015181600201556060820151816003019081611b6a9190613dfd565b506080820151816004019081611b809190613dfd565b5090505084600260003373ffffffffffffffffffffffffffffffffffffffff1673ffffffffffffffffffffffffffffffffffffffff1681526020019081526020016000209081611bd09190613dfd565b505050505050565b611be0612ef6565b611cb1600260003373ffffffffffffffffffffffffffffffffffffffff1673ffffffffffffffffffffffffffffffffffffffff1681526020019081526020016000208054611c2d90613af5565b80601f0160208091040260200160405190810160405280929190818152602001828054611c5990613af5565b8015611ca65780601f10611c7b57610100808354040283529160200191611ca6565b820191906000526020600020905b815481529060010190602001808311611c8957829003601f168201915b5050505050836129c7565b611cba57600080fd5b600382604051611cca9190613b62565b908152602001604051809103902060009054906101000a900460ff1615611d26576040517f08c379a0000000000000000000000000000000000000000000000000000000008152600401611d1d90613c31565b60405180910390fd5b600082604051611d369190613b62565b90815260200160405180910390206040518060a00160405290816000820160009054906101000a900473ffffffffffffffffffffffffffffffffffffffff1673ffffffffffffffffffffffffffffffffffffffff1673ffffffffffffffffffffffffffffffffffffffff168152602001600182018054611db590613af5565b80601f0160208091040260200160405190810160405280929190818152602001828054611de190613af5565b8015611e2e5780601f10611e0357610100808354040283529160200191611e2e565b820191906000526020600020905b815481529060010190602001808311611e1157829003601f168201915b5050505050815260200160028201548152602001600382018054611e5190613af5565b80601f0160208091040260200160405190810160405280929190818152602001828054611e7d90613af5565b8015611eca5780601f10611e9f57610100808354040283529160200191611eca565b820191906000526020600020905b815481529060010190602001808311611ead57829003601f168201915b50505050508152602001600482018054611ee390613af5565b80601f0160208091040260200160405190810160405280929190818152602001828054611f0f90613af5565b8015611f5c5780601f10611f3157610100808354040283529160200191611f5c565b820191906000526020600020905b815481529060010190602001808311611f3f57829003601f168201915b5050505050815250509050919050565b61203d600260003373ffffffffffffffffffffffffffffffffffffffff1673ffffffffffffffffffffffffffffffffffffffff1681526020019081526020016000208054611fb990613af5565b80601f0160208091040260200160405190810160405280929190818152602001828054611fe590613af5565b80156120325780601f1061200757610100808354040283529160200191612032565b820191906000526020600020905b81548152906001019060200180831161201557829003601f168201915b5050505050846129c7565b61204657600080fd5b6003836040516120569190613b62565b908152602001604051809103902060009054906101000a900460ff16156120b2576040517f08c379a00000000000000000000000000000000000000000000000000000000081526004016120a990613c31565b60405180910390fd5b6001836040516120c29190613b62565b90815260200160405180910390206040518060400160405280848152602001838152509080600181540180825580915050600190039060005260206000209060020201600090919091909150600082015181600001908051906020019061212a929190612f3b565b506020820151816001019080519060200190612147929190612f3b565b505050505050565b6000612222600260003373ffffffffffffffffffffffffffffffffffffffff1673ffffffffffffffffffffffffffffffffffffffff168152602001908152602001600020805461219e90613af5565b80601f01602080910402602001604051908101604052809291908181526020018280546121ca90613af5565b80156122175780601f106121ec57610100808354040283529160200191612217565b820191906000526020600020905b8154815290600101906020018083116121fa57829003601f168201915b5050505050836129c7565b612261576040517f08c379a000000000000000000000000000000000000000000000000000000000815260040161225890614367565b60405180910390fd5b6003826040516122719190613b62565b908152602001604051809103902060009054906101000a900460ff16156122cd576040517f08c379a00000000000000000000000000000000000000000000000000000000081526004016122c490613c31565b60405180910390fd5b60019050919050565b60006123a9600260003373ffffffffffffffffffffffffffffffffffffffff1673ffffffffffffffffffffffffffffffffffffffff168152602001908152602001600020805461232590613af5565b80601f016020809104026020016040519081016040528092919081815260200182805461235190613af5565b801561239e5780601f106123735761010080835404028352916020019161239e565b820191906000526020600020905b81548152906001019060200180831161238157829003601f168201915b5050505050836129c7565b6123b257600080fd5b6003826040516123c29190613b62565b908152602001604051809103902060009054906101000a900460ff161561241e576040517f08c379a000000000000000000000000000000000000000000000000000000000815260040161241590613c31565b60405180910390fd5b60058260405161242e9190613b62565b9081526020016040518091039020600160058460405161244e9190613b62565b90815260200160405180910390208054905061246a9190613f90565b8154811061247b5761247a613fc4565b5b90600052602060002001549050919050565b61255e600260003373ffffffffffffffffffffffffffffffffffffffff1673ffffffffffffffffffffffffffffffffffffffff16815260200190815260200160002080546124da90613af5565b80601f016020809104026020016040519081016040528092919081815260200182805461250690613af5565b80156125535780601f1061252857610100808354040283529160200191612553565b820191906000526020600020905b81548152906001019060200180831161253657829003601f168201915b5050505050846129c7565b61259d576040517f08c379a0000000000000000000000000000000000000000000000000000000008152600401612594906143d3565b60405180910390fd5b6003836040516125ad9190613b62565b908152602001604051809103902060009054906101000a900460ff1615612609576040517f08c379a000000000000000000000000000000000000000000000000000000000815260040161260090613c31565b60405180910390fd5b6008816040516126199190613b62565b908152602001604051809103902060009054906101000a900460ff1615612675576040517f08c379a000000000000000000000000000000000000000000000000000000000815260040161266c90613bc5565b60405180910390fd5b60405180606001604052808381526020013373ffffffffffffffffffffffffffffffffffffffff168152602001828152506007826040516126b69190613b62565b908152602001604051809103902060008201518160000190816126d99190613dfd565b5060208201518160010160006101000a81548173ffffffffffffffffffffffffffffffffffffffff021916908373ffffffffffffffffffffffffffffffffffffffff16021790555060408201518160020190816127369190613dfd565b50905050600960405180606001604052808481526020013373ffffffffffffffffffffffffffffffffffffffff16815260200183815250908060018154018082558091505060019003906000526020600020906003020160009091909190915060008201518160000190816127ab9190613dfd565b5060208201518160010160006101000a81548173ffffffffffffffffffffffffffffffffffffffff021916908373ffffffffffffffffffffffffffffffffffffffff16021790555060408201518160020190816128089190613dfd565b505050505050565b60006128e3600260003373ffffffffffffffffffffffffffffffffffffffff1673ffffffffffffffffffffffffffffffffffffffff168152602001908152602001600020805461285f90613af5565b80601f016020809104026020016040519081016040528092919081815260200182805461288b90613af5565b80156128d85780601f106128ad576101008083540402835291602001916128d8565b820191906000526020600020905b8154815290600101906020018083116128bb57829003601f168201915b5050505050836129c7565b6128ec57600080fd5b6003826040516128fc9190613b62565b908152602001604051809103902060009054906101000a900460ff1615612958576040517f08c379a000000000000000000000000000000000000000000000000000000000815260040161294f90613c31565b60405180910390fd5b6004826040516129689190613b62565b908152602001604051809103902060016004846040516129889190613b62565b9081526020016040518091039020805490506129a49190613f90565b815481106129b5576129b4613fc4565b5b90600052602060002001549050919050565b6000816040516020016129da9190613b62565b6040516020818303038152906040528051906020012083604051602001612a019190613b62565b6040516020818303038152906040528051906020012014905092915050565b60098181548110612a3057600080fd5b9060005260206000209060030201600091509050806000018054612a5390613af5565b80601f0160208091040260200160405190810160405280929190818152602001828054612a7f90613af5565b8015612acc5780601f10612aa157610100808354040283529160200191612acc565b820191906000526020600020905b815481529060010190602001808311612aaf57829003601f168201915b5050505050908060010160009054906101000a900473ffffffffffffffffffffffffffffffffffffffff1690806002018054612b0790613af5565b80601f0160208091040260200160405190810160405280929190818152602001828054612b3390613af5565b8015612b805780601f10612b5557610100808354040283529160200191612b80565b820191906000526020600020905b815481529060010190602001808311612b6357829003601f168201915b5050505050905083565b60606000600260003373ffffffffffffffffffffffffffffffffffffffff1673ffffffffffffffffffffffffffffffffffffffff1681526020019081526020016000208054612bd890613af5565b80601f0160208091040260200160405190810160405280929190818152602001828054612c0490613af5565b8015612c515780601f10612c2657610100808354040283529160200191612c51565b820191906000526020600020905b815481529060010190602001808311612c3457829003601f168201915b5050505050905060008082604051612c699190613b62565b90815260200160405180910390206004018054612c8590613af5565b80601f0160208091040260200160405190810160405280929190818152602001828054612cb190613af5565b8015612cfe5780601f10612cd357610100808354040283529160200191612cfe565b820191906000526020600020905b815481529060010190602001808311612ce157829003601f168201915b50505050509050809250505090565b612dde600260003373ffffffffffffffffffffffffffffffffffffffff1673ffffffffffffffffffffffffffffffffffffffff1681526020019081526020016000208054612d5a90613af5565b80601f0160208091040260200160405190810160405280929190818152602001828054612d8690613af5565b8015612dd35780601f10612da857610100808354040283529160200191612dd3565b820191906000526020600020905b815481529060010190602001808311612db657829003601f168201915b5050505050836129c7565b612de757600080fd5b600382604051612df79190613b62565b908152602001604051809103902060009054906101000a900460ff1615612e53576040517f08c379a0000000000000000000000000000000000000000000000000000000008152600401612e4a90613c31565b60405180910390fd5b600582604051612e639190613b62565b90815260200160405180910390208190806001815401808255809150506001900390600052602060002001600090919091909150555050565b604051806040016040528060608152602001606081525090565b508054612ec290613af5565b6000825580601f10612ed45750612ef3565b601f016020900490600052602060002090810190612ef29190612f94565b5b50565b6040518060a00160405280600073ffffffffffffffffffffffffffffffffffffffff168152602001606081526020016000815260200160608152602001606081525090565b828054828255906000526020600020908101928215612f83579160200282015b82811115612f82578251829081612f729190613dfd565b5091602001919060010190612f5b565b5b509050612f909190612fb1565b5090565b5b80821115612fad576000816000905550600101612f95565b5090565b5b80821115612fd15760008181612fc89190612eb6565b50600101612fb2565b5090565b6000604051905090565b600080fd5b600080fd5b600080fd5b600080fd5b6000601f19601f8301169050919050565b7f4e487b7100000000000000000000000000000000000000000000000000000000600052604160045260246000fd5b61303c82612ff3565b810181811067ffffffffffffffff8211171561305b5761305a613004565b5b80604052505050565b600061306e612fd5565b905061307a8282613033565b919050565b600067ffffffffffffffff82111561309a57613099613004565b5b6130a382612ff3565b9050602081019050919050565b82818337600083830152505050565b60006130d26130cd8461307f565b613064565b9050828152602081018484840111156130ee576130ed612fee565b5b6130f98482856130b0565b509392505050565b600082601f83011261311657613115612fe9565b5b81356131268482602086016130bf565b91505092915050565b6000806040838503121561314657613145612fdf565b5b600083013567ffffffffffffffff81111561316457613163612fe4565b5b61317085828601613101565b925050602083013567ffffffffffffffff81111561319157613190612fe4565b5b61319d85828601613101565b9150509250929050565b600081519050919050565b600082825260208201905092915050565b6000819050602082019050919050565b600081519050919050565b600082825260208201905092915050565b60005b8381101561320d5780820151818401526020810190506131f2565b60008484015250505050565b6000613224826131d3565b61322e81856131de565b935061323e8185602086016131ef565b61324781612ff3565b840191505092915050565b600073ffffffffffffffffffffffffffffffffffffffff82169050919050565b600061327d82613252565b9050919050565b61328d81613272565b82525050565b600060608301600083015184820360008601526132b08282613219565b91505060208301516132c56020860182613284565b50604083015184820360408601526132dd8282613219565b9150508091505092915050565b60006132f68383613293565b905092915050565b6000602082019050919050565b6000613316826131a7565b61332081856131b2565b935083602082028501613332856131c3565b8060005b8581101561336e578484038952815161334f85826132ea565b945061335a836132fe565b925060208a01995050600181019050613336565b50829750879550505050505092915050565b6000602082019050818103600083015261339a818461330b565b905092915050565b6000602082840312156133b8576133b7612fdf565b5b600082013567ffffffffffffffff8111156133d6576133d5612fe4565b5b6133e284828501613101565b91505092915050565b600081519050919050565b600082825260208201905092915050565b6000819050602082019050919050565b60006134238383613219565b905092915050565b6000602082019050919050565b6000613443826133eb565b61344d81856133f6565b93508360208202850161345f85613407565b8060005b8581101561349b578484038952815161347c8582613417565b94506134878361342b565b925060208a01995050600181019050613463565b50829750879550505050505092915050565b600060408301600083015184820360008601526134ca8282613438565b915050602083015184820360208601526134e48282613438565b9150508091505092915050565b6000602082019050818103600083015261350b81846134ad565b905092915050565b6000819050919050565b61352681613513565b811461353157600080fd5b50565b6000813590506135438161351d565b92915050565b600080604083850312156135605761355f612fdf565b5b600083013567ffffffffffffffff81111561357e5761357d612fe4565b5b61358a85828601613101565b925050602061359b85828601613534565b9150509250929050565b60008115159050919050565b6135ba816135a5565b82525050565b60006020820190506135d560008301846135b1565b92915050565b600080600080600060a086880312156135f7576135f6612fdf565b5b600086013567ffffffffffffffff81111561361557613614612fe4565b5b61362188828901613101565b955050602086013567ffffffffffffffff81111561364257613641612fe4565b5b61364e88828901613101565b945050604061365f88828901613534565b935050606086013567ffffffffffffffff8111156136805761367f612fe4565b5b61368c88828901613101565b925050608086013567ffffffffffffffff8111156136ad576136ac612fe4565b5b6136b988828901613101565b9150509295509295909350565b6136cf81613513565b82525050565b600060a0830160008301516136ed6000860182613284565b50602083015184820360208601526137058282613219565b915050604083015161371a60408601826136c6565b50606083015184820360608601526137328282613219565b9150506080830151848203608086015261374c8282613219565b9150508091505092915050565b6000602082019050818103600083015261377381846136d5565b905092915050565b600067ffffffffffffffff82111561379657613795613004565b5b602082029050602081019050919050565b600080fd5b60006137bf6137ba8461377b565b613064565b905080838252602082019050602084028301858111156137e2576137e16137a7565b5b835b8181101561382957803567ffffffffffffffff81111561380757613806612fe9565b5b8086016138148982613101565b855260208501945050506020810190506137e4565b5050509392505050565b600082601f83011261384857613847612fe9565b5b81356138588482602086016137ac565b91505092915050565b60008060006060848603121561387a57613879612fdf565b5b600084013567ffffffffffffffff81111561389857613897612fe4565b5b6138a486828701613101565b935050602084013567ffffffffffffffff8111156138c5576138c4612fe4565b5b6138d186828701613833565b925050604084013567ffffffffffffffff8111156138f2576138f1612fe4565b5b6138fe86828701613833565b9150509250925092565b61391181613513565b82525050565b600060208201905061392c6000830184613908565b92915050565b60008060006060848603121561394b5761394a612fdf565b5b600084013567ffffffffffffffff81111561396957613968612fe4565b5b61397586828701613101565b935050602084013567ffffffffffffffff81111561399657613995612fe4565b5b6139a286828701613101565b925050604084013567ffffffffffffffff8111156139c3576139c2612fe4565b5b6139cf86828701613101565b9150509250925092565b6000602082840312156139ef576139ee612fdf565b5b60006139fd84828501613534565b91505092915050565b600082825260208201905092915050565b6000613a22826131d3565b613a2c8185613a06565b9350613a3c8185602086016131ef565b613a4581612ff3565b840191505092915050565b613a5981613272565b82525050565b60006060820190508181036000830152613a798186613a17565b9050613a886020830185613a50565b8181036040830152613a9a8184613a17565b9050949350505050565b60006020820190508181036000830152613abe8184613a17565b905092915050565b7f4e487b7100000000000000000000000000000000000000000000000000000000600052602260045260246000fd5b60006002820490506001821680613b0d57607f821691505b602082108103613b2057613b1f613ac6565b5b50919050565b600081905092915050565b6000613b3c826131d3565b613b468185613b26565b9350613b568185602086016131ef565b80840191505092915050565b6000613b6e8284613b31565b915081905092915050565b7f4150492068617320616c7265616479206265656e206465616374697661746564600082015250565b6000613baf602083613a06565b9150613bba82613b79565b602082019050919050565b60006020820190508181036000830152613bde81613ba2565b9050919050565b7f41646861617220686173206265656e2064656163746976617465640000000000600082015250565b6000613c1b601b83613a06565b9150613c2682613be5565b602082019050919050565b60006020820190508181036000830152613c4a81613c0e565b9050919050565b60008190508160005260206000209050919050565b60006020601f8301049050919050565b600082821b905092915050565b600060088302613cb37fffffffffffffffffffffffffffffffffffffffffffffffffffffffffffffffff82613c76565b613cbd8683613c76565b95508019841693508086168417925050509392505050565b6000819050919050565b6000613cfa613cf5613cf084613513565b613cd5565b613513565b9050919050565b6000819050919050565b613d1483613cdf565b613d28613d2082613d01565b848454613c83565b825550505050565b600090565b613d3d613d30565b613d48818484613d0b565b505050565b5b81811015613d6c57613d61600082613d35565b600181019050613d4e565b5050565b601f821115613db157613d8281613c51565b613d8b84613c66565b81016020851015613d9a578190505b613dae613da685613c66565b830182613d4d565b50505b505050565b600082821c905092915050565b6000613dd460001984600802613db6565b1980831691505092915050565b6000613ded8383613dc3565b9150826002028217905092915050565b613e06826131d3565b67ffffffffffffffff811115613e1f57613e1e613004565b5b613e298254613af5565b613e34828285613d70565b600060209050601f831160018114613e675760008415613e55578287015190505b613e5f8582613de1565b865550613ec7565b601f198416613e7586613c51565b60005b82811015613e9d57848901518255600182019150602085019450602081019050613e78565b86831015613eba5784890151613eb6601f891682613dc3565b8355505b6001600288020188555050505b505050505050565b7f4164647265737320646f6573206e6f742062656c6f6e6720746f20616468616160008201527f7220686f6c646572000000000000000000000000000000000000000000000000602082015250565b6000613f2b602883613a06565b9150613f3682613ecf565b604082019050919050565b60006020820190508181036000830152613f5a81613f1e565b9050919050565b7f4e487b7100000000000000000000000000000000000000000000000000000000600052601160045260246000fd5b6000613f9b82613513565b9150613fa683613513565b9250828203905081811115613fbe57613fbd613f61565b5b92915050565b7f4e487b7100000000000000000000000000000000000000000000000000000000600052603260045260246000fd5b7f4964656e7469747920646f6573206e6f74206578697374000000000000000000600082015250565b6000614029601783613a06565b915061403482613ff3565b602082019050919050565b600060208201905081810360008301526140588161401c565b9050919050565b7f4e6f20686f737473206c696e6b65642079657421000000000000000000000000600082015250565b6000614095601483613a06565b91506140a08261405f565b602082019050919050565b600060208201905081810360008301526140c481614088565b9050919050565b60006140d682613513565b91507fffffffffffffffffffffffffffffffffffffffffffffffffffffffffffffffff820361410857614107613f61565b5b600182019050919050565b600061411e82613513565b915061412983613513565b925082820190508082111561414157614140613f61565b5b92915050565b60008154905061415681613af5565b9050919050565b60008190508160005260206000209050919050565b818103614180575050614258565b61418982614147565b67ffffffffffffffff8111156141a2576141a1613004565b5b6141ac8254613af5565b6141b7828285613d70565b6000601f8311600181146141e657600084156141d4578287015490505b6141de8582613de1565b865550614251565b601f1984166141f48761415d565b96506141ff86613c51565b60005b8281101561422757848901548255600182019150600185019450602081019050614202565b868310156142445784890154614240601f891682613dc3565b8355505b6001600288020188555050505b5050505050505b565b7f4e487b7100000000000000000000000000000000000000000000000000000000600052603160045260246000fd5b7f4964656e7469747920616c726561647920657869737473210000000000000000600082015250565b60006142bf601883613a06565b91506142ca82614289565b602082019050919050565b600060208201905081810360008301526142ee816142b2565b9050919050565b7f57616c6c657420646f6573206e6f742062656c6f6e6720746f2074686520616460008201527f6861617220686f6c646572210000000000000000000000000000000000000000602082015250565b6000614351602c83613a06565b915061435c826142f5565b604082019050919050565b6000602082019050818103600083015261438081614344565b9050919050565b7f54686520686f7374206d75737420626520766572696669656421000000000000600082015250565b60006143bd601a83613a06565b91506143c882614387565b602082019050919050565b600060208201905081810360008301526143ec816143b0565b905091905056fea2646970667358221220af36c5f14a86e388faa282230ca609d537e41f9645f572045eadf2145faca11864736f6c63430008110033",
  "linkReferences": {},
  "deployedLinkReferences": {}
}