{
  "_format": "hh-sol-artifact-1",
  "contractName": "Identity",
  "sourceName": "contracts/Identity.sol",
  "abi": [
    {
      "inputs": [
        {
          "internalType": "uint256",
          "name": "",
          "type": "uint256"
        }
      ],
      "name": "allHosts",
      "outputs": [
        {
          "internalType": "string",
          "name": "name",
          "type": "string"
        },
        {
          "internalType": "address",
          "name": "owner",
          "type": "address"
        },
        {
          "internalType": "string",
          "name": "adhaar",
          "type": "string"
        }
      ],
      "stateMutability": "view",
      "type": "function"
    },
    {
      "inputs": [
        {
          "internalType": "string",
          "name": "a",
          "type": "string"
        },
        {
          "internalType": "string",
          "name": "b",
          "type": "string"
        }
      ],
      "name": "compareStrings",
      "outputs": [
        {
          "internalType": "bool",
          "name": "",
          "type": "bool"
        }
      ],
      "stateMutability": "pure",
      "type": "function"
    },
    {
      "inputs": [
        {
          "internalType": "string",
          "name": "_adhaar",
          "type": "string"
        }
      ],
      "name": "deactivate",
      "outputs": [],
      "stateMutability": "nonpayable",
      "type": "function"
    },
    {
      "inputs": [
        {
          "internalType": "string",
          "name": "_adhaar",
          "type": "string"
        },
        {
          "internalType": "string",
          "name": "_key",
          "type": "string"
        }
      ],
      "name": "deactivateHost",
      "outputs": [],
      "stateMutability": "nonpayable",
      "type": "function"
    },
    {
      "inputs": [
        {
          "internalType": "string",
          "name": "_adhaar",
          "type": "string"
        },
        {
          "internalType": "string",
          "name": "_name",
          "type": "string"
        },
        {
          "internalType": "string",
          "name": "_key",
          "type": "string"
        }
      ],
      "name": "generateAPIKeyForHost",
      "outputs": [],
      "stateMutability": "nonpayable",
      "type": "function"
    },
    {
      "inputs": [
        {
          "internalType": "string",
          "name": "_adhaar",
          "type": "string"
        },
        {
          "internalType": "uint256",
          "name": "_today",
          "type": "uint256"
        }
      ],
      "name": "humanVerify",
      "outputs": [],
      "stateMutability": "nonpayable",
      "type": "function"
    },
    {
      "inputs": [
        {
          "internalType": "string",
          "name": "_adhaar",
          "type": "string"
        },
        {
          "internalType": "uint256",
          "name": "_expiry",
          "type": "uint256"
        }
      ],
      "name": "idCardVerify",
      "outputs": [],
      "stateMutability": "nonpayable",
      "type": "function"
    },
    {
      "inputs": [
        {
          "internalType": "string",
          "name": "_adhaar",
          "type": "string"
        }
      ],
      "name": "identityExists",
      "outputs": [
        {
          "internalType": "bool",
          "name": "",
          "type": "bool"
        }
      ],
      "stateMutability": "view",
      "type": "function"
    },
    {
      "inputs": [
        {
          "internalType": "string",
          "name": "_adhaar",
          "type": "string"
        },
        {
          "internalType": "string",
          "name": "_key",
          "type": "string"
        }
      ],
      "name": "isHostLinked",
      "outputs": [
        {
          "internalType": "bool",
          "name": "",
          "type": "bool"
        }
      ],
      "stateMutability": "view",
      "type": "function"
    },
    {
      "inputs": [
        {
          "internalType": "string",
          "name": "_adhaar",
          "type": "string"
        }
      ],
      "name": "lastHumanVerified",
      "outputs": [
        {
          "internalType": "uint256",
          "name": "",
          "type": "uint256"
        }
      ],
      "stateMutability": "view",
      "type": "function"
    },
    {
      "inputs": [
        {
          "internalType": "string",
          "name": "_adhaar",
          "type": "string"
        },
        {
          "internalType": "string",
          "name": "_key",
          "type": "string"
        }
      ],
      "name": "linkAHost",
      "outputs": [],
      "stateMutability": "nonpayable",
      "type": "function"
    },
    {
      "inputs": [
        {
          "internalType": "string",
          "name": "_adhaar",
          "type": "string"
        }
      ],
      "name": "loginIdentity",
      "outputs": [
        {
          "internalType": "bool",
          "name": "",
          "type": "bool"
        }
      ],
      "stateMutability": "view",
      "type": "function"
    },
    {
      "inputs": [
        {
          "internalType": "string",
          "name": "_adhaar",
          "type": "string"
        },
        {
          "internalType": "string",
          "name": "_key",
          "type": "string"
        }
      ],
      "name": "matchAPIKey",
      "outputs": [
        {
          "internalType": "bool",
          "name": "",
          "type": "bool"
        }
      ],
      "stateMutability": "view",
      "type": "function"
    },
    {
      "inputs": [
        {
          "internalType": "string",
          "name": "_adhaar",
          "type": "string"
        },
        {
          "internalType": "string",
          "name": "_name",
          "type": "string"
        },
        {
          "internalType": "uint256",
          "name": "_dob",
          "type": "uint256"
        },
        {
          "internalType": "string",
          "name": "_gender",
          "type": "string"
        },
        {
          "internalType": "string",
          "name": "_email",
          "type": "string"
        }
      ],
      "name": "registerIdentity",
      "outputs": [],
      "stateMutability": "nonpayable",
      "type": "function"
    },
    {
      "inputs": [
        {
          "internalType": "string",
          "name": "_adhaar",
          "type": "string"
        },
        {
          "internalType": "string[]",
          "name": "_questions",
          "type": "string[]"
        },
        {
          "internalType": "string[]",
          "name": "_answers",
          "type": "string[]"
        }
      ],
      "name": "registerSecurityQuestions",
      "outputs": [],
      "stateMutability": "nonpayable",
      "type": "function"
    },
    {
      "inputs": [
        {
          "internalType": "string",
          "name": "_adhaar",
          "type": "string"
        },
        {
          "internalType": "string",
          "name": "_key",
          "type": "string"
        }
      ],
      "name": "removeLinkedHost",
      "outputs": [
        {
          "internalType": "bool",
          "name": "",
          "type": "bool"
        }
      ],
      "stateMutability": "nonpayable",
      "type": "function"
    },
    {
      "inputs": [
        {
          "internalType": "string",
          "name": "_adhaar",
          "type": "string"
        }
      ],
      "name": "returnEmailAddress",
      "outputs": [
        {
          "internalType": "string",
          "name": "",
          "type": "string"
        }
      ],
      "stateMutability": "view",
      "type": "function"
    },
    {
      "inputs": [],
      "name": "returnHosts",
      "outputs": [
        {
          "components": [
            {
              "internalType": "string",
              "name": "name",
              "type": "string"
            },
            {
              "internalType": "address",
              "name": "owner",
              "type": "address"
            },
            {
              "internalType": "string",
              "name": "adhaar",
              "type": "string"
            }
          ],
          "internalType": "struct Identity.Hosts[]",
          "name": "",
          "type": "tuple[]"
        }
      ],
      "stateMutability": "view",
      "type": "function"
    },
    {
      "inputs": [
        {
          "internalType": "string",
          "name": "_adhaar",
          "type": "string"
        }
      ],
      "name": "returnIdExpiry",
      "outputs": [
        {
          "internalType": "uint256",
          "name": "",
          "type": "uint256"
        }
      ],
      "stateMutability": "view",
      "type": "function"
    },
    {
      "inputs": [
        {
          "internalType": "string",
          "name": "_adhaar",
          "type": "string"
        }
      ],
      "name": "returnIdentity",
      "outputs": [
        {
          "components": [
            {
              "internalType": "address",
              "name": "owner",
              "type": "address"
            },
            {
              "internalType": "string",
              "name": "name",
              "type": "string"
            },
            {
              "internalType": "uint256",
              "name": "dateOfBirth",
              "type": "uint256"
            },
            {
              "internalType": "string",
              "name": "gender",
              "type": "string"
            },
            {
              "internalType": "string",
              "name": "emailAddress",
              "type": "string"
            }
          ],
          "internalType": "struct Identity.Data",
          "name": "",
          "type": "tuple"
        }
      ],
      "stateMutability": "view",
      "type": "function"
    },
    {
      "inputs": [
        {
          "internalType": "string",
          "name": "_adhaar",
          "type": "string"
        }
      ],
      "name": "returnSecurityQuestions",
      "outputs": [
        {
          "components": [
            {
              "internalType": "string[]",
              "name": "question",
              "type": "string[]"
            },
            {
              "internalType": "string[]",
              "name": "answer",
              "type": "string[]"
            }
          ],
          "internalType": "struct Identity.SecurityQuestions",
          "name": "",
          "type": "tuple"
        }
      ],
      "stateMutability": "view",
      "type": "function"
    }
  ],
  "bytecode": "0x608060405234801561001057600080fd5b5061469c806100206000396000f3fe608060405234801561001057600080fd5b50600436106101375760003560e01c80636c275298116100b8578063b76327521161007c578063b76327521461036e578063b9ac1ce61461039e578063bed34bba146103ce578063c1df6400146103fe578063c766c2c71461042e578063e3830fe41461046057610137565b80636c275298146102a65780637472c377146102d657806391e6e8b9146102f2578063a6ccdfb514610322578063adeb404d1461035257610137565b806332f99ff7116100ff57806332f99ff7146101de57806336588df91461020e57806336f0e6641461022a57806360547f2a1461025a57806369e8c15b1461028a57610137565b80630456da351461013c5780630ffb9bca146101585780631864e7121461017657806327ee999d146101925780632ba13510146101ae575b600080fd5b61015660048036038101906101519190613434565b61047c565b005b6101606107a1565b60405161016d9190613685565b60405180910390f35b610190600480360381019061018b9190613434565b61097a565b005b6101ac60048036038101906101a791906136a7565b610be0565b005b6101c860048036038101906101c391906136a7565b610d96565b6040516101d591906137f6565b60405180910390f35b6101f860048036038101906101f391906136a7565b611112565b6040516102059190613862565b60405180910390f35b610228600480360381019061022391906138ba565b6112da565b005b610244600480360381019061023f9190613434565b611469565b6040516102519190613931565b60405180910390f35b610274600480360381019061026f9190613434565b6117dd565b6040516102819190613931565b60405180910390f35b6102a4600480360381019061029f919061394c565b611c8c565b005b6102c060048036038101906102bb91906136a7565b611e3d565b6040516102cd9190613aca565b60405180910390f35b6102f060048036038101906102eb9190613bd2565b6121d1565b005b61030c600480360381019061030791906136a7565b6123b4565b6040516103199190613931565b60405180910390f35b61033c600480360381019061033791906136a7565b61250b565b6040516103499190613c88565b60405180910390f35b61036c60048036038101906103679190613ca3565b6126c2565b005b610388600480360381019061038391906136a7565b612a45565b6040516103959190613c88565b60405180910390f35b6103b860048036038101906103b39190613434565b612bfc565b6040516103c59190613931565b60405180910390f35b6103e860048036038101906103e39190613434565b612d91565b6040516103f59190613931565b60405180910390f35b610418600480360381019061041391906136a7565b612dea565b6040516104259190613931565b60405180910390f35b61044860048036038101906104439190613d4a565b612ea8565b60405161045793929190613d86565b60405180910390f35b61047a600480360381019061047591906138ba565b613012565b005b61054d600260003373ffffffffffffffffffffffffffffffffffffffff1673ffffffffffffffffffffffffffffffffffffffff16815260200190815260200160002080546104c990613dfa565b80601f01602080910402602001604051908101604052809291908181526020018280546104f590613dfa565b80156105425780601f1061051757610100808354040283529160200191610542565b820191906000526020600020905b81548152906001019060200180831161052557829003601f168201915b505050505083612d91565b61055657600080fd5b6008816040516105669190613e67565b908152602001604051809103902060009054906101000a900460ff16156105c2576040517f08c379a00000000000000000000000000000000000000000000000000000000081526004016105b990613eca565b60405180910390fd5b6003826040516105d29190613e67565b908152602001604051809103902060009054906101000a900460ff161561062e576040517f08c379a000000000000000000000000000000000000000000000000000000000815260040161062590613f36565b60405180910390fd5b6000805b6006846040516106429190613e67565b9081526020016040518091039020805490508110156107445761072760068560405161066e9190613e67565b9081526020016040518091039020828154811061068e5761068d613f56565b5b9060005260206000200180546106a390613dfa565b80601f01602080910402602001604051908101604052809291908181526020018280546106cf90613dfa565b801561071c5780601f106106f15761010080835404028352916020019161071c565b820191906000526020600020905b8154815290600101906020018083116106ff57829003601f168201915b505050505084612d91565b1561073157600191505b808061073c90613fb4565b915050610632565b508061079c5760068360405161075a9190613e67565b90815260200160405180910390208290806001815401808255809150506001900390600052602060002001600090919091909150908161079a91906141a8565b505b505050565b60606009805480602002602001604051908101604052809291908181526020016000905b8282101561097157838290600052602060002090600302016040518060600160405290816000820180546107f890613dfa565b80601f016020809104026020016040519081016040528092919081815260200182805461082490613dfa565b80156108715780601f1061084657610100808354040283529160200191610871565b820191906000526020600020905b81548152906001019060200180831161085457829003601f168201915b505050505081526020016001820160009054906101000a900473ffffffffffffffffffffffffffffffffffffffff1673ffffffffffffffffffffffffffffffffffffffff1673ffffffffffffffffffffffffffffffffffffffff1681526020016002820180546108e090613dfa565b80601f016020809104026020016040519081016040528092919081815260200182805461090c90613dfa565b80156109595780601f1061092e57610100808354040283529160200191610959565b820191906000526020600020905b81548152906001019060200180831161093c57829003601f168201915b505050505081525050815260200190600101906107c5565b50505050905090565b610a4b600260003373ffffffffffffffffffffffffffffffffffffffff1673ffffffffffffffffffffffffffffffffffffffff16815260200190815260200160002080546109c790613dfa565b80601f01602080910402602001604051908101604052809291908181526020018280546109f390613dfa565b8015610a405780601f10610a1557610100808354040283529160200191610a40565b820191906000526020600020905b815481529060010190602001808311610a2357829003601f168201915b505050505083612d91565b610a5457600080fd5b3373ffffffffffffffffffffffffffffffffffffffff16600782604051610a7b9190613e67565b908152602001604051809103902060010160009054906101000a900473ffffffffffffffffffffffffffffffffffffffff1673ffffffffffffffffffffffffffffffffffffffff1614610acd57600080fd5b600382604051610add9190613e67565b908152602001604051809103902060009054906101000a900460ff1615610b39576040517f08c379a0000000000000000000000000000000000000000000000000000000008152600401610b3090613f36565b60405180910390fd5b600881604051610b499190613e67565b908152602001604051809103902060009054906101000a900460ff1615610ba5576040517f08c379a0000000000000000000000000000000000000000000000000000000008152600401610b9c90613eca565b60405180910390fd5b6001600882604051610bb79190613e67565b908152602001604051809103902060006101000a81548160ff0219169083151502179055505050565b610cb1600260003373ffffffffffffffffffffffffffffffffffffffff1673ffffffffffffffffffffffffffffffffffffffff1681526020019081526020016000208054610c2d90613dfa565b80601f0160208091040260200160405190810160405280929190818152602001828054610c5990613dfa565b8015610ca65780601f10610c7b57610100808354040283529160200191610ca6565b820191906000526020600020905b815481529060010190602001808311610c8957829003601f168201915b505050505082612d91565b610cf0576040517f08c379a0000000000000000000000000000000000000000000000000000000008152600401610ce7906142ec565b60405180910390fd5b600381604051610d009190613e67565b908152602001604051809103902060009054906101000a900460ff1615610d5c576040517f08c379a0000000000000000000000000000000000000000000000000000000008152600401610d5390613f36565b60405180910390fd5b6001600382604051610d6e9190613e67565b908152602001604051809103902060006101000a81548160ff02191690831515021790555050565b610d9e6131a1565b610e6f600260003373ffffffffffffffffffffffffffffffffffffffff1673ffffffffffffffffffffffffffffffffffffffff1681526020019081526020016000208054610deb90613dfa565b80601f0160208091040260200160405190810160405280929190818152602001828054610e1790613dfa565b8015610e645780601f10610e3957610100808354040283529160200191610e64565b820191906000526020600020905b815481529060010190602001808311610e4757829003601f168201915b505050505083612d91565b610e7857600080fd5b600382604051610e889190613e67565b908152602001604051809103902060009054906101000a900460ff1615610ee4576040517f08c379a0000000000000000000000000000000000000000000000000000000008152600401610edb90613f36565b60405180910390fd5b600182604051610ef49190613e67565b908152602001604051809103902060018084604051610f139190613e67565b908152602001604051809103902080549050610f2f919061430c565b81548110610f4057610f3f613f56565b5b906000526020600020906002020160405180604001604052908160008201805480602002602001604051908101604052809291908181526020016000905b8282101561102a578382906000526020600020018054610f9d90613dfa565b80601f0160208091040260200160405190810160405280929190818152602001828054610fc990613dfa565b80156110165780601f10610feb57610100808354040283529160200191611016565b820191906000526020600020905b815481529060010190602001808311610ff957829003601f168201915b505050505081526020019060010190610f7e565b50505050815260200160018201805480602002602001604051908101604052809291908181526020016000905b8282101561110357838290600052602060002001805461107690613dfa565b80601f01602080910402602001604051908101604052809291908181526020018280546110a290613dfa565b80156110ef5780601f106110c4576101008083540402835291602001916110ef565b820191906000526020600020905b8154815290600101906020018083116110d257829003601f168201915b505050505081526020019060010190611057565b50505050815250509050919050565b60606111e5600260003373ffffffffffffffffffffffffffffffffffffffff1673ffffffffffffffffffffffffffffffffffffffff168152602001908152602001600020805461116190613dfa565b80601f016020809104026020016040519081016040528092919081815260200182805461118d90613dfa565b80156111da5780601f106111af576101008083540402835291602001916111da565b820191906000526020600020905b8154815290600101906020018083116111bd57829003601f168201915b505050505083612d91565b611224576040517f08c379a000000000000000000000000000000000000000000000000000000000815260040161121b9061438c565b60405180910390fd5b600080836040516112359190613e67565b9081526020016040518091039020600401805461125190613dfa565b80601f016020809104026020016040519081016040528092919081815260200182805461127d90613dfa565b80156112ca5780601f1061129f576101008083540402835291602001916112ca565b820191906000526020600020905b8154815290600101906020018083116112ad57829003601f168201915b5050505050905080915050919050565b6113ab600260003373ffffffffffffffffffffffffffffffffffffffff1673ffffffffffffffffffffffffffffffffffffffff168152602001908152602001600020805461132790613dfa565b80601f016020809104026020016040519081016040528092919081815260200182805461135390613dfa565b80156113a05780601f10611375576101008083540402835291602001916113a0565b820191906000526020600020905b81548152906001019060200180831161138357829003601f168201915b505050505083612d91565b6113b457600080fd5b6003826040516113c49190613e67565b908152602001604051809103902060009054906101000a900460ff1615611420576040517f08c379a000000000000000000000000000000000000000000000000000000000815260040161141790613f36565b60405180910390fd5b6004826040516114309190613e67565b90815260200160405180910390208190806001815401808255809150506001900390600052602060002001600090919091909150555050565b600061153c600260003373ffffffffffffffffffffffffffffffffffffffff1673ffffffffffffffffffffffffffffffffffffffff16815260200190815260200160002080546114b890613dfa565b80601f01602080910402602001604051908101604052809291908181526020018280546114e490613dfa565b80156115315780601f1061150657610100808354040283529160200191611531565b820191906000526020600020905b81548152906001019060200180831161151457829003601f168201915b505050505084612d91565b61157b576040517f08c379a0000000000000000000000000000000000000000000000000000000008152600401611572906143f8565b60405180910390fd5b60038360405161158b9190613e67565b908152602001604051809103902060009054906101000a900460ff16156115e7576040517f08c379a00000000000000000000000000000000000000000000000000000000081526004016115de90613f36565b60405180910390fd5b60006006846040516115f99190613e67565b9081526020016040518091039020805490501161164b576040517f08c379a000000000000000000000000000000000000000000000000000000000815260040161164290614464565b60405180910390fd5b60088260405161165b9190613e67565b908152602001604051809103902060009054906101000a900460ff16156116b7576040517f08c379a00000000000000000000000000000000000000000000000000000000081526004016116ae90613eca565b60405180910390fd5b60005b6006846040516116ca9190613e67565b9081526020016040518091039020805490508110156117d1576117af6006856040516116f69190613e67565b9081526020016040518091039020828154811061171657611715613f56565b5b90600052602060002001805461172b90613dfa565b80601f016020809104026020016040519081016040528092919081815260200182805461175790613dfa565b80156117a45780601f10611779576101008083540402835291602001916117a4565b820191906000526020600020905b81548152906001019060200180831161178757829003601f168201915b505050505084612d91565b156117be5760019150506117d7565b80806117c990613fb4565b9150506116ba565b50600090505b92915050565b60006118b0600260003373ffffffffffffffffffffffffffffffffffffffff1673ffffffffffffffffffffffffffffffffffffffff168152602001908152602001600020805461182c90613dfa565b80601f016020809104026020016040519081016040528092919081815260200182805461185890613dfa565b80156118a55780601f1061187a576101008083540402835291602001916118a5565b820191906000526020600020905b81548152906001019060200180831161188857829003601f168201915b505050505084612d91565b6118ef576040517f08c379a00000000000000000000000000000000000000000000000000000000081526004016118e6906143f8565b60405180910390fd5b60006006846040516119019190613e67565b90815260200160405180910390208054905011611953576040517f08c379a000000000000000000000000000000000000000000000000000000000815260040161194a90614464565b60405180910390fd5b6003836040516119639190613e67565b908152602001604051809103902060009054906101000a900460ff16156119bf576040517f08c379a00000000000000000000000000000000000000000000000000000000081526004016119b690613f36565b60405180910390fd5b6008826040516119cf9190613e67565b908152602001604051809103902060009054906101000a900460ff1615611a2b576040517f08c379a0000000000000000000000000000000000000000000000000000000008152600401611a2290613eca565b60405180910390fd5b6000805b600685604051611a3f9190613e67565b908152602001604051809103902080549050811015611c2157611b24600686604051611a6b9190613e67565b90815260200160405180910390208281548110611a8b57611a8a613f56565b5b906000526020600020018054611aa090613dfa565b80601f0160208091040260200160405190810160405280929190818152602001828054611acc90613dfa565b8015611b195780601f10611aee57610100808354040283529160200191611b19565b820191906000526020600020905b815481529060010190602001808311611afc57829003601f168201915b505050505085612d91565b15611c0e576001915060008190505b6001600687604051611b459190613e67565b908152602001604051809103902080549050611b61919061430c565b811015611c0857600686604051611b789190613e67565b9081526020016040518091039020600182611b939190614484565b81548110611ba457611ba3613f56565b5b90600052602060002001600687604051611bbe9190613e67565b90815260200160405180910390208281548110611bde57611bdd613f56565b5b906000526020600020019081611bf491906144e3565b508080611c0090613fb4565b915050611b33565b50611c21565b8080611c1990613fb4565b915050611a2f565b5060008103611c34576000915050611c86565b600684604051611c449190613e67565b9081526020016040518091039020805480611c6257611c616145cb565b5b600190038181906000526020600020016000611c7e91906131bb565b905560019150505b92915050565b600385604051611c9c9190613e67565b908152602001604051809103902060009054906101000a900460ff1615611cf8576040517f08c379a0000000000000000000000000000000000000000000000000000000008152600401611cef90613f36565b60405180910390fd5b6040518060a001604052803373ffffffffffffffffffffffffffffffffffffffff16815260200185815260200184815260200183815260200182815250600086604051611d459190613e67565b908152602001604051809103902060008201518160000160006101000a81548173ffffffffffffffffffffffffffffffffffffffff021916908373ffffffffffffffffffffffffffffffffffffffff1602179055506020820151816001019081611daf91906141a8565b50604082015181600201556060820151816003019081611dcf91906141a8565b506080820151816004019081611de591906141a8565b5090505084600260003373ffffffffffffffffffffffffffffffffffffffff1673ffffffffffffffffffffffffffffffffffffffff1681526020019081526020016000209081611e3591906141a8565b505050505050565b611e456131fb565b611f16600260003373ffffffffffffffffffffffffffffffffffffffff1673ffffffffffffffffffffffffffffffffffffffff1681526020019081526020016000208054611e9290613dfa565b80601f0160208091040260200160405190810160405280929190818152602001828054611ebe90613dfa565b8015611f0b5780601f10611ee057610100808354040283529160200191611f0b565b820191906000526020600020905b815481529060010190602001808311611eee57829003601f168201915b505050505083612d91565b611f1f57600080fd5b600382604051611f2f9190613e67565b908152602001604051809103902060009054906101000a900460ff1615611f8b576040517f08c379a0000000000000000000000000000000000000000000000000000000008152600401611f8290613f36565b60405180910390fd5b600082604051611f9b9190613e67565b90815260200160405180910390206040518060a00160405290816000820160009054906101000a900473ffffffffffffffffffffffffffffffffffffffff1673ffffffffffffffffffffffffffffffffffffffff1673ffffffffffffffffffffffffffffffffffffffff16815260200160018201805461201a90613dfa565b80601f016020809104026020016040519081016040528092919081815260200182805461204690613dfa565b80156120935780601f1061206857610100808354040283529160200191612093565b820191906000526020600020905b81548152906001019060200180831161207657829003601f168201915b50505050508152602001600282015481526020016003820180546120b690613dfa565b80601f01602080910402602001604051908101604052809291908181526020018280546120e290613dfa565b801561212f5780601f106121045761010080835404028352916020019161212f565b820191906000526020600020905b81548152906001019060200180831161211257829003601f168201915b5050505050815260200160048201805461214890613dfa565b80601f016020809104026020016040519081016040528092919081815260200182805461217490613dfa565b80156121c15780601f10612196576101008083540402835291602001916121c1565b820191906000526020600020905b8154815290600101906020018083116121a457829003601f168201915b5050505050815250509050919050565b6122a2600260003373ffffffffffffffffffffffffffffffffffffffff1673ffffffffffffffffffffffffffffffffffffffff168152602001908152602001600020805461221e90613dfa565b80601f016020809104026020016040519081016040528092919081815260200182805461224a90613dfa565b80156122975780601f1061226c57610100808354040283529160200191612297565b820191906000526020600020905b81548152906001019060200180831161227a57829003601f168201915b505050505084612d91565b6122ab57600080fd5b6003836040516122bb9190613e67565b908152602001604051809103902060009054906101000a900460ff1615612317576040517f08c379a000000000000000000000000000000000000000000000000000000000815260040161230e90613f36565b60405180910390fd5b6001836040516123279190613e67565b90815260200160405180910390206040518060400160405280848152602001838152509080600181540180825580915050600190039060005260206000209060020201600090919091909150600082015181600001908051906020019061238f929190613240565b5060208201518160010190805190602001906123ac929190613240565b505050505050565b60006003826040516123c69190613e67565b908152602001604051809103902060009054906101000a900460ff1615612422576040517f08c379a000000000000000000000000000000000000000000000000000000000815260040161241990613f36565b60405180910390fd5b6124f3600260003373ffffffffffffffffffffffffffffffffffffffff1673ffffffffffffffffffffffffffffffffffffffff168152602001908152602001600020805461246f90613dfa565b80601f016020809104026020016040519081016040528092919081815260200182805461249b90613dfa565b80156124e85780601f106124bd576101008083540402835291602001916124e8565b820191906000526020600020905b8154815290600101906020018083116124cb57829003601f168201915b505050505083612d91565b156125015760019050612506565b600090505b919050565b60006125de600260003373ffffffffffffffffffffffffffffffffffffffff1673ffffffffffffffffffffffffffffffffffffffff168152602001908152602001600020805461255a90613dfa565b80601f016020809104026020016040519081016040528092919081815260200182805461258690613dfa565b80156125d35780601f106125a8576101008083540402835291602001916125d3565b820191906000526020600020905b8154815290600101906020018083116125b657829003601f168201915b505050505083612d91565b6125e757600080fd5b6003826040516125f79190613e67565b908152602001604051809103902060009054906101000a900460ff1615612653576040517f08c379a000000000000000000000000000000000000000000000000000000000815260040161264a90613f36565b60405180910390fd5b6005826040516126639190613e67565b908152602001604051809103902060016005846040516126839190613e67565b90815260200160405180910390208054905061269f919061430c565b815481106126b0576126af613f56565b5b90600052602060002001549050919050565b612793600260003373ffffffffffffffffffffffffffffffffffffffff1673ffffffffffffffffffffffffffffffffffffffff168152602001908152602001600020805461270f90613dfa565b80601f016020809104026020016040519081016040528092919081815260200182805461273b90613dfa565b80156127885780601f1061275d57610100808354040283529160200191612788565b820191906000526020600020905b81548152906001019060200180831161276b57829003601f168201915b505050505084612d91565b6127d2576040517f08c379a00000000000000000000000000000000000000000000000000000000081526004016127c990614646565b60405180910390fd5b6003836040516127e29190613e67565b908152602001604051809103902060009054906101000a900460ff161561283e576040517f08c379a000000000000000000000000000000000000000000000000000000000815260040161283590613f36565b60405180910390fd5b60088160405161284e9190613e67565b908152602001604051809103902060009054906101000a900460ff16156128aa576040517f08c379a00000000000000000000000000000000000000000000000000000000081526004016128a190613eca565b60405180910390fd5b60405180606001604052808381526020013373ffffffffffffffffffffffffffffffffffffffff168152602001848152506007826040516128eb9190613e67565b9081526020016040518091039020600082015181600001908161290e91906141a8565b5060208201518160010160006101000a81548173ffffffffffffffffffffffffffffffffffffffff021916908373ffffffffffffffffffffffffffffffffffffffff160217905550604082015181600201908161296b91906141a8565b50905050600960405180606001604052808481526020013373ffffffffffffffffffffffffffffffffffffffff16815260200185815250908060018154018082558091505060019003906000526020600020906003020160009091909190915060008201518160000190816129e091906141a8565b5060208201518160010160006101000a81548173ffffffffffffffffffffffffffffffffffffffff021916908373ffffffffffffffffffffffffffffffffffffffff1602179055506040820151816002019081612a3d91906141a8565b505050505050565b6000612b18600260003373ffffffffffffffffffffffffffffffffffffffff1673ffffffffffffffffffffffffffffffffffffffff1681526020019081526020016000208054612a9490613dfa565b80601f0160208091040260200160405190810160405280929190818152602001828054612ac090613dfa565b8015612b0d5780601f10612ae257610100808354040283529160200191612b0d565b820191906000526020600020905b815481529060010190602001808311612af057829003601f168201915b505050505083612d91565b612b2157600080fd5b600382604051612b319190613e67565b908152602001604051809103902060009054906101000a900460ff1615612b8d576040517f08c379a0000000000000000000000000000000000000000000000000000000008152600401612b8490613f36565b60405180910390fd5b600482604051612b9d9190613e67565b90815260200160405180910390206001600484604051612bbd9190613e67565b908152602001604051809103902080549050612bd9919061430c565b81548110612bea57612be9613f56565b5b90600052602060002001549050919050565b6000600383604051612c0e9190613e67565b908152602001604051809103902060009054906101000a900460ff1615612c6a576040517f08c379a0000000000000000000000000000000000000000000000000000000008152600401612c6190613f36565b60405180910390fd5b600882604051612c7a9190613e67565b908152602001604051809103902060009054906101000a900460ff1615612cd6576040517f08c379a0000000000000000000000000000000000000000000000000000000008152600401612ccd90613eca565b60405180910390fd5b612d89600783604051612ce99190613e67565b90815260200160405180910390206002018054612d0590613dfa565b80601f0160208091040260200160405190810160405280929190818152602001828054612d3190613dfa565b8015612d7e5780601f10612d5357610100808354040283529160200191612d7e565b820191906000526020600020905b815481529060010190602001808311612d6157829003601f168201915b505050505084612d91565b905092915050565b600081604051602001612da49190613e67565b6040516020818303038152906040528051906020012083604051602001612dcb9190613e67565b6040516020818303038152906040528051906020012014905092915050565b6000600382604051612dfc9190613e67565b908152602001604051809103902060009054906101000a900460ff1615612e265760009050612ea3565b6000600260003373ffffffffffffffffffffffffffffffffffffffff1673ffffffffffffffffffffffffffffffffffffffff1681526020019081526020016000208054612e7290613dfa565b90501180612ea0575060008083604051612e8c9190613e67565b908152602001604051809103902060020154115b90505b919050565b60098181548110612eb857600080fd5b9060005260206000209060030201600091509050806000018054612edb90613dfa565b80601f0160208091040260200160405190810160405280929190818152602001828054612f0790613dfa565b8015612f545780601f10612f2957610100808354040283529160200191612f54565b820191906000526020600020905b815481529060010190602001808311612f3757829003601f168201915b5050505050908060010160009054906101000a900473ffffffffffffffffffffffffffffffffffffffff1690806002018054612f8f90613dfa565b80601f0160208091040260200160405190810160405280929190818152602001828054612fbb90613dfa565b80156130085780601f10612fdd57610100808354040283529160200191613008565b820191906000526020600020905b815481529060010190602001808311612feb57829003601f168201915b5050505050905083565b6130e3600260003373ffffffffffffffffffffffffffffffffffffffff1673ffffffffffffffffffffffffffffffffffffffff168152602001908152602001600020805461305f90613dfa565b80601f016020809104026020016040519081016040528092919081815260200182805461308b90613dfa565b80156130d85780601f106130ad576101008083540402835291602001916130d8565b820191906000526020600020905b8154815290600101906020018083116130bb57829003601f168201915b505050505083612d91565b6130ec57600080fd5b6003826040516130fc9190613e67565b908152602001604051809103902060009054906101000a900460ff1615613158576040517f08c379a000000000000000000000000000000000000000000000000000000000815260040161314f90613f36565b60405180910390fd5b6005826040516131689190613e67565b90815260200160405180910390208190806001815401808255809150506001900390600052602060002001600090919091909150555050565b604051806040016040528060608152602001606081525090565b5080546131c790613dfa565b6000825580601f106131d957506131f8565b601f0160209004906000526020600020908101906131f79190613299565b5b50565b6040518060a00160405280600073ffffffffffffffffffffffffffffffffffffffff168152602001606081526020016000815260200160608152602001606081525090565b828054828255906000526020600020908101928215613288579160200282015b8281111561328757825182908161327791906141a8565b5091602001919060010190613260565b5b50905061329591906132b6565b5090565b5b808211156132b257600081600090555060010161329a565b5090565b5b808211156132d657600081816132cd91906131bb565b506001016132b7565b5090565b6000604051905090565b600080fd5b600080fd5b600080fd5b600080fd5b6000601f19601f8301169050919050565b7f4e487b7100000000000000000000000000000000000000000000000000000000600052604160045260246000fd5b613341826132f8565b810181811067ffffffffffffffff821117156133605761335f613309565b5b80604052505050565b60006133736132da565b905061337f8282613338565b919050565b600067ffffffffffffffff82111561339f5761339e613309565b5b6133a8826132f8565b9050602081019050919050565b82818337600083830152505050565b60006133d76133d284613384565b613369565b9050828152602081018484840111156133f3576133f26132f3565b5b6133fe8482856133b5565b509392505050565b600082601f83011261341b5761341a6132ee565b5b813561342b8482602086016133c4565b91505092915050565b6000806040838503121561344b5761344a6132e4565b5b600083013567ffffffffffffffff811115613469576134686132e9565b5b61347585828601613406565b925050602083013567ffffffffffffffff811115613496576134956132e9565b5b6134a285828601613406565b9150509250929050565b600081519050919050565b600082825260208201905092915050565b6000819050602082019050919050565b600081519050919050565b600082825260208201905092915050565b60005b838110156135125780820151818401526020810190506134f7565b60008484015250505050565b6000613529826134d8565b61353381856134e3565b93506135438185602086016134f4565b61354c816132f8565b840191505092915050565b600073ffffffffffffffffffffffffffffffffffffffff82169050919050565b600061358282613557565b9050919050565b61359281613577565b82525050565b600060608301600083015184820360008601526135b5828261351e565b91505060208301516135ca6020860182613589565b50604083015184820360408601526135e2828261351e565b9150508091505092915050565b60006135fb8383613598565b905092915050565b6000602082019050919050565b600061361b826134ac565b61362581856134b7565b935083602082028501613637856134c8565b8060005b85811015613673578484038952815161365485826135ef565b945061365f83613603565b925060208a0199505060018101905061363b565b50829750879550505050505092915050565b6000602082019050818103600083015261369f8184613610565b905092915050565b6000602082840312156136bd576136bc6132e4565b5b600082013567ffffffffffffffff8111156136db576136da6132e9565b5b6136e784828501613406565b91505092915050565b600081519050919050565b600082825260208201905092915050565b6000819050602082019050919050565b6000613728838361351e565b905092915050565b6000602082019050919050565b6000613748826136f0565b61375281856136fb565b9350836020820285016137648561370c565b8060005b858110156137a05784840389528151613781858261371c565b945061378c83613730565b925060208a01995050600181019050613768565b50829750879550505050505092915050565b600060408301600083015184820360008601526137cf828261373d565b915050602083015184820360208601526137e9828261373d565b9150508091505092915050565b6000602082019050818103600083015261381081846137b2565b905092915050565b600082825260208201905092915050565b6000613834826134d8565b61383e8185613818565b935061384e8185602086016134f4565b613857816132f8565b840191505092915050565b6000602082019050818103600083015261387c8184613829565b905092915050565b6000819050919050565b61389781613884565b81146138a257600080fd5b50565b6000813590506138b48161388e565b92915050565b600080604083850312156138d1576138d06132e4565b5b600083013567ffffffffffffffff8111156138ef576138ee6132e9565b5b6138fb85828601613406565b925050602061390c858286016138a5565b9150509250929050565b60008115159050919050565b61392b81613916565b82525050565b60006020820190506139466000830184613922565b92915050565b600080600080600060a08688031215613968576139676132e4565b5b600086013567ffffffffffffffff811115613986576139856132e9565b5b61399288828901613406565b955050602086013567ffffffffffffffff8111156139b3576139b26132e9565b5b6139bf88828901613406565b94505060406139d0888289016138a5565b935050606086013567ffffffffffffffff8111156139f1576139f06132e9565b5b6139fd88828901613406565b925050608086013567ffffffffffffffff811115613a1e57613a1d6132e9565b5b613a2a88828901613406565b9150509295509295909350565b613a4081613884565b82525050565b600060a083016000830151613a5e6000860182613589565b5060208301518482036020860152613a76828261351e565b9150506040830151613a8b6040860182613a37565b5060608301518482036060860152613aa3828261351e565b91505060808301518482036080860152613abd828261351e565b9150508091505092915050565b60006020820190508181036000830152613ae48184613a46565b905092915050565b600067ffffffffffffffff821115613b0757613b06613309565b5b602082029050602081019050919050565b600080fd5b6000613b30613b2b84613aec565b613369565b90508083825260208201905060208402830185811115613b5357613b52613b18565b5b835b81811015613b9a57803567ffffffffffffffff811115613b7857613b776132ee565b5b808601613b858982613406565b85526020850194505050602081019050613b55565b5050509392505050565b600082601f830112613bb957613bb86132ee565b5b8135613bc9848260208601613b1d565b91505092915050565b600080600060608486031215613beb57613bea6132e4565b5b600084013567ffffffffffffffff811115613c0957613c086132e9565b5b613c1586828701613406565b935050602084013567ffffffffffffffff811115613c3657613c356132e9565b5b613c4286828701613ba4565b925050604084013567ffffffffffffffff811115613c6357613c626132e9565b5b613c6f86828701613ba4565b9150509250925092565b613c8281613884565b82525050565b6000602082019050613c9d6000830184613c79565b92915050565b600080600060608486031215613cbc57613cbb6132e4565b5b600084013567ffffffffffffffff811115613cda57613cd96132e9565b5b613ce686828701613406565b935050602084013567ffffffffffffffff811115613d0757613d066132e9565b5b613d1386828701613406565b925050604084013567ffffffffffffffff811115613d3457613d336132e9565b5b613d4086828701613406565b9150509250925092565b600060208284031215613d6057613d5f6132e4565b5b6000613d6e848285016138a5565b91505092915050565b613d8081613577565b82525050565b60006060820190508181036000830152613da08186613829565b9050613daf6020830185613d77565b8181036040830152613dc18184613829565b9050949350505050565b7f4e487b7100000000000000000000000000000000000000000000000000000000600052602260045260246000fd5b60006002820490506001821680613e1257607f821691505b602082108103613e2557613e24613dcb565b5b50919050565b600081905092915050565b6000613e41826134d8565b613e4b8185613e2b565b9350613e5b8185602086016134f4565b80840191505092915050565b6000613e738284613e36565b915081905092915050565b7f4150492068617320616c7265616479206265656e206465616374697661746564600082015250565b6000613eb4602083613818565b9150613ebf82613e7e565b602082019050919050565b60006020820190508181036000830152613ee381613ea7565b9050919050565b7f41646861617220686173206265656e2064656163746976617465640000000000600082015250565b6000613f20601b83613818565b9150613f2b82613eea565b602082019050919050565b60006020820190508181036000830152613f4f81613f13565b9050919050565b7f4e487b7100000000000000000000000000000000000000000000000000000000600052603260045260246000fd5b7f4e487b7100000000000000000000000000000000000000000000000000000000600052601160045260246000fd5b6000613fbf82613884565b91507fffffffffffffffffffffffffffffffffffffffffffffffffffffffffffffffff8203613ff157613ff0613f85565b5b600182019050919050565b60008190508160005260206000209050919050565b60006020601f8301049050919050565b600082821b905092915050565b60006008830261405e7fffffffffffffffffffffffffffffffffffffffffffffffffffffffffffffffff82614021565b6140688683614021565b95508019841693508086168417925050509392505050565b6000819050919050565b60006140a56140a061409b84613884565b614080565b613884565b9050919050565b6000819050919050565b6140bf8361408a565b6140d36140cb826140ac565b84845461402e565b825550505050565b600090565b6140e86140db565b6140f38184846140b6565b505050565b5b818110156141175761410c6000826140e0565b6001810190506140f9565b5050565b601f82111561415c5761412d81613ffc565b61413684614011565b81016020851015614145578190505b61415961415185614011565b8301826140f8565b50505b505050565b600082821c905092915050565b600061417f60001984600802614161565b1980831691505092915050565b6000614198838361416e565b9150826002028217905092915050565b6141b1826134d8565b67ffffffffffffffff8111156141ca576141c9613309565b5b6141d48254613dfa565b6141df82828561411b565b600060209050601f8311600181146142125760008415614200578287015190505b61420a858261418c565b865550614272565b601f19841661422086613ffc565b60005b8281101561424857848901518255600182019150602085019450602081019050614223565b868310156142655784890151614261601f89168261416e565b8355505b6001600288020188555050505b505050505050565b7f4164647265737320646f6573206e6f742062656c6f6e6720746f20616468616160008201527f7220686f6c646572000000000000000000000000000000000000000000000000602082015250565b60006142d6602883613818565b91506142e18261427a565b604082019050919050565b60006020820190508181036000830152614305816142c9565b9050919050565b600061431782613884565b915061432283613884565b925082820390508181111561433a57614339613f85565b5b92915050565b7f5573657220646f6573206e6f7420657869737473210000000000000000000000600082015250565b6000614376601583613818565b915061438182614340565b602082019050919050565b600060208201905081810360008301526143a581614369565b9050919050565b7f4964656e7469747920646f6573206e6f74206578697374000000000000000000600082015250565b60006143e2601783613818565b91506143ed826143ac565b602082019050919050565b60006020820190508181036000830152614411816143d5565b9050919050565b7f4e6f20686f737473206c696e6b65642079657421000000000000000000000000600082015250565b600061444e601483613818565b915061445982614418565b602082019050919050565b6000602082019050818103600083015261447d81614441565b9050919050565b600061448f82613884565b915061449a83613884565b92508282019050808211156144b2576144b1613f85565b5b92915050565b6000815490506144c781613dfa565b9050919050565b60008190508160005260206000209050919050565b8181036144f15750506145c9565b6144fa826144b8565b67ffffffffffffffff81111561451357614512613309565b5b61451d8254613dfa565b61452882828561411b565b6000601f8311600181146145575760008415614545578287015490505b61454f858261418c565b8655506145c2565b601f198416614565876144ce565b965061457086613ffc565b60005b8281101561459857848901548255600182019150600185019450602081019050614573565b868310156145b557848901546145b1601f89168261416e565b8355505b6001600288020188555050505b5050505050505b565b7f4e487b7100000000000000000000000000000000000000000000000000000000600052603160045260246000fd5b7f54686520686f7374206d75737420626520766572696669656421000000000000600082015250565b6000614630601a83613818565b915061463b826145fa565b602082019050919050565b6000602082019050818103600083015261465f81614623565b905091905056fea2646970667358221220c7f17959fd72da346a94ae947564b020d3c7fa5dbc91c53b73885503d08c24c864736f6c63430008110033",
  "linkReferences": {},
  "deployedLinkReferences": {}
}