{
  "_format": "hh-sol-artifact-1",
  "contractName": "Identity",
  "sourceName": "contracts/Identity.sol",
  "abi": [
    {
      "inputs": [
        {
          "internalType": "uint256",
          "name": "",
          "type": "uint256"
        }
      ],
      "name": "allHosts",
      "outputs": [
        {
          "internalType": "string",
          "name": "name",
          "type": "string"
        },
        {
          "internalType": "address",
          "name": "owner",
          "type": "address"
        },
        {
          "internalType": "string",
          "name": "adhaar",
          "type": "string"
        }
      ],
      "stateMutability": "view",
      "type": "function"
    },
    {
      "inputs": [
        {
          "internalType": "string",
          "name": "a",
          "type": "string"
        },
        {
          "internalType": "string",
          "name": "b",
          "type": "string"
        }
      ],
      "name": "compareStrings",
      "outputs": [
        {
          "internalType": "bool",
          "name": "",
          "type": "bool"
        }
      ],
      "stateMutability": "pure",
      "type": "function"
    },
    {
      "inputs": [
        {
          "internalType": "string",
          "name": "_adhaar",
          "type": "string"
        }
      ],
      "name": "deactivate",
      "outputs": [],
      "stateMutability": "nonpayable",
      "type": "function"
    },
    {
      "inputs": [
        {
          "internalType": "string",
          "name": "_adhaar",
          "type": "string"
        },
        {
          "internalType": "string",
          "name": "_key",
          "type": "string"
        }
      ],
      "name": "deactivateHost",
      "outputs": [],
      "stateMutability": "nonpayable",
      "type": "function"
    },
    {
      "inputs": [
        {
          "internalType": "string",
          "name": "_adhaar",
          "type": "string"
        },
        {
          "internalType": "string",
          "name": "_name",
          "type": "string"
        },
        {
          "internalType": "string",
          "name": "_key",
          "type": "string"
        }
      ],
      "name": "generateAPIKeyForHost",
      "outputs": [],
      "stateMutability": "nonpayable",
      "type": "function"
    },
    {
      "inputs": [
        {
          "internalType": "string",
          "name": "_adhaar",
          "type": "string"
        },
        {
          "internalType": "uint256",
          "name": "_today",
          "type": "uint256"
        }
      ],
      "name": "humanVerify",
      "outputs": [],
      "stateMutability": "nonpayable",
      "type": "function"
    },
    {
      "inputs": [
        {
          "internalType": "string",
          "name": "_adhaar",
          "type": "string"
        },
        {
          "internalType": "uint256",
          "name": "_expiry",
          "type": "uint256"
        }
      ],
      "name": "idCardVerify",
      "outputs": [],
      "stateMutability": "nonpayable",
      "type": "function"
    },
    {
      "inputs": [
        {
          "internalType": "string",
          "name": "_adhaar",
          "type": "string"
        },
        {
          "internalType": "string",
          "name": "_key",
          "type": "string"
        }
      ],
      "name": "isHostLinked",
      "outputs": [
        {
          "internalType": "bool",
          "name": "",
          "type": "bool"
        }
      ],
      "stateMutability": "view",
      "type": "function"
    },
    {
      "inputs": [
        {
          "internalType": "string",
          "name": "_adhaar",
          "type": "string"
        }
      ],
      "name": "lastHumanVerified",
      "outputs": [
        {
          "internalType": "uint256",
          "name": "",
          "type": "uint256"
        }
      ],
      "stateMutability": "view",
      "type": "function"
    },
    {
      "inputs": [
        {
          "internalType": "string",
          "name": "_adhaar",
          "type": "string"
        },
        {
          "internalType": "string",
          "name": "_key",
          "type": "string"
        }
      ],
      "name": "linkAHost",
      "outputs": [],
      "stateMutability": "nonpayable",
      "type": "function"
    },
    {
      "inputs": [
        {
          "internalType": "string",
          "name": "_adhaar",
          "type": "string"
        }
      ],
      "name": "loginIdentity",
      "outputs": [
        {
          "internalType": "bool",
          "name": "",
          "type": "bool"
        }
      ],
      "stateMutability": "view",
      "type": "function"
    },
    {
      "inputs": [
        {
          "internalType": "string",
          "name": "_adhaar",
          "type": "string"
        },
        {
          "internalType": "string",
          "name": "_key",
          "type": "string"
        }
      ],
      "name": "matchAPIKey",
      "outputs": [
        {
          "internalType": "bool",
          "name": "",
          "type": "bool"
        }
      ],
      "stateMutability": "view",
      "type": "function"
    },
    {
      "inputs": [
        {
          "internalType": "string",
          "name": "_adhaar",
          "type": "string"
        },
        {
          "internalType": "string",
          "name": "_name",
          "type": "string"
        },
        {
          "internalType": "uint256",
          "name": "_dob",
          "type": "uint256"
        },
        {
          "internalType": "string",
          "name": "_gender",
          "type": "string"
        },
        {
          "internalType": "string",
          "name": "_email",
          "type": "string"
        }
      ],
      "name": "registerIdentity",
      "outputs": [],
      "stateMutability": "nonpayable",
      "type": "function"
    },
    {
      "inputs": [
        {
          "internalType": "string",
          "name": "_adhaar",
          "type": "string"
        },
        {
          "internalType": "string[]",
          "name": "_questions",
          "type": "string[]"
        },
        {
          "internalType": "string[]",
          "name": "_answers",
          "type": "string[]"
        }
      ],
      "name": "registerSecurityQuestions",
      "outputs": [],
      "stateMutability": "nonpayable",
      "type": "function"
    },
    {
      "inputs": [
        {
          "internalType": "string",
          "name": "_adhaar",
          "type": "string"
        },
        {
          "internalType": "string",
          "name": "_key",
          "type": "string"
        }
      ],
      "name": "removeLinkedHost",
      "outputs": [
        {
          "internalType": "bool",
          "name": "",
          "type": "bool"
        }
      ],
      "stateMutability": "nonpayable",
      "type": "function"
    },
    {
      "inputs": [
        {
          "internalType": "string",
          "name": "_adhaar",
          "type": "string"
        }
      ],
      "name": "returnEmailAddress",
      "outputs": [
        {
          "internalType": "string",
          "name": "",
          "type": "string"
        }
      ],
      "stateMutability": "view",
      "type": "function"
    },
    {
      "inputs": [],
      "name": "returnHosts",
      "outputs": [
        {
          "components": [
            {
              "internalType": "string",
              "name": "name",
              "type": "string"
            },
            {
              "internalType": "address",
              "name": "owner",
              "type": "address"
            },
            {
              "internalType": "string",
              "name": "adhaar",
              "type": "string"
            }
          ],
          "internalType": "struct Identity.Hosts[]",
          "name": "",
          "type": "tuple[]"
        }
      ],
      "stateMutability": "view",
      "type": "function"
    },
    {
      "inputs": [
        {
          "internalType": "string",
          "name": "_adhaar",
          "type": "string"
        }
      ],
      "name": "returnIdExpiry",
      "outputs": [
        {
          "internalType": "uint256",
          "name": "",
          "type": "uint256"
        }
      ],
      "stateMutability": "view",
      "type": "function"
    },
    {
      "inputs": [
        {
          "internalType": "string",
          "name": "_adhaar",
          "type": "string"
        }
      ],
      "name": "returnIdentity",
      "outputs": [
        {
          "components": [
            {
              "internalType": "address",
              "name": "owner",
              "type": "address"
            },
            {
              "internalType": "string",
              "name": "name",
              "type": "string"
            },
            {
              "internalType": "uint256",
              "name": "dateOfBirth",
              "type": "uint256"
            },
            {
              "internalType": "string",
              "name": "gender",
              "type": "string"
            },
            {
              "internalType": "string",
              "name": "emailAddress",
              "type": "string"
            }
          ],
          "internalType": "struct Identity.Data",
          "name": "",
          "type": "tuple"
        }
      ],
      "stateMutability": "view",
      "type": "function"
    },
    {
      "inputs": [
        {
          "internalType": "string",
          "name": "_adhaar",
          "type": "string"
        }
      ],
      "name": "returnSecurityQuestions",
      "outputs": [
        {
          "components": [
            {
              "internalType": "string[]",
              "name": "question",
              "type": "string[]"
            },
            {
              "internalType": "string[]",
              "name": "answer",
              "type": "string[]"
            }
          ],
          "internalType": "struct Identity.SecurityQuestions",
          "name": "",
          "type": "tuple"
        }
      ],
      "stateMutability": "view",
      "type": "function"
    }
  ],
  "bytecode": "0x608060405234801561001057600080fd5b50614665806100206000396000f3fe608060405234801561001057600080fd5b506004361061012c5760003560e01c80636c275298116100ad578063b763275211610071578063b763275214610363578063b9ac1ce614610393578063bed34bba146103c3578063c766c2c7146103f3578063e3830fe4146104255761012c565b80636c2752981461029b5780637472c377146102cb57806391e6e8b9146102e7578063a6ccdfb514610317578063adeb404d146103475761012c565b806332f99ff7116100f457806332f99ff7146101d357806336588df91461020357806336f0e6641461021f57806360547f2a1461024f57806369e8c15b1461027f5761012c565b80630456da35146101315780630ffb9bca1461014d5780631864e7121461016b57806327ee999d146101875780632ba13510146101a3575b600080fd5b61014b6004803603810190610146919061336b565b610441565b005b610155610766565b60405161016291906135bc565b60405180910390f35b6101856004803603810190610180919061336b565b61093f565b005b6101a1600480360381019061019c91906135de565b610ba5565b005b6101bd60048036038101906101b891906135de565b610d5b565b6040516101ca919061372d565b60405180910390f35b6101ed60048036038101906101e891906135de565b6110d7565b6040516101fa9190613799565b60405180910390f35b61021d600480360381019061021891906137f1565b61129f565b005b6102396004803603810190610234919061336b565b61142e565b6040516102469190613868565b60405180910390f35b6102696004803603810190610264919061336b565b6117a2565b6040516102769190613868565b60405180910390f35b61029960048036038101906102949190613883565b611c51565b005b6102b560048036038101906102b091906135de565b611e02565b6040516102c29190613a01565b60405180910390f35b6102e560048036038101906102e09190613b09565b612196565b005b61030160048036038101906102fc91906135de565b612379565b60405161030e9190613868565b60405180910390f35b610331600480360381019061032c91906135de565b612500565b60405161033e9190613bbf565b60405180910390f35b610361600480360381019061035c9190613bda565b6126b7565b005b61037d600480360381019061037891906135de565b612a3a565b60405161038a9190613bbf565b60405180910390f35b6103ad60048036038101906103a8919061336b565b612bf1565b6040516103ba9190613868565b60405180910390f35b6103dd60048036038101906103d8919061336b565b612d86565b6040516103ea9190613868565b60405180910390f35b61040d60048036038101906104089190613c81565b612ddf565b60405161041c93929190613cbd565b60405180910390f35b61043f600480360381019061043a91906137f1565b612f49565b005b610512600260003373ffffffffffffffffffffffffffffffffffffffff1673ffffffffffffffffffffffffffffffffffffffff168152602001908152602001600020805461048e90613d31565b80601f01602080910402602001604051908101604052809291908181526020018280546104ba90613d31565b80156105075780601f106104dc57610100808354040283529160200191610507565b820191906000526020600020905b8154815290600101906020018083116104ea57829003601f168201915b505050505083612d86565b61051b57600080fd5b60088160405161052b9190613d9e565b908152602001604051809103902060009054906101000a900460ff1615610587576040517f08c379a000000000000000000000000000000000000000000000000000000000815260040161057e90613e01565b60405180910390fd5b6003826040516105979190613d9e565b908152602001604051809103902060009054906101000a900460ff16156105f3576040517f08c379a00000000000000000000000000000000000000000000000000000000081526004016105ea90613e6d565b60405180910390fd5b6000805b6006846040516106079190613d9e565b908152602001604051809103902080549050811015610709576106ec6006856040516106339190613d9e565b9081526020016040518091039020828154811061065357610652613e8d565b5b90600052602060002001805461066890613d31565b80601f016020809104026020016040519081016040528092919081815260200182805461069490613d31565b80156106e15780601f106106b6576101008083540402835291602001916106e1565b820191906000526020600020905b8154815290600101906020018083116106c457829003601f168201915b505050505084612d86565b156106f657600191505b808061070190613eeb565b9150506105f7565b50806107615760068360405161071f9190613d9e565b90815260200160405180910390208290806001815401808255809150506001900390600052602060002001600090919091909150908161075f91906140df565b505b505050565b60606009805480602002602001604051908101604052809291908181526020016000905b8282101561093657838290600052602060002090600302016040518060600160405290816000820180546107bd90613d31565b80601f01602080910402602001604051908101604052809291908181526020018280546107e990613d31565b80156108365780601f1061080b57610100808354040283529160200191610836565b820191906000526020600020905b81548152906001019060200180831161081957829003601f168201915b505050505081526020016001820160009054906101000a900473ffffffffffffffffffffffffffffffffffffffff1673ffffffffffffffffffffffffffffffffffffffff1673ffffffffffffffffffffffffffffffffffffffff1681526020016002820180546108a590613d31565b80601f01602080910402602001604051908101604052809291908181526020018280546108d190613d31565b801561091e5780601f106108f35761010080835404028352916020019161091e565b820191906000526020600020905b81548152906001019060200180831161090157829003601f168201915b5050505050815250508152602001906001019061078a565b50505050905090565b610a10600260003373ffffffffffffffffffffffffffffffffffffffff1673ffffffffffffffffffffffffffffffffffffffff168152602001908152602001600020805461098c90613d31565b80601f01602080910402602001604051908101604052809291908181526020018280546109b890613d31565b8015610a055780601f106109da57610100808354040283529160200191610a05565b820191906000526020600020905b8154815290600101906020018083116109e857829003601f168201915b505050505083612d86565b610a1957600080fd5b3373ffffffffffffffffffffffffffffffffffffffff16600782604051610a409190613d9e565b908152602001604051809103902060010160009054906101000a900473ffffffffffffffffffffffffffffffffffffffff1673ffffffffffffffffffffffffffffffffffffffff1614610a9257600080fd5b600382604051610aa29190613d9e565b908152602001604051809103902060009054906101000a900460ff1615610afe576040517f08c379a0000000000000000000000000000000000000000000000000000000008152600401610af590613e6d565b60405180910390fd5b600881604051610b0e9190613d9e565b908152602001604051809103902060009054906101000a900460ff1615610b6a576040517f08c379a0000000000000000000000000000000000000000000000000000000008152600401610b6190613e01565b60405180910390fd5b6001600882604051610b7c9190613d9e565b908152602001604051809103902060006101000a81548160ff0219169083151502179055505050565b610c76600260003373ffffffffffffffffffffffffffffffffffffffff1673ffffffffffffffffffffffffffffffffffffffff1681526020019081526020016000208054610bf290613d31565b80601f0160208091040260200160405190810160405280929190818152602001828054610c1e90613d31565b8015610c6b5780601f10610c4057610100808354040283529160200191610c6b565b820191906000526020600020905b815481529060010190602001808311610c4e57829003601f168201915b505050505082612d86565b610cb5576040517f08c379a0000000000000000000000000000000000000000000000000000000008152600401610cac90614223565b60405180910390fd5b600381604051610cc59190613d9e565b908152602001604051809103902060009054906101000a900460ff1615610d21576040517f08c379a0000000000000000000000000000000000000000000000000000000008152600401610d1890613e6d565b60405180910390fd5b6001600382604051610d339190613d9e565b908152602001604051809103902060006101000a81548160ff02191690831515021790555050565b610d636130d8565b610e34600260003373ffffffffffffffffffffffffffffffffffffffff1673ffffffffffffffffffffffffffffffffffffffff1681526020019081526020016000208054610db090613d31565b80601f0160208091040260200160405190810160405280929190818152602001828054610ddc90613d31565b8015610e295780601f10610dfe57610100808354040283529160200191610e29565b820191906000526020600020905b815481529060010190602001808311610e0c57829003601f168201915b505050505083612d86565b610e3d57600080fd5b600382604051610e4d9190613d9e565b908152602001604051809103902060009054906101000a900460ff1615610ea9576040517f08c379a0000000000000000000000000000000000000000000000000000000008152600401610ea090613e6d565b60405180910390fd5b600182604051610eb99190613d9e565b908152602001604051809103902060018084604051610ed89190613d9e565b908152602001604051809103902080549050610ef49190614243565b81548110610f0557610f04613e8d565b5b906000526020600020906002020160405180604001604052908160008201805480602002602001604051908101604052809291908181526020016000905b82821015610fef578382906000526020600020018054610f6290613d31565b80601f0160208091040260200160405190810160405280929190818152602001828054610f8e90613d31565b8015610fdb5780601f10610fb057610100808354040283529160200191610fdb565b820191906000526020600020905b815481529060010190602001808311610fbe57829003601f168201915b505050505081526020019060010190610f43565b50505050815260200160018201805480602002602001604051908101604052809291908181526020016000905b828210156110c857838290600052602060002001805461103b90613d31565b80601f016020809104026020016040519081016040528092919081815260200182805461106790613d31565b80156110b45780601f10611089576101008083540402835291602001916110b4565b820191906000526020600020905b81548152906001019060200180831161109757829003601f168201915b50505050508152602001906001019061101c565b50505050815250509050919050565b60606111aa600260003373ffffffffffffffffffffffffffffffffffffffff1673ffffffffffffffffffffffffffffffffffffffff168152602001908152602001600020805461112690613d31565b80601f016020809104026020016040519081016040528092919081815260200182805461115290613d31565b801561119f5780601f106111745761010080835404028352916020019161119f565b820191906000526020600020905b81548152906001019060200180831161118257829003601f168201915b505050505083612d86565b6111e9576040517f08c379a00000000000000000000000000000000000000000000000000000000081526004016111e0906142c3565b60405180910390fd5b600080836040516111fa9190613d9e565b9081526020016040518091039020600401805461121690613d31565b80601f016020809104026020016040519081016040528092919081815260200182805461124290613d31565b801561128f5780601f106112645761010080835404028352916020019161128f565b820191906000526020600020905b81548152906001019060200180831161127257829003601f168201915b5050505050905080915050919050565b611370600260003373ffffffffffffffffffffffffffffffffffffffff1673ffffffffffffffffffffffffffffffffffffffff16815260200190815260200160002080546112ec90613d31565b80601f016020809104026020016040519081016040528092919081815260200182805461131890613d31565b80156113655780601f1061133a57610100808354040283529160200191611365565b820191906000526020600020905b81548152906001019060200180831161134857829003601f168201915b505050505083612d86565b61137957600080fd5b6003826040516113899190613d9e565b908152602001604051809103902060009054906101000a900460ff16156113e5576040517f08c379a00000000000000000000000000000000000000000000000000000000081526004016113dc90613e6d565b60405180910390fd5b6004826040516113f59190613d9e565b90815260200160405180910390208190806001815401808255809150506001900390600052602060002001600090919091909150555050565b6000611501600260003373ffffffffffffffffffffffffffffffffffffffff1673ffffffffffffffffffffffffffffffffffffffff168152602001908152602001600020805461147d90613d31565b80601f01602080910402602001604051908101604052809291908181526020018280546114a990613d31565b80156114f65780601f106114cb576101008083540402835291602001916114f6565b820191906000526020600020905b8154815290600101906020018083116114d957829003601f168201915b505050505084612d86565b611540576040517f08c379a00000000000000000000000000000000000000000000000000000000081526004016115379061432f565b60405180910390fd5b6003836040516115509190613d9e565b908152602001604051809103902060009054906101000a900460ff16156115ac576040517f08c379a00000000000000000000000000000000000000000000000000000000081526004016115a390613e6d565b60405180910390fd5b60006006846040516115be9190613d9e565b90815260200160405180910390208054905011611610576040517f08c379a00000000000000000000000000000000000000000000000000000000081526004016116079061439b565b60405180910390fd5b6008826040516116209190613d9e565b908152602001604051809103902060009054906101000a900460ff161561167c576040517f08c379a000000000000000000000000000000000000000000000000000000000815260040161167390613e01565b60405180910390fd5b60005b60068460405161168f9190613d9e565b908152602001604051809103902080549050811015611796576117746006856040516116bb9190613d9e565b908152602001604051809103902082815481106116db576116da613e8d565b5b9060005260206000200180546116f090613d31565b80601f016020809104026020016040519081016040528092919081815260200182805461171c90613d31565b80156117695780601f1061173e57610100808354040283529160200191611769565b820191906000526020600020905b81548152906001019060200180831161174c57829003601f168201915b505050505084612d86565b1561178357600191505061179c565b808061178e90613eeb565b91505061167f565b50600090505b92915050565b6000611875600260003373ffffffffffffffffffffffffffffffffffffffff1673ffffffffffffffffffffffffffffffffffffffff16815260200190815260200160002080546117f190613d31565b80601f016020809104026020016040519081016040528092919081815260200182805461181d90613d31565b801561186a5780601f1061183f5761010080835404028352916020019161186a565b820191906000526020600020905b81548152906001019060200180831161184d57829003601f168201915b505050505084612d86565b6118b4576040517f08c379a00000000000000000000000000000000000000000000000000000000081526004016118ab9061432f565b60405180910390fd5b60006006846040516118c69190613d9e565b90815260200160405180910390208054905011611918576040517f08c379a000000000000000000000000000000000000000000000000000000000815260040161190f9061439b565b60405180910390fd5b6003836040516119289190613d9e565b908152602001604051809103902060009054906101000a900460ff1615611984576040517f08c379a000000000000000000000000000000000000000000000000000000000815260040161197b90613e6d565b60405180910390fd5b6008826040516119949190613d9e565b908152602001604051809103902060009054906101000a900460ff16156119f0576040517f08c379a00000000000000000000000000000000000000000000000000000000081526004016119e790613e01565b60405180910390fd5b6000805b600685604051611a049190613d9e565b908152602001604051809103902080549050811015611be657611ae9600686604051611a309190613d9e565b90815260200160405180910390208281548110611a5057611a4f613e8d565b5b906000526020600020018054611a6590613d31565b80601f0160208091040260200160405190810160405280929190818152602001828054611a9190613d31565b8015611ade5780601f10611ab357610100808354040283529160200191611ade565b820191906000526020600020905b815481529060010190602001808311611ac157829003601f168201915b505050505085612d86565b15611bd3576001915060008190505b6001600687604051611b0a9190613d9e565b908152602001604051809103902080549050611b269190614243565b811015611bcd57600686604051611b3d9190613d9e565b9081526020016040518091039020600182611b5891906143bb565b81548110611b6957611b68613e8d565b5b90600052602060002001600687604051611b839190613d9e565b90815260200160405180910390208281548110611ba357611ba2613e8d565b5b906000526020600020019081611bb9919061441a565b508080611bc590613eeb565b915050611af8565b50611be6565b8080611bde90613eeb565b9150506119f4565b5060008103611bf9576000915050611c4b565b600684604051611c099190613d9e565b9081526020016040518091039020805480611c2757611c26614502565b5b600190038181906000526020600020016000611c4391906130f2565b905560019150505b92915050565b600385604051611c619190613d9e565b908152602001604051809103902060009054906101000a900460ff1615611cbd576040517f08c379a0000000000000000000000000000000000000000000000000000000008152600401611cb490613e6d565b60405180910390fd5b6040518060a001604052803373ffffffffffffffffffffffffffffffffffffffff16815260200185815260200184815260200183815260200182815250600086604051611d0a9190613d9e565b908152602001604051809103902060008201518160000160006101000a81548173ffffffffffffffffffffffffffffffffffffffff021916908373ffffffffffffffffffffffffffffffffffffffff1602179055506020820151816001019081611d7491906140df565b50604082015181600201556060820151816003019081611d9491906140df565b506080820151816004019081611daa91906140df565b5090505084600260003373ffffffffffffffffffffffffffffffffffffffff1673ffffffffffffffffffffffffffffffffffffffff1681526020019081526020016000209081611dfa91906140df565b505050505050565b611e0a613132565b611edb600260003373ffffffffffffffffffffffffffffffffffffffff1673ffffffffffffffffffffffffffffffffffffffff1681526020019081526020016000208054611e5790613d31565b80601f0160208091040260200160405190810160405280929190818152602001828054611e8390613d31565b8015611ed05780601f10611ea557610100808354040283529160200191611ed0565b820191906000526020600020905b815481529060010190602001808311611eb357829003601f168201915b505050505083612d86565b611ee457600080fd5b600382604051611ef49190613d9e565b908152602001604051809103902060009054906101000a900460ff1615611f50576040517f08c379a0000000000000000000000000000000000000000000000000000000008152600401611f4790613e6d565b60405180910390fd5b600082604051611f609190613d9e565b90815260200160405180910390206040518060a00160405290816000820160009054906101000a900473ffffffffffffffffffffffffffffffffffffffff1673ffffffffffffffffffffffffffffffffffffffff1673ffffffffffffffffffffffffffffffffffffffff168152602001600182018054611fdf90613d31565b80601f016020809104026020016040519081016040528092919081815260200182805461200b90613d31565b80156120585780601f1061202d57610100808354040283529160200191612058565b820191906000526020600020905b81548152906001019060200180831161203b57829003601f168201915b505050505081526020016002820154815260200160038201805461207b90613d31565b80601f01602080910402602001604051908101604052809291908181526020018280546120a790613d31565b80156120f45780601f106120c9576101008083540402835291602001916120f4565b820191906000526020600020905b8154815290600101906020018083116120d757829003601f168201915b5050505050815260200160048201805461210d90613d31565b80601f016020809104026020016040519081016040528092919081815260200182805461213990613d31565b80156121865780601f1061215b57610100808354040283529160200191612186565b820191906000526020600020905b81548152906001019060200180831161216957829003601f168201915b5050505050815250509050919050565b612267600260003373ffffffffffffffffffffffffffffffffffffffff1673ffffffffffffffffffffffffffffffffffffffff16815260200190815260200160002080546121e390613d31565b80601f016020809104026020016040519081016040528092919081815260200182805461220f90613d31565b801561225c5780601f106122315761010080835404028352916020019161225c565b820191906000526020600020905b81548152906001019060200180831161223f57829003601f168201915b505050505084612d86565b61227057600080fd5b6003836040516122809190613d9e565b908152602001604051809103902060009054906101000a900460ff16156122dc576040517f08c379a00000000000000000000000000000000000000000000000000000000081526004016122d390613e6d565b60405180910390fd5b6001836040516122ec9190613d9e565b908152602001604051809103902060405180604001604052808481526020018381525090806001815401808255809150506001900390600052602060002090600202016000909190919091506000820151816000019080519060200190612354929190613177565b506020820151816001019080519060200190612371929190613177565b505050505050565b600061244c600260003373ffffffffffffffffffffffffffffffffffffffff1673ffffffffffffffffffffffffffffffffffffffff16815260200190815260200160002080546123c890613d31565b80601f01602080910402602001604051908101604052809291908181526020018280546123f490613d31565b80156124415780601f1061241657610100808354040283529160200191612441565b820191906000526020600020905b81548152906001019060200180831161242457829003601f168201915b505050505083612d86565b61248b576040517f08c379a0000000000000000000000000000000000000000000000000000000008152600401612482906145a3565b60405180910390fd5b60038260405161249b9190613d9e565b908152602001604051809103902060009054906101000a900460ff16156124f7576040517f08c379a00000000000000000000000000000000000000000000000000000000081526004016124ee90613e6d565b60405180910390fd5b60019050919050565b60006125d3600260003373ffffffffffffffffffffffffffffffffffffffff1673ffffffffffffffffffffffffffffffffffffffff168152602001908152602001600020805461254f90613d31565b80601f016020809104026020016040519081016040528092919081815260200182805461257b90613d31565b80156125c85780601f1061259d576101008083540402835291602001916125c8565b820191906000526020600020905b8154815290600101906020018083116125ab57829003601f168201915b505050505083612d86565b6125dc57600080fd5b6003826040516125ec9190613d9e565b908152602001604051809103902060009054906101000a900460ff1615612648576040517f08c379a000000000000000000000000000000000000000000000000000000000815260040161263f90613e6d565b60405180910390fd5b6005826040516126589190613d9e565b908152602001604051809103902060016005846040516126789190613d9e565b9081526020016040518091039020805490506126949190614243565b815481106126a5576126a4613e8d565b5b90600052602060002001549050919050565b612788600260003373ffffffffffffffffffffffffffffffffffffffff1673ffffffffffffffffffffffffffffffffffffffff168152602001908152602001600020805461270490613d31565b80601f016020809104026020016040519081016040528092919081815260200182805461273090613d31565b801561277d5780601f106127525761010080835404028352916020019161277d565b820191906000526020600020905b81548152906001019060200180831161276057829003601f168201915b505050505084612d86565b6127c7576040517f08c379a00000000000000000000000000000000000000000000000000000000081526004016127be9061460f565b60405180910390fd5b6003836040516127d79190613d9e565b908152602001604051809103902060009054906101000a900460ff1615612833576040517f08c379a000000000000000000000000000000000000000000000000000000000815260040161282a90613e6d565b60405180910390fd5b6008816040516128439190613d9e565b908152602001604051809103902060009054906101000a900460ff161561289f576040517f08c379a000000000000000000000000000000000000000000000000000000000815260040161289690613e01565b60405180910390fd5b60405180606001604052808381526020013373ffffffffffffffffffffffffffffffffffffffff168152602001848152506007826040516128e09190613d9e565b9081526020016040518091039020600082015181600001908161290391906140df565b5060208201518160010160006101000a81548173ffffffffffffffffffffffffffffffffffffffff021916908373ffffffffffffffffffffffffffffffffffffffff160217905550604082015181600201908161296091906140df565b50905050600960405180606001604052808481526020013373ffffffffffffffffffffffffffffffffffffffff16815260200185815250908060018154018082558091505060019003906000526020600020906003020160009091909190915060008201518160000190816129d591906140df565b5060208201518160010160006101000a81548173ffffffffffffffffffffffffffffffffffffffff021916908373ffffffffffffffffffffffffffffffffffffffff1602179055506040820151816002019081612a3291906140df565b505050505050565b6000612b0d600260003373ffffffffffffffffffffffffffffffffffffffff1673ffffffffffffffffffffffffffffffffffffffff1681526020019081526020016000208054612a8990613d31565b80601f0160208091040260200160405190810160405280929190818152602001828054612ab590613d31565b8015612b025780601f10612ad757610100808354040283529160200191612b02565b820191906000526020600020905b815481529060010190602001808311612ae557829003601f168201915b505050505083612d86565b612b1657600080fd5b600382604051612b269190613d9e565b908152602001604051809103902060009054906101000a900460ff1615612b82576040517f08c379a0000000000000000000000000000000000000000000000000000000008152600401612b7990613e6d565b60405180910390fd5b600482604051612b929190613d9e565b90815260200160405180910390206001600484604051612bb29190613d9e565b908152602001604051809103902080549050612bce9190614243565b81548110612bdf57612bde613e8d565b5b90600052602060002001549050919050565b6000600383604051612c039190613d9e565b908152602001604051809103902060009054906101000a900460ff1615612c5f576040517f08c379a0000000000000000000000000000000000000000000000000000000008152600401612c5690613e6d565b60405180910390fd5b600882604051612c6f9190613d9e565b908152602001604051809103902060009054906101000a900460ff1615612ccb576040517f08c379a0000000000000000000000000000000000000000000000000000000008152600401612cc290613e01565b60405180910390fd5b612d7e600783604051612cde9190613d9e565b90815260200160405180910390206002018054612cfa90613d31565b80601f0160208091040260200160405190810160405280929190818152602001828054612d2690613d31565b8015612d735780601f10612d4857610100808354040283529160200191612d73565b820191906000526020600020905b815481529060010190602001808311612d5657829003601f168201915b505050505084612d86565b905092915050565b600081604051602001612d999190613d9e565b6040516020818303038152906040528051906020012083604051602001612dc09190613d9e565b6040516020818303038152906040528051906020012014905092915050565b60098181548110612def57600080fd5b9060005260206000209060030201600091509050806000018054612e1290613d31565b80601f0160208091040260200160405190810160405280929190818152602001828054612e3e90613d31565b8015612e8b5780601f10612e6057610100808354040283529160200191612e8b565b820191906000526020600020905b815481529060010190602001808311612e6e57829003601f168201915b5050505050908060010160009054906101000a900473ffffffffffffffffffffffffffffffffffffffff1690806002018054612ec690613d31565b80601f0160208091040260200160405190810160405280929190818152602001828054612ef290613d31565b8015612f3f5780601f10612f1457610100808354040283529160200191612f3f565b820191906000526020600020905b815481529060010190602001808311612f2257829003601f168201915b5050505050905083565b61301a600260003373ffffffffffffffffffffffffffffffffffffffff1673ffffffffffffffffffffffffffffffffffffffff1681526020019081526020016000208054612f9690613d31565b80601f0160208091040260200160405190810160405280929190818152602001828054612fc290613d31565b801561300f5780601f10612fe45761010080835404028352916020019161300f565b820191906000526020600020905b815481529060010190602001808311612ff257829003601f168201915b505050505083612d86565b61302357600080fd5b6003826040516130339190613d9e565b908152602001604051809103902060009054906101000a900460ff161561308f576040517f08c379a000000000000000000000000000000000000000000000000000000000815260040161308690613e6d565b60405180910390fd5b60058260405161309f9190613d9e565b90815260200160405180910390208190806001815401808255809150506001900390600052602060002001600090919091909150555050565b604051806040016040528060608152602001606081525090565b5080546130fe90613d31565b6000825580601f10613110575061312f565b601f01602090049060005260206000209081019061312e91906131d0565b5b50565b6040518060a00160405280600073ffffffffffffffffffffffffffffffffffffffff168152602001606081526020016000815260200160608152602001606081525090565b8280548282559060005260206000209081019282156131bf579160200282015b828111156131be5782518290816131ae91906140df565b5091602001919060010190613197565b5b5090506131cc91906131ed565b5090565b5b808211156131e95760008160009055506001016131d1565b5090565b5b8082111561320d576000818161320491906130f2565b506001016131ee565b5090565b6000604051905090565b600080fd5b600080fd5b600080fd5b600080fd5b6000601f19601f8301169050919050565b7f4e487b7100000000000000000000000000000000000000000000000000000000600052604160045260246000fd5b6132788261322f565b810181811067ffffffffffffffff8211171561329757613296613240565b5b80604052505050565b60006132aa613211565b90506132b6828261326f565b919050565b600067ffffffffffffffff8211156132d6576132d5613240565b5b6132df8261322f565b9050602081019050919050565b82818337600083830152505050565b600061330e613309846132bb565b6132a0565b90508281526020810184848401111561332a5761332961322a565b5b6133358482856132ec565b509392505050565b600082601f83011261335257613351613225565b5b81356133628482602086016132fb565b91505092915050565b600080604083850312156133825761338161321b565b5b600083013567ffffffffffffffff8111156133a05761339f613220565b5b6133ac8582860161333d565b925050602083013567ffffffffffffffff8111156133cd576133cc613220565b5b6133d98582860161333d565b9150509250929050565b600081519050919050565b600082825260208201905092915050565b6000819050602082019050919050565b600081519050919050565b600082825260208201905092915050565b60005b8381101561344957808201518184015260208101905061342e565b60008484015250505050565b60006134608261340f565b61346a818561341a565b935061347a81856020860161342b565b6134838161322f565b840191505092915050565b600073ffffffffffffffffffffffffffffffffffffffff82169050919050565b60006134b98261348e565b9050919050565b6134c9816134ae565b82525050565b600060608301600083015184820360008601526134ec8282613455565b915050602083015161350160208601826134c0565b50604083015184820360408601526135198282613455565b9150508091505092915050565b600061353283836134cf565b905092915050565b6000602082019050919050565b6000613552826133e3565b61355c81856133ee565b93508360208202850161356e856133ff565b8060005b858110156135aa578484038952815161358b8582613526565b94506135968361353a565b925060208a01995050600181019050613572565b50829750879550505050505092915050565b600060208201905081810360008301526135d68184613547565b905092915050565b6000602082840312156135f4576135f361321b565b5b600082013567ffffffffffffffff81111561361257613611613220565b5b61361e8482850161333d565b91505092915050565b600081519050919050565b600082825260208201905092915050565b6000819050602082019050919050565b600061365f8383613455565b905092915050565b6000602082019050919050565b600061367f82613627565b6136898185613632565b93508360208202850161369b85613643565b8060005b858110156136d757848403895281516136b88582613653565b94506136c383613667565b925060208a0199505060018101905061369f565b50829750879550505050505092915050565b600060408301600083015184820360008601526137068282613674565b915050602083015184820360208601526137208282613674565b9150508091505092915050565b6000602082019050818103600083015261374781846136e9565b905092915050565b600082825260208201905092915050565b600061376b8261340f565b613775818561374f565b935061378581856020860161342b565b61378e8161322f565b840191505092915050565b600060208201905081810360008301526137b38184613760565b905092915050565b6000819050919050565b6137ce816137bb565b81146137d957600080fd5b50565b6000813590506137eb816137c5565b92915050565b600080604083850312156138085761380761321b565b5b600083013567ffffffffffffffff81111561382657613825613220565b5b6138328582860161333d565b9250506020613843858286016137dc565b9150509250929050565b60008115159050919050565b6138628161384d565b82525050565b600060208201905061387d6000830184613859565b92915050565b600080600080600060a0868803121561389f5761389e61321b565b5b600086013567ffffffffffffffff8111156138bd576138bc613220565b5b6138c98882890161333d565b955050602086013567ffffffffffffffff8111156138ea576138e9613220565b5b6138f68882890161333d565b9450506040613907888289016137dc565b935050606086013567ffffffffffffffff81111561392857613927613220565b5b6139348882890161333d565b925050608086013567ffffffffffffffff81111561395557613954613220565b5b6139618882890161333d565b9150509295509295909350565b613977816137bb565b82525050565b600060a08301600083015161399560008601826134c0565b50602083015184820360208601526139ad8282613455565b91505060408301516139c2604086018261396e565b50606083015184820360608601526139da8282613455565b915050608083015184820360808601526139f48282613455565b9150508091505092915050565b60006020820190508181036000830152613a1b818461397d565b905092915050565b600067ffffffffffffffff821115613a3e57613a3d613240565b5b602082029050602081019050919050565b600080fd5b6000613a67613a6284613a23565b6132a0565b90508083825260208201905060208402830185811115613a8a57613a89613a4f565b5b835b81811015613ad157803567ffffffffffffffff811115613aaf57613aae613225565b5b808601613abc898261333d565b85526020850194505050602081019050613a8c565b5050509392505050565b600082601f830112613af057613aef613225565b5b8135613b00848260208601613a54565b91505092915050565b600080600060608486031215613b2257613b2161321b565b5b600084013567ffffffffffffffff811115613b4057613b3f613220565b5b613b4c8682870161333d565b935050602084013567ffffffffffffffff811115613b6d57613b6c613220565b5b613b7986828701613adb565b925050604084013567ffffffffffffffff811115613b9a57613b99613220565b5b613ba686828701613adb565b9150509250925092565b613bb9816137bb565b82525050565b6000602082019050613bd46000830184613bb0565b92915050565b600080600060608486031215613bf357613bf261321b565b5b600084013567ffffffffffffffff811115613c1157613c10613220565b5b613c1d8682870161333d565b935050602084013567ffffffffffffffff811115613c3e57613c3d613220565b5b613c4a8682870161333d565b925050604084013567ffffffffffffffff811115613c6b57613c6a613220565b5b613c778682870161333d565b9150509250925092565b600060208284031215613c9757613c9661321b565b5b6000613ca5848285016137dc565b91505092915050565b613cb7816134ae565b82525050565b60006060820190508181036000830152613cd78186613760565b9050613ce66020830185613cae565b8181036040830152613cf88184613760565b9050949350505050565b7f4e487b7100000000000000000000000000000000000000000000000000000000600052602260045260246000fd5b60006002820490506001821680613d4957607f821691505b602082108103613d5c57613d5b613d02565b5b50919050565b600081905092915050565b6000613d788261340f565b613d828185613d62565b9350613d9281856020860161342b565b80840191505092915050565b6000613daa8284613d6d565b915081905092915050565b7f4150492068617320616c7265616479206265656e206465616374697661746564600082015250565b6000613deb60208361374f565b9150613df682613db5565b602082019050919050565b60006020820190508181036000830152613e1a81613dde565b9050919050565b7f41646861617220686173206265656e2064656163746976617465640000000000600082015250565b6000613e57601b8361374f565b9150613e6282613e21565b602082019050919050565b60006020820190508181036000830152613e8681613e4a565b9050919050565b7f4e487b7100000000000000000000000000000000000000000000000000000000600052603260045260246000fd5b7f4e487b7100000000000000000000000000000000000000000000000000000000600052601160045260246000fd5b6000613ef6826137bb565b91507fffffffffffffffffffffffffffffffffffffffffffffffffffffffffffffffff8203613f2857613f27613ebc565b5b600182019050919050565b60008190508160005260206000209050919050565b60006020601f8301049050919050565b600082821b905092915050565b600060088302613f957fffffffffffffffffffffffffffffffffffffffffffffffffffffffffffffffff82613f58565b613f9f8683613f58565b95508019841693508086168417925050509392505050565b6000819050919050565b6000613fdc613fd7613fd2846137bb565b613fb7565b6137bb565b9050919050565b6000819050919050565b613ff683613fc1565b61400a61400282613fe3565b848454613f65565b825550505050565b600090565b61401f614012565b61402a818484613fed565b505050565b5b8181101561404e57614043600082614017565b600181019050614030565b5050565b601f8211156140935761406481613f33565b61406d84613f48565b8101602085101561407c578190505b61409061408885613f48565b83018261402f565b50505b505050565b600082821c905092915050565b60006140b660001984600802614098565b1980831691505092915050565b60006140cf83836140a5565b9150826002028217905092915050565b6140e88261340f565b67ffffffffffffffff81111561410157614100613240565b5b61410b8254613d31565b614116828285614052565b600060209050601f8311600181146141495760008415614137578287015190505b61414185826140c3565b8655506141a9565b601f19841661415786613f33565b60005b8281101561417f5784890151825560018201915060208501945060208101905061415a565b8683101561419c5784890151614198601f8916826140a5565b8355505b6001600288020188555050505b505050505050565b7f4164647265737320646f6573206e6f742062656c6f6e6720746f20616468616160008201527f7220686f6c646572000000000000000000000000000000000000000000000000602082015250565b600061420d60288361374f565b9150614218826141b1565b604082019050919050565b6000602082019050818103600083015261423c81614200565b9050919050565b600061424e826137bb565b9150614259836137bb565b925082820390508181111561427157614270613ebc565b5b92915050565b7f5573657220646f6573206e6f7420657869737473210000000000000000000000600082015250565b60006142ad60158361374f565b91506142b882614277565b602082019050919050565b600060208201905081810360008301526142dc816142a0565b9050919050565b7f4964656e7469747920646f6573206e6f74206578697374000000000000000000600082015250565b600061431960178361374f565b9150614324826142e3565b602082019050919050565b600060208201905081810360008301526143488161430c565b9050919050565b7f4e6f20686f737473206c696e6b65642079657421000000000000000000000000600082015250565b600061438560148361374f565b91506143908261434f565b602082019050919050565b600060208201905081810360008301526143b481614378565b9050919050565b60006143c6826137bb565b91506143d1836137bb565b92508282019050808211156143e9576143e8613ebc565b5b92915050565b6000815490506143fe81613d31565b9050919050565b60008190508160005260206000209050919050565b818103614428575050614500565b614431826143ef565b67ffffffffffffffff81111561444a57614449613240565b5b6144548254613d31565b61445f828285614052565b6000601f83116001811461448e576000841561447c578287015490505b61448685826140c3565b8655506144f9565b601f19841661449c87614405565b96506144a786613f33565b60005b828110156144cf578489015482556001820191506001850194506020810190506144aa565b868310156144ec57848901546144e8601f8916826140a5565b8355505b6001600288020188555050505b5050505050505b565b7f4e487b7100000000000000000000000000000000000000000000000000000000600052603160045260246000fd5b7f57616c6c657420646f6573206e6f742062656c6f6e6720746f2074686520616460008201527f6861617220686f6c646572210000000000000000000000000000000000000000602082015250565b600061458d602c8361374f565b915061459882614531565b604082019050919050565b600060208201905081810360008301526145bc81614580565b9050919050565b7f54686520686f7374206d75737420626520766572696669656421000000000000600082015250565b60006145f9601a8361374f565b9150614604826145c3565b602082019050919050565b60006020820190508181036000830152614628816145ec565b905091905056fea2646970667358221220088b5b049280fbddde17839986ba4ff06dafa5cfa9526ab5395f0b6ca5757c2764736f6c63430008110033",
  "linkReferences": {},
  "deployedLinkReferences": {}
}